{"abi":[{"inputs":[{"internalType":"string","name":"name","type":"string"},{"internalType":"address","name":"creator","type":"address"}],"stateMutability":"nonpayable","type":"constructor"},{"inputs":[],"name":"bestSeller","outputs":[{"internalType":"string","name":"","type":"string"}],"stateMutability":"view","type":"function"},{"inputs":[],"name":"bestSellerQuantity","outputs":[{"internalType":"uint256","name":"","type":"uint256"}],"stateMutability":"view","type":"function"},{"inputs":[{"internalType":"uint256","name":"index","type":"uint256"}],"name":"buy","outputs":[],"stateMutability":"payable","type":"function"},{"inputs":[{"internalType":"string","name":"description","type":"string"},{"internalType":"uint256","name":"price","type":"uint256"},{"internalType":"address","name":"seller","type":"address"}],"name":"createProduct","outputs":[],"stateMutability":"nonpayable","type":"function"},{"inputs":[],"name":"getProductsCount","outputs":[{"internalType":"uint256","name":"","type":"uint256"}],"stateMutability":"view","type":"function"},{"inputs":[{"internalType":"uint256","name":"index","type":"uint256"}],"name":"getProductsReviews","outputs":[{"internalType":"string[]","name":"","type":"string[]"}],"stateMutability":"view","type":"function"},{"inputs":[],"name":"getStoreSummary","outputs":[{"internalType":"uint256","name":"","type":"uint256"},{"internalType":"address","name":"","type":"address"},{"internalType":"string","name":"","type":"string"},{"internalType":"uint256","name":"","type":"uint256"},{"internalType":"string","name":"","type":"string"},{"internalType":"uint256","name":"","type":"uint256"},{"internalType":"uint256","name":"","type":"uint256"}],"stateMutability":"view","type":"function"},{"inputs":[],"name":"manager","outputs":[{"internalType":"address","name":"","type":"address"}],"stateMutability":"view","type":"function"},{"inputs":[],"name":"numProducts","outputs":[{"internalType":"uint256","name":"","type":"uint256"}],"stateMutability":"view","type":"function"},{"inputs":[],"name":"numStoreReviews","outputs":[{"internalType":"uint256","name":"","type":"uint256"}],"stateMutability":"view","type":"function"},{"inputs":[{"internalType":"uint256","name":"index","type":"uint256"},{"internalType":"bool","name":"available","type":"bool"}],"name":"productAvailable","outputs":[],"stateMutability":"nonpayable","type":"function"},{"inputs":[{"internalType":"uint256","name":"","type":"uint256"}],"name":"products","outputs":[{"internalType":"string","name":"description","type":"string"},{"internalType":"uint256","name":"price","type":"uint256"},{"internalType":"address","name":"seller","type":"address"},{"internalType":"bool","name":"available","type":"bool"},{"internalType":"uint256","name":"reviewScore","type":"uint256"},{"internalType":"uint256","name":"totalReviews","type":"uint256"},{"internalType":"uint256","name":"numSoldProduct","type":"uint256"}],"stateMutability":"view","type":"function"},{"inputs":[{"internalType":"uint256","name":"index","type":"uint256"},{"internalType":"uint256","name":"review","type":"uint256"},{"internalType":"string","name":"opinion","type":"string"}],"name":"reviewProduct","outputs":[{"internalType":"uint256","name":"","type":"uint256"},{"internalType":"string[]","name":"","type":"string[]"}],"stateMutability":"nonpayable","type":"function"},{"inputs":[{"internalType":"uint256","name":"review","type":"uint256"},{"internalType":"string","name":"opinion","type":"string"}],"name":"reviewStore","outputs":[{"internalType":"uint256","name":"","type":"uint256"},{"internalType":"string[]","name":"","type":"string[]"}],"stateMutability":"nonpayable","type":"function"},{"inputs":[],"name":"storeName","outputs":[{"internalType":"string","name":"","type":"string"}],"stateMutability":"view","type":"function"},{"inputs":[],"name":"storeScore","outputs":[{"internalType":"uint256","name":"","type":"uint256"}],"stateMutability":"view","type":"function"},{"inputs":[{"internalType":"uint256","name":"","type":"uint256"}],"name":"storeWrittenReviews","outputs":[{"internalType":"string","name":"","type":"string"}],"stateMutability":"view","type":"function"}],"devdoc":{"kind":"dev","methods":{},"version":1},"evm":{"assembly":"    /* \"Store.sol\":439:4739  contract Store {... */\n  mstore(0x40, 0x80)\n    /* \"Store.sol\":1307:1416  constructor(string memory name, address creator) {... */\n  callvalue\n  dup1\n  iszero\n  tag_1\n  jumpi\n  0x00\n  dup1\n  revert\ntag_1:\n  pop\n  mload(0x40)\n  sub(codesize, bytecodeSize)\n  dup1\n  bytecodeSize\n  dup4\n  codecopy\n  dup2\n  add\n  0x40\n  dup2\n  swap1\n  mstore\n  tag_2\n  swap2\n  tag_3\n  jump\t// in\ntag_2:\n    /* \"Store.sol\":1366:1382  storeName = name */\n  dup2\n  mload\n  tag_6\n  swap1\n    /* \"Store.sol\":1366:1375  storeName */\n  0x03\n  swap1\n    /* \"Store.sol\":1366:1382  storeName = name */\n  0x20\n  dup6\n  add\n  swap1\n  tag_7\n  jump\t// in\ntag_6:\n  pop\n    /* \"Store.sol\":1392:1399  manager */\n  0x00\n    /* \"Store.sol\":1392:1409  manager = creator */\n  dup1\n  sload\n  not(sub(shl(0xa0, 0x01), 0x01))\n  and\n  sub(shl(0xa0, 0x01), 0x01)\n  swap3\n  swap1\n  swap3\n  and\n  swap2\n  swap1\n  swap2\n  or\n  swap1\n  sstore\n  pop\n    /* \"Store.sol\":439:4739  contract Store {... */\n  jump(tag_20)\ntag_7:\n  dup3\n  dup1\n  sload\n  tag_9\n  swap1\n  tag_10\n  jump\t// in\ntag_9:\n  swap1\n  0x00\n  mstore\n  keccak256(0x00, 0x20)\n  swap1\n  0x1f\n  add\n  0x20\n  swap1\n  div\n  dup2\n  add\n  swap3\n  dup3\n  tag_12\n  jumpi\n  0x00\n  dup6\n  sstore\n  jump(tag_15)\ntag_12:\n  dup3\n  0x1f\n  lt\n  tag_13\n  jumpi\n  dup1\n  mload\n  not(0xff)\n  and\n  dup4\n  dup1\n  add\n  or\n  dup6\n  sstore\n  jump(tag_15)\ntag_13:\n  dup3\n  dup1\n  add\n  0x01\n  add\n  dup6\n  sstore\n  dup3\n  iszero\n  tag_15\n  jumpi\n  swap2\n  dup3\n  add\ntag_14:\n  dup3\n  dup2\n  gt\n  iszero\n  tag_15\n  jumpi\n  dup3\n  mload\n  dup3\n  sstore\n  swap2\n  0x20\n  add\n  swap2\n  swap1\n  0x01\n  add\n  swap1\n  jump(tag_14)\ntag_15:\n  pop\n  tag_16\n  swap3\n  swap2\n  pop\n  tag_17\n  jump\t// in\ntag_16:\n  pop\n  swap1\n  jump\t// out\ntag_17:\ntag_18:\n  dup1\n  dup3\n  gt\n  iszero\n  tag_16\n  jumpi\n  0x00\n  dup2\n  sstore\n  0x01\n  add\n  jump(tag_18)\n    /* \"#utility.yul\":14:191   */\ntag_21:\n    /* \"#utility.yul\":93:106   */\n  dup1\n  mload\n  sub(shl(0xa0, 0x01), 0x01)\n    /* \"#utility.yul\":135:166   */\n  dup2\n  and\n    /* \"#utility.yul\":125:167   */\n  dup2\n  eq\n    /* \"#utility.yul\":115:185   */\n  tag_23\n  jumpi\n    /* \"#utility.yul\":181:182   */\n  0x00\n    /* \"#utility.yul\":178:179   */\n  dup1\n    /* \"#utility.yul\":171:183   */\n  revert\n    /* \"#utility.yul\":115:185   */\ntag_23:\n    /* \"#utility.yul\":14:191   */\n  swap2\n  swap1\n  pop\n  jump\t// out\n    /* \"#utility.yul\":196:1370   */\ntag_3:\n    /* \"#utility.yul\":285:291   */\n  0x00\n    /* \"#utility.yul\":293:299   */\n  dup1\n    /* \"#utility.yul\":346:348   */\n  0x40\n    /* \"#utility.yul\":334:343   */\n  dup4\n    /* \"#utility.yul\":325:332   */\n  dup6\n    /* \"#utility.yul\":321:344   */\n  sub\n    /* \"#utility.yul\":317:349   */\n  slt\n    /* \"#utility.yul\":314:366   */\n  iszero\n  tag_25\n  jumpi\n    /* \"#utility.yul\":362:363   */\n  0x00\n    /* \"#utility.yul\":359:360   */\n  dup1\n    /* \"#utility.yul\":352:364   */\n  revert\n    /* \"#utility.yul\":314:366   */\ntag_25:\n    /* \"#utility.yul\":389:405   */\n  dup3\n  mload\n  0xffffffffffffffff\n    /* \"#utility.yul\":454:468   */\n  dup1\n  dup3\n  gt\n    /* \"#utility.yul\":451:485   */\n  iszero\n  tag_26\n  jumpi\n    /* \"#utility.yul\":481:482   */\n  0x00\n    /* \"#utility.yul\":478:479   */\n  dup1\n    /* \"#utility.yul\":471:483   */\n  revert\n    /* \"#utility.yul\":451:485   */\ntag_26:\n    /* \"#utility.yul\":519:525   */\n  dup2\n    /* \"#utility.yul\":508:517   */\n  dup6\n    /* \"#utility.yul\":504:526   */\n  add\n    /* \"#utility.yul\":494:526   */\n  swap2\n  pop\n    /* \"#utility.yul\":564:571   */\n  dup6\n    /* \"#utility.yul\":557:561   */\n  0x1f\n    /* \"#utility.yul\":553:555   */\n  dup4\n    /* \"#utility.yul\":549:562   */\n  add\n    /* \"#utility.yul\":545:572   */\n  slt\n    /* \"#utility.yul\":535:590   */\n  tag_27\n  jumpi\n    /* \"#utility.yul\":586:587   */\n  0x00\n    /* \"#utility.yul\":583:584   */\n  dup1\n    /* \"#utility.yul\":576:588   */\n  revert\n    /* \"#utility.yul\":535:590   */\ntag_27:\n    /* \"#utility.yul\":615:617   */\n  dup2\n    /* \"#utility.yul\":609:618   */\n  mload\n    /* \"#utility.yul\":637:639   */\n  dup2\n    /* \"#utility.yul\":633:635   */\n  dup2\n    /* \"#utility.yul\":630:640   */\n  gt\n    /* \"#utility.yul\":627:663   */\n  iszero\n  tag_29\n  jumpi\n    /* \"#utility.yul\":643:661   */\n  tag_29\n  tag_30\n  jump\t// in\ntag_29:\n    /* \"#utility.yul\":718:720   */\n  0x40\n    /* \"#utility.yul\":712:721   */\n  mload\n    /* \"#utility.yul\":686:688   */\n  0x1f\n    /* \"#utility.yul\":772:785   */\n  dup3\n  add\n  not(0x1f)\n    /* \"#utility.yul\":768:790   */\n  swap1\n  dup2\n  and\n    /* \"#utility.yul\":792:794   */\n  0x3f\n    /* \"#utility.yul\":764:795   */\n  add\n    /* \"#utility.yul\":760:800   */\n  and\n    /* \"#utility.yul\":748:801   */\n  dup2\n  add\n  swap1\n    /* \"#utility.yul\":816:834   */\n  dup4\n  dup3\n  gt\n    /* \"#utility.yul\":836:858   */\n  dup2\n  dup4\n  lt\n    /* \"#utility.yul\":813:859   */\n  or\n    /* \"#utility.yul\":810:882   */\n  iszero\n  tag_32\n  jumpi\n    /* \"#utility.yul\":862:880   */\n  tag_32\n  tag_30\n  jump\t// in\ntag_32:\n    /* \"#utility.yul\":902:912   */\n  dup2\n    /* \"#utility.yul\":898:900   */\n  0x40\n    /* \"#utility.yul\":891:913   */\n  mstore\n    /* \"#utility.yul\":937:939   */\n  dup3\n    /* \"#utility.yul\":929:935   */\n  dup2\n    /* \"#utility.yul\":922:940   */\n  mstore\n    /* \"#utility.yul\":959:963   */\n  0x20\n    /* \"#utility.yul\":949:963   */\n  swap4\n  pop\n    /* \"#utility.yul\":1000:1007   */\n  dup9\n    /* \"#utility.yul\":995:997   */\n  dup5\n    /* \"#utility.yul\":990:992   */\n  dup5\n    /* \"#utility.yul\":986:988   */\n  dup8\n    /* \"#utility.yul\":982:993   */\n  add\n    /* \"#utility.yul\":978:998   */\n  add\n    /* \"#utility.yul\":975:1008   */\n  gt\n    /* \"#utility.yul\":972:1025   */\n  iszero\n  tag_33\n  jumpi\n    /* \"#utility.yul\":1021:1022   */\n  0x00\n    /* \"#utility.yul\":1018:1019   */\n  dup1\n    /* \"#utility.yul\":1011:1023   */\n  revert\n    /* \"#utility.yul\":972:1025   */\ntag_33:\n    /* \"#utility.yul\":1043:1044   */\n  0x00\n    /* \"#utility.yul\":1034:1044   */\n  swap2\n  pop\n    /* \"#utility.yul\":1053:1182   */\ntag_34:\n    /* \"#utility.yul\":1067:1069   */\n  dup3\n    /* \"#utility.yul\":1064:1065   */\n  dup3\n    /* \"#utility.yul\":1061:1070   */\n  lt\n    /* \"#utility.yul\":1053:1182   */\n  iszero\n  tag_36\n  jumpi\n    /* \"#utility.yul\":1155:1165   */\n  dup5\n  dup3\n  add\n    /* \"#utility.yul\":1151:1170   */\n  dup5\n  add\n    /* \"#utility.yul\":1145:1171   */\n  mload\n    /* \"#utility.yul\":1124:1138   */\n  dup2\n  dup4\n  add\n    /* \"#utility.yul\":1120:1143   */\n  dup6\n  add\n    /* \"#utility.yul\":1113:1172   */\n  mstore\n    /* \"#utility.yul\":1078:1088   */\n  swap1\n  dup4\n  add\n  swap1\n    /* \"#utility.yul\":1053:1182   */\n  jump(tag_34)\ntag_36:\n    /* \"#utility.yul\":1200:1202   */\n  dup3\n    /* \"#utility.yul\":1197:1198   */\n  dup3\n    /* \"#utility.yul\":1194:1203   */\n  gt\n    /* \"#utility.yul\":1191:1271   */\n  iszero\n  tag_37\n  jumpi\n    /* \"#utility.yul\":1259:1260   */\n  0x00\n    /* \"#utility.yul\":1254:1256   */\n  dup5\n    /* \"#utility.yul\":1249:1251   */\n  dup5\n    /* \"#utility.yul\":1241:1247   */\n  dup4\n    /* \"#utility.yul\":1237:1252   */\n  add\n    /* \"#utility.yul\":1233:1257   */\n  add\n    /* \"#utility.yul\":1226:1261   */\n  mstore\n    /* \"#utility.yul\":1191:1271   */\ntag_37:\n    /* \"#utility.yul\":1290:1296   */\n  swap6\n  pop\n    /* \"#utility.yul\":1315:1364   */\n  tag_38\n  swap2\n  pop\n  pop\n    /* \"#utility.yul\":1345:1363   */\n  dup6\n  dup3\n  add\n    /* \"#utility.yul\":1315:1364   */\n  tag_21\n  jump\t// in\ntag_38:\n    /* \"#utility.yul\":1305:1364   */\n  swap3\n  pop\n  pop\n  pop\n    /* \"#utility.yul\":196:1370   */\n  swap3\n  pop\n  swap3\n  swap1\n  pop\n  jump\t// out\n    /* \"#utility.yul\":1375:1755   */\ntag_10:\n    /* \"#utility.yul\":1454:1455   */\n  0x01\n    /* \"#utility.yul\":1450:1462   */\n  dup2\n  dup2\n  shr\n  swap1\n    /* \"#utility.yul\":1497:1509   */\n  dup3\n  and\n  dup1\n    /* \"#utility.yul\":1518:1579   */\n  tag_40\n  jumpi\n    /* \"#utility.yul\":1572:1576   */\n  0x7f\n    /* \"#utility.yul\":1564:1570   */\n  dup3\n    /* \"#utility.yul\":1560:1577   */\n  and\n    /* \"#utility.yul\":1550:1577   */\n  swap2\n  pop\n    /* \"#utility.yul\":1518:1579   */\ntag_40:\n    /* \"#utility.yul\":1625:1627   */\n  0x20\n    /* \"#utility.yul\":1617:1623   */\n  dup3\n    /* \"#utility.yul\":1614:1628   */\n  lt\n    /* \"#utility.yul\":1594:1612   */\n  dup2\n    /* \"#utility.yul\":1591:1629   */\n  eq\n    /* \"#utility.yul\":1588:1749   */\n  iszero\n  tag_41\n  jumpi\n    /* \"#utility.yul\":1671:1681   */\n  0x4e487b71\n    /* \"#utility.yul\":1666:1669   */\n  0xe0\n    /* \"#utility.yul\":1662:1682   */\n  shl\n    /* \"#utility.yul\":1659:1660   */\n  0x00\n    /* \"#utility.yul\":1652:1683   */\n  mstore\n    /* \"#utility.yul\":1706:1710   */\n  0x22\n    /* \"#utility.yul\":1703:1704   */\n  0x04\n    /* \"#utility.yul\":1696:1711   */\n  mstore\n    /* \"#utility.yul\":1734:1738   */\n  0x24\n    /* \"#utility.yul\":1731:1732   */\n  0x00\n    /* \"#utility.yul\":1724:1739   */\n  revert\n    /* \"#utility.yul\":1588:1749   */\ntag_41:\n  pop\n    /* \"#utility.yul\":1375:1755   */\n  swap2\n  swap1\n  pop\n  jump\t// out\n    /* \"#utility.yul\":1760:1887   */\ntag_30:\n    /* \"#utility.yul\":1821:1831   */\n  0x4e487b71\n    /* \"#utility.yul\":1816:1819   */\n  0xe0\n    /* \"#utility.yul\":1812:1832   */\n  shl\n    /* \"#utility.yul\":1809:1810   */\n  0x00\n    /* \"#utility.yul\":1802:1833   */\n  mstore\n    /* \"#utility.yul\":1852:1856   */\n  0x41\n    /* \"#utility.yul\":1849:1850   */\n  0x04\n    /* \"#utility.yul\":1842:1857   */\n  mstore\n    /* \"#utility.yul\":1876:1880   */\n  0x24\n    /* \"#utility.yul\":1873:1874   */\n  0x00\n    /* \"#utility.yul\":1866:1881   */\n  revert\n    /* \"#utility.yul\":1760:1887   */\ntag_20:\n    /* \"Store.sol\":439:4739  contract Store {... */\n  dataSize(sub_0)\n  dup1\n  dataOffset(sub_0)\n  0x00\n  codecopy\n  0x00\n  return\nstop\n\nsub_0: assembly {\n        /* \"Store.sol\":439:4739  contract Store {... */\n      mstore(0x40, 0x80)\n      jumpi(tag_1, lt(calldatasize, 0x04))\n      shr(0xe0, calldataload(0x00))\n      dup1\n      0x521936e6\n      gt\n      tag_19\n      jumpi\n      dup1\n      0x8dc51887\n      gt\n      tag_20\n      jumpi\n      dup1\n      0x8dc51887\n      eq\n      tag_14\n      jumpi\n      dup1\n      0xac964f21\n      eq\n      tag_15\n      jumpi\n      dup1\n      0xb1b53c38\n      eq\n      tag_16\n      jumpi\n      dup1\n      0xd69d5094\n      eq\n      tag_17\n      jumpi\n      dup1\n      0xd96a094a\n      eq\n      tag_18\n      jumpi\n      0x00\n      dup1\n      revert\n    tag_20:\n      dup1\n      0x521936e6\n      eq\n      tag_10\n      jumpi\n      dup1\n      0x5786fd40\n      eq\n      tag_11\n      jumpi\n      dup1\n      0x7acc0b20\n      eq\n      tag_12\n      jumpi\n      dup1\n      0x8d8ef2f0\n      eq\n      tag_13\n      jumpi\n      0x00\n      dup1\n      revert\n    tag_19:\n      dup1\n      0x2c0d259d\n      gt\n      tag_21\n      jumpi\n      dup1\n      0x2c0d259d\n      eq\n      tag_6\n      jumpi\n      dup1\n      0x481c6a75\n      eq\n      tag_7\n      jumpi\n      dup1\n      0x4a02990c\n      eq\n      tag_8\n      jumpi\n      dup1\n      0x4a64090b\n      eq\n      tag_9\n      jumpi\n      0x00\n      dup1\n      revert\n    tag_21:\n      dup1\n      0xf73d4c\n      eq\n      tag_2\n      jumpi\n      dup1\n      0x06acdcfe\n      eq\n      tag_3\n      jumpi\n      dup1\n      0x07aa0bc4\n      eq\n      tag_4\n      jumpi\n      dup1\n      0x0a366cc8\n      eq\n      tag_5\n      jumpi\n    tag_1:\n      0x00\n      dup1\n      revert\n        /* \"Store.sol\":2706:3465  function reviewProduct(uint index, uint review, string memory opinion) public returns (uint, string[] memory) {... */\n    tag_2:\n      callvalue\n      dup1\n      iszero\n      tag_22\n      jumpi\n      0x00\n      dup1\n      revert\n    tag_22:\n      pop\n      tag_23\n      tag_24\n      calldatasize\n      0x04\n      tag_25\n      jump\t// in\n    tag_24:\n      tag_26\n      jump\t// in\n    tag_23:\n      mload(0x40)\n      tag_27\n      swap3\n      swap2\n      swap1\n      tag_28\n      jump\t// in\n    tag_27:\n      mload(0x40)\n      dup1\n      swap2\n      sub\n      swap1\n      return\n        /* \"Store.sol\":981:1008  uint public numStoreReviews */\n    tag_3:\n      callvalue\n      dup1\n      iszero\n      tag_29\n      jumpi\n      0x00\n      dup1\n      revert\n    tag_29:\n      pop\n      tag_30\n      sload(0x05)\n      dup2\n      jump\n    tag_30:\n      mload(0x40)\n        /* \"#utility.yul\":5326:5351   */\n      swap1\n      dup2\n      mstore\n        /* \"#utility.yul\":5314:5316   */\n      0x20\n        /* \"#utility.yul\":5299:5317   */\n      add\n        /* \"Store.sol\":981:1008  uint public numStoreReviews */\n      tag_27\n        /* \"#utility.yul\":5180:5357   */\n      jump\n        /* \"Store.sol\":1171:1201  uint public bestSellerQuantity */\n    tag_4:\n      callvalue\n      dup1\n      iszero\n      tag_34\n      jumpi\n      0x00\n      dup1\n      revert\n    tag_34:\n      pop\n      tag_30\n      sload(0x0a)\n      dup2\n      jump\n        /* \"Store.sol\":4508:4640  function getProductsReviews(uint index) public view returns (string[] memory) {... */\n    tag_5:\n      callvalue\n      dup1\n      iszero\n      tag_38\n      jumpi\n      0x00\n      dup1\n      revert\n    tag_38:\n      pop\n      tag_39\n      tag_40\n      calldatasize\n      0x04\n      tag_41\n      jump\t// in\n    tag_40:\n      tag_42\n      jump\t// in\n    tag_39:\n      mload(0x40)\n      tag_27\n      swap2\n      swap1\n      tag_44\n      jump\t// in\n        /* \"Store.sol\":3475:4105  function reviewStore(uint review, string memory opinion) public returns (uint, string[] memory) {... */\n    tag_6:\n      callvalue\n      dup1\n      iszero\n      tag_45\n      jumpi\n      0x00\n      dup1\n      revert\n    tag_45:\n      pop\n      tag_23\n      tag_47\n      calldatasize\n      0x04\n      tag_48\n      jump\t// in\n    tag_47:\n      tag_49\n      jump\t// in\n        /* \"Store.sol\":819:841  address public manager */\n    tag_7:\n      callvalue\n      dup1\n      iszero\n      tag_51\n      jumpi\n      0x00\n      dup1\n      revert\n    tag_51:\n      pop\n      sload(0x00)\n      tag_52\n      swap1\n      sub(shl(0xa0, 0x01), 0x01)\n      and\n      dup2\n      jump\n    tag_52:\n      mload(0x40)\n      sub(shl(0xa0, 0x01), 0x01)\n        /* \"#utility.yul\":3934:3966   */\n      swap2\n      swap1\n      swap2\n      and\n        /* \"#utility.yul\":3916:3967   */\n      dup2\n      mstore\n        /* \"#utility.yul\":3904:3906   */\n      0x20\n        /* \"#utility.yul\":3889:3907   */\n      add\n        /* \"Store.sol\":819:841  address public manager */\n      tag_27\n        /* \"#utility.yul\":3770:3973   */\n      jump\n        /* \"Store.sol\":4115:4241  function productAvailable(uint index, bool available) public restricted {... */\n    tag_8:\n      callvalue\n      dup1\n      iszero\n      tag_56\n      jumpi\n      0x00\n      dup1\n      revert\n    tag_56:\n      pop\n      tag_57\n      tag_58\n      calldatasize\n      0x04\n      tag_59\n      jump\t// in\n    tag_58:\n      tag_60\n      jump\t// in\n    tag_57:\n      stop\n        /* \"Store.sol\":1141:1165  string public bestSeller */\n    tag_9:\n      callvalue\n      dup1\n      iszero\n      tag_61\n      jumpi\n      0x00\n      dup1\n      revert\n    tag_61:\n      pop\n      tag_62\n      tag_63\n      jump\t// in\n    tag_62:\n      mload(0x40)\n      tag_27\n      swap2\n      swap1\n      tag_65\n      jump\t// in\n        /* \"Store.sol\":923:946  string public storeName */\n    tag_10:\n      callvalue\n      dup1\n      iszero\n      tag_66\n      jumpi\n      0x00\n      dup1\n      revert\n    tag_66:\n      pop\n      tag_62\n      tag_68\n      jump\t// in\n        /* \"Store.sol\":4646:4737  function getProductsCount()  public view returns (uint) {... */\n    tag_11:\n      callvalue\n      dup1\n      iszero\n      tag_70\n      jumpi\n      0x00\n      dup1\n      revert\n    tag_70:\n      pop\n        /* \"Store.sol\":4719:4730  numProducts */\n      sload(0x01)\n        /* \"Store.sol\":4646:4737  function getProductsCount()  public view returns (uint) {... */\n      jump(tag_30)\n        /* \"Store.sol\":876:917  mapping (uint => Product) public products */\n    tag_12:\n      callvalue\n      dup1\n      iszero\n      tag_74\n      jumpi\n      0x00\n      dup1\n      revert\n    tag_74:\n      pop\n      tag_75\n      tag_76\n      calldatasize\n      0x04\n      tag_41\n      jump\t// in\n    tag_76:\n      tag_77\n      jump\t// in\n    tag_75:\n      mload(0x40)\n      tag_27\n      swap8\n      swap7\n      swap6\n      swap5\n      swap4\n      swap3\n      swap2\n      swap1\n      tag_79\n      jump\t// in\n        /* \"Store.sol\":952:975  uint public  storeScore */\n    tag_13:\n      callvalue\n      dup1\n      iszero\n      tag_80\n      jumpi\n      0x00\n      dup1\n      revert\n    tag_80:\n      pop\n      tag_30\n      sload(0x04)\n      dup2\n      jump\n        /* \"Store.sol\":1972:2696  function createProduct(string memory description, uint price, address seller) public restricted {... */\n    tag_14:\n      callvalue\n      dup1\n      iszero\n      tag_84\n      jumpi\n      0x00\n      dup1\n      revert\n    tag_84:\n      pop\n      tag_57\n      tag_86\n      calldatasize\n      0x04\n      tag_87\n      jump\t// in\n    tag_86:\n      tag_88\n      jump\t// in\n        /* \"Store.sol\":847:870  uint public numProducts */\n    tag_15:\n      callvalue\n      dup1\n      iszero\n      tag_89\n      jumpi\n      0x00\n      dup1\n      revert\n    tag_89:\n      pop\n      tag_30\n      sload(0x01)\n      dup2\n      jump\n        /* \"Store.sol\":1014:1049  string[] public storeWrittenReviews */\n    tag_16:\n      callvalue\n      dup1\n      iszero\n      tag_93\n      jumpi\n      0x00\n      dup1\n      revert\n    tag_93:\n      pop\n      tag_62\n      tag_95\n      calldatasize\n      0x04\n      tag_41\n      jump\t// in\n    tag_95:\n      tag_96\n      jump\t// in\n        /* \"Store.sol\":4251:4498  function getStoreSummary() public view returns (... */\n    tag_17:\n      callvalue\n      dup1\n      iszero\n      tag_98\n      jumpi\n      0x00\n      dup1\n      revert\n    tag_98:\n      pop\n      tag_99\n      tag_100\n      jump\t// in\n    tag_99:\n      mload(0x40)\n      tag_27\n      swap8\n      swap7\n      swap6\n      swap5\n      swap4\n      swap3\n      swap2\n      swap1\n      tag_102\n      jump\t// in\n        /* \"Store.sol\":1426:1962  function buy(uint index) public payable {... */\n    tag_18:\n      tag_57\n      tag_104\n      calldatasize\n      0x04\n      tag_41\n      jump\t// in\n    tag_104:\n      tag_105\n      jump\t// in\n        /* \"Store.sol\":2706:3465  function reviewProduct(uint index, uint review, string memory opinion) public returns (uint, string[] memory) {... */\n    tag_26:\n        /* \"Store.sol\":2793:2797  uint */\n      0x00\n        /* \"Store.sol\":2852:2867  products[index] */\n      dup4\n      dup2\n      mstore\n        /* \"Store.sol\":2852:2860  products */\n      0x02\n        /* \"Store.sol\":2852:2867  products[index] */\n      0x20\n      swap1\n      dup2\n      mstore\n      0x40\n      dup1\n      dup4\n      keccak256\n        /* \"Store.sol\":2909:2919  msg.sender */\n      caller\n        /* \"Store.sol\":2894:2920  product.buyers[msg.sender] */\n      dup5\n      mstore\n        /* \"Store.sol\":2894:2908  product.buyers */\n      0x07\n      dup2\n      add\n        /* \"Store.sol\":2894:2920  product.buyers[msg.sender] */\n      swap1\n      swap3\n      mstore\n      dup3\n      keccak256\n      sload\n        /* \"Store.sol\":2799:2814  string[] memory */\n      0x60\n      swap2\n        /* \"Store.sol\":2852:2867  products[index] */\n      swap1\n        /* \"Store.sol\":2894:2920  product.buyers[msg.sender] */\n      0xff\n      and\n        /* \"Store.sol\":2886:2921  require(product.buyers[msg.sender]) */\n      tag_107\n      jumpi\n      0x00\n      dup1\n      revert\n    tag_107:\n        /* \"Store.sol\":2994:3004  msg.sender */\n      caller\n        /* \"Store.sol\":2978:3005  product.reviews[msg.sender] */\n      0x00\n      swap1\n      dup2\n      mstore\n        /* \"Store.sol\":2978:2993  product.reviews */\n      0x08\n      dup3\n      add\n        /* \"Store.sol\":2978:3005  product.reviews[msg.sender] */\n      0x20\n      mstore\n      0x40\n      swap1\n      keccak256\n      sload\n      0xff\n      and\n        /* \"Store.sol\":2977:3005  !product.reviews[msg.sender] */\n      iszero\n        /* \"Store.sol\":2969:3006  require(!product.reviews[msg.sender]) */\n      tag_108\n      jumpi\n      0x00\n      dup1\n      revert\n    tag_108:\n        /* \"Store.sol\":3086:3087  5 */\n      0x05\n        /* \"Store.sol\":3077:3083  review */\n      dup6\n        /* \"Store.sol\":3077:3087  review <=5 */\n      gt\n      iszero\n        /* \"Store.sol\":3077:3101  review <=5 && review > 0 */\n      dup1\n      iszero\n      tag_109\n      jumpi\n      pop\n        /* \"Store.sol\":3100:3101  0 */\n      0x00\n        /* \"Store.sol\":3091:3097  review */\n      dup6\n        /* \"Store.sol\":3091:3101  review > 0 */\n      gt\n        /* \"Store.sol\":3077:3101  review <=5 && review > 0 */\n    tag_109:\n        /* \"Store.sol\":3077:3122  review <=5 && review > 0 && (review % 1 == 0) */\n      dup1\n      iszero\n      tag_110\n      jumpi\n      pop\n        /* \"Store.sol\":3106:3116  review % 1 */\n      tag_111\n        /* \"Store.sol\":3115:3116  1 */\n      0x01\n        /* \"Store.sol\":3106:3112  review */\n      dup7\n        /* \"Store.sol\":3106:3116  review % 1 */\n      tag_112\n      jump\t// in\n    tag_111:\n        /* \"Store.sol\":3106:3121  review % 1 == 0 */\n      iszero\n        /* \"Store.sol\":3077:3122  review <=5 && review > 0 && (review % 1 == 0) */\n    tag_110:\n        /* \"Store.sol\":3069:3123  require(review <=5 && review > 0 && (review % 1 == 0)) */\n      tag_113\n      jumpi\n      0x00\n      dup1\n      revert\n    tag_113:\n        /* \"Store.sol\":3149:3159  msg.sender */\n      caller\n        /* \"Store.sol\":3133:3160  product.reviews[msg.sender] */\n      0x00\n      swap1\n      dup2\n      mstore\n        /* \"Store.sol\":3133:3148  product.reviews */\n      0x08\n      dup3\n      add\n        /* \"Store.sol\":3133:3160  product.reviews[msg.sender] */\n      0x20\n      mstore\n      0x40\n      dup2\n      keccak256\n        /* \"Store.sol\":3133:3167  product.reviews[msg.sender] = true */\n      dup1\n      sload\n      not(0xff)\n      and\n        /* \"Store.sol\":3163:3167  true */\n      0x01\n        /* \"Store.sol\":3133:3167  product.reviews[msg.sender] = true */\n      or\n      swap1\n      sstore\n        /* \"Store.sol\":3216:3236  product.totalReviews */\n      0x04\n      dup3\n      add\n        /* \"Store.sol\":3216:3238  product.totalReviews++ */\n      dup1\n      sload\n      swap2\n      tag_114\n      dup4\n      tag_115\n      jump\t// in\n    tag_114:\n      swap1\n      swap2\n      sstore\n      pop\n      pop\n        /* \"Store.sol\":3325:3345  product.totalReviews */\n      0x04\n      dup2\n      add\n      sload\n        /* \"Store.sol\":3325:3349  product.totalReviews + 1 */\n      tag_116\n      swap1\n        /* \"Store.sol\":3348:3349  1 */\n      0x01\n        /* \"Store.sol\":3325:3349  product.totalReviews + 1 */\n      tag_117\n      jump\t// in\n    tag_116:\n        /* \"Store.sol\":3314:3320  review */\n      dup6\n        /* \"Store.sol\":3291:3298  product */\n      dup3\n        /* \"Store.sol\":3291:3311  product.totalReviews */\n      0x04\n      add\n      sload\n        /* \"Store.sol\":3271:3278  product */\n      dup4\n        /* \"Store.sol\":3271:3290  product.reviewScore */\n      0x03\n      add\n      sload\n        /* \"Store.sol\":3271:3311  product.reviewScore*product.totalReviews */\n      tag_118\n      swap2\n      swap1\n      tag_119\n      jump\t// in\n    tag_118:\n        /* \"Store.sol\":3271:3320  product.reviewScore*product.totalReviews + review */\n      tag_120\n      swap2\n      swap1\n      tag_117\n      jump\t// in\n    tag_120:\n        /* \"Store.sol\":3270:3350  (product.reviewScore*product.totalReviews + review) / (product.totalReviews + 1) */\n      tag_121\n      swap2\n      swap1\n      tag_122\n      jump\t// in\n    tag_121:\n        /* \"Store.sol\":3248:3267  product.reviewScore */\n      0x03\n      dup3\n      add\n        /* \"Store.sol\":3248:3350  product.reviewScore = (product.reviewScore*product.totalReviews + review) / (product.totalReviews + 1) */\n      sstore\n        /* \"Store.sol\":3360:3382  product.writtenReviews */\n      0x05\n      dup2\n      add\n        /* \"Store.sol\":3360:3396  product.writtenReviews.push(opinion) */\n      dup1\n      sload\n      0x01\n      dup2\n      add\n      dup3\n      sstore\n      0x00\n      swap2\n      dup3\n      mstore\n      0x20\n      swap2\n      dup3\n      swap1\n      keccak256\n      dup7\n      mload\n      tag_124\n      swap4\n      swap2\n      swap1\n      swap3\n      add\n      swap2\n      swap1\n      dup8\n      add\n      swap1\n      tag_125\n      jump\t// in\n    tag_124:\n      pop\n        /* \"Store.sol\":3414:3421  product */\n      dup1\n        /* \"Store.sol\":3414:3433  product.reviewScore */\n      0x03\n      add\n      sload\n        /* \"Store.sol\":3435:3442  product */\n      dup2\n        /* \"Store.sol\":3435:3457  product.writtenReviews */\n      0x05\n      add\n        /* \"Store.sol\":3406:3458  return (product.reviewScore, product.writtenReviews) */\n      dup1\n      dup1\n      sload\n      dup1\n      0x20\n      mul\n      0x20\n      add\n      mload(0x40)\n      swap1\n      dup2\n      add\n      0x40\n      mstore\n      dup1\n      swap3\n      swap2\n      swap1\n      dup2\n      dup2\n      mstore\n      0x20\n      add\n      0x00\n      swap1\n    tag_126:\n      dup3\n      dup3\n      lt\n      iszero\n      tag_127\n      jumpi\n      dup4\n      dup3\n      swap1\n      0x00\n      mstore\n      keccak256(0x00, 0x20)\n      add\n      dup1\n      sload\n      tag_129\n      swap1\n      tag_130\n      jump\t// in\n    tag_129:\n      dup1\n      0x1f\n      add\n      0x20\n      dup1\n      swap2\n      div\n      mul\n      0x20\n      add\n      mload(0x40)\n      swap1\n      dup2\n      add\n      0x40\n      mstore\n      dup1\n      swap3\n      swap2\n      swap1\n      dup2\n      dup2\n      mstore\n      0x20\n      add\n      dup3\n      dup1\n      sload\n      tag_131\n      swap1\n      tag_130\n      jump\t// in\n    tag_131:\n      dup1\n      iszero\n      tag_132\n      jumpi\n      dup1\n      0x1f\n      lt\n      tag_133\n      jumpi\n      0x0100\n      dup1\n      dup4\n      sload\n      div\n      mul\n      dup4\n      mstore\n      swap2\n      0x20\n      add\n      swap2\n      jump(tag_132)\n    tag_133:\n      dup3\n      add\n      swap2\n      swap1\n      0x00\n      mstore\n      keccak256(0x00, 0x20)\n      swap1\n    tag_134:\n      dup2\n      sload\n      dup2\n      mstore\n      swap1\n      0x01\n      add\n      swap1\n      0x20\n      add\n      dup1\n      dup4\n      gt\n      tag_134\n      jumpi\n      dup3\n      swap1\n      sub\n      0x1f\n      and\n      dup3\n      add\n      swap2\n    tag_132:\n      pop\n      pop\n      pop\n      pop\n      pop\n      dup2\n      mstore\n      0x20\n      add\n      swap1\n      0x01\n      add\n      swap1\n      jump(tag_126)\n    tag_127:\n      pop\n      pop\n      pop\n      pop\n      swap1\n      pop\n      swap3\n      pop\n      swap3\n      pop\n      pop\n        /* \"Store.sol\":2706:3465  function reviewProduct(uint index, uint review, string memory opinion) public returns (uint, string[] memory) {... */\n      swap4\n      pop\n      swap4\n      swap2\n      pop\n      pop\n      jump\t// out\n        /* \"Store.sol\":4508:4640  function getProductsReviews(uint index) public view returns (string[] memory) {... */\n    tag_42:\n        /* \"Store.sol\":4569:4584  string[] memory */\n      0x60\n        /* \"Store.sol\":4603:4611  products */\n      0x02\n        /* \"Store.sol\":4603:4618  products[index] */\n      0x00\n        /* \"Store.sol\":4612:4617  index */\n      dup4\n        /* \"Store.sol\":4603:4618  products[index] */\n      dup2\n      mstore\n      0x20\n      add\n      swap1\n      dup2\n      mstore\n      0x20\n      add\n      0x00\n      keccak256\n        /* \"Store.sol\":4603:4633  products[index].writtenReviews */\n      0x05\n      add\n        /* \"Store.sol\":4596:4633  return products[index].writtenReviews */\n      dup1\n      sload\n      dup1\n      0x20\n      mul\n      0x20\n      add\n      mload(0x40)\n      swap1\n      dup2\n      add\n      0x40\n      mstore\n      dup1\n      swap3\n      swap2\n      swap1\n      dup2\n      dup2\n      mstore\n      0x20\n      add\n      0x00\n      swap1\n    tag_136:\n      dup3\n      dup3\n      lt\n      iszero\n      tag_137\n      jumpi\n      dup4\n      dup3\n      swap1\n      0x00\n      mstore\n      keccak256(0x00, 0x20)\n      add\n      dup1\n      sload\n      tag_139\n      swap1\n      tag_130\n      jump\t// in\n    tag_139:\n      dup1\n      0x1f\n      add\n      0x20\n      dup1\n      swap2\n      div\n      mul\n      0x20\n      add\n      mload(0x40)\n      swap1\n      dup2\n      add\n      0x40\n      mstore\n      dup1\n      swap3\n      swap2\n      swap1\n      dup2\n      dup2\n      mstore\n      0x20\n      add\n      dup3\n      dup1\n      sload\n      tag_140\n      swap1\n      tag_130\n      jump\t// in\n    tag_140:\n      dup1\n      iszero\n      tag_141\n      jumpi\n      dup1\n      0x1f\n      lt\n      tag_142\n      jumpi\n      0x0100\n      dup1\n      dup4\n      sload\n      div\n      mul\n      dup4\n      mstore\n      swap2\n      0x20\n      add\n      swap2\n      jump(tag_141)\n    tag_142:\n      dup3\n      add\n      swap2\n      swap1\n      0x00\n      mstore\n      keccak256(0x00, 0x20)\n      swap1\n    tag_143:\n      dup2\n      sload\n      dup2\n      mstore\n      swap1\n      0x01\n      add\n      swap1\n      0x20\n      add\n      dup1\n      dup4\n      gt\n      tag_143\n      jumpi\n      dup3\n      swap1\n      sub\n      0x1f\n      and\n      dup3\n      add\n      swap2\n    tag_141:\n      pop\n      pop\n      pop\n      pop\n      pop\n      dup2\n      mstore\n      0x20\n      add\n      swap1\n      0x01\n      add\n      swap1\n      jump(tag_136)\n    tag_137:\n      pop\n      pop\n      pop\n      pop\n      swap1\n      pop\n        /* \"Store.sol\":4508:4640  function getProductsReviews(uint index) public view returns (string[] memory) {... */\n      swap2\n      swap1\n      pop\n      jump\t// out\n        /* \"Store.sol\":3475:4105  function reviewStore(uint review, string memory opinion) public returns (uint, string[] memory) {... */\n    tag_49:\n        /* \"Store.sol\":3602:3612  msg.sender */\n      caller\n        /* \"Store.sol\":3548:3552  uint */\n      0x00\n        /* \"Store.sol\":3589:3613  storeShopper[msg.sender] */\n      swap1\n      dup2\n      mstore\n        /* \"Store.sol\":3589:3601  storeShopper */\n      0x07\n        /* \"Store.sol\":3589:3613  storeShopper[msg.sender] */\n      0x20\n      mstore\n      0x40\n      dup2\n      keccak256\n      sload\n        /* \"Store.sol\":3554:3569  string[] memory */\n      0x60\n      swap1\n        /* \"Store.sol\":3589:3613  storeShopper[msg.sender] */\n      0xff\n      and\n        /* \"Store.sol\":3581:3614  require(storeShopper[msg.sender]) */\n      tag_145\n      jumpi\n      0x00\n      dup1\n      revert\n    tag_145:\n        /* \"Store.sol\":3684:3694  msg.sender */\n      caller\n        /* \"Store.sol\":3671:3695  storeReviews[msg.sender] */\n      0x00\n      swap1\n      dup2\n      mstore\n        /* \"Store.sol\":3671:3683  storeReviews */\n      0x08\n        /* \"Store.sol\":3671:3695  storeReviews[msg.sender] */\n      0x20\n      mstore\n      0x40\n      swap1\n      keccak256\n      sload\n      0xff\n      and\n        /* \"Store.sol\":3670:3695  !storeReviews[msg.sender] */\n      iszero\n        /* \"Store.sol\":3662:3696  require(!storeReviews[msg.sender]) */\n      tag_146\n      jumpi\n      0x00\n      dup1\n      revert\n    tag_146:\n        /* \"Store.sol\":3776:3777  5 */\n      0x05\n        /* \"Store.sol\":3767:3773  review */\n      dup5\n        /* \"Store.sol\":3767:3777  review <=5 */\n      gt\n      iszero\n        /* \"Store.sol\":3767:3791  review <=5 && review > 0 */\n      dup1\n      iszero\n      tag_147\n      jumpi\n      pop\n        /* \"Store.sol\":3790:3791  0 */\n      0x00\n        /* \"Store.sol\":3781:3787  review */\n      dup5\n        /* \"Store.sol\":3781:3791  review > 0 */\n      gt\n        /* \"Store.sol\":3767:3791  review <=5 && review > 0 */\n    tag_147:\n        /* \"Store.sol\":3767:3812  review <=5 && review > 0 && (review % 1 == 0) */\n      dup1\n      iszero\n      tag_148\n      jumpi\n      pop\n        /* \"Store.sol\":3796:3806  review % 1 */\n      tag_149\n        /* \"Store.sol\":3805:3806  1 */\n      0x01\n        /* \"Store.sol\":3796:3802  review */\n      dup6\n        /* \"Store.sol\":3796:3806  review % 1 */\n      tag_112\n      jump\t// in\n    tag_149:\n        /* \"Store.sol\":3796:3811  review % 1 == 0 */\n      iszero\n        /* \"Store.sol\":3767:3812  review <=5 && review > 0 && (review % 1 == 0) */\n    tag_148:\n        /* \"Store.sol\":3759:3813  require(review <=5 && review > 0 && (review % 1 == 0)) */\n      tag_150\n      jumpi\n      0x00\n      dup1\n      revert\n    tag_150:\n        /* \"Store.sol\":3836:3846  msg.sender */\n      caller\n        /* \"Store.sol\":3823:3847  storeReviews[msg.sender] */\n      0x00\n      swap1\n      dup2\n      mstore\n        /* \"Store.sol\":3823:3835  storeReviews */\n      0x08\n        /* \"Store.sol\":3823:3847  storeReviews[msg.sender] */\n      0x20\n      mstore\n      0x40\n      dup2\n      keccak256\n        /* \"Store.sol\":3823:3854  storeReviews[msg.sender] = true */\n      dup1\n      sload\n      not(0xff)\n      and\n        /* \"Store.sol\":3850:3854  true */\n      0x01\n        /* \"Store.sol\":3823:3854  storeReviews[msg.sender] = true */\n      or\n      swap1\n      sstore\n        /* \"Store.sol\":3903:3918  numStoreReviews */\n      0x05\n        /* \"Store.sol\":3903:3920  numStoreReviews++ */\n      dup1\n      sload\n      swap2\n      tag_151\n      dup4\n      tag_115\n      jump\t// in\n    tag_151:\n      swap1\n      swap2\n      sstore\n      pop\n      pop\n        /* \"Store.sol\":3989:4004  numStoreReviews */\n      sload(0x05)\n        /* \"Store.sol\":3978:3984  review */\n      dup5\n        /* \"Store.sol\":3956:3974  numStoreReviews -1 */\n      tag_152\n        /* \"Store.sol\":3973:3974  1 */\n      0x01\n        /* \"Store.sol\":3989:4004  numStoreReviews */\n      dup4\n        /* \"Store.sol\":3956:3974  numStoreReviews -1 */\n      tag_153\n      jump\t// in\n    tag_152:\n        /* \"Store.sol\":3944:3954  storeScore */\n      sload(0x04)\n        /* \"Store.sol\":3944:3975  storeScore*(numStoreReviews -1) */\n      tag_154\n      swap2\n      swap1\n      tag_119\n      jump\t// in\n    tag_154:\n        /* \"Store.sol\":3944:3984  storeScore*(numStoreReviews -1) + review */\n      tag_155\n      swap2\n      swap1\n      tag_117\n      jump\t// in\n    tag_155:\n        /* \"Store.sol\":3943:4005  (storeScore*(numStoreReviews -1) + review) / (numStoreReviews) */\n      tag_156\n      swap2\n      swap1\n      tag_122\n      jump\t// in\n    tag_156:\n        /* \"Store.sol\":3930:3940  storeScore */\n      0x04\n        /* \"Store.sol\":3930:4005  storeScore = (storeScore*(numStoreReviews -1) + review) / (numStoreReviews) */\n      sstore\n        /* \"Store.sol\":4015:4034  storeWrittenReviews */\n      0x06\n        /* \"Store.sol\":4015:4048  storeWrittenReviews.push(opinion) */\n      dup1\n      sload\n      0x01\n      dup2\n      add\n      dup3\n      sstore\n      0x00\n      swap2\n      swap1\n      swap2\n      mstore\n      dup4\n      mload\n      tag_158\n      swap2\n      0xf652222313e28459528d920b65115c16c04f3efc82aaedc97be59f3f377c0d3f\n      add\n      swap1\n      0x20\n      dup7\n      add\n      swap1\n      tag_125\n      jump\t// in\n    tag_158:\n      pop\n        /* \"Store.sol\":4066:4076  storeScore */\n      sload(0x04)\n        /* \"Store.sol\":4078:4097  storeWrittenReviews */\n      0x06\n        /* \"Store.sol\":4058:4098  return (storeScore, storeWrittenReviews) */\n      dup1\n      dup1\n      sload\n      dup1\n      0x20\n      mul\n      0x20\n      add\n      mload(0x40)\n      swap1\n      dup2\n      add\n      0x40\n      mstore\n      dup1\n      swap3\n      swap2\n      swap1\n      dup2\n      dup2\n      mstore\n      0x20\n      add\n      0x00\n      swap1\n    tag_159:\n      dup3\n      dup3\n      lt\n      iszero\n      tag_160\n      jumpi\n      dup4\n      dup3\n      swap1\n      0x00\n      mstore\n      keccak256(0x00, 0x20)\n      add\n      dup1\n      sload\n      tag_162\n      swap1\n      tag_130\n      jump\t// in\n    tag_162:\n      dup1\n      0x1f\n      add\n      0x20\n      dup1\n      swap2\n      div\n      mul\n      0x20\n      add\n      mload(0x40)\n      swap1\n      dup2\n      add\n      0x40\n      mstore\n      dup1\n      swap3\n      swap2\n      swap1\n      dup2\n      dup2\n      mstore\n      0x20\n      add\n      dup3\n      dup1\n      sload\n      tag_163\n      swap1\n      tag_130\n      jump\t// in\n    tag_163:\n      dup1\n      iszero\n      tag_164\n      jumpi\n      dup1\n      0x1f\n      lt\n      tag_165\n      jumpi\n      0x0100\n      dup1\n      dup4\n      sload\n      div\n      mul\n      dup4\n      mstore\n      swap2\n      0x20\n      add\n      swap2\n      jump(tag_164)\n    tag_165:\n      dup3\n      add\n      swap2\n      swap1\n      0x00\n      mstore\n      keccak256(0x00, 0x20)\n      swap1\n    tag_166:\n      dup2\n      sload\n      dup2\n      mstore\n      swap1\n      0x01\n      add\n      swap1\n      0x20\n      add\n      dup1\n      dup4\n      gt\n      tag_166\n      jumpi\n      dup3\n      swap1\n      sub\n      0x1f\n      and\n      dup3\n      add\n      swap2\n    tag_164:\n      pop\n      pop\n      pop\n      pop\n      pop\n      dup2\n      mstore\n      0x20\n      add\n      swap1\n      0x01\n      add\n      swap1\n      jump(tag_159)\n    tag_160:\n      pop\n      pop\n      pop\n      pop\n      swap1\n      pop\n      swap2\n      pop\n      swap2\n      pop\n        /* \"Store.sol\":3475:4105  function reviewStore(uint review, string memory opinion) public returns (uint, string[] memory) {... */\n      swap3\n      pop\n      swap3\n      swap1\n      pop\n      jump\t// out\n        /* \"Store.sol\":4115:4241  function productAvailable(uint index, bool available) public restricted {... */\n    tag_60:\n        /* \"Store.sol\":1271:1278  manager */\n      and(sub(shl(0xa0, 0x01), 0x01), sload(0x00))\n        /* \"Store.sol\":1257:1267  msg.sender */\n      caller\n        /* \"Store.sol\":1257:1278  msg.sender == manager */\n      eq\n        /* \"Store.sol\":1249:1279  require(msg.sender == manager) */\n      tag_168\n      jumpi\n      0x00\n      dup1\n      revert\n    tag_168:\n        /* \"Store.sol\":4197:4212  products[index] */\n      0x00\n      swap2\n      dup3\n      mstore\n        /* \"Store.sol\":4197:4205  products */\n      0x02\n        /* \"Store.sol\":4197:4212  products[index] */\n      0x20\n      dup2\n      swap1\n      mstore\n      0x40\n      swap1\n      swap3\n      keccak256\n        /* \"Store.sol\":4197:4222  products[index].available */\n      swap1\n      swap2\n      add\n        /* \"Store.sol\":4197:4234  products[index].available = available */\n      dup1\n      sload\n      swap2\n      iszero\n      iszero\n      shl(0xa0, 0x01)\n      mul\n      not(shl(0xa0, 0xff))\n      swap1\n      swap3\n      and\n      swap2\n      swap1\n      swap2\n      or\n      swap1\n      sstore\n        /* \"Store.sol\":4115:4241  function productAvailable(uint index, bool available) public restricted {... */\n      jump\t// out\n        /* \"Store.sol\":1141:1165  string public bestSeller */\n    tag_63:\n      0x09\n      dup1\n      sload\n      tag_170\n      swap1\n      tag_130\n      jump\t// in\n    tag_170:\n      dup1\n      0x1f\n      add\n      0x20\n      dup1\n      swap2\n      div\n      mul\n      0x20\n      add\n      mload(0x40)\n      swap1\n      dup2\n      add\n      0x40\n      mstore\n      dup1\n      swap3\n      swap2\n      swap1\n      dup2\n      dup2\n      mstore\n      0x20\n      add\n      dup3\n      dup1\n      sload\n      tag_171\n      swap1\n      tag_130\n      jump\t// in\n    tag_171:\n      dup1\n      iszero\n      tag_172\n      jumpi\n      dup1\n      0x1f\n      lt\n      tag_173\n      jumpi\n      0x0100\n      dup1\n      dup4\n      sload\n      div\n      mul\n      dup4\n      mstore\n      swap2\n      0x20\n      add\n      swap2\n      jump(tag_172)\n    tag_173:\n      dup3\n      add\n      swap2\n      swap1\n      0x00\n      mstore\n      keccak256(0x00, 0x20)\n      swap1\n    tag_174:\n      dup2\n      sload\n      dup2\n      mstore\n      swap1\n      0x01\n      add\n      swap1\n      0x20\n      add\n      dup1\n      dup4\n      gt\n      tag_174\n      jumpi\n      dup3\n      swap1\n      sub\n      0x1f\n      and\n      dup3\n      add\n      swap2\n    tag_172:\n      pop\n      pop\n      pop\n      pop\n      pop\n      dup2\n      jump\t// out\n        /* \"Store.sol\":923:946  string public storeName */\n    tag_68:\n      0x03\n      dup1\n      sload\n      tag_170\n      swap1\n      tag_130\n      jump\t// in\n        /* \"Store.sol\":876:917  mapping (uint => Product) public products */\n    tag_77:\n      mstore(0x20, 0x02)\n      0x00\n      swap1\n      dup2\n      mstore\n      0x40\n      swap1\n      keccak256\n      dup1\n      sload\n      dup2\n      swap1\n      tag_181\n      swap1\n      tag_130\n      jump\t// in\n    tag_181:\n      dup1\n      0x1f\n      add\n      0x20\n      dup1\n      swap2\n      div\n      mul\n      0x20\n      add\n      mload(0x40)\n      swap1\n      dup2\n      add\n      0x40\n      mstore\n      dup1\n      swap3\n      swap2\n      swap1\n      dup2\n      dup2\n      mstore\n      0x20\n      add\n      dup3\n      dup1\n      sload\n      tag_182\n      swap1\n      tag_130\n      jump\t// in\n    tag_182:\n      dup1\n      iszero\n      tag_183\n      jumpi\n      dup1\n      0x1f\n      lt\n      tag_184\n      jumpi\n      0x0100\n      dup1\n      dup4\n      sload\n      div\n      mul\n      dup4\n      mstore\n      swap2\n      0x20\n      add\n      swap2\n      jump(tag_183)\n    tag_184:\n      dup3\n      add\n      swap2\n      swap1\n      0x00\n      mstore\n      keccak256(0x00, 0x20)\n      swap1\n    tag_185:\n      dup2\n      sload\n      dup2\n      mstore\n      swap1\n      0x01\n      add\n      swap1\n      0x20\n      add\n      dup1\n      dup4\n      gt\n      tag_185\n      jumpi\n      dup3\n      swap1\n      sub\n      0x1f\n      and\n      dup3\n      add\n      swap2\n    tag_183:\n      pop\n      pop\n      pop\n      pop\n      0x01\n      dup4\n      add\n      sload\n      0x02\n      dup5\n      add\n      sload\n      0x03\n      dup6\n      add\n      sload\n      0x04\n      dup7\n      add\n      sload\n      0x06\n      swap1\n      swap7\n      add\n      sload\n      swap5\n      swap6\n      swap3\n      swap5\n      sub(shl(0xa0, 0x01), 0x01)\n      dup4\n      and\n      swap5\n      pop\n      shl(0xa0, 0x01)\n      swap1\n      swap3\n      div\n      0xff\n      and\n      swap3\n      swap1\n      swap2\n      dup8\n      jump\t// out\n        /* \"Store.sol\":1972:2696  function createProduct(string memory description, uint price, address seller) public restricted {... */\n    tag_88:\n        /* \"Store.sol\":1271:1278  manager */\n      and(sub(shl(0xa0, 0x01), 0x01), sload(0x00))\n        /* \"Store.sol\":1257:1267  msg.sender */\n      caller\n        /* \"Store.sol\":1257:1278  msg.sender == manager */\n      eq\n        /* \"Store.sol\":1249:1279  require(msg.sender == manager) */\n      tag_187\n      jumpi\n      0x00\n      dup1\n      revert\n    tag_187:\n        /* \"Store.sol\":2373:2384  numProducts */\n      0x01\n        /* \"Store.sol\":2373:2386  numProducts++ */\n      dup1\n      sload\n        /* \"Store.sol\":2335:2361  Product storage newProduct */\n      0x00\n      swap2\n        /* \"Store.sol\":2364:2372  products */\n      0x02\n      swap2\n        /* \"Store.sol\":2335:2361  Product storage newProduct */\n      dup4\n      swap2\n      dup3\n        /* \"Store.sol\":2373:2386  numProducts++ */\n      tag_189\n      dup4\n      tag_115\n      jump\t// in\n    tag_189:\n      swap1\n      swap2\n      sstore\n      pop\n        /* \"Store.sol\":2364:2387  products[numProducts++] */\n      dup2\n      mstore\n      0x20\n      dup1\n      dup3\n      add\n      swap3\n      swap1\n      swap3\n      mstore\n      0x40\n      add\n      0x00\n      keccak256\n        /* \"Store.sol\":2397:2433  newProduct.description = description */\n      dup6\n      mload\n        /* \"Store.sol\":2364:2387  products[numProducts++] */\n      swap1\n      swap3\n      pop\n        /* \"Store.sol\":2397:2433  newProduct.description = description */\n      tag_190\n      swap2\n        /* \"Store.sol\":2364:2387  products[numProducts++] */\n      dup4\n      swap2\n        /* \"Store.sol\":2397:2433  newProduct.description = description */\n      swap1\n      dup8\n      add\n      swap1\n      tag_125\n      jump\t// in\n    tag_190:\n      pop\n        /* \"Store.sol\":2443:2459  newProduct.price */\n      0x01\n      dup2\n      add\n        /* \"Store.sol\":2443:2467  newProduct.price = price */\n      swap3\n      swap1\n      swap3\n      sstore\n        /* \"Store.sol\":2477:2494  newProduct.seller */\n      0x02\n      dup3\n      add\n        /* \"Store.sol\":2477:2503  newProduct.seller = seller */\n      dup1\n      sload\n      sub(shl(0xa0, 0x01), 0x01)\n      swap3\n      swap1\n      swap3\n      and\n      not(sub(shl(0xa8, 0x01), 0x01))\n        /* \"Store.sol\":2513:2540  newProduct.available = true */\n      swap1\n      swap3\n      and\n      swap2\n      swap1\n      swap2\n      or\n      shl(0xa0, 0x01)\n      or\n      swap1\n      sstore\n        /* \"Store.sol\":2575:2576  5 */\n      0x05\n        /* \"Store.sol\":2550:2572  newProduct.reviewScore */\n      0x03\n      dup3\n      add\n        /* \"Store.sol\":2550:2576  newProduct.reviewScore = 5 */\n      sstore\n      0x00\n        /* \"Store.sol\":2586:2609  newProduct.totalReviews */\n      0x04\n      dup3\n      add\n        /* \"Store.sol\":2586:2613  newProduct.totalReviews = 0 */\n      dup2\n      swap1\n      sstore\n        /* \"Store.sol\":2623:2648  newProduct.numSoldProduct */\n      0x06\n      swap1\n      swap2\n      add\n        /* \"Store.sol\":2623:2652  newProduct.numSoldProduct = 0 */\n      sstore\n      pop\n        /* \"Store.sol\":1972:2696  function createProduct(string memory description, uint price, address seller) public restricted {... */\n      jump\t// out\n        /* \"Store.sol\":1014:1049  string[] public storeWrittenReviews */\n    tag_96:\n      0x06\n      dup2\n      dup2\n      sload\n      dup2\n      lt\n      tag_191\n      jumpi\n      0x00\n      dup1\n      revert\n    tag_191:\n      swap1\n      0x00\n      mstore\n      keccak256(0x00, 0x20)\n      add\n      0x00\n      swap2\n      pop\n      swap1\n      pop\n      dup1\n      sload\n      tag_170\n      swap1\n      tag_130\n      jump\t// in\n        /* \"Store.sol\":4251:4498  function getStoreSummary() public view returns (... */\n    tag_100:\n        /* \"Store.sol\":4308:4312  uint */\n      0x00\n        /* \"Store.sol\":4314:4321  address */\n      dup1\n        /* \"Store.sol\":4323:4336  string memory */\n      0x60\n        /* \"Store.sol\":4338:4342  uint */\n      0x00\n        /* \"Store.sol\":4344:4357  string memory */\n      0x60\n        /* \"Store.sol\":4359:4363  uint */\n      0x00\n        /* \"Store.sol\":4365:4369  uint */\n      dup1\n        /* \"Store.sol\":4398:4409  numProducts */\n      sload(0x01)\n        /* \"Store.sol\":4411:4418  manager */\n      0x00\n      dup1\n      sload\n      swap1\n      0x0100\n      exp\n      swap1\n      div\n      0x01\n      dup1\n      0xa0\n      shl\n      sub\n      and\n        /* \"Store.sol\":4420:4430  bestSeller */\n      0x09\n        /* \"Store.sol\":4432:4450  bestSellerQuantity */\n      sload(0x0a)\n        /* \"Store.sol\":4452:4461  storeName */\n      0x03\n        /* \"Store.sol\":4463:4473  storeScore */\n      sload(0x04)\n        /* \"Store.sol\":4475:4490  numStoreReviews */\n      sload(0x05)\n        /* \"Store.sol\":4390:4491  return (numProducts, manager, bestSeller, bestSellerQuantity, storeName, storeScore, numStoreReviews) */\n      dup5\n      dup1\n      sload\n      tag_199\n      swap1\n      tag_130\n      jump\t// in\n    tag_199:\n      dup1\n      0x1f\n      add\n      0x20\n      dup1\n      swap2\n      div\n      mul\n      0x20\n      add\n      mload(0x40)\n      swap1\n      dup2\n      add\n      0x40\n      mstore\n      dup1\n      swap3\n      swap2\n      swap1\n      dup2\n      dup2\n      mstore\n      0x20\n      add\n      dup3\n      dup1\n      sload\n      tag_200\n      swap1\n      tag_130\n      jump\t// in\n    tag_200:\n      dup1\n      iszero\n      tag_201\n      jumpi\n      dup1\n      0x1f\n      lt\n      tag_202\n      jumpi\n      0x0100\n      dup1\n      dup4\n      sload\n      div\n      mul\n      dup4\n      mstore\n      swap2\n      0x20\n      add\n      swap2\n      jump(tag_201)\n    tag_202:\n      dup3\n      add\n      swap2\n      swap1\n      0x00\n      mstore\n      keccak256(0x00, 0x20)\n      swap1\n    tag_203:\n      dup2\n      sload\n      dup2\n      mstore\n      swap1\n      0x01\n      add\n      swap1\n      0x20\n      add\n      dup1\n      dup4\n      gt\n      tag_203\n      jumpi\n      dup3\n      swap1\n      sub\n      0x1f\n      and\n      dup3\n      add\n      swap2\n    tag_201:\n      pop\n      pop\n      pop\n      pop\n      pop\n      swap5\n      pop\n      dup3\n      dup1\n      sload\n      tag_204\n      swap1\n      tag_130\n      jump\t// in\n    tag_204:\n      dup1\n      0x1f\n      add\n      0x20\n      dup1\n      swap2\n      div\n      mul\n      0x20\n      add\n      mload(0x40)\n      swap1\n      dup2\n      add\n      0x40\n      mstore\n      dup1\n      swap3\n      swap2\n      swap1\n      dup2\n      dup2\n      mstore\n      0x20\n      add\n      dup3\n      dup1\n      sload\n      tag_205\n      swap1\n      tag_130\n      jump\t// in\n    tag_205:\n      dup1\n      iszero\n      tag_206\n      jumpi\n      dup1\n      0x1f\n      lt\n      tag_207\n      jumpi\n      0x0100\n      dup1\n      dup4\n      sload\n      div\n      mul\n      dup4\n      mstore\n      swap2\n      0x20\n      add\n      swap2\n      jump(tag_206)\n    tag_207:\n      dup3\n      add\n      swap2\n      swap1\n      0x00\n      mstore\n      keccak256(0x00, 0x20)\n      swap1\n    tag_208:\n      dup2\n      sload\n      dup2\n      mstore\n      swap1\n      0x01\n      add\n      swap1\n      0x20\n      add\n      dup1\n      dup4\n      gt\n      tag_208\n      jumpi\n      dup3\n      swap1\n      sub\n      0x1f\n      and\n      dup3\n      add\n      swap2\n    tag_206:\n      pop\n      pop\n      pop\n      pop\n      pop\n      swap3\n      pop\n      swap7\n      pop\n      swap7\n      pop\n      swap7\n      pop\n      swap7\n      pop\n      swap7\n      pop\n      swap7\n      pop\n      swap7\n      pop\n        /* \"Store.sol\":4251:4498  function getStoreSummary() public view returns (... */\n      swap1\n      swap2\n      swap3\n      swap4\n      swap5\n      swap6\n      swap7\n      jump\t// out\n        /* \"Store.sol\":1426:1962  function buy(uint index) public payable {... */\n    tag_105:\n        /* \"Store.sol\":1476:1499  Product storage product */\n      0x00\n        /* \"Store.sol\":1502:1517  products[index] */\n      dup2\n      dup2\n      mstore\n        /* \"Store.sol\":1502:1510  products */\n      0x02\n        /* \"Store.sol\":1502:1517  products[index] */\n      0x20\n      mstore\n      0x40\n      swap1\n      keccak256\n        /* \"Store.sol\":1557:1570  product.price */\n      0x01\n      dup2\n      add\n      sload\n        /* \"Store.sol\":1544:1553  msg.value */\n      callvalue\n        /* \"Store.sol\":1544:1570  msg.value == product.price */\n      eq\n        /* \"Store.sol\":1536:1571  require(msg.value == product.price) */\n      tag_210\n      jumpi\n      0x00\n      dup1\n      revert\n    tag_210:\n        /* \"Store.sol\":1589:1606  product.available */\n      0x02\n      dup2\n      add\n      sload\n      shl(0xa0, 0x01)\n      swap1\n      div\n      0xff\n      and\n        /* \"Store.sol\":1581:1607  require(product.available) */\n      tag_211\n      jumpi\n      0x00\n      dup1\n      revert\n    tag_211:\n        /* \"Store.sol\":1634:1648  product.seller */\n      0x02\n      dup2\n      add\n      sload\n        /* \"Store.sol\":1626:1669  payable(product.seller).transfer(msg.value) */\n      mload(0x40)\n      sub(shl(0xa0, 0x01), 0x01)\n        /* \"Store.sol\":1634:1648  product.seller */\n      swap1\n      swap2\n      and\n      swap1\n        /* \"Store.sol\":1659:1668  msg.value */\n      callvalue\n        /* \"Store.sol\":1626:1669  payable(product.seller).transfer(msg.value) */\n      dup1\n      iszero\n      0x08fc\n      mul\n      swap2\n        /* \"Store.sol\":1634:1648  product.seller */\n      0x00\n        /* \"Store.sol\":1626:1669  payable(product.seller).transfer(msg.value) */\n      dup2\n        /* \"Store.sol\":1634:1648  product.seller */\n      dup2\n        /* \"Store.sol\":1626:1669  payable(product.seller).transfer(msg.value) */\n      dup2\n        /* \"Store.sol\":1659:1668  msg.value */\n      dup6\n        /* \"Store.sol\":1634:1648  product.seller */\n      dup9\n        /* \"Store.sol\":1626:1669  payable(product.seller).transfer(msg.value) */\n      dup9\n      call\n      swap4\n      pop\n      pop\n      pop\n      pop\n      iszero\n      dup1\n      iszero\n      tag_213\n      jumpi\n      returndatasize\n      0x00\n      dup1\n      returndatacopy\n      revert(0x00, returndatasize)\n    tag_213:\n      pop\n        /* \"Store.sol\":1694:1704  msg.sender */\n      caller\n        /* \"Store.sol\":1679:1705  product.buyers[msg.sender] */\n      0x00\n      swap1\n      dup2\n      mstore\n        /* \"Store.sol\":1679:1693  product.buyers */\n      0x07\n      dup3\n      dup2\n      add\n        /* \"Store.sol\":1679:1705  product.buyers[msg.sender] */\n      0x20\n      swap1\n      dup2\n      mstore\n      0x40\n      dup1\n      dup5\n      keccak256\n        /* \"Store.sol\":1679:1712  product.buyers[msg.sender] = true */\n      dup1\n      sload\n        /* \"Store.sol\":1708:1712  true */\n      0x01\n      not(0xff)\n        /* \"Store.sol\":1679:1712  product.buyers[msg.sender] = true */\n      swap2\n      dup3\n      and\n      dup2\n      or\n      swap1\n      swap3\n      sstore\n        /* \"Store.sol\":1722:1746  storeShopper[msg.sender] */\n      swap4\n      swap1\n      swap3\n      mstore\n      dup4\n      keccak256\n        /* \"Store.sol\":1722:1753  storeShopper[msg.sender] = true */\n      dup1\n      sload\n      swap1\n      swap3\n      and\n      or\n      swap1\n      sstore\n        /* \"Store.sol\":1763:1785  product.numSoldProduct */\n      0x06\n      dup3\n      add\n        /* \"Store.sol\":1763:1787  product.numSoldProduct++ */\n      dup1\n      sload\n      swap2\n      tag_214\n      dup4\n      tag_115\n      jump\t// in\n    tag_214:\n      swap2\n      swap1\n      pop\n      sstore\n      pop\n        /* \"Store.sol\":1823:1841  bestSellerQuantity */\n      sload(0x0a)\n        /* \"Store.sol\":1800:1807  product */\n      dup2\n        /* \"Store.sol\":1800:1822  product.numSoldProduct */\n      0x06\n      add\n      sload\n        /* \"Store.sol\":1800:1841  product.numSoldProduct>bestSellerQuantity */\n      gt\n        /* \"Store.sol\":1797:1956  if(product.numSoldProduct>bestSellerQuantity){... */\n      iszero\n      tag_215\n      jumpi\n        /* \"Store.sol\":1856:1888  bestSeller = product.description */\n      dup1\n      sload\n        /* \"Store.sol\":1856:1866  bestSeller */\n      0x09\n      swap1\n        /* \"Store.sol\":1869:1876  product */\n      dup3\n      swap1\n        /* \"Store.sol\":1856:1888  bestSeller = product.description */\n      tag_216\n      swap1\n      tag_130\n      jump\t// in\n    tag_216:\n      tag_217\n      swap3\n      swap2\n      swap1\n      tag_218\n      jump\t// in\n    tag_217:\n      pop\n        /* \"Store.sol\":1923:1945  product.numSoldProduct */\n      0x06\n      dup2\n      add\n      sload\n        /* \"Store.sol\":1902:1920  bestSellerQuantity */\n      0x0a\n        /* \"Store.sol\":1902:1945  bestSellerQuantity = product.numSoldProduct */\n      sstore\n        /* \"Store.sol\":1797:1956  if(product.numSoldProduct>bestSellerQuantity){... */\n    tag_215:\n        /* \"Store.sol\":1466:1962  {... */\n      pop\n        /* \"Store.sol\":1426:1962  function buy(uint index) public payable {... */\n      pop\n      jump\t// out\n    tag_125:\n      dup3\n      dup1\n      sload\n      tag_219\n      swap1\n      tag_130\n      jump\t// in\n    tag_219:\n      swap1\n      0x00\n      mstore\n      keccak256(0x00, 0x20)\n      swap1\n      0x1f\n      add\n      0x20\n      swap1\n      div\n      dup2\n      add\n      swap3\n      dup3\n      tag_221\n      jumpi\n      0x00\n      dup6\n      sstore\n      jump(tag_224)\n    tag_221:\n      dup3\n      0x1f\n      lt\n      tag_222\n      jumpi\n      dup1\n      mload\n      not(0xff)\n      and\n      dup4\n      dup1\n      add\n      or\n      dup6\n      sstore\n      jump(tag_224)\n    tag_222:\n      dup3\n      dup1\n      add\n      0x01\n      add\n      dup6\n      sstore\n      dup3\n      iszero\n      tag_224\n      jumpi\n      swap2\n      dup3\n      add\n    tag_223:\n      dup3\n      dup2\n      gt\n      iszero\n      tag_224\n      jumpi\n      dup3\n      mload\n      dup3\n      sstore\n      swap2\n      0x20\n      add\n      swap2\n      swap1\n      0x01\n      add\n      swap1\n      jump(tag_223)\n    tag_224:\n      pop\n      tag_225\n      swap3\n      swap2\n      pop\n      tag_226\n      jump\t// in\n    tag_225:\n      pop\n      swap1\n      jump\t// out\n    tag_218:\n      dup3\n      dup1\n      sload\n      tag_227\n      swap1\n      tag_130\n      jump\t// in\n    tag_227:\n      swap1\n      0x00\n      mstore\n      keccak256(0x00, 0x20)\n      swap1\n      0x1f\n      add\n      0x20\n      swap1\n      div\n      dup2\n      add\n      swap3\n      dup3\n      tag_229\n      jumpi\n      0x00\n      dup6\n      sstore\n      jump(tag_224)\n    tag_229:\n      dup3\n      0x1f\n      lt\n      tag_230\n      jumpi\n      dup1\n      sload\n      dup6\n      sstore\n      jump(tag_224)\n    tag_230:\n      dup3\n      dup1\n      add\n      0x01\n      add\n      dup6\n      sstore\n      dup3\n      iszero\n      tag_224\n      jumpi\n      0x00\n      mstore\n      keccak256(0x00, 0x20)\n      swap2\n      0x1f\n      add\n      0x20\n      swap1\n      div\n      dup3\n      add\n    tag_231:\n      dup3\n      dup2\n      gt\n      iszero\n      tag_224\n      jumpi\n      dup3\n      sload\n      dup3\n      sstore\n      swap2\n      0x01\n      add\n      swap2\n      swap1\n      0x01\n      add\n      swap1\n      jump(tag_231)\n    tag_226:\n    tag_234:\n      dup1\n      dup3\n      gt\n      iszero\n      tag_225\n      jumpi\n      0x00\n      dup2\n      sstore\n      0x01\n      add\n      jump(tag_234)\n        /* \"#utility.yul\":14:733   */\n    tag_237:\n        /* \"#utility.yul\":57:62   */\n      0x00\n        /* \"#utility.yul\":110:113   */\n      dup3\n        /* \"#utility.yul\":103:107   */\n      0x1f\n        /* \"#utility.yul\":95:101   */\n      dup4\n        /* \"#utility.yul\":91:108   */\n      add\n        /* \"#utility.yul\":87:114   */\n      slt\n        /* \"#utility.yul\":77:132   */\n      tag_239\n      jumpi\n        /* \"#utility.yul\":128:129   */\n      0x00\n        /* \"#utility.yul\":125:126   */\n      dup1\n        /* \"#utility.yul\":118:130   */\n      revert\n        /* \"#utility.yul\":77:132   */\n    tag_239:\n        /* \"#utility.yul\":164:170   */\n      dup2\n        /* \"#utility.yul\":151:171   */\n      calldataload\n        /* \"#utility.yul\":190:208   */\n      0xffffffffffffffff\n        /* \"#utility.yul\":227:229   */\n      dup1\n        /* \"#utility.yul\":223:225   */\n      dup3\n        /* \"#utility.yul\":220:230   */\n      gt\n        /* \"#utility.yul\":217:253   */\n      iszero\n      tag_241\n      jumpi\n        /* \"#utility.yul\":233:251   */\n      tag_241\n      tag_242\n      jump\t// in\n    tag_241:\n        /* \"#utility.yul\":308:310   */\n      0x40\n        /* \"#utility.yul\":302:311   */\n      mload\n        /* \"#utility.yul\":276:278   */\n      0x1f\n        /* \"#utility.yul\":362:375   */\n      dup4\n      add\n      not(0x1f)\n        /* \"#utility.yul\":358:380   */\n      swap1\n      dup2\n      and\n        /* \"#utility.yul\":382:384   */\n      0x3f\n        /* \"#utility.yul\":354:385   */\n      add\n        /* \"#utility.yul\":350:390   */\n      and\n        /* \"#utility.yul\":338:391   */\n      dup2\n      add\n      swap1\n        /* \"#utility.yul\":406:424   */\n      dup3\n      dup3\n      gt\n        /* \"#utility.yul\":426:448   */\n      dup2\n      dup4\n      lt\n        /* \"#utility.yul\":403:449   */\n      or\n        /* \"#utility.yul\":400:472   */\n      iszero\n      tag_244\n      jumpi\n        /* \"#utility.yul\":452:470   */\n      tag_244\n      tag_242\n      jump\t// in\n    tag_244:\n        /* \"#utility.yul\":492:502   */\n      dup2\n        /* \"#utility.yul\":488:490   */\n      0x40\n        /* \"#utility.yul\":481:503   */\n      mstore\n        /* \"#utility.yul\":527:529   */\n      dup4\n        /* \"#utility.yul\":519:525   */\n      dup2\n        /* \"#utility.yul\":512:530   */\n      mstore\n        /* \"#utility.yul\":573:576   */\n      dup7\n        /* \"#utility.yul\":566:570   */\n      0x20\n        /* \"#utility.yul\":561:563   */\n      dup6\n        /* \"#utility.yul\":553:559   */\n      dup9\n        /* \"#utility.yul\":549:564   */\n      add\n        /* \"#utility.yul\":545:571   */\n      add\n        /* \"#utility.yul\":542:577   */\n      gt\n        /* \"#utility.yul\":539:594   */\n      iszero\n      tag_245\n      jumpi\n        /* \"#utility.yul\":590:591   */\n      0x00\n        /* \"#utility.yul\":587:588   */\n      dup1\n        /* \"#utility.yul\":580:592   */\n      revert\n        /* \"#utility.yul\":539:594   */\n    tag_245:\n        /* \"#utility.yul\":654:656   */\n      dup4\n        /* \"#utility.yul\":647:651   */\n      0x20\n        /* \"#utility.yul\":639:645   */\n      dup8\n        /* \"#utility.yul\":635:652   */\n      add\n        /* \"#utility.yul\":628:632   */\n      0x20\n        /* \"#utility.yul\":620:626   */\n      dup4\n        /* \"#utility.yul\":616:633   */\n      add\n        /* \"#utility.yul\":603:657   */\n      calldatacopy\n        /* \"#utility.yul\":701:702   */\n      0x00\n        /* \"#utility.yul\":694:698   */\n      0x20\n        /* \"#utility.yul\":689:691   */\n      dup6\n        /* \"#utility.yul\":681:687   */\n      dup4\n        /* \"#utility.yul\":677:692   */\n      add\n        /* \"#utility.yul\":673:699   */\n      add\n        /* \"#utility.yul\":666:703   */\n      mstore\n        /* \"#utility.yul\":721:727   */\n      dup1\n        /* \"#utility.yul\":712:727   */\n      swap5\n      pop\n      pop\n      pop\n      pop\n      pop\n        /* \"#utility.yul\":14:733   */\n      swap3\n      swap2\n      pop\n      pop\n      jump\t// out\n        /* \"#utility.yul\":738:1302   */\n    tag_87:\n        /* \"#utility.yul\":825:831   */\n      0x00\n        /* \"#utility.yul\":833:839   */\n      dup1\n        /* \"#utility.yul\":841:847   */\n      0x00\n        /* \"#utility.yul\":894:896   */\n      0x60\n        /* \"#utility.yul\":882:891   */\n      dup5\n        /* \"#utility.yul\":873:880   */\n      dup7\n        /* \"#utility.yul\":869:892   */\n      sub\n        /* \"#utility.yul\":865:897   */\n      slt\n        /* \"#utility.yul\":862:914   */\n      iszero\n      tag_247\n      jumpi\n        /* \"#utility.yul\":910:911   */\n      0x00\n        /* \"#utility.yul\":907:908   */\n      dup1\n        /* \"#utility.yul\":900:912   */\n      revert\n        /* \"#utility.yul\":862:914   */\n    tag_247:\n        /* \"#utility.yul\":950:959   */\n      dup4\n        /* \"#utility.yul\":937:960   */\n      calldataload\n        /* \"#utility.yul\":983:1001   */\n      0xffffffffffffffff\n        /* \"#utility.yul\":975:981   */\n      dup2\n        /* \"#utility.yul\":972:1002   */\n      gt\n        /* \"#utility.yul\":969:1019   */\n      iszero\n      tag_248\n      jumpi\n        /* \"#utility.yul\":1015:1016   */\n      0x00\n        /* \"#utility.yul\":1012:1013   */\n      dup1\n        /* \"#utility.yul\":1005:1017   */\n      revert\n        /* \"#utility.yul\":969:1019   */\n    tag_248:\n        /* \"#utility.yul\":1038:1088   */\n      tag_249\n        /* \"#utility.yul\":1080:1087   */\n      dup7\n        /* \"#utility.yul\":1071:1077   */\n      dup3\n        /* \"#utility.yul\":1060:1069   */\n      dup8\n        /* \"#utility.yul\":1056:1078   */\n      add\n        /* \"#utility.yul\":1038:1088   */\n      tag_237\n      jump\t// in\n    tag_249:\n        /* \"#utility.yul\":1028:1088   */\n      swap4\n      pop\n      pop\n        /* \"#utility.yul\":1135:1137   */\n      0x20\n        /* \"#utility.yul\":1120:1138   */\n      dup5\n      add\n        /* \"#utility.yul\":1107:1139   */\n      calldataload\n      swap2\n      pop\n        /* \"#utility.yul\":1189:1191   */\n      0x40\n        /* \"#utility.yul\":1174:1192   */\n      dup5\n      add\n        /* \"#utility.yul\":1161:1193   */\n      calldataload\n      sub(shl(0xa0, 0x01), 0x01)\n        /* \"#utility.yul\":1222:1253   */\n      dup2\n      and\n        /* \"#utility.yul\":1212:1254   */\n      dup2\n      eq\n        /* \"#utility.yul\":1202:1272   */\n      tag_250\n      jumpi\n        /* \"#utility.yul\":1268:1269   */\n      0x00\n        /* \"#utility.yul\":1265:1266   */\n      dup1\n        /* \"#utility.yul\":1258:1270   */\n      revert\n        /* \"#utility.yul\":1202:1272   */\n    tag_250:\n        /* \"#utility.yul\":1291:1296   */\n      dup1\n        /* \"#utility.yul\":1281:1296   */\n      swap2\n      pop\n      pop\n        /* \"#utility.yul\":738:1302   */\n      swap3\n      pop\n      swap3\n      pop\n      swap3\n      jump\t// out\n        /* \"#utility.yul\":1307:1487   */\n    tag_41:\n        /* \"#utility.yul\":1366:1372   */\n      0x00\n        /* \"#utility.yul\":1419:1421   */\n      0x20\n        /* \"#utility.yul\":1407:1416   */\n      dup3\n        /* \"#utility.yul\":1398:1405   */\n      dup5\n        /* \"#utility.yul\":1394:1417   */\n      sub\n        /* \"#utility.yul\":1390:1422   */\n      slt\n        /* \"#utility.yul\":1387:1439   */\n      iszero\n      tag_252\n      jumpi\n        /* \"#utility.yul\":1435:1436   */\n      0x00\n        /* \"#utility.yul\":1432:1433   */\n      dup1\n        /* \"#utility.yul\":1425:1437   */\n      revert\n        /* \"#utility.yul\":1387:1439   */\n    tag_252:\n      pop\n        /* \"#utility.yul\":1458:1481   */\n      calldataload\n      swap2\n        /* \"#utility.yul\":1307:1487   */\n      swap1\n      pop\n      jump\t// out\n        /* \"#utility.yul\":1492:1833   */\n    tag_59:\n        /* \"#utility.yul\":1557:1563   */\n      0x00\n        /* \"#utility.yul\":1565:1571   */\n      dup1\n        /* \"#utility.yul\":1618:1620   */\n      0x40\n        /* \"#utility.yul\":1606:1615   */\n      dup4\n        /* \"#utility.yul\":1597:1604   */\n      dup6\n        /* \"#utility.yul\":1593:1616   */\n      sub\n        /* \"#utility.yul\":1589:1621   */\n      slt\n        /* \"#utility.yul\":1586:1638   */\n      iszero\n      tag_254\n      jumpi\n        /* \"#utility.yul\":1634:1635   */\n      0x00\n        /* \"#utility.yul\":1631:1632   */\n      dup1\n        /* \"#utility.yul\":1624:1636   */\n      revert\n        /* \"#utility.yul\":1586:1638   */\n    tag_254:\n        /* \"#utility.yul\":1670:1679   */\n      dup3\n        /* \"#utility.yul\":1657:1680   */\n      calldataload\n        /* \"#utility.yul\":1647:1680   */\n      swap2\n      pop\n        /* \"#utility.yul\":1730:1732   */\n      0x20\n        /* \"#utility.yul\":1719:1728   */\n      dup4\n        /* \"#utility.yul\":1715:1733   */\n      add\n        /* \"#utility.yul\":1702:1734   */\n      calldataload\n        /* \"#utility.yul\":1777:1782   */\n      dup1\n        /* \"#utility.yul\":1770:1783   */\n      iszero\n        /* \"#utility.yul\":1763:1784   */\n      iszero\n        /* \"#utility.yul\":1756:1761   */\n      dup2\n        /* \"#utility.yul\":1753:1785   */\n      eq\n        /* \"#utility.yul\":1743:1803   */\n      tag_255\n      jumpi\n        /* \"#utility.yul\":1799:1800   */\n      0x00\n        /* \"#utility.yul\":1796:1797   */\n      dup1\n        /* \"#utility.yul\":1789:1801   */\n      revert\n        /* \"#utility.yul\":1743:1803   */\n    tag_255:\n        /* \"#utility.yul\":1822:1827   */\n      dup1\n        /* \"#utility.yul\":1812:1827   */\n      swap2\n      pop\n      pop\n        /* \"#utility.yul\":1492:1833   */\n      swap3\n      pop\n      swap3\n      swap1\n      pop\n      jump\t// out\n        /* \"#utility.yul\":1838:2228   */\n    tag_48:\n        /* \"#utility.yul\":1916:1922   */\n      0x00\n        /* \"#utility.yul\":1924:1930   */\n      dup1\n        /* \"#utility.yul\":1977:1979   */\n      0x40\n        /* \"#utility.yul\":1965:1974   */\n      dup4\n        /* \"#utility.yul\":1956:1963   */\n      dup6\n        /* \"#utility.yul\":1952:1975   */\n      sub\n        /* \"#utility.yul\":1948:1980   */\n      slt\n        /* \"#utility.yul\":1945:1997   */\n      iszero\n      tag_257\n      jumpi\n        /* \"#utility.yul\":1993:1994   */\n      0x00\n        /* \"#utility.yul\":1990:1991   */\n      dup1\n        /* \"#utility.yul\":1983:1995   */\n      revert\n        /* \"#utility.yul\":1945:1997   */\n    tag_257:\n        /* \"#utility.yul\":2029:2038   */\n      dup3\n        /* \"#utility.yul\":2016:2039   */\n      calldataload\n        /* \"#utility.yul\":2006:2039   */\n      swap2\n      pop\n        /* \"#utility.yul\":2090:2092   */\n      0x20\n        /* \"#utility.yul\":2079:2088   */\n      dup4\n        /* \"#utility.yul\":2075:2093   */\n      add\n        /* \"#utility.yul\":2062:2094   */\n      calldataload\n        /* \"#utility.yul\":2117:2135   */\n      0xffffffffffffffff\n        /* \"#utility.yul\":2109:2115   */\n      dup2\n        /* \"#utility.yul\":2106:2136   */\n      gt\n        /* \"#utility.yul\":2103:2153   */\n      iszero\n      tag_258\n      jumpi\n        /* \"#utility.yul\":2149:2150   */\n      0x00\n        /* \"#utility.yul\":2146:2147   */\n      dup1\n        /* \"#utility.yul\":2139:2151   */\n      revert\n        /* \"#utility.yul\":2103:2153   */\n    tag_258:\n        /* \"#utility.yul\":2172:2222   */\n      tag_259\n        /* \"#utility.yul\":2214:2221   */\n      dup6\n        /* \"#utility.yul\":2205:2211   */\n      dup3\n        /* \"#utility.yul\":2194:2203   */\n      dup7\n        /* \"#utility.yul\":2190:2212   */\n      add\n        /* \"#utility.yul\":2172:2222   */\n      tag_237\n      jump\t// in\n    tag_259:\n        /* \"#utility.yul\":2162:2222   */\n      swap2\n      pop\n      pop\n        /* \"#utility.yul\":1838:2228   */\n      swap3\n      pop\n      swap3\n      swap1\n      pop\n      jump\t// out\n        /* \"#utility.yul\":2233:2691   */\n    tag_25:\n        /* \"#utility.yul\":2320:2326   */\n      0x00\n        /* \"#utility.yul\":2328:2334   */\n      dup1\n        /* \"#utility.yul\":2336:2342   */\n      0x00\n        /* \"#utility.yul\":2389:2391   */\n      0x60\n        /* \"#utility.yul\":2377:2386   */\n      dup5\n        /* \"#utility.yul\":2368:2375   */\n      dup7\n        /* \"#utility.yul\":2364:2387   */\n      sub\n        /* \"#utility.yul\":2360:2392   */\n      slt\n        /* \"#utility.yul\":2357:2409   */\n      iszero\n      tag_261\n      jumpi\n        /* \"#utility.yul\":2405:2406   */\n      0x00\n        /* \"#utility.yul\":2402:2403   */\n      dup1\n        /* \"#utility.yul\":2395:2407   */\n      revert\n        /* \"#utility.yul\":2357:2409   */\n    tag_261:\n        /* \"#utility.yul\":2441:2450   */\n      dup4\n        /* \"#utility.yul\":2428:2451   */\n      calldataload\n        /* \"#utility.yul\":2418:2451   */\n      swap3\n      pop\n        /* \"#utility.yul\":2498:2500   */\n      0x20\n        /* \"#utility.yul\":2487:2496   */\n      dup5\n        /* \"#utility.yul\":2483:2501   */\n      add\n        /* \"#utility.yul\":2470:2502   */\n      calldataload\n        /* \"#utility.yul\":2460:2502   */\n      swap2\n      pop\n        /* \"#utility.yul\":2553:2555   */\n      0x40\n        /* \"#utility.yul\":2542:2551   */\n      dup5\n        /* \"#utility.yul\":2538:2556   */\n      add\n        /* \"#utility.yul\":2525:2557   */\n      calldataload\n        /* \"#utility.yul\":2580:2598   */\n      0xffffffffffffffff\n        /* \"#utility.yul\":2572:2578   */\n      dup2\n        /* \"#utility.yul\":2569:2599   */\n      gt\n        /* \"#utility.yul\":2566:2616   */\n      iszero\n      tag_262\n      jumpi\n        /* \"#utility.yul\":2612:2613   */\n      0x00\n        /* \"#utility.yul\":2609:2610   */\n      dup1\n        /* \"#utility.yul\":2602:2614   */\n      revert\n        /* \"#utility.yul\":2566:2616   */\n    tag_262:\n        /* \"#utility.yul\":2635:2685   */\n      tag_263\n        /* \"#utility.yul\":2677:2684   */\n      dup7\n        /* \"#utility.yul\":2668:2674   */\n      dup3\n        /* \"#utility.yul\":2657:2666   */\n      dup8\n        /* \"#utility.yul\":2653:2675   */\n      add\n        /* \"#utility.yul\":2635:2685   */\n      tag_237\n      jump\t// in\n    tag_263:\n        /* \"#utility.yul\":2625:2685   */\n      swap2\n      pop\n      pop\n        /* \"#utility.yul\":2233:2691   */\n      swap3\n      pop\n      swap3\n      pop\n      swap3\n      jump\t// out\n        /* \"#utility.yul\":2696:3288   */\n    tag_264:\n        /* \"#utility.yul\":2748:2751   */\n      0x00\n        /* \"#utility.yul\":2779:2782   */\n      dup3\n        /* \"#utility.yul\":2811:2816   */\n      dup3\n        /* \"#utility.yul\":2805:2817   */\n      mload\n        /* \"#utility.yul\":2838:2844   */\n      dup1\n        /* \"#utility.yul\":2833:2836   */\n      dup6\n        /* \"#utility.yul\":2826:2845   */\n      mstore\n        /* \"#utility.yul\":2864:2868   */\n      0x20\n        /* \"#utility.yul\":2893:2895   */\n      dup1\n        /* \"#utility.yul\":2888:2891   */\n      dup7\n        /* \"#utility.yul\":2884:2896   */\n      add\n        /* \"#utility.yul\":2877:2896   */\n      swap6\n      pop\n        /* \"#utility.yul\":2949:2951   */\n      dup1\n        /* \"#utility.yul\":2939:2945   */\n      dup3\n        /* \"#utility.yul\":2936:2937   */\n      0x05\n        /* \"#utility.yul\":2932:2946   */\n      shl\n        /* \"#utility.yul\":2925:2930   */\n      dup5\n        /* \"#utility.yul\":2921:2947   */\n      add\n        /* \"#utility.yul\":2917:2952   */\n      add\n        /* \"#utility.yul\":2986:2988   */\n      dup2\n        /* \"#utility.yul\":2979:2984   */\n      dup7\n        /* \"#utility.yul\":2975:2989   */\n      add\n        /* \"#utility.yul\":3007:3008   */\n      0x00\n        /* \"#utility.yul\":3017:3262   */\n    tag_266:\n        /* \"#utility.yul\":3031:3037   */\n      dup5\n        /* \"#utility.yul\":3028:3029   */\n      dup2\n        /* \"#utility.yul\":3025:3038   */\n      lt\n        /* \"#utility.yul\":3017:3262   */\n      iszero\n      tag_268\n      jumpi\n        /* \"#utility.yul\":3118:3120   */\n      0x1f\n        /* \"#utility.yul\":3114:3121   */\n      not\n        /* \"#utility.yul\":3106:3111   */\n      dup7\n        /* \"#utility.yul\":3100:3104   */\n      dup5\n        /* \"#utility.yul\":3096:3112   */\n      sub\n        /* \"#utility.yul\":3092:3122   */\n      add\n        /* \"#utility.yul\":3087:3090   */\n      dup10\n        /* \"#utility.yul\":3080:3123   */\n      mstore\n        /* \"#utility.yul\":3144:3182   */\n      tag_269\n        /* \"#utility.yul\":3177:3181   */\n      dup4\n        /* \"#utility.yul\":3168:3174   */\n      dup4\n        /* \"#utility.yul\":3162:3175   */\n      mload\n        /* \"#utility.yul\":3144:3182   */\n      tag_270\n      jump\t// in\n    tag_269:\n        /* \"#utility.yul\":3240:3252   */\n      swap9\n      dup5\n      add\n      swap9\n        /* \"#utility.yul\":3136:3182   */\n      swap3\n      pop\n        /* \"#utility.yul\":3205:3220   */\n      swap1\n      dup4\n      add\n      swap1\n        /* \"#utility.yul\":3053:3054   */\n      0x01\n        /* \"#utility.yul\":3046:3055   */\n      add\n        /* \"#utility.yul\":3017:3262   */\n      jump(tag_266)\n    tag_268:\n      pop\n        /* \"#utility.yul\":3278:3282   */\n      swap1\n      swap8\n        /* \"#utility.yul\":2696:3288   */\n      swap7\n      pop\n      pop\n      pop\n      pop\n      pop\n      pop\n      pop\n      jump\t// out\n        /* \"#utility.yul\":3293:3765   */\n    tag_270:\n        /* \"#utility.yul\":3335:3338   */\n      0x00\n        /* \"#utility.yul\":3373:3378   */\n      dup2\n        /* \"#utility.yul\":3367:3379   */\n      mload\n        /* \"#utility.yul\":3400:3406   */\n      dup1\n        /* \"#utility.yul\":3395:3398   */\n      dup5\n        /* \"#utility.yul\":3388:3407   */\n      mstore\n        /* \"#utility.yul\":3425:3426   */\n      0x00\n        /* \"#utility.yul\":3435:3597   */\n    tag_272:\n        /* \"#utility.yul\":3449:3455   */\n      dup2\n        /* \"#utility.yul\":3446:3447   */\n      dup2\n        /* \"#utility.yul\":3443:3456   */\n      lt\n        /* \"#utility.yul\":3435:3597   */\n      iszero\n      tag_274\n      jumpi\n        /* \"#utility.yul\":3511:3515   */\n      0x20\n        /* \"#utility.yul\":3567:3580   */\n      dup2\n      dup6\n      add\n        /* \"#utility.yul\":3563:3585   */\n      dup2\n      add\n        /* \"#utility.yul\":3557:3586   */\n      mload\n        /* \"#utility.yul\":3539:3550   */\n      dup7\n      dup4\n      add\n        /* \"#utility.yul\":3535:3555   */\n      dup3\n      add\n        /* \"#utility.yul\":3528:3587   */\n      mstore\n        /* \"#utility.yul\":3464:3476   */\n      add\n        /* \"#utility.yul\":3435:3597   */\n      jump(tag_272)\n    tag_274:\n        /* \"#utility.yul\":3615:3621   */\n      dup2\n        /* \"#utility.yul\":3612:3613   */\n      dup2\n        /* \"#utility.yul\":3609:3622   */\n      gt\n        /* \"#utility.yul\":3606:3693   */\n      iszero\n      tag_275\n      jumpi\n        /* \"#utility.yul\":3681:3682   */\n      0x00\n        /* \"#utility.yul\":3674:3678   */\n      0x20\n        /* \"#utility.yul\":3665:3671   */\n      dup4\n        /* \"#utility.yul\":3660:3663   */\n      dup8\n        /* \"#utility.yul\":3656:3672   */\n      add\n        /* \"#utility.yul\":3652:3679   */\n      add\n        /* \"#utility.yul\":3645:3683   */\n      mstore\n        /* \"#utility.yul\":3606:3693   */\n    tag_275:\n      pop\n        /* \"#utility.yul\":3747:3749   */\n      0x1f\n        /* \"#utility.yul\":3726:3741   */\n      add\n      not(0x1f)\n        /* \"#utility.yul\":3722:3751   */\n      and\n        /* \"#utility.yul\":3713:3752   */\n      swap3\n      swap1\n      swap3\n      add\n        /* \"#utility.yul\":3754:3758   */\n      0x20\n        /* \"#utility.yul\":3709:3759   */\n      add\n      swap3\n        /* \"#utility.yul\":3293:3765   */\n      swap2\n      pop\n      pop\n      jump\t// out\n        /* \"#utility.yul\":3978:4258   */\n    tag_44:\n        /* \"#utility.yul\":4177:4179   */\n      0x20\n        /* \"#utility.yul\":4166:4175   */\n      dup2\n        /* \"#utility.yul\":4159:4180   */\n      mstore\n        /* \"#utility.yul\":4140:4144   */\n      0x00\n        /* \"#utility.yul\":4197:4252   */\n      tag_278\n        /* \"#utility.yul\":4248:4250   */\n      0x20\n        /* \"#utility.yul\":4237:4246   */\n      dup4\n        /* \"#utility.yul\":4233:4251   */\n      add\n        /* \"#utility.yul\":4225:4231   */\n      dup5\n        /* \"#utility.yul\":4197:4252   */\n      tag_264\n      jump\t// in\n    tag_278:\n        /* \"#utility.yul\":4189:4252   */\n      swap4\n        /* \"#utility.yul\":3978:4258   */\n      swap3\n      pop\n      pop\n      pop\n      jump\t// out\n        /* \"#utility.yul\":4263:4483   */\n    tag_65:\n        /* \"#utility.yul\":4412:4414   */\n      0x20\n        /* \"#utility.yul\":4401:4410   */\n      dup2\n        /* \"#utility.yul\":4394:4415   */\n      mstore\n        /* \"#utility.yul\":4375:4379   */\n      0x00\n        /* \"#utility.yul\":4432:4477   */\n      tag_278\n        /* \"#utility.yul\":4473:4475   */\n      0x20\n        /* \"#utility.yul\":4462:4471   */\n      dup4\n        /* \"#utility.yul\":4458:4476   */\n      add\n        /* \"#utility.yul\":4450:4456   */\n      dup5\n        /* \"#utility.yul\":4432:4477   */\n      tag_270\n      jump\t// in\n        /* \"#utility.yul\":4488:5175   */\n    tag_79:\n        /* \"#utility.yul\":4799:4802   */\n      0xe0\n        /* \"#utility.yul\":4788:4797   */\n      dup2\n        /* \"#utility.yul\":4781:4803   */\n      mstore\n        /* \"#utility.yul\":4762:4766   */\n      0x00\n        /* \"#utility.yul\":4820:4866   */\n      tag_282\n        /* \"#utility.yul\":4861:4864   */\n      0xe0\n        /* \"#utility.yul\":4850:4859   */\n      dup4\n        /* \"#utility.yul\":4846:4865   */\n      add\n        /* \"#utility.yul\":4838:4844   */\n      dup11\n        /* \"#utility.yul\":4820:4866   */\n      tag_270\n      jump\t// in\n    tag_282:\n        /* \"#utility.yul\":4897:4899   */\n      0x20\n        /* \"#utility.yul\":4882:4900   */\n      dup4\n      add\n        /* \"#utility.yul\":4875:4909   */\n      swap9\n      swap1\n      swap9\n      mstore\n      pop\n      sub(shl(0xa0, 0x01), 0x01)\n        /* \"#utility.yul\":4945:4977   */\n      swap6\n      swap1\n      swap6\n      and\n        /* \"#utility.yul\":4940:4942   */\n      0x40\n        /* \"#utility.yul\":4925:4943   */\n      dup7\n      add\n        /* \"#utility.yul\":4918:4978   */\n      mstore\n        /* \"#utility.yul\":5021:5035   */\n      swap3\n      iszero\n        /* \"#utility.yul\":5014:5036   */\n      iszero\n        /* \"#utility.yul\":5009:5011   */\n      0x60\n        /* \"#utility.yul\":4994:5012   */\n      dup6\n      add\n        /* \"#utility.yul\":4987:5037   */\n      mstore\n        /* \"#utility.yul\":5068:5071   */\n      0x80\n        /* \"#utility.yul\":5053:5072   */\n      dup5\n      add\n        /* \"#utility.yul\":5046:5081   */\n      swap2\n      swap1\n      swap2\n      mstore\n      0xa0\n        /* \"#utility.yul\":5097:5116   */\n      dup4\n      add\n        /* \"#utility.yul\":5090:5125   */\n      mstore\n        /* \"#utility.yul\":5156:5159   */\n      0xc0\n        /* \"#utility.yul\":5141:5160   */\n      swap1\n      swap2\n      add\n        /* \"#utility.yul\":5134:5169   */\n      mstore\n        /* \"#utility.yul\":4875:4909   */\n      swap2\n        /* \"#utility.yul\":4812:4866   */\n      swap1\n      pop\n        /* \"#utility.yul\":4488:5175   */\n      jump\t// out\n        /* \"#utility.yul\":5362:6131   */\n    tag_102:\n        /* \"#utility.yul\":5681:5706   */\n      dup8\n      dup2\n      mstore\n      sub(shl(0xa0, 0x01), 0x01)\n        /* \"#utility.yul\":5742:5774   */\n      dup8\n      and\n        /* \"#utility.yul\":5737:5739   */\n      0x20\n        /* \"#utility.yul\":5722:5740   */\n      dup3\n      add\n        /* \"#utility.yul\":5715:5775   */\n      mstore\n        /* \"#utility.yul\":5811:5814   */\n      0xe0\n        /* \"#utility.yul\":5806:5808   */\n      0x40\n        /* \"#utility.yul\":5791:5809   */\n      dup3\n      add\n        /* \"#utility.yul\":5784:5815   */\n      dup2\n      swap1\n      mstore\n      0x00\n      swap1\n        /* \"#utility.yul\":5838:5884   */\n      tag_285\n      swap1\n        /* \"#utility.yul\":5864:5883   */\n      dup4\n      add\n        /* \"#utility.yul\":5856:5862   */\n      dup9\n        /* \"#utility.yul\":5838:5884   */\n      tag_270\n      jump\t// in\n    tag_285:\n        /* \"#utility.yul\":5920:5926   */\n      dup7\n        /* \"#utility.yul\":5915:5917   */\n      0x60\n        /* \"#utility.yul\":5904:5913   */\n      dup5\n        /* \"#utility.yul\":5900:5918   */\n      add\n        /* \"#utility.yul\":5893:5927   */\n      mstore\n        /* \"#utility.yul\":5976:5985   */\n      dup3\n        /* \"#utility.yul\":5968:5974   */\n      dup2\n        /* \"#utility.yul\":5964:5986   */\n      sub\n        /* \"#utility.yul\":5958:5961   */\n      0x80\n        /* \"#utility.yul\":5947:5956   */\n      dup5\n        /* \"#utility.yul\":5943:5962   */\n      add\n        /* \"#utility.yul\":5936:5987   */\n      mstore\n        /* \"#utility.yul\":6004:6037   */\n      tag_286\n        /* \"#utility.yul\":6030:6036   */\n      dup2\n        /* \"#utility.yul\":6022:6028   */\n      dup8\n        /* \"#utility.yul\":6004:6037   */\n      tag_270\n      jump\t// in\n    tag_286:\n        /* \"#utility.yul\":6068:6071   */\n      0xa0\n        /* \"#utility.yul\":6053:6072   */\n      dup5\n      add\n        /* \"#utility.yul\":6046:6081   */\n      swap6\n      swap1\n      swap6\n      mstore\n      pop\n      pop\n        /* \"#utility.yul\":6112:6115   */\n      0xc0\n        /* \"#utility.yul\":6097:6116   */\n      add\n        /* \"#utility.yul\":6090:6125   */\n      mstore\n        /* \"#utility.yul\":5996:6037   */\n      swap6\n        /* \"#utility.yul\":5362:6131   */\n      swap5\n      pop\n      pop\n      pop\n      pop\n      pop\n      jump\t// out\n        /* \"#utility.yul\":6136:6487   */\n    tag_28:\n        /* \"#utility.yul\":6363:6369   */\n      dup3\n        /* \"#utility.yul\":6352:6361   */\n      dup2\n        /* \"#utility.yul\":6345:6370   */\n      mstore\n        /* \"#utility.yul\":6406:6408   */\n      0x40\n        /* \"#utility.yul\":6401:6403   */\n      0x20\n        /* \"#utility.yul\":6390:6399   */\n      dup3\n        /* \"#utility.yul\":6386:6404   */\n      add\n        /* \"#utility.yul\":6379:6409   */\n      mstore\n        /* \"#utility.yul\":6326:6330   */\n      0x00\n        /* \"#utility.yul\":6426:6481   */\n      tag_288\n        /* \"#utility.yul\":6477:6479   */\n      0x40\n        /* \"#utility.yul\":6466:6475   */\n      dup4\n        /* \"#utility.yul\":6462:6480   */\n      add\n        /* \"#utility.yul\":6454:6460   */\n      dup5\n        /* \"#utility.yul\":6426:6481   */\n      tag_264\n      jump\t// in\n    tag_288:\n        /* \"#utility.yul\":6418:6481   */\n      swap5\n        /* \"#utility.yul\":6136:6487   */\n      swap4\n      pop\n      pop\n      pop\n      pop\n      jump\t// out\n        /* \"#utility.yul\":6492:6620   */\n    tag_117:\n        /* \"#utility.yul\":6532:6535   */\n      0x00\n        /* \"#utility.yul\":6563:6564   */\n      dup3\n        /* \"#utility.yul\":6559:6565   */\n      not\n        /* \"#utility.yul\":6556:6557   */\n      dup3\n        /* \"#utility.yul\":6553:6566   */\n      gt\n        /* \"#utility.yul\":6550:6589   */\n      iszero\n      tag_291\n      jumpi\n        /* \"#utility.yul\":6569:6587   */\n      tag_291\n      tag_292\n      jump\t// in\n    tag_291:\n      pop\n        /* \"#utility.yul\":6605:6614   */\n      add\n      swap1\n        /* \"#utility.yul\":6492:6620   */\n      jump\t// out\n        /* \"#utility.yul\":6625:6745   */\n    tag_122:\n        /* \"#utility.yul\":6665:6666   */\n      0x00\n        /* \"#utility.yul\":6691:6692   */\n      dup3\n        /* \"#utility.yul\":6681:6716   */\n      tag_295\n      jumpi\n        /* \"#utility.yul\":6696:6714   */\n      tag_295\n      tag_296\n      jump\t// in\n    tag_295:\n      pop\n        /* \"#utility.yul\":6730:6739   */\n      div\n      swap1\n        /* \"#utility.yul\":6625:6745   */\n      jump\t// out\n        /* \"#utility.yul\":6750:6918   */\n    tag_119:\n        /* \"#utility.yul\":6790:6797   */\n      0x00\n        /* \"#utility.yul\":6856:6857   */\n      dup2\n        /* \"#utility.yul\":6852:6853   */\n      0x00\n        /* \"#utility.yul\":6848:6854   */\n      not\n        /* \"#utility.yul\":6844:6858   */\n      div\n        /* \"#utility.yul\":6841:6842   */\n      dup4\n        /* \"#utility.yul\":6838:6859   */\n      gt\n        /* \"#utility.yul\":6833:6834   */\n      dup3\n        /* \"#utility.yul\":6826:6835   */\n      iszero\n        /* \"#utility.yul\":6819:6836   */\n      iszero\n        /* \"#utility.yul\":6815:6860   */\n      and\n        /* \"#utility.yul\":6812:6883   */\n      iszero\n      tag_299\n      jumpi\n        /* \"#utility.yul\":6863:6881   */\n      tag_299\n      tag_292\n      jump\t// in\n    tag_299:\n      pop\n        /* \"#utility.yul\":6903:6912   */\n      mul\n      swap1\n        /* \"#utility.yul\":6750:6918   */\n      jump\t// out\n        /* \"#utility.yul\":6923:7048   */\n    tag_153:\n        /* \"#utility.yul\":6963:6967   */\n      0x00\n        /* \"#utility.yul\":6991:6992   */\n      dup3\n        /* \"#utility.yul\":6988:6989   */\n      dup3\n        /* \"#utility.yul\":6985:6993   */\n      lt\n        /* \"#utility.yul\":6982:7016   */\n      iszero\n      tag_302\n      jumpi\n        /* \"#utility.yul\":6996:7014   */\n      tag_302\n      tag_292\n      jump\t// in\n    tag_302:\n      pop\n        /* \"#utility.yul\":7033:7042   */\n      sub\n      swap1\n        /* \"#utility.yul\":6923:7048   */\n      jump\t// out\n        /* \"#utility.yul\":7053:7433   */\n    tag_130:\n        /* \"#utility.yul\":7132:7133   */\n      0x01\n        /* \"#utility.yul\":7128:7140   */\n      dup2\n      dup2\n      shr\n      swap1\n        /* \"#utility.yul\":7175:7187   */\n      dup3\n      and\n      dup1\n        /* \"#utility.yul\":7196:7257   */\n      tag_304\n      jumpi\n        /* \"#utility.yul\":7250:7254   */\n      0x7f\n        /* \"#utility.yul\":7242:7248   */\n      dup3\n        /* \"#utility.yul\":7238:7255   */\n      and\n        /* \"#utility.yul\":7228:7255   */\n      swap2\n      pop\n        /* \"#utility.yul\":7196:7257   */\n    tag_304:\n        /* \"#utility.yul\":7303:7305   */\n      0x20\n        /* \"#utility.yul\":7295:7301   */\n      dup3\n        /* \"#utility.yul\":7292:7306   */\n      lt\n        /* \"#utility.yul\":7272:7290   */\n      dup2\n        /* \"#utility.yul\":7269:7307   */\n      eq\n        /* \"#utility.yul\":7266:7427   */\n      iszero\n      tag_305\n      jumpi\n        /* \"#utility.yul\":7349:7359   */\n      0x4e487b71\n        /* \"#utility.yul\":7344:7347   */\n      0xe0\n        /* \"#utility.yul\":7340:7360   */\n      shl\n        /* \"#utility.yul\":7337:7338   */\n      0x00\n        /* \"#utility.yul\":7330:7361   */\n      mstore\n        /* \"#utility.yul\":7384:7388   */\n      0x22\n        /* \"#utility.yul\":7381:7382   */\n      0x04\n        /* \"#utility.yul\":7374:7389   */\n      mstore\n        /* \"#utility.yul\":7412:7416   */\n      0x24\n        /* \"#utility.yul\":7409:7410   */\n      0x00\n        /* \"#utility.yul\":7402:7417   */\n      revert\n        /* \"#utility.yul\":7266:7427   */\n    tag_305:\n      pop\n        /* \"#utility.yul\":7053:7433   */\n      swap2\n      swap1\n      pop\n      jump\t// out\n        /* \"#utility.yul\":7438:7573   */\n    tag_115:\n        /* \"#utility.yul\":7477:7480   */\n      0x00\n      not(0x00)\n        /* \"#utility.yul\":7498:7515   */\n      dup3\n      eq\n        /* \"#utility.yul\":7495:7538   */\n      iszero\n      tag_308\n      jumpi\n        /* \"#utility.yul\":7518:7536   */\n      tag_308\n      tag_292\n      jump\t// in\n    tag_308:\n      pop\n        /* \"#utility.yul\":7565:7566   */\n      0x01\n        /* \"#utility.yul\":7554:7567   */\n      add\n      swap1\n        /* \"#utility.yul\":7438:7573   */\n      jump\t// out\n        /* \"#utility.yul\":7578:7690   */\n    tag_112:\n        /* \"#utility.yul\":7610:7611   */\n      0x00\n        /* \"#utility.yul\":7636:7637   */\n      dup3\n        /* \"#utility.yul\":7626:7661   */\n      tag_311\n      jumpi\n        /* \"#utility.yul\":7641:7659   */\n      tag_311\n      tag_296\n      jump\t// in\n    tag_311:\n      pop\n        /* \"#utility.yul\":7675:7684   */\n      mod\n      swap1\n        /* \"#utility.yul\":7578:7690   */\n      jump\t// out\n        /* \"#utility.yul\":7695:7822   */\n    tag_292:\n        /* \"#utility.yul\":7756:7766   */\n      0x4e487b71\n        /* \"#utility.yul\":7751:7754   */\n      0xe0\n        /* \"#utility.yul\":7747:7767   */\n      shl\n        /* \"#utility.yul\":7744:7745   */\n      0x00\n        /* \"#utility.yul\":7737:7768   */\n      mstore\n        /* \"#utility.yul\":7787:7791   */\n      0x11\n        /* \"#utility.yul\":7784:7785   */\n      0x04\n        /* \"#utility.yul\":7777:7792   */\n      mstore\n        /* \"#utility.yul\":7811:7815   */\n      0x24\n        /* \"#utility.yul\":7808:7809   */\n      0x00\n        /* \"#utility.yul\":7801:7816   */\n      revert\n        /* \"#utility.yul\":7827:7954   */\n    tag_296:\n        /* \"#utility.yul\":7888:7898   */\n      0x4e487b71\n        /* \"#utility.yul\":7883:7886   */\n      0xe0\n        /* \"#utility.yul\":7879:7899   */\n      shl\n        /* \"#utility.yul\":7876:7877   */\n      0x00\n        /* \"#utility.yul\":7869:7900   */\n      mstore\n        /* \"#utility.yul\":7919:7923   */\n      0x12\n        /* \"#utility.yul\":7916:7917   */\n      0x04\n        /* \"#utility.yul\":7909:7924   */\n      mstore\n        /* \"#utility.yul\":7943:7947   */\n      0x24\n        /* \"#utility.yul\":7940:7941   */\n      0x00\n        /* \"#utility.yul\":7933:7948   */\n      revert\n        /* \"#utility.yul\":7959:8086   */\n    tag_242:\n        /* \"#utility.yul\":8020:8030   */\n      0x4e487b71\n        /* \"#utility.yul\":8015:8018   */\n      0xe0\n        /* \"#utility.yul\":8011:8031   */\n      shl\n        /* \"#utility.yul\":8008:8009   */\n      0x00\n        /* \"#utility.yul\":8001:8032   */\n      mstore\n        /* \"#utility.yul\":8051:8055   */\n      0x41\n        /* \"#utility.yul\":8048:8049   */\n      0x04\n        /* \"#utility.yul\":8041:8056   */\n      mstore\n        /* \"#utility.yul\":8075:8079   */\n      0x24\n        /* \"#utility.yul\":8072:8073   */\n      0x00\n        /* \"#utility.yul\":8065:8080   */\n      revert\n\n    auxdata: 0xa2646970667358221220051fbb39f929f513a7b691f6c6622cb8d70fd1244a542b60b277d60ef7f48f7e64736f6c63430008070033\n}\n","bytecode":{"linkReferences":{},"object":"60806040523480156200001157600080fd5b506040516200153f3803806200153f833981016040819052620000349162000134565b81516200004990600390602085019062000071565b50600080546001600160a01b0319166001600160a01b03929092169190911790555062000278565b8280546200007f9062000225565b90600052602060002090601f016020900481019282620000a35760008555620000ee565b82601f10620000be57805160ff1916838001178555620000ee565b82800160010185558215620000ee579182015b82811115620000ee578251825591602001919060010190620000d1565b50620000fc92915062000100565b5090565b5b80821115620000fc576000815560010162000101565b80516001600160a01b03811681146200012f57600080fd5b919050565b600080604083850312156200014857600080fd5b82516001600160401b03808211156200016057600080fd5b818501915085601f8301126200017557600080fd5b8151818111156200018a576200018a62000262565b604051601f8201601f19908116603f01168101908382118183101715620001b557620001b562000262565b81604052828152602093508884848701011115620001d257600080fd5b600091505b82821015620001f65784820184015181830185015290830190620001d7565b82821115620002085760008484830101525b95506200021a91505085820162000117565b925050509250929050565b600181811c908216806200023a57607f821691505b602082108114156200025c57634e487b7160e01b600052602260045260246000fd5b50919050565b634e487b7160e01b600052604160045260246000fd5b6112b780620002886000396000f3fe6080604052600436106100fd5760003560e01c8063521936e6116100955780638dc51887116100645780638dc51887146102af578063ac964f21146102cf578063b1b53c38146102e5578063d69d509414610305578063d96a094a1461032d57600080fd5b8063521936e61461023c5780635786fd40146102515780637acc0b20146102665780638d8ef2f01461029957600080fd5b80632c0d259d116100d15780632c0d259d146101a0578063481c6a75146101c05780634a02990c146101f85780634a64090b1461021a57600080fd5b8062f73d4c1461010257806306acdcfe1461013957806307aa0bc41461015d5780630a366cc814610173575b600080fd5b34801561010e57600080fd5b5061012261011d366004610f8a565b610340565b604051610130929190611152565b60405180910390f35b34801561014557600080fd5b5061014f60055481565b604051908152602001610130565b34801561016957600080fd5b5061014f600a5481565b34801561017f57600080fd5b5061019361018e366004610ef5565b61053f565b604051610130919061107f565b3480156101ac57600080fd5b506101226101bb366004610f43565b61062e565b3480156101cc57600080fd5b506000546101e0906001600160a01b031681565b6040516001600160a01b039091168152602001610130565b34801561020457600080fd5b50610218610213366004610f0e565b61081f565b005b34801561022657600080fd5b5061022f610866565b6040516101309190611099565b34801561024857600080fd5b5061022f6108f4565b34801561025d57600080fd5b5060015461014f565b34801561027257600080fd5b50610286610281366004610ef5565b610901565b60405161013097969594939291906110ac565b3480156102a557600080fd5b5061014f60045481565b3480156102bb57600080fd5b506102186102ca366004610e8e565b6109d4565b3480156102db57600080fd5b5061014f60015481565b3480156102f157600080fd5b5061022f610300366004610ef5565b610a73565b34801561031157600080fd5b5061031a610a9e565b60405161013097969594939291906110f9565b61021861033b366004610ef5565b610bfd565b6000838152600260209081526040808320338452600781019092528220546060919060ff1661036e57600080fd5b33600090815260088201602052604090205460ff161561038d57600080fd5b6005851115801561039e5750600085115b80156103b257506103b060018661122b565b155b6103bb57600080fd5b3360009081526008820160205260408120805460ff19166001179055600482018054916103e783611210565b909155505060048101546103fc906001611173565b8582600401548360030154610411919061119f565b61041b9190611173565b610425919061118b565b60038201556005810180546001810182556000918252602091829020865161045593919092019190870190610ced565b5080600301548160050180805480602002602001604051908101604052809291908181526020016000905b8282101561052c57838290600052602060002001805461049f906111d5565b80601f01602080910402602001604051908101604052809291908181526020018280546104cb906111d5565b80156105185780601f106104ed57610100808354040283529160200191610518565b820191906000526020600020905b8154815290600101906020018083116104fb57829003601f168201915b505050505081526020019060010190610480565b5050505090509250925050935093915050565b606060026000838152602001908152602001600020600501805480602002602001604051908101604052809291908181526020016000905b82821015610623578382906000526020600020018054610596906111d5565b80601f01602080910402602001604051908101604052809291908181526020018280546105c2906111d5565b801561060f5780601f106105e45761010080835404028352916020019161060f565b820191906000526020600020905b8154815290600101906020018083116105f257829003601f168201915b505050505081526020019060010190610577565b505050509050919050565b3360009081526007602052604081205460609060ff1661064d57600080fd5b3360009081526008602052604090205460ff161561066a57600080fd5b6005841115801561067b5750600084115b801561068f575061068d60018561122b565b155b61069857600080fd5b336000908152600860205260408120805460ff1916600117905560058054916106c083611210565b9091555050600554846106d46001836111be565b6004546106e1919061119f565b6106eb9190611173565b6106f5919061118b565b60045560068054600181018255600091909152835161073b917ff652222313e28459528d920b65115c16c04f3efc82aaedc97be59f3f377c0d3f01906020860190610ced565b50600454600680805480602002602001604051908101604052809291908181526020016000905b8282101561080e578382906000526020600020018054610781906111d5565b80601f01602080910402602001604051908101604052809291908181526020018280546107ad906111d5565b80156107fa5780601f106107cf576101008083540402835291602001916107fa565b820191906000526020600020905b8154815290600101906020018083116107dd57829003601f168201915b505050505081526020019060010190610762565b505050509050915091509250929050565b6000546001600160a01b0316331461083657600080fd5b60009182526002602081905260409092209091018054911515600160a01b0260ff60a01b19909216919091179055565b60098054610873906111d5565b80601f016020809104026020016040519081016040528092919081815260200182805461089f906111d5565b80156108ec5780601f106108c1576101008083540402835291602001916108ec565b820191906000526020600020905b8154815290600101906020018083116108cf57829003601f168201915b505050505081565b60038054610873906111d5565b60026020526000908152604090208054819061091c906111d5565b80601f0160208091040260200160405190810160405280929190818152602001828054610948906111d5565b80156109955780601f1061096a57610100808354040283529160200191610995565b820191906000526020600020905b81548152906001019060200180831161097857829003601f168201915b505050506001830154600284015460038501546004860154600690960154949592946001600160a01b0383169450600160a01b90920460ff1692909187565b6000546001600160a01b031633146109eb57600080fd5b60018054600091600291839182610a0183611210565b9091555081526020808201929092526040016000208551909250610a2a91839190870190610ced565b5060018101929092556002820180546001600160a81b0319166001600160a01b0390921691909117600160a01b1790556005600382015560006004820181905560069091015550565b60068181548110610a8357600080fd5b906000526020600020016000915090508054610873906111d5565b60008060606000606060008060015460008054906101000a90046001600160a01b03166009600a546003600454600554848054610ada906111d5565b80601f0160208091040260200160405190810160405280929190818152602001828054610b06906111d5565b8015610b535780601f10610b2857610100808354040283529160200191610b53565b820191906000526020600020905b815481529060010190602001808311610b3657829003601f168201915b50505050509450828054610b66906111d5565b80601f0160208091040260200160405190810160405280929190818152602001828054610b92906111d5565b8015610bdf5780601f10610bb457610100808354040283529160200191610bdf565b820191906000526020600020905b815481529060010190602001808311610bc257829003601f168201915b50505050509250965096509650965096509650965090919293949596565b600081815260026020526040902060018101543414610c1b57600080fd5b6002810154600160a01b900460ff16610c3357600080fd5b60028101546040516001600160a01b03909116903480156108fc02916000818181858888f19350505050158015610c6e573d6000803e3d6000fd5b503360009081526007828101602090815260408084208054600160ff199182168117909255939092528320805490921617905560068201805491610cb183611210565b9190505550600a5481600601541115610ce95780546009908290610cd4906111d5565b610cdf929190610d71565b506006810154600a555b5050565b828054610cf9906111d5565b90600052602060002090601f016020900481019282610d1b5760008555610d61565b82601f10610d3457805160ff1916838001178555610d61565b82800160010185558215610d61579182015b82811115610d61578251825591602001919060010190610d46565b50610d6d929150610dec565b5090565b828054610d7d906111d5565b90600052602060002090601f016020900481019282610d9f5760008555610d61565b82601f10610db05780548555610d61565b82800160010185558215610d6157600052602060002091601f016020900482015b82811115610d61578254825591600101919060010190610dd1565b5b80821115610d6d5760008155600101610ded565b600082601f830112610e1257600080fd5b813567ffffffffffffffff80821115610e2d57610e2d61126b565b604051601f8301601f19908116603f01168101908282118183101715610e5557610e5561126b565b81604052838152866020858801011115610e6e57600080fd5b836020870160208301376000602085830101528094505050505092915050565b600080600060608486031215610ea357600080fd5b833567ffffffffffffffff811115610eba57600080fd5b610ec686828701610e01565b9350506020840135915060408401356001600160a01b0381168114610eea57600080fd5b809150509250925092565b600060208284031215610f0757600080fd5b5035919050565b60008060408385031215610f2157600080fd5b8235915060208301358015158114610f3857600080fd5b809150509250929050565b60008060408385031215610f5657600080fd5b82359150602083013567ffffffffffffffff811115610f7457600080fd5b610f8085828601610e01565b9150509250929050565b600080600060608486031215610f9f57600080fd5b8335925060208401359150604084013567ffffffffffffffff811115610fc457600080fd5b610fd086828701610e01565b9150509250925092565b600082825180855260208086019550808260051b84010181860160005b8481101561102557601f19868403018952611013838351611032565b98840198925090830190600101610ff7565b5090979650505050505050565b6000815180845260005b818110156110585760208185018101518683018201520161103c565b8181111561106a576000602083870101525b50601f01601f19169290920160200192915050565b6020815260006110926020830184610fda565b9392505050565b6020815260006110926020830184611032565b60e0815260006110bf60e083018a611032565b6020830198909852506001600160a01b039590951660408601529215156060850152608084019190915260a083015260c090910152919050565b8781526001600160a01b038716602082015260e06040820181905260009061112390830188611032565b866060840152828103608084015261113b8187611032565b60a0840195909552505060c0015295945050505050565b82815260406020820152600061116b6040830184610fda565b949350505050565b600082198211156111865761118661123f565b500190565b60008261119a5761119a611255565b500490565b60008160001904831182151516156111b9576111b961123f565b500290565b6000828210156111d0576111d061123f565b500390565b600181811c908216806111e957607f821691505b6020821081141561120a57634e487b7160e01b600052602260045260246000fd5b50919050565b60006000198214156112245761122461123f565b5060010190565b60008261123a5761123a611255565b500690565b634e487b7160e01b600052601160045260246000fd5b634e487b7160e01b600052601260045260246000fd5b634e487b7160e01b600052604160045260246000fdfea2646970667358221220051fbb39f929f513a7b691f6c6622cb8d70fd1244a542b60b277d60ef7f48f7e64736f6c63430008070033","opcodes":"PUSH1 0x80 PUSH1 0x40 MSTORE CALLVALUE DUP1 ISZERO PUSH3 0x11 JUMPI PUSH1 0x0 DUP1 REVERT JUMPDEST POP PUSH1 0x40 MLOAD PUSH3 0x153F CODESIZE SUB DUP1 PUSH3 0x153F DUP4 CODECOPY DUP2 ADD PUSH1 0x40 DUP2 SWAP1 MSTORE PUSH3 0x34 SWAP2 PUSH3 0x134 JUMP JUMPDEST DUP2 MLOAD PUSH3 0x49 SWAP1 PUSH1 0x3 SWAP1 PUSH1 0x20 DUP6 ADD SWAP1 PUSH3 0x71 JUMP JUMPDEST POP PUSH1 0x0 DUP1 SLOAD PUSH1 0x1 PUSH1 0x1 PUSH1 0xA0 SHL SUB NOT AND PUSH1 0x1 PUSH1 0x1 PUSH1 0xA0 SHL SUB SWAP3 SWAP1 SWAP3 AND SWAP2 SWAP1 SWAP2 OR SWAP1 SSTORE POP PUSH3 0x278 JUMP JUMPDEST DUP3 DUP1 SLOAD PUSH3 0x7F SWAP1 PUSH3 0x225 JUMP JUMPDEST SWAP1 PUSH1 0x0 MSTORE PUSH1 0x20 PUSH1 0x0 KECCAK256 SWAP1 PUSH1 0x1F ADD PUSH1 0x20 SWAP1 DIV DUP2 ADD SWAP3 DUP3 PUSH3 0xA3 JUMPI PUSH1 0x0 DUP6 SSTORE PUSH3 0xEE JUMP JUMPDEST DUP3 PUSH1 0x1F LT PUSH3 0xBE JUMPI DUP1 MLOAD PUSH1 0xFF NOT AND DUP4 DUP1 ADD OR DUP6 SSTORE PUSH3 0xEE JUMP JUMPDEST DUP3 DUP1 ADD PUSH1 0x1 ADD DUP6 SSTORE DUP3 ISZERO PUSH3 0xEE JUMPI SWAP2 DUP3 ADD JUMPDEST DUP3 DUP2 GT ISZERO PUSH3 0xEE JUMPI DUP3 MLOAD DUP3 SSTORE SWAP2 PUSH1 0x20 ADD SWAP2 SWAP1 PUSH1 0x1 ADD SWAP1 PUSH3 0xD1 JUMP JUMPDEST POP PUSH3 0xFC SWAP3 SWAP2 POP PUSH3 0x100 JUMP JUMPDEST POP SWAP1 JUMP JUMPDEST JUMPDEST DUP1 DUP3 GT ISZERO PUSH3 0xFC JUMPI PUSH1 0x0 DUP2 SSTORE PUSH1 0x1 ADD PUSH3 0x101 JUMP JUMPDEST DUP1 MLOAD PUSH1 0x1 PUSH1 0x1 PUSH1 0xA0 SHL SUB DUP2 AND DUP2 EQ PUSH3 0x12F JUMPI PUSH1 0x0 DUP1 REVERT JUMPDEST SWAP2 SWAP1 POP JUMP JUMPDEST PUSH1 0x0 DUP1 PUSH1 0x40 DUP4 DUP6 SUB SLT ISZERO PUSH3 0x148 JUMPI PUSH1 0x0 DUP1 REVERT JUMPDEST DUP3 MLOAD PUSH1 0x1 PUSH1 0x1 PUSH1 0x40 SHL SUB DUP1 DUP3 GT ISZERO PUSH3 0x160 JUMPI PUSH1 0x0 DUP1 REVERT JUMPDEST DUP2 DUP6 ADD SWAP2 POP DUP6 PUSH1 0x1F DUP4 ADD SLT PUSH3 0x175 JUMPI PUSH1 0x0 DUP1 REVERT JUMPDEST DUP2 MLOAD DUP2 DUP2 GT ISZERO PUSH3 0x18A JUMPI PUSH3 0x18A PUSH3 0x262 JUMP JUMPDEST PUSH1 0x40 MLOAD PUSH1 0x1F DUP3 ADD PUSH1 0x1F NOT SWAP1 DUP2 AND PUSH1 0x3F ADD AND DUP2 ADD SWAP1 DUP4 DUP3 GT DUP2 DUP4 LT OR ISZERO PUSH3 0x1B5 JUMPI PUSH3 0x1B5 PUSH3 0x262 JUMP JUMPDEST DUP2 PUSH1 0x40 MSTORE DUP3 DUP2 MSTORE PUSH1 0x20 SWAP4 POP DUP9 DUP5 DUP5 DUP8 ADD ADD GT ISZERO PUSH3 0x1D2 JUMPI PUSH1 0x0 DUP1 REVERT JUMPDEST PUSH1 0x0 SWAP2 POP JUMPDEST DUP3 DUP3 LT ISZERO PUSH3 0x1F6 JUMPI DUP5 DUP3 ADD DUP5 ADD MLOAD DUP2 DUP4 ADD DUP6 ADD MSTORE SWAP1 DUP4 ADD SWAP1 PUSH3 0x1D7 JUMP JUMPDEST DUP3 DUP3 GT ISZERO PUSH3 0x208 JUMPI PUSH1 0x0 DUP5 DUP5 DUP4 ADD ADD MSTORE JUMPDEST SWAP6 POP PUSH3 0x21A SWAP2 POP POP DUP6 DUP3 ADD PUSH3 0x117 JUMP JUMPDEST SWAP3 POP POP POP SWAP3 POP SWAP3 SWAP1 POP JUMP JUMPDEST PUSH1 0x1 DUP2 DUP2 SHR SWAP1 DUP3 AND DUP1 PUSH3 0x23A JUMPI PUSH1 0x7F DUP3 AND SWAP2 POP JUMPDEST PUSH1 0x20 DUP3 LT DUP2 EQ ISZERO PUSH3 0x25C JUMPI PUSH4 0x4E487B71 PUSH1 0xE0 SHL PUSH1 0x0 MSTORE PUSH1 0x22 PUSH1 0x4 MSTORE PUSH1 0x24 PUSH1 0x0 REVERT JUMPDEST POP SWAP2 SWAP1 POP JUMP JUMPDEST PUSH4 0x4E487B71 PUSH1 0xE0 SHL PUSH1 0x0 MSTORE PUSH1 0x41 PUSH1 0x4 MSTORE PUSH1 0x24 PUSH1 0x0 REVERT JUMPDEST PUSH2 0x12B7 DUP1 PUSH3 0x288 PUSH1 0x0 CODECOPY PUSH1 0x0 RETURN INVALID PUSH1 0x80 PUSH1 0x40 MSTORE PUSH1 0x4 CALLDATASIZE LT PUSH2 0xFD JUMPI PUSH1 0x0 CALLDATALOAD PUSH1 0xE0 SHR DUP1 PUSH4 0x521936E6 GT PUSH2 0x95 JUMPI DUP1 PUSH4 0x8DC51887 GT PUSH2 0x64 JUMPI DUP1 PUSH4 0x8DC51887 EQ PUSH2 0x2AF JUMPI DUP1 PUSH4 0xAC964F21 EQ PUSH2 0x2CF JUMPI DUP1 PUSH4 0xB1B53C38 EQ PUSH2 0x2E5 JUMPI DUP1 PUSH4 0xD69D5094 EQ PUSH2 0x305 JUMPI DUP1 PUSH4 0xD96A094A EQ PUSH2 0x32D JUMPI PUSH1 0x0 DUP1 REVERT JUMPDEST DUP1 PUSH4 0x521936E6 EQ PUSH2 0x23C JUMPI DUP1 PUSH4 0x5786FD40 EQ PUSH2 0x251 JUMPI DUP1 PUSH4 0x7ACC0B20 EQ PUSH2 0x266 JUMPI DUP1 PUSH4 0x8D8EF2F0 EQ PUSH2 0x299 JUMPI PUSH1 0x0 DUP1 REVERT JUMPDEST DUP1 PUSH4 0x2C0D259D GT PUSH2 0xD1 JUMPI DUP1 PUSH4 0x2C0D259D EQ PUSH2 0x1A0 JUMPI DUP1 PUSH4 0x481C6A75 EQ PUSH2 0x1C0 JUMPI DUP1 PUSH4 0x4A02990C EQ PUSH2 0x1F8 JUMPI DUP1 PUSH4 0x4A64090B EQ PUSH2 0x21A JUMPI PUSH1 0x0 DUP1 REVERT JUMPDEST DUP1 PUSH3 0xF73D4C EQ PUSH2 0x102 JUMPI DUP1 PUSH4 0x6ACDCFE EQ PUSH2 0x139 JUMPI DUP1 PUSH4 0x7AA0BC4 EQ PUSH2 0x15D JUMPI DUP1 PUSH4 0xA366CC8 EQ PUSH2 0x173 JUMPI JUMPDEST PUSH1 0x0 DUP1 REVERT JUMPDEST CALLVALUE DUP1 ISZERO PUSH2 0x10E JUMPI PUSH1 0x0 DUP1 REVERT JUMPDEST POP PUSH2 0x122 PUSH2 0x11D CALLDATASIZE PUSH1 0x4 PUSH2 0xF8A JUMP JUMPDEST PUSH2 0x340 JUMP JUMPDEST PUSH1 0x40 MLOAD PUSH2 0x130 SWAP3 SWAP2 SWAP1 PUSH2 0x1152 JUMP JUMPDEST PUSH1 0x40 MLOAD DUP1 SWAP2 SUB SWAP1 RETURN JUMPDEST CALLVALUE DUP1 ISZERO PUSH2 0x145 JUMPI PUSH1 0x0 DUP1 REVERT JUMPDEST POP PUSH2 0x14F PUSH1 0x5 SLOAD DUP2 JUMP JUMPDEST PUSH1 0x40 MLOAD SWAP1 DUP2 MSTORE PUSH1 0x20 ADD PUSH2 0x130 JUMP JUMPDEST CALLVALUE DUP1 ISZERO PUSH2 0x169 JUMPI PUSH1 0x0 DUP1 REVERT JUMPDEST POP PUSH2 0x14F PUSH1 0xA SLOAD DUP2 JUMP JUMPDEST CALLVALUE DUP1 ISZERO PUSH2 0x17F JUMPI PUSH1 0x0 DUP1 REVERT JUMPDEST POP PUSH2 0x193 PUSH2 0x18E CALLDATASIZE PUSH1 0x4 PUSH2 0xEF5 JUMP JUMPDEST PUSH2 0x53F JUMP JUMPDEST PUSH1 0x40 MLOAD PUSH2 0x130 SWAP2 SWAP1 PUSH2 0x107F JUMP JUMPDEST CALLVALUE DUP1 ISZERO PUSH2 0x1AC JUMPI PUSH1 0x0 DUP1 REVERT JUMPDEST POP PUSH2 0x122 PUSH2 0x1BB CALLDATASIZE PUSH1 0x4 PUSH2 0xF43 JUMP JUMPDEST PUSH2 0x62E JUMP JUMPDEST CALLVALUE DUP1 ISZERO PUSH2 0x1CC JUMPI PUSH1 0x0 DUP1 REVERT JUMPDEST POP PUSH1 0x0 SLOAD PUSH2 0x1E0 SWAP1 PUSH1 0x1 PUSH1 0x1 PUSH1 0xA0 SHL SUB AND DUP2 JUMP JUMPDEST PUSH1 0x40 MLOAD PUSH1 0x1 PUSH1 0x1 PUSH1 0xA0 SHL SUB SWAP1 SWAP2 AND DUP2 MSTORE PUSH1 0x20 ADD PUSH2 0x130 JUMP JUMPDEST CALLVALUE DUP1 ISZERO PUSH2 0x204 JUMPI PUSH1 0x0 DUP1 REVERT JUMPDEST POP PUSH2 0x218 PUSH2 0x213 CALLDATASIZE PUSH1 0x4 PUSH2 0xF0E JUMP JUMPDEST PUSH2 0x81F JUMP JUMPDEST STOP JUMPDEST CALLVALUE DUP1 ISZERO PUSH2 0x226 JUMPI PUSH1 0x0 DUP1 REVERT JUMPDEST POP PUSH2 0x22F PUSH2 0x866 JUMP JUMPDEST PUSH1 0x40 MLOAD PUSH2 0x130 SWAP2 SWAP1 PUSH2 0x1099 JUMP JUMPDEST CALLVALUE DUP1 ISZERO PUSH2 0x248 JUMPI PUSH1 0x0 DUP1 REVERT JUMPDEST POP PUSH2 0x22F PUSH2 0x8F4 JUMP JUMPDEST CALLVALUE DUP1 ISZERO PUSH2 0x25D JUMPI PUSH1 0x0 DUP1 REVERT JUMPDEST POP PUSH1 0x1 SLOAD PUSH2 0x14F JUMP JUMPDEST CALLVALUE DUP1 ISZERO PUSH2 0x272 JUMPI PUSH1 0x0 DUP1 REVERT JUMPDEST POP PUSH2 0x286 PUSH2 0x281 CALLDATASIZE PUSH1 0x4 PUSH2 0xEF5 JUMP JUMPDEST PUSH2 0x901 JUMP JUMPDEST PUSH1 0x40 MLOAD PUSH2 0x130 SWAP8 SWAP7 SWAP6 SWAP5 SWAP4 SWAP3 SWAP2 SWAP1 PUSH2 0x10AC JUMP JUMPDEST CALLVALUE DUP1 ISZERO PUSH2 0x2A5 JUMPI PUSH1 0x0 DUP1 REVERT JUMPDEST POP PUSH2 0x14F PUSH1 0x4 SLOAD DUP2 JUMP JUMPDEST CALLVALUE DUP1 ISZERO PUSH2 0x2BB JUMPI PUSH1 0x0 DUP1 REVERT JUMPDEST POP PUSH2 0x218 PUSH2 0x2CA CALLDATASIZE PUSH1 0x4 PUSH2 0xE8E JUMP JUMPDEST PUSH2 0x9D4 JUMP JUMPDEST CALLVALUE DUP1 ISZERO PUSH2 0x2DB JUMPI PUSH1 0x0 DUP1 REVERT JUMPDEST POP PUSH2 0x14F PUSH1 0x1 SLOAD DUP2 JUMP JUMPDEST CALLVALUE DUP1 ISZERO PUSH2 0x2F1 JUMPI PUSH1 0x0 DUP1 REVERT JUMPDEST POP PUSH2 0x22F PUSH2 0x300 CALLDATASIZE PUSH1 0x4 PUSH2 0xEF5 JUMP JUMPDEST PUSH2 0xA73 JUMP JUMPDEST CALLVALUE DUP1 ISZERO PUSH2 0x311 JUMPI PUSH1 0x0 DUP1 REVERT JUMPDEST POP PUSH2 0x31A PUSH2 0xA9E JUMP JUMPDEST PUSH1 0x40 MLOAD PUSH2 0x130 SWAP8 SWAP7 SWAP6 SWAP5 SWAP4 SWAP3 SWAP2 SWAP1 PUSH2 0x10F9 JUMP JUMPDEST PUSH2 0x218 PUSH2 0x33B CALLDATASIZE PUSH1 0x4 PUSH2 0xEF5 JUMP JUMPDEST PUSH2 0xBFD JUMP JUMPDEST PUSH1 0x0 DUP4 DUP2 MSTORE PUSH1 0x2 PUSH1 0x20 SWAP1 DUP2 MSTORE PUSH1 0x40 DUP1 DUP4 KECCAK256 CALLER DUP5 MSTORE PUSH1 0x7 DUP2 ADD SWAP1 SWAP3 MSTORE DUP3 KECCAK256 SLOAD PUSH1 0x60 SWAP2 SWAP1 PUSH1 0xFF AND PUSH2 0x36E JUMPI PUSH1 0x0 DUP1 REVERT JUMPDEST CALLER PUSH1 0x0 SWAP1 DUP2 MSTORE PUSH1 0x8 DUP3 ADD PUSH1 0x20 MSTORE PUSH1 0x40 SWAP1 KECCAK256 SLOAD PUSH1 0xFF AND ISZERO PUSH2 0x38D JUMPI PUSH1 0x0 DUP1 REVERT JUMPDEST PUSH1 0x5 DUP6 GT ISZERO DUP1 ISZERO PUSH2 0x39E JUMPI POP PUSH1 0x0 DUP6 GT JUMPDEST DUP1 ISZERO PUSH2 0x3B2 JUMPI POP PUSH2 0x3B0 PUSH1 0x1 DUP7 PUSH2 0x122B JUMP JUMPDEST ISZERO JUMPDEST PUSH2 0x3BB JUMPI PUSH1 0x0 DUP1 REVERT JUMPDEST CALLER PUSH1 0x0 SWAP1 DUP2 MSTORE PUSH1 0x8 DUP3 ADD PUSH1 0x20 MSTORE PUSH1 0x40 DUP2 KECCAK256 DUP1 SLOAD PUSH1 0xFF NOT AND PUSH1 0x1 OR SWAP1 SSTORE PUSH1 0x4 DUP3 ADD DUP1 SLOAD SWAP2 PUSH2 0x3E7 DUP4 PUSH2 0x1210 JUMP JUMPDEST SWAP1 SWAP2 SSTORE POP POP PUSH1 0x4 DUP2 ADD SLOAD PUSH2 0x3FC SWAP1 PUSH1 0x1 PUSH2 0x1173 JUMP JUMPDEST DUP6 DUP3 PUSH1 0x4 ADD SLOAD DUP4 PUSH1 0x3 ADD SLOAD PUSH2 0x411 SWAP2 SWAP1 PUSH2 0x119F JUMP JUMPDEST PUSH2 0x41B SWAP2 SWAP1 PUSH2 0x1173 JUMP JUMPDEST PUSH2 0x425 SWAP2 SWAP1 PUSH2 0x118B JUMP JUMPDEST PUSH1 0x3 DUP3 ADD SSTORE PUSH1 0x5 DUP2 ADD DUP1 SLOAD PUSH1 0x1 DUP2 ADD DUP3 SSTORE PUSH1 0x0 SWAP2 DUP3 MSTORE PUSH1 0x20 SWAP2 DUP3 SWAP1 KECCAK256 DUP7 MLOAD PUSH2 0x455 SWAP4 SWAP2 SWAP1 SWAP3 ADD SWAP2 SWAP1 DUP8 ADD SWAP1 PUSH2 0xCED JUMP JUMPDEST POP DUP1 PUSH1 0x3 ADD SLOAD DUP2 PUSH1 0x5 ADD DUP1 DUP1 SLOAD DUP1 PUSH1 0x20 MUL PUSH1 0x20 ADD PUSH1 0x40 MLOAD SWAP1 DUP2 ADD PUSH1 0x40 MSTORE DUP1 SWAP3 SWAP2 SWAP1 DUP2 DUP2 MSTORE PUSH1 0x20 ADD PUSH1 0x0 SWAP1 JUMPDEST DUP3 DUP3 LT ISZERO PUSH2 0x52C JUMPI DUP4 DUP3 SWAP1 PUSH1 0x0 MSTORE PUSH1 0x20 PUSH1 0x0 KECCAK256 ADD DUP1 SLOAD PUSH2 0x49F SWAP1 PUSH2 0x11D5 JUMP JUMPDEST DUP1 PUSH1 0x1F ADD PUSH1 0x20 DUP1 SWAP2 DIV MUL PUSH1 0x20 ADD PUSH1 0x40 MLOAD SWAP1 DUP2 ADD PUSH1 0x40 MSTORE DUP1 SWAP3 SWAP2 SWAP1 DUP2 DUP2 MSTORE PUSH1 0x20 ADD DUP3 DUP1 SLOAD PUSH2 0x4CB SWAP1 PUSH2 0x11D5 JUMP JUMPDEST DUP1 ISZERO PUSH2 0x518 JUMPI DUP1 PUSH1 0x1F LT PUSH2 0x4ED JUMPI PUSH2 0x100 DUP1 DUP4 SLOAD DIV MUL DUP4 MSTORE SWAP2 PUSH1 0x20 ADD SWAP2 PUSH2 0x518 JUMP JUMPDEST DUP3 ADD SWAP2 SWAP1 PUSH1 0x0 MSTORE PUSH1 0x20 PUSH1 0x0 KECCAK256 SWAP1 JUMPDEST DUP2 SLOAD DUP2 MSTORE SWAP1 PUSH1 0x1 ADD SWAP1 PUSH1 0x20 ADD DUP1 DUP4 GT PUSH2 0x4FB JUMPI DUP3 SWAP1 SUB PUSH1 0x1F AND DUP3 ADD SWAP2 JUMPDEST POP POP POP POP POP DUP2 MSTORE PUSH1 0x20 ADD SWAP1 PUSH1 0x1 ADD SWAP1 PUSH2 0x480 JUMP JUMPDEST POP POP POP POP SWAP1 POP SWAP3 POP SWAP3 POP POP SWAP4 POP SWAP4 SWAP2 POP POP JUMP JUMPDEST PUSH1 0x60 PUSH1 0x2 PUSH1 0x0 DUP4 DUP2 MSTORE PUSH1 0x20 ADD SWAP1 DUP2 MSTORE PUSH1 0x20 ADD PUSH1 0x0 KECCAK256 PUSH1 0x5 ADD DUP1 SLOAD DUP1 PUSH1 0x20 MUL PUSH1 0x20 ADD PUSH1 0x40 MLOAD SWAP1 DUP2 ADD PUSH1 0x40 MSTORE DUP1 SWAP3 SWAP2 SWAP1 DUP2 DUP2 MSTORE PUSH1 0x20 ADD PUSH1 0x0 SWAP1 JUMPDEST DUP3 DUP3 LT ISZERO PUSH2 0x623 JUMPI DUP4 DUP3 SWAP1 PUSH1 0x0 MSTORE PUSH1 0x20 PUSH1 0x0 KECCAK256 ADD DUP1 SLOAD PUSH2 0x596 SWAP1 PUSH2 0x11D5 JUMP JUMPDEST DUP1 PUSH1 0x1F ADD PUSH1 0x20 DUP1 SWAP2 DIV MUL PUSH1 0x20 ADD PUSH1 0x40 MLOAD SWAP1 DUP2 ADD PUSH1 0x40 MSTORE DUP1 SWAP3 SWAP2 SWAP1 DUP2 DUP2 MSTORE PUSH1 0x20 ADD DUP3 DUP1 SLOAD PUSH2 0x5C2 SWAP1 PUSH2 0x11D5 JUMP JUMPDEST DUP1 ISZERO PUSH2 0x60F JUMPI DUP1 PUSH1 0x1F LT PUSH2 0x5E4 JUMPI PUSH2 0x100 DUP1 DUP4 SLOAD DIV MUL DUP4 MSTORE SWAP2 PUSH1 0x20 ADD SWAP2 PUSH2 0x60F JUMP JUMPDEST DUP3 ADD SWAP2 SWAP1 PUSH1 0x0 MSTORE PUSH1 0x20 PUSH1 0x0 KECCAK256 SWAP1 JUMPDEST DUP2 SLOAD DUP2 MSTORE SWAP1 PUSH1 0x1 ADD SWAP1 PUSH1 0x20 ADD DUP1 DUP4 GT PUSH2 0x5F2 JUMPI DUP3 SWAP1 SUB PUSH1 0x1F AND DUP3 ADD SWAP2 JUMPDEST POP POP POP POP POP DUP2 MSTORE PUSH1 0x20 ADD SWAP1 PUSH1 0x1 ADD SWAP1 PUSH2 0x577 JUMP JUMPDEST POP POP POP POP SWAP1 POP SWAP2 SWAP1 POP JUMP JUMPDEST CALLER PUSH1 0x0 SWAP1 DUP2 MSTORE PUSH1 0x7 PUSH1 0x20 MSTORE PUSH1 0x40 DUP2 KECCAK256 SLOAD PUSH1 0x60 SWAP1 PUSH1 0xFF AND PUSH2 0x64D JUMPI PUSH1 0x0 DUP1 REVERT JUMPDEST CALLER PUSH1 0x0 SWAP1 DUP2 MSTORE PUSH1 0x8 PUSH1 0x20 MSTORE PUSH1 0x40 SWAP1 KECCAK256 SLOAD PUSH1 0xFF AND ISZERO PUSH2 0x66A JUMPI PUSH1 0x0 DUP1 REVERT JUMPDEST PUSH1 0x5 DUP5 GT ISZERO DUP1 ISZERO PUSH2 0x67B JUMPI POP PUSH1 0x0 DUP5 GT JUMPDEST DUP1 ISZERO PUSH2 0x68F JUMPI POP PUSH2 0x68D PUSH1 0x1 DUP6 PUSH2 0x122B JUMP JUMPDEST ISZERO JUMPDEST PUSH2 0x698 JUMPI PUSH1 0x0 DUP1 REVERT JUMPDEST CALLER PUSH1 0x0 SWAP1 DUP2 MSTORE PUSH1 0x8 PUSH1 0x20 MSTORE PUSH1 0x40 DUP2 KECCAK256 DUP1 SLOAD PUSH1 0xFF NOT AND PUSH1 0x1 OR SWAP1 SSTORE PUSH1 0x5 DUP1 SLOAD SWAP2 PUSH2 0x6C0 DUP4 PUSH2 0x1210 JUMP JUMPDEST SWAP1 SWAP2 SSTORE POP POP PUSH1 0x5 SLOAD DUP5 PUSH2 0x6D4 PUSH1 0x1 DUP4 PUSH2 0x11BE JUMP JUMPDEST PUSH1 0x4 SLOAD PUSH2 0x6E1 SWAP2 SWAP1 PUSH2 0x119F JUMP JUMPDEST PUSH2 0x6EB SWAP2 SWAP1 PUSH2 0x1173 JUMP JUMPDEST PUSH2 0x6F5 SWAP2 SWAP1 PUSH2 0x118B JUMP JUMPDEST PUSH1 0x4 SSTORE PUSH1 0x6 DUP1 SLOAD PUSH1 0x1 DUP2 ADD DUP3 SSTORE PUSH1 0x0 SWAP2 SWAP1 SWAP2 MSTORE DUP4 MLOAD PUSH2 0x73B SWAP2 PUSH32 0xF652222313E28459528D920B65115C16C04F3EFC82AAEDC97BE59F3F377C0D3F ADD SWAP1 PUSH1 0x20 DUP7 ADD SWAP1 PUSH2 0xCED JUMP JUMPDEST POP PUSH1 0x4 SLOAD PUSH1 0x6 DUP1 DUP1 SLOAD DUP1 PUSH1 0x20 MUL PUSH1 0x20 ADD PUSH1 0x40 MLOAD SWAP1 DUP2 ADD PUSH1 0x40 MSTORE DUP1 SWAP3 SWAP2 SWAP1 DUP2 DUP2 MSTORE PUSH1 0x20 ADD PUSH1 0x0 SWAP1 JUMPDEST DUP3 DUP3 LT ISZERO PUSH2 0x80E JUMPI DUP4 DUP3 SWAP1 PUSH1 0x0 MSTORE PUSH1 0x20 PUSH1 0x0 KECCAK256 ADD DUP1 SLOAD PUSH2 0x781 SWAP1 PUSH2 0x11D5 JUMP JUMPDEST DUP1 PUSH1 0x1F ADD PUSH1 0x20 DUP1 SWAP2 DIV MUL PUSH1 0x20 ADD PUSH1 0x40 MLOAD SWAP1 DUP2 ADD PUSH1 0x40 MSTORE DUP1 SWAP3 SWAP2 SWAP1 DUP2 DUP2 MSTORE PUSH1 0x20 ADD DUP3 DUP1 SLOAD PUSH2 0x7AD SWAP1 PUSH2 0x11D5 JUMP JUMPDEST DUP1 ISZERO PUSH2 0x7FA JUMPI DUP1 PUSH1 0x1F LT PUSH2 0x7CF JUMPI PUSH2 0x100 DUP1 DUP4 SLOAD DIV MUL DUP4 MSTORE SWAP2 PUSH1 0x20 ADD SWAP2 PUSH2 0x7FA JUMP JUMPDEST DUP3 ADD SWAP2 SWAP1 PUSH1 0x0 MSTORE PUSH1 0x20 PUSH1 0x0 KECCAK256 SWAP1 JUMPDEST DUP2 SLOAD DUP2 MSTORE SWAP1 PUSH1 0x1 ADD SWAP1 PUSH1 0x20 ADD DUP1 DUP4 GT PUSH2 0x7DD JUMPI DUP3 SWAP1 SUB PUSH1 0x1F AND DUP3 ADD SWAP2 JUMPDEST POP POP POP POP POP DUP2 MSTORE PUSH1 0x20 ADD SWAP1 PUSH1 0x1 ADD SWAP1 PUSH2 0x762 JUMP JUMPDEST POP POP POP POP SWAP1 POP SWAP2 POP SWAP2 POP SWAP3 POP SWAP3 SWAP1 POP JUMP JUMPDEST PUSH1 0x0 SLOAD PUSH1 0x1 PUSH1 0x1 PUSH1 0xA0 SHL SUB AND CALLER EQ PUSH2 0x836 JUMPI PUSH1 0x0 DUP1 REVERT JUMPDEST PUSH1 0x0 SWAP2 DUP3 MSTORE PUSH1 0x2 PUSH1 0x20 DUP2 SWAP1 MSTORE PUSH1 0x40 SWAP1 SWAP3 KECCAK256 SWAP1 SWAP2 ADD DUP1 SLOAD SWAP2 ISZERO ISZERO PUSH1 0x1 PUSH1 0xA0 SHL MUL PUSH1 0xFF PUSH1 0xA0 SHL NOT SWAP1 SWAP3 AND SWAP2 SWAP1 SWAP2 OR SWAP1 SSTORE JUMP JUMPDEST PUSH1 0x9 DUP1 SLOAD PUSH2 0x873 SWAP1 PUSH2 0x11D5 JUMP JUMPDEST DUP1 PUSH1 0x1F ADD PUSH1 0x20 DUP1 SWAP2 DIV MUL PUSH1 0x20 ADD PUSH1 0x40 MLOAD SWAP1 DUP2 ADD PUSH1 0x40 MSTORE DUP1 SWAP3 SWAP2 SWAP1 DUP2 DUP2 MSTORE PUSH1 0x20 ADD DUP3 DUP1 SLOAD PUSH2 0x89F SWAP1 PUSH2 0x11D5 JUMP JUMPDEST DUP1 ISZERO PUSH2 0x8EC JUMPI DUP1 PUSH1 0x1F LT PUSH2 0x8C1 JUMPI PUSH2 0x100 DUP1 DUP4 SLOAD DIV MUL DUP4 MSTORE SWAP2 PUSH1 0x20 ADD SWAP2 PUSH2 0x8EC JUMP JUMPDEST DUP3 ADD SWAP2 SWAP1 PUSH1 0x0 MSTORE PUSH1 0x20 PUSH1 0x0 KECCAK256 SWAP1 JUMPDEST DUP2 SLOAD DUP2 MSTORE SWAP1 PUSH1 0x1 ADD SWAP1 PUSH1 0x20 ADD DUP1 DUP4 GT PUSH2 0x8CF JUMPI DUP3 SWAP1 SUB PUSH1 0x1F AND DUP3 ADD SWAP2 JUMPDEST POP POP POP POP POP DUP2 JUMP JUMPDEST PUSH1 0x3 DUP1 SLOAD PUSH2 0x873 SWAP1 PUSH2 0x11D5 JUMP JUMPDEST PUSH1 0x2 PUSH1 0x20 MSTORE PUSH1 0x0 SWAP1 DUP2 MSTORE PUSH1 0x40 SWAP1 KECCAK256 DUP1 SLOAD DUP2 SWAP1 PUSH2 0x91C SWAP1 PUSH2 0x11D5 JUMP JUMPDEST DUP1 PUSH1 0x1F ADD PUSH1 0x20 DUP1 SWAP2 DIV MUL PUSH1 0x20 ADD PUSH1 0x40 MLOAD SWAP1 DUP2 ADD PUSH1 0x40 MSTORE DUP1 SWAP3 SWAP2 SWAP1 DUP2 DUP2 MSTORE PUSH1 0x20 ADD DUP3 DUP1 SLOAD PUSH2 0x948 SWAP1 PUSH2 0x11D5 JUMP JUMPDEST DUP1 ISZERO PUSH2 0x995 JUMPI DUP1 PUSH1 0x1F LT PUSH2 0x96A JUMPI PUSH2 0x100 DUP1 DUP4 SLOAD DIV MUL DUP4 MSTORE SWAP2 PUSH1 0x20 ADD SWAP2 PUSH2 0x995 JUMP JUMPDEST DUP3 ADD SWAP2 SWAP1 PUSH1 0x0 MSTORE PUSH1 0x20 PUSH1 0x0 KECCAK256 SWAP1 JUMPDEST DUP2 SLOAD DUP2 MSTORE SWAP1 PUSH1 0x1 ADD SWAP1 PUSH1 0x20 ADD DUP1 DUP4 GT PUSH2 0x978 JUMPI DUP3 SWAP1 SUB PUSH1 0x1F AND DUP3 ADD SWAP2 JUMPDEST POP POP POP POP PUSH1 0x1 DUP4 ADD SLOAD PUSH1 0x2 DUP5 ADD SLOAD PUSH1 0x3 DUP6 ADD SLOAD PUSH1 0x4 DUP7 ADD SLOAD PUSH1 0x6 SWAP1 SWAP7 ADD SLOAD SWAP5 SWAP6 SWAP3 SWAP5 PUSH1 0x1 PUSH1 0x1 PUSH1 0xA0 SHL SUB DUP4 AND SWAP5 POP PUSH1 0x1 PUSH1 0xA0 SHL SWAP1 SWAP3 DIV PUSH1 0xFF AND SWAP3 SWAP1 SWAP2 DUP8 JUMP JUMPDEST PUSH1 0x0 SLOAD PUSH1 0x1 PUSH1 0x1 PUSH1 0xA0 SHL SUB AND CALLER EQ PUSH2 0x9EB JUMPI PUSH1 0x0 DUP1 REVERT JUMPDEST PUSH1 0x1 DUP1 SLOAD PUSH1 0x0 SWAP2 PUSH1 0x2 SWAP2 DUP4 SWAP2 DUP3 PUSH2 0xA01 DUP4 PUSH2 0x1210 JUMP JUMPDEST SWAP1 SWAP2 SSTORE POP DUP2 MSTORE PUSH1 0x20 DUP1 DUP3 ADD SWAP3 SWAP1 SWAP3 MSTORE PUSH1 0x40 ADD PUSH1 0x0 KECCAK256 DUP6 MLOAD SWAP1 SWAP3 POP PUSH2 0xA2A SWAP2 DUP4 SWAP2 SWAP1 DUP8 ADD SWAP1 PUSH2 0xCED JUMP JUMPDEST POP PUSH1 0x1 DUP2 ADD SWAP3 SWAP1 SWAP3 SSTORE PUSH1 0x2 DUP3 ADD DUP1 SLOAD PUSH1 0x1 PUSH1 0x1 PUSH1 0xA8 SHL SUB NOT AND PUSH1 0x1 PUSH1 0x1 PUSH1 0xA0 SHL SUB SWAP1 SWAP3 AND SWAP2 SWAP1 SWAP2 OR PUSH1 0x1 PUSH1 0xA0 SHL OR SWAP1 SSTORE PUSH1 0x5 PUSH1 0x3 DUP3 ADD SSTORE PUSH1 0x0 PUSH1 0x4 DUP3 ADD DUP2 SWAP1 SSTORE PUSH1 0x6 SWAP1 SWAP2 ADD SSTORE POP JUMP JUMPDEST PUSH1 0x6 DUP2 DUP2 SLOAD DUP2 LT PUSH2 0xA83 JUMPI PUSH1 0x0 DUP1 REVERT JUMPDEST SWAP1 PUSH1 0x0 MSTORE PUSH1 0x20 PUSH1 0x0 KECCAK256 ADD PUSH1 0x0 SWAP2 POP SWAP1 POP DUP1 SLOAD PUSH2 0x873 SWAP1 PUSH2 0x11D5 JUMP JUMPDEST PUSH1 0x0 DUP1 PUSH1 0x60 PUSH1 0x0 PUSH1 0x60 PUSH1 0x0 DUP1 PUSH1 0x1 SLOAD PUSH1 0x0 DUP1 SLOAD SWAP1 PUSH2 0x100 EXP SWAP1 DIV PUSH1 0x1 PUSH1 0x1 PUSH1 0xA0 SHL SUB AND PUSH1 0x9 PUSH1 0xA SLOAD PUSH1 0x3 PUSH1 0x4 SLOAD PUSH1 0x5 SLOAD DUP5 DUP1 SLOAD PUSH2 0xADA SWAP1 PUSH2 0x11D5 JUMP JUMPDEST DUP1 PUSH1 0x1F ADD PUSH1 0x20 DUP1 SWAP2 DIV MUL PUSH1 0x20 ADD PUSH1 0x40 MLOAD SWAP1 DUP2 ADD PUSH1 0x40 MSTORE DUP1 SWAP3 SWAP2 SWAP1 DUP2 DUP2 MSTORE PUSH1 0x20 ADD DUP3 DUP1 SLOAD PUSH2 0xB06 SWAP1 PUSH2 0x11D5 JUMP JUMPDEST DUP1 ISZERO PUSH2 0xB53 JUMPI DUP1 PUSH1 0x1F LT PUSH2 0xB28 JUMPI PUSH2 0x100 DUP1 DUP4 SLOAD DIV MUL DUP4 MSTORE SWAP2 PUSH1 0x20 ADD SWAP2 PUSH2 0xB53 JUMP JUMPDEST DUP3 ADD SWAP2 SWAP1 PUSH1 0x0 MSTORE PUSH1 0x20 PUSH1 0x0 KECCAK256 SWAP1 JUMPDEST DUP2 SLOAD DUP2 MSTORE SWAP1 PUSH1 0x1 ADD SWAP1 PUSH1 0x20 ADD DUP1 DUP4 GT PUSH2 0xB36 JUMPI DUP3 SWAP1 SUB PUSH1 0x1F AND DUP3 ADD SWAP2 JUMPDEST POP POP POP POP POP SWAP5 POP DUP3 DUP1 SLOAD PUSH2 0xB66 SWAP1 PUSH2 0x11D5 JUMP JUMPDEST DUP1 PUSH1 0x1F ADD PUSH1 0x20 DUP1 SWAP2 DIV MUL PUSH1 0x20 ADD PUSH1 0x40 MLOAD SWAP1 DUP2 ADD PUSH1 0x40 MSTORE DUP1 SWAP3 SWAP2 SWAP1 DUP2 DUP2 MSTORE PUSH1 0x20 ADD DUP3 DUP1 SLOAD PUSH2 0xB92 SWAP1 PUSH2 0x11D5 JUMP JUMPDEST DUP1 ISZERO PUSH2 0xBDF JUMPI DUP1 PUSH1 0x1F LT PUSH2 0xBB4 JUMPI PUSH2 0x100 DUP1 DUP4 SLOAD DIV MUL DUP4 MSTORE SWAP2 PUSH1 0x20 ADD SWAP2 PUSH2 0xBDF JUMP JUMPDEST DUP3 ADD SWAP2 SWAP1 PUSH1 0x0 MSTORE PUSH1 0x20 PUSH1 0x0 KECCAK256 SWAP1 JUMPDEST DUP2 SLOAD DUP2 MSTORE SWAP1 PUSH1 0x1 ADD SWAP1 PUSH1 0x20 ADD DUP1 DUP4 GT PUSH2 0xBC2 JUMPI DUP3 SWAP1 SUB PUSH1 0x1F AND DUP3 ADD SWAP2 JUMPDEST POP POP POP POP POP SWAP3 POP SWAP7 POP SWAP7 POP SWAP7 POP SWAP7 POP SWAP7 POP SWAP7 POP SWAP7 POP SWAP1 SWAP2 SWAP3 SWAP4 SWAP5 SWAP6 SWAP7 JUMP JUMPDEST PUSH1 0x0 DUP2 DUP2 MSTORE PUSH1 0x2 PUSH1 0x20 MSTORE PUSH1 0x40 SWAP1 KECCAK256 PUSH1 0x1 DUP2 ADD SLOAD CALLVALUE EQ PUSH2 0xC1B JUMPI PUSH1 0x0 DUP1 REVERT JUMPDEST PUSH1 0x2 DUP2 ADD SLOAD PUSH1 0x1 PUSH1 0xA0 SHL SWAP1 DIV PUSH1 0xFF AND PUSH2 0xC33 JUMPI PUSH1 0x0 DUP1 REVERT JUMPDEST PUSH1 0x2 DUP2 ADD SLOAD PUSH1 0x40 MLOAD PUSH1 0x1 PUSH1 0x1 PUSH1 0xA0 SHL SUB SWAP1 SWAP2 AND SWAP1 CALLVALUE DUP1 ISZERO PUSH2 0x8FC MUL SWAP2 PUSH1 0x0 DUP2 DUP2 DUP2 DUP6 DUP9 DUP9 CALL SWAP4 POP POP POP POP ISZERO DUP1 ISZERO PUSH2 0xC6E JUMPI RETURNDATASIZE PUSH1 0x0 DUP1 RETURNDATACOPY RETURNDATASIZE PUSH1 0x0 REVERT JUMPDEST POP CALLER PUSH1 0x0 SWAP1 DUP2 MSTORE PUSH1 0x7 DUP3 DUP2 ADD PUSH1 0x20 SWAP1 DUP2 MSTORE PUSH1 0x40 DUP1 DUP5 KECCAK256 DUP1 SLOAD PUSH1 0x1 PUSH1 0xFF NOT SWAP2 DUP3 AND DUP2 OR SWAP1 SWAP3 SSTORE SWAP4 SWAP1 SWAP3 MSTORE DUP4 KECCAK256 DUP1 SLOAD SWAP1 SWAP3 AND OR SWAP1 SSTORE PUSH1 0x6 DUP3 ADD DUP1 SLOAD SWAP2 PUSH2 0xCB1 DUP4 PUSH2 0x1210 JUMP JUMPDEST SWAP2 SWAP1 POP SSTORE POP PUSH1 0xA SLOAD DUP2 PUSH1 0x6 ADD SLOAD GT ISZERO PUSH2 0xCE9 JUMPI DUP1 SLOAD PUSH1 0x9 SWAP1 DUP3 SWAP1 PUSH2 0xCD4 SWAP1 PUSH2 0x11D5 JUMP JUMPDEST PUSH2 0xCDF SWAP3 SWAP2 SWAP1 PUSH2 0xD71 JUMP JUMPDEST POP PUSH1 0x6 DUP2 ADD SLOAD PUSH1 0xA SSTORE JUMPDEST POP POP JUMP JUMPDEST DUP3 DUP1 SLOAD PUSH2 0xCF9 SWAP1 PUSH2 0x11D5 JUMP JUMPDEST SWAP1 PUSH1 0x0 MSTORE PUSH1 0x20 PUSH1 0x0 KECCAK256 SWAP1 PUSH1 0x1F ADD PUSH1 0x20 SWAP1 DIV DUP2 ADD SWAP3 DUP3 PUSH2 0xD1B JUMPI PUSH1 0x0 DUP6 SSTORE PUSH2 0xD61 JUMP JUMPDEST DUP3 PUSH1 0x1F LT PUSH2 0xD34 JUMPI DUP1 MLOAD PUSH1 0xFF NOT AND DUP4 DUP1 ADD OR DUP6 SSTORE PUSH2 0xD61 JUMP JUMPDEST DUP3 DUP1 ADD PUSH1 0x1 ADD DUP6 SSTORE DUP3 ISZERO PUSH2 0xD61 JUMPI SWAP2 DUP3 ADD JUMPDEST DUP3 DUP2 GT ISZERO PUSH2 0xD61 JUMPI DUP3 MLOAD DUP3 SSTORE SWAP2 PUSH1 0x20 ADD SWAP2 SWAP1 PUSH1 0x1 ADD SWAP1 PUSH2 0xD46 JUMP JUMPDEST POP PUSH2 0xD6D SWAP3 SWAP2 POP PUSH2 0xDEC JUMP JUMPDEST POP SWAP1 JUMP JUMPDEST DUP3 DUP1 SLOAD PUSH2 0xD7D SWAP1 PUSH2 0x11D5 JUMP JUMPDEST SWAP1 PUSH1 0x0 MSTORE PUSH1 0x20 PUSH1 0x0 KECCAK256 SWAP1 PUSH1 0x1F ADD PUSH1 0x20 SWAP1 DIV DUP2 ADD SWAP3 DUP3 PUSH2 0xD9F JUMPI PUSH1 0x0 DUP6 SSTORE PUSH2 0xD61 JUMP JUMPDEST DUP3 PUSH1 0x1F LT PUSH2 0xDB0 JUMPI DUP1 SLOAD DUP6 SSTORE PUSH2 0xD61 JUMP JUMPDEST DUP3 DUP1 ADD PUSH1 0x1 ADD DUP6 SSTORE DUP3 ISZERO PUSH2 0xD61 JUMPI PUSH1 0x0 MSTORE PUSH1 0x20 PUSH1 0x0 KECCAK256 SWAP2 PUSH1 0x1F ADD PUSH1 0x20 SWAP1 DIV DUP3 ADD JUMPDEST DUP3 DUP2 GT ISZERO PUSH2 0xD61 JUMPI DUP3 SLOAD DUP3 SSTORE SWAP2 PUSH1 0x1 ADD SWAP2 SWAP1 PUSH1 0x1 ADD SWAP1 PUSH2 0xDD1 JUMP JUMPDEST JUMPDEST DUP1 DUP3 GT ISZERO PUSH2 0xD6D JUMPI PUSH1 0x0 DUP2 SSTORE PUSH1 0x1 ADD PUSH2 0xDED JUMP JUMPDEST PUSH1 0x0 DUP3 PUSH1 0x1F DUP4 ADD SLT PUSH2 0xE12 JUMPI PUSH1 0x0 DUP1 REVERT JUMPDEST DUP2 CALLDATALOAD PUSH8 0xFFFFFFFFFFFFFFFF DUP1 DUP3 GT ISZERO PUSH2 0xE2D JUMPI PUSH2 0xE2D PUSH2 0x126B JUMP JUMPDEST PUSH1 0x40 MLOAD PUSH1 0x1F DUP4 ADD PUSH1 0x1F NOT SWAP1 DUP2 AND PUSH1 0x3F ADD AND DUP2 ADD SWAP1 DUP3 DUP3 GT DUP2 DUP4 LT OR ISZERO PUSH2 0xE55 JUMPI PUSH2 0xE55 PUSH2 0x126B JUMP JUMPDEST DUP2 PUSH1 0x40 MSTORE DUP4 DUP2 MSTORE DUP7 PUSH1 0x20 DUP6 DUP9 ADD ADD GT ISZERO PUSH2 0xE6E JUMPI PUSH1 0x0 DUP1 REVERT JUMPDEST DUP4 PUSH1 0x20 DUP8 ADD PUSH1 0x20 DUP4 ADD CALLDATACOPY PUSH1 0x0 PUSH1 0x20 DUP6 DUP4 ADD ADD MSTORE DUP1 SWAP5 POP POP POP POP POP SWAP3 SWAP2 POP POP JUMP JUMPDEST PUSH1 0x0 DUP1 PUSH1 0x0 PUSH1 0x60 DUP5 DUP7 SUB SLT ISZERO PUSH2 0xEA3 JUMPI PUSH1 0x0 DUP1 REVERT JUMPDEST DUP4 CALLDATALOAD PUSH8 0xFFFFFFFFFFFFFFFF DUP2 GT ISZERO PUSH2 0xEBA JUMPI PUSH1 0x0 DUP1 REVERT JUMPDEST PUSH2 0xEC6 DUP7 DUP3 DUP8 ADD PUSH2 0xE01 JUMP JUMPDEST SWAP4 POP POP PUSH1 0x20 DUP5 ADD CALLDATALOAD SWAP2 POP PUSH1 0x40 DUP5 ADD CALLDATALOAD PUSH1 0x1 PUSH1 0x1 PUSH1 0xA0 SHL SUB DUP2 AND DUP2 EQ PUSH2 0xEEA JUMPI PUSH1 0x0 DUP1 REVERT JUMPDEST DUP1 SWAP2 POP POP SWAP3 POP SWAP3 POP SWAP3 JUMP JUMPDEST PUSH1 0x0 PUSH1 0x20 DUP3 DUP5 SUB SLT ISZERO PUSH2 0xF07 JUMPI PUSH1 0x0 DUP1 REVERT JUMPDEST POP CALLDATALOAD SWAP2 SWAP1 POP JUMP JUMPDEST PUSH1 0x0 DUP1 PUSH1 0x40 DUP4 DUP6 SUB SLT ISZERO PUSH2 0xF21 JUMPI PUSH1 0x0 DUP1 REVERT JUMPDEST DUP3 CALLDATALOAD SWAP2 POP PUSH1 0x20 DUP4 ADD CALLDATALOAD DUP1 ISZERO ISZERO DUP2 EQ PUSH2 0xF38 JUMPI PUSH1 0x0 DUP1 REVERT JUMPDEST DUP1 SWAP2 POP POP SWAP3 POP SWAP3 SWAP1 POP JUMP JUMPDEST PUSH1 0x0 DUP1 PUSH1 0x40 DUP4 DUP6 SUB SLT ISZERO PUSH2 0xF56 JUMPI PUSH1 0x0 DUP1 REVERT JUMPDEST DUP3 CALLDATALOAD SWAP2 POP PUSH1 0x20 DUP4 ADD CALLDATALOAD PUSH8 0xFFFFFFFFFFFFFFFF DUP2 GT ISZERO PUSH2 0xF74 JUMPI PUSH1 0x0 DUP1 REVERT JUMPDEST PUSH2 0xF80 DUP6 DUP3 DUP7 ADD PUSH2 0xE01 JUMP JUMPDEST SWAP2 POP POP SWAP3 POP SWAP3 SWAP1 POP JUMP JUMPDEST PUSH1 0x0 DUP1 PUSH1 0x0 PUSH1 0x60 DUP5 DUP7 SUB SLT ISZERO PUSH2 0xF9F JUMPI PUSH1 0x0 DUP1 REVERT JUMPDEST DUP4 CALLDATALOAD SWAP3 POP PUSH1 0x20 DUP5 ADD CALLDATALOAD SWAP2 POP PUSH1 0x40 DUP5 ADD CALLDATALOAD PUSH8 0xFFFFFFFFFFFFFFFF DUP2 GT ISZERO PUSH2 0xFC4 JUMPI PUSH1 0x0 DUP1 REVERT JUMPDEST PUSH2 0xFD0 DUP7 DUP3 DUP8 ADD PUSH2 0xE01 JUMP JUMPDEST SWAP2 POP POP SWAP3 POP SWAP3 POP SWAP3 JUMP JUMPDEST PUSH1 0x0 DUP3 DUP3 MLOAD DUP1 DUP6 MSTORE PUSH1 0x20 DUP1 DUP7 ADD SWAP6 POP DUP1 DUP3 PUSH1 0x5 SHL DUP5 ADD ADD DUP2 DUP7 ADD PUSH1 0x0 JUMPDEST DUP5 DUP2 LT ISZERO PUSH2 0x1025 JUMPI PUSH1 0x1F NOT DUP7 DUP5 SUB ADD DUP10 MSTORE PUSH2 0x1013 DUP4 DUP4 MLOAD PUSH2 0x1032 JUMP JUMPDEST SWAP9 DUP5 ADD SWAP9 SWAP3 POP SWAP1 DUP4 ADD SWAP1 PUSH1 0x1 ADD PUSH2 0xFF7 JUMP JUMPDEST POP SWAP1 SWAP8 SWAP7 POP POP POP POP POP POP POP JUMP JUMPDEST PUSH1 0x0 DUP2 MLOAD DUP1 DUP5 MSTORE PUSH1 0x0 JUMPDEST DUP2 DUP2 LT ISZERO PUSH2 0x1058 JUMPI PUSH1 0x20 DUP2 DUP6 ADD DUP2 ADD MLOAD DUP7 DUP4 ADD DUP3 ADD MSTORE ADD PUSH2 0x103C JUMP JUMPDEST DUP2 DUP2 GT ISZERO PUSH2 0x106A JUMPI PUSH1 0x0 PUSH1 0x20 DUP4 DUP8 ADD ADD MSTORE JUMPDEST POP PUSH1 0x1F ADD PUSH1 0x1F NOT AND SWAP3 SWAP1 SWAP3 ADD PUSH1 0x20 ADD SWAP3 SWAP2 POP POP JUMP JUMPDEST PUSH1 0x20 DUP2 MSTORE PUSH1 0x0 PUSH2 0x1092 PUSH1 0x20 DUP4 ADD DUP5 PUSH2 0xFDA JUMP JUMPDEST SWAP4 SWAP3 POP POP POP JUMP JUMPDEST PUSH1 0x20 DUP2 MSTORE PUSH1 0x0 PUSH2 0x1092 PUSH1 0x20 DUP4 ADD DUP5 PUSH2 0x1032 JUMP JUMPDEST PUSH1 0xE0 DUP2 MSTORE PUSH1 0x0 PUSH2 0x10BF PUSH1 0xE0 DUP4 ADD DUP11 PUSH2 0x1032 JUMP JUMPDEST PUSH1 0x20 DUP4 ADD SWAP9 SWAP1 SWAP9 MSTORE POP PUSH1 0x1 PUSH1 0x1 PUSH1 0xA0 SHL SUB SWAP6 SWAP1 SWAP6 AND PUSH1 0x40 DUP7 ADD MSTORE SWAP3 ISZERO ISZERO PUSH1 0x60 DUP6 ADD MSTORE PUSH1 0x80 DUP5 ADD SWAP2 SWAP1 SWAP2 MSTORE PUSH1 0xA0 DUP4 ADD MSTORE PUSH1 0xC0 SWAP1 SWAP2 ADD MSTORE SWAP2 SWAP1 POP JUMP JUMPDEST DUP8 DUP2 MSTORE PUSH1 0x1 PUSH1 0x1 PUSH1 0xA0 SHL SUB DUP8 AND PUSH1 0x20 DUP3 ADD MSTORE PUSH1 0xE0 PUSH1 0x40 DUP3 ADD DUP2 SWAP1 MSTORE PUSH1 0x0 SWAP1 PUSH2 0x1123 SWAP1 DUP4 ADD DUP9 PUSH2 0x1032 JUMP JUMPDEST DUP7 PUSH1 0x60 DUP5 ADD MSTORE DUP3 DUP2 SUB PUSH1 0x80 DUP5 ADD MSTORE PUSH2 0x113B DUP2 DUP8 PUSH2 0x1032 JUMP JUMPDEST PUSH1 0xA0 DUP5 ADD SWAP6 SWAP1 SWAP6 MSTORE POP POP PUSH1 0xC0 ADD MSTORE SWAP6 SWAP5 POP POP POP POP POP JUMP JUMPDEST DUP3 DUP2 MSTORE PUSH1 0x40 PUSH1 0x20 DUP3 ADD MSTORE PUSH1 0x0 PUSH2 0x116B PUSH1 0x40 DUP4 ADD DUP5 PUSH2 0xFDA JUMP JUMPDEST SWAP5 SWAP4 POP POP POP POP JUMP JUMPDEST PUSH1 0x0 DUP3 NOT DUP3 GT ISZERO PUSH2 0x1186 JUMPI PUSH2 0x1186 PUSH2 0x123F JUMP JUMPDEST POP ADD SWAP1 JUMP JUMPDEST PUSH1 0x0 DUP3 PUSH2 0x119A JUMPI PUSH2 0x119A PUSH2 0x1255 JUMP JUMPDEST POP DIV SWAP1 JUMP JUMPDEST PUSH1 0x0 DUP2 PUSH1 0x0 NOT DIV DUP4 GT DUP3 ISZERO ISZERO AND ISZERO PUSH2 0x11B9 JUMPI PUSH2 0x11B9 PUSH2 0x123F JUMP JUMPDEST POP MUL SWAP1 JUMP JUMPDEST PUSH1 0x0 DUP3 DUP3 LT ISZERO PUSH2 0x11D0 JUMPI PUSH2 0x11D0 PUSH2 0x123F JUMP JUMPDEST POP SUB SWAP1 JUMP JUMPDEST PUSH1 0x1 DUP2 DUP2 SHR SWAP1 DUP3 AND DUP1 PUSH2 0x11E9 JUMPI PUSH1 0x7F DUP3 AND SWAP2 POP JUMPDEST PUSH1 0x20 DUP3 LT DUP2 EQ ISZERO PUSH2 0x120A JUMPI PUSH4 0x4E487B71 PUSH1 0xE0 SHL PUSH1 0x0 MSTORE PUSH1 0x22 PUSH1 0x4 MSTORE PUSH1 0x24 PUSH1 0x0 REVERT JUMPDEST POP SWAP2 SWAP1 POP JUMP JUMPDEST PUSH1 0x0 PUSH1 0x0 NOT DUP3 EQ ISZERO PUSH2 0x1224 JUMPI PUSH2 0x1224 PUSH2 0x123F JUMP JUMPDEST POP PUSH1 0x1 ADD SWAP1 JUMP JUMPDEST PUSH1 0x0 DUP3 PUSH2 0x123A JUMPI PUSH2 0x123A PUSH2 0x1255 JUMP JUMPDEST POP MOD SWAP1 JUMP JUMPDEST PUSH4 0x4E487B71 PUSH1 0xE0 SHL PUSH1 0x0 MSTORE PUSH1 0x11 PUSH1 0x4 MSTORE PUSH1 0x24 PUSH1 0x0 REVERT JUMPDEST PUSH4 0x4E487B71 PUSH1 0xE0 SHL PUSH1 0x0 MSTORE PUSH1 0x12 PUSH1 0x4 MSTORE PUSH1 0x24 PUSH1 0x0 REVERT JUMPDEST PUSH4 0x4E487B71 PUSH1 0xE0 SHL PUSH1 0x0 MSTORE PUSH1 0x41 PUSH1 0x4 MSTORE PUSH1 0x24 PUSH1 0x0 REVERT INVALID LOG2 PUSH5 0x6970667358 0x22 SLT KECCAK256 SDIV 0x1F 0xBB CODECOPY 0xF9 0x29 CREATE2 SGT 0xA7 0xB6 SWAP2 0xF6 0xC6 PUSH3 0x2CB8D7 0xF 0xD1 0x24 0x4A SLOAD 0x2B PUSH1 0xB2 PUSH24 0xD60EF7F48F7E64736F6C6343000807003300000000000000 "},"gasEstimates":{"creation":{"codeDepositCost":"958200","executionCost":"infinite","totalCost":"infinite"},"external":{"bestSeller()":"infinite","bestSellerQuantity()":"2363","buy(uint256)":"infinite","createProduct(string,uint256,address)":"infinite","getProductsCount()":"2337","getProductsReviews(uint256)":"infinite","getStoreSummary()":"infinite","manager()":"2385","numProducts()":"2339","numStoreReviews()":"2341","productAvailable(uint256,bool)":"26842","products(uint256)":"infinite","reviewProduct(uint256,uint256,string)":"infinite","reviewStore(uint256,string)":"infinite","storeName()":"infinite","storeScore()":"2384","storeWrittenReviews(uint256)":"infinite"}},"methodIdentifiers":{"bestSeller()":"4a64090b","bestSellerQuantity()":"07aa0bc4","buy(uint256)":"d96a094a","createProduct(string,uint256,address)":"8dc51887","getProductsCount()":"5786fd40","getProductsReviews(uint256)":"0a366cc8","getStoreSummary()":"d69d5094","manager()":"481c6a75","numProducts()":"ac964f21","numStoreReviews()":"06acdcfe","productAvailable(uint256,bool)":"4a02990c","products(uint256)":"7acc0b20","reviewProduct(uint256,uint256,string)":"00f73d4c","reviewStore(uint256,string)":"2c0d259d","storeName()":"521936e6","storeScore()":"8d8ef2f0","storeWrittenReviews(uint256)":"b1b53c38"}},"storageLayout":{"storage":[{"astId":68,"contract":"Store.sol:Store","label":"manager","offset":0,"slot":"0","type":"t_address"},{"astId":70,"contract":"Store.sol:Store","label":"numProducts","offset":0,"slot":"1","type":"t_uint256"},{"astId":75,"contract":"Store.sol:Store","label":"products","offset":0,"slot":"2","type":"t_mapping(t_uint256,t_struct(Product)66_storage)"},{"astId":77,"contract":"Store.sol:Store","label":"storeName","offset":0,"slot":"3","type":"t_string_storage"},{"astId":79,"contract":"Store.sol:Store","label":"storeScore","offset":0,"slot":"4","type":"t_uint256"},{"astId":81,"contract":"Store.sol:Store","label":"numStoreReviews","offset":0,"slot":"5","type":"t_uint256"},{"astId":84,"contract":"Store.sol:Store","label":"storeWrittenReviews","offset":0,"slot":"6","type":"t_array(t_string_storage)dyn_storage"},{"astId":88,"contract":"Store.sol:Store","label":"storeShopper","offset":0,"slot":"7","type":"t_mapping(t_address,t_bool)"},{"astId":92,"contract":"Store.sol:Store","label":"storeReviews","offset":0,"slot":"8","type":"t_mapping(t_address,t_bool)"},{"astId":94,"contract":"Store.sol:Store","label":"bestSeller","offset":0,"slot":"9","type":"t_string_storage"},{"astId":96,"contract":"Store.sol:Store","label":"bestSellerQuantity","offset":0,"slot":"10","type":"t_uint256"}],"types":{"t_address":{"encoding":"inplace","label":"address","numberOfBytes":"20"},"t_array(t_string_storage)dyn_storage":{"base":"t_string_storage","encoding":"dynamic_array","label":"string[]","numberOfBytes":"32"},"t_bool":{"encoding":"inplace","label":"bool","numberOfBytes":"1"},"t_mapping(t_address,t_bool)":{"encoding":"mapping","key":"t_address","label":"mapping(address => bool)","numberOfBytes":"32","value":"t_bool"},"t_mapping(t_uint256,t_struct(Product)66_storage)":{"encoding":"mapping","key":"t_uint256","label":"mapping(uint256 => struct Store.Product)","numberOfBytes":"32","value":"t_struct(Product)66_storage"},"t_string_storage":{"encoding":"bytes","label":"string","numberOfBytes":"32"},"t_struct(Product)66_storage":{"encoding":"inplace","label":"struct Store.Product","members":[{"astId":42,"contract":"Store.sol:Store","label":"description","offset":0,"slot":"0","type":"t_string_storage"},{"astId":44,"contract":"Store.sol:Store","label":"price","offset":0,"slot":"1","type":"t_uint256"},{"astId":46,"contract":"Store.sol:Store","label":"seller","offset":0,"slot":"2","type":"t_address"},{"astId":48,"contract":"Store.sol:Store","label":"available","offset":20,"slot":"2","type":"t_bool"},{"astId":50,"contract":"Store.sol:Store","label":"reviewScore","offset":0,"slot":"3","type":"t_uint256"},{"astId":52,"contract":"Store.sol:Store","label":"totalReviews","offset":0,"slot":"4","type":"t_uint256"},{"astId":55,"contract":"Store.sol:Store","label":"writtenReviews","offset":0,"slot":"5","type":"t_array(t_string_storage)dyn_storage"},{"astId":57,"contract":"Store.sol:Store","label":"numSoldProduct","offset":0,"slot":"6","type":"t_uint256"},{"astId":61,"contract":"Store.sol:Store","label":"buyers","offset":0,"slot":"7","type":"t_mapping(t_address,t_bool)"},{"astId":65,"contract":"Store.sol:Store","label":"reviews","offset":0,"slot":"8","type":"t_mapping(t_address,t_bool)"}],"numberOfBytes":"288"},"t_uint256":{"encoding":"inplace","label":"uint256","numberOfBytes":"32"}}},"userdoc":{"kind":"user","methods":{},"version":1}}