{"abi":[{"inputs":[{"internalType":"string","name":"name","type":"string"}],"name":"createStore","outputs":[],"stateMutability":"nonpayable","type":"function"},{"inputs":[{"internalType":"uint256","name":"","type":"uint256"}],"name":"deployedStores","outputs":[{"internalType":"address","name":"","type":"address"}],"stateMutability":"view","type":"function"},{"inputs":[],"name":"getDeployedStores","outputs":[{"internalType":"address[]","name":"","type":"address[]"}],"stateMutability":"view","type":"function"}],"devdoc":{"kind":"dev","methods":{},"version":1},"evm":{"assembly":"    /* \"Store.sol\":93:437  contract StoreFactory {... */\n  mstore(0x40, 0x80)\n  callvalue\n  dup1\n  iszero\n  tag_1\n  jumpi\n  0x00\n  dup1\n  revert\ntag_1:\n  pop\n  dataSize(sub_0)\n  dup1\n  dataOffset(sub_0)\n  0x00\n  codecopy\n  0x00\n  return\nstop\n\nsub_0: assembly {\n        /* \"Store.sol\":93:437  contract StoreFactory {... */\n      mstore(0x40, 0x80)\n      callvalue\n      dup1\n      iszero\n      tag_1\n      jumpi\n      0x00\n      dup1\n      revert\n    tag_1:\n      pop\n      jumpi(tag_2, lt(calldatasize, 0x04))\n      shr(0xe0, calldataload(0x00))\n      dup1\n      0x2d9fd7ae\n      eq\n      tag_3\n      jumpi\n      dup1\n      0xd0e04fe3\n      eq\n      tag_4\n      jumpi\n      dup1\n      0xd9c509e6\n      eq\n      tag_5\n      jumpi\n    tag_2:\n      0x00\n      dup1\n      revert\n        /* \"Store.sol\":121:152  address[] public deployedStores */\n    tag_3:\n      tag_6\n      tag_7\n      calldatasize\n      0x04\n      tag_8\n      jump\t// in\n    tag_7:\n      tag_9\n      jump\t// in\n    tag_6:\n      mload(0x40)\n      sub(shl(0xa0, 0x01), 0x01)\n        /* \"#utility.yul\":1290:1322   */\n      swap1\n      swap2\n      and\n        /* \"#utility.yul\":1272:1323   */\n      dup2\n      mstore\n        /* \"#utility.yul\":1260:1262   */\n      0x20\n        /* \"#utility.yul\":1245:1263   */\n      add\n        /* \"Store.sol\":121:152  address[] public deployedStores */\n    tag_10:\n      mload(0x40)\n      dup1\n      swap2\n      sub\n      swap1\n      return\n        /* \"Store.sol\":163:320  function createStore(string memory name) public {... */\n    tag_4:\n      tag_12\n      tag_13\n      calldatasize\n      0x04\n      tag_14\n      jump\t// in\n    tag_13:\n      tag_15\n      jump\t// in\n    tag_12:\n      stop\n        /* \"Store.sol\":330:435  function getDeployedStores() public view returns(address[] memory) {... */\n    tag_5:\n      tag_16\n      tag_17\n      jump\t// in\n    tag_16:\n      mload(0x40)\n      tag_10\n      swap2\n      swap1\n      tag_19\n      jump\t// in\n        /* \"Store.sol\":121:152  address[] public deployedStores */\n    tag_9:\n      0x00\n      dup2\n      dup2\n      sload\n      dup2\n      lt\n      tag_20\n      jumpi\n      0x00\n      dup1\n      revert\n    tag_20:\n      0x00\n      swap2\n      dup3\n      mstore\n      0x20\n      swap1\n      swap2\n      keccak256\n      add\n      sload\n      sub(shl(0xa0, 0x01), 0x01)\n      and\n      swap1\n      pop\n      dup2\n      jump\t// out\n        /* \"Store.sol\":163:320  function createStore(string memory name) public {... */\n    tag_15:\n        /* \"Store.sol\":221:235  Store newStore */\n      0x00\n        /* \"Store.sol\":248:252  name */\n      dup2\n        /* \"Store.sol\":254:264  msg.sender */\n      caller\n        /* \"Store.sol\":238:265  new Store(name, msg.sender) */\n      mload(0x40)\n      tag_23\n      swap1\n      tag_24\n      jump\t// in\n    tag_23:\n      tag_25\n      swap3\n      swap2\n      swap1\n      tag_26\n      jump\t// in\n    tag_25:\n      mload(0x40)\n      dup1\n      swap2\n      sub\n      swap1\n      0x00\n      create\n      dup1\n      iszero\n      dup1\n      iszero\n      tag_27\n      jumpi\n      returndatasize\n      0x00\n      dup1\n      returndatacopy\n      revert(0x00, returndatasize)\n    tag_27:\n      pop\n        /* \"Store.sol\":275:289  deployedStores */\n      0x00\n        /* \"Store.sol\":275:313  deployedStores.push(address(newStore)) */\n      dup1\n      sload\n      0x01\n      dup2\n      add\n      dup3\n      sstore\n      swap1\n      dup1\n      mstore\n      0x290decd9548b62a8d60345a988386fc84ba6bc95484008f6362f93160ef3e563\n      add\n      dup1\n      sload\n      not(sub(shl(0xa0, 0x01), 0x01))\n      and\n      sub(shl(0xa0, 0x01), 0x01)\n      swap3\n      swap1\n      swap3\n      and\n      swap2\n      swap1\n      swap2\n      or\n      swap1\n      sstore\n      pop\n      pop\n        /* \"Store.sol\":163:320  function createStore(string memory name) public {... */\n      jump\t// out\n        /* \"Store.sol\":330:435  function getDeployedStores() public view returns(address[] memory) {... */\n    tag_17:\n        /* \"Store.sol\":379:395  address[] memory */\n      0x60\n        /* \"Store.sol\":414:428  deployedStores */\n      0x00\n        /* \"Store.sol\":407:428  return deployedStores */\n      dup1\n      sload\n      dup1\n      0x20\n      mul\n      0x20\n      add\n      mload(0x40)\n      swap1\n      dup2\n      add\n      0x40\n      mstore\n      dup1\n      swap3\n      swap2\n      swap1\n      dup2\n      dup2\n      mstore\n      0x20\n      add\n      dup3\n      dup1\n      sload\n      dup1\n      iszero\n      tag_30\n      jumpi\n      0x20\n      mul\n      dup3\n      add\n      swap2\n      swap1\n      0x00\n      mstore\n      keccak256(0x00, 0x20)\n      swap1\n    tag_31:\n      dup2\n      sload\n      sub(shl(0xa0, 0x01), 0x01)\n      and\n      dup2\n      mstore\n      0x01\n      swap1\n      swap2\n      add\n      swap1\n      0x20\n      add\n      dup1\n      dup4\n      gt\n      tag_31\n      jumpi\n    tag_30:\n      pop\n      pop\n      pop\n      pop\n      pop\n      swap1\n      pop\n        /* \"Store.sol\":330:435  function getDeployedStores() public view returns(address[] memory) {... */\n      swap1\n      jump\t// out\n    tag_24:\n      dataSize(sub_0)\n      dup1\n      dataOffset(sub_0)\n      dup4\n      codecopy\n      add\n      swap1\n      jump\t// out\n        /* \"#utility.yul\":14:936   */\n    tag_14:\n        /* \"#utility.yul\":83:89   */\n      0x00\n        /* \"#utility.yul\":136:138   */\n      0x20\n        /* \"#utility.yul\":124:133   */\n      dup3\n        /* \"#utility.yul\":115:122   */\n      dup5\n        /* \"#utility.yul\":111:134   */\n      sub\n        /* \"#utility.yul\":107:139   */\n      slt\n        /* \"#utility.yul\":104:156   */\n      iszero\n      tag_34\n      jumpi\n        /* \"#utility.yul\":152:153   */\n      0x00\n        /* \"#utility.yul\":149:150   */\n      dup1\n        /* \"#utility.yul\":142:154   */\n      revert\n        /* \"#utility.yul\":104:156   */\n    tag_34:\n        /* \"#utility.yul\":192:201   */\n      dup2\n        /* \"#utility.yul\":179:202   */\n      calldataload\n        /* \"#utility.yul\":221:239   */\n      0xffffffffffffffff\n        /* \"#utility.yul\":262:264   */\n      dup1\n        /* \"#utility.yul\":254:260   */\n      dup3\n        /* \"#utility.yul\":251:265   */\n      gt\n        /* \"#utility.yul\":248:282   */\n      iszero\n      tag_35\n      jumpi\n        /* \"#utility.yul\":278:279   */\n      0x00\n        /* \"#utility.yul\":275:276   */\n      dup1\n        /* \"#utility.yul\":268:280   */\n      revert\n        /* \"#utility.yul\":248:282   */\n    tag_35:\n        /* \"#utility.yul\":316:322   */\n      dup2\n        /* \"#utility.yul\":305:314   */\n      dup5\n        /* \"#utility.yul\":301:323   */\n      add\n        /* \"#utility.yul\":291:323   */\n      swap2\n      pop\n        /* \"#utility.yul\":361:368   */\n      dup5\n        /* \"#utility.yul\":354:358   */\n      0x1f\n        /* \"#utility.yul\":350:352   */\n      dup4\n        /* \"#utility.yul\":346:359   */\n      add\n        /* \"#utility.yul\":342:369   */\n      slt\n        /* \"#utility.yul\":332:387   */\n      tag_36\n      jumpi\n        /* \"#utility.yul\":383:384   */\n      0x00\n        /* \"#utility.yul\":380:381   */\n      dup1\n        /* \"#utility.yul\":373:385   */\n      revert\n        /* \"#utility.yul\":332:387   */\n    tag_36:\n        /* \"#utility.yul\":419:421   */\n      dup2\n        /* \"#utility.yul\":406:422   */\n      calldataload\n        /* \"#utility.yul\":441:443   */\n      dup2\n        /* \"#utility.yul\":437:439   */\n      dup2\n        /* \"#utility.yul\":434:444   */\n      gt\n        /* \"#utility.yul\":431:467   */\n      iszero\n      tag_38\n      jumpi\n        /* \"#utility.yul\":447:465   */\n      tag_38\n      tag_39\n      jump\t// in\n    tag_38:\n        /* \"#utility.yul\":522:524   */\n      0x40\n        /* \"#utility.yul\":516:525   */\n      mload\n        /* \"#utility.yul\":490:492   */\n      0x1f\n        /* \"#utility.yul\":576:589   */\n      dup3\n      add\n      not(0x1f)\n        /* \"#utility.yul\":572:594   */\n      swap1\n      dup2\n      and\n        /* \"#utility.yul\":596:598   */\n      0x3f\n        /* \"#utility.yul\":568:599   */\n      add\n        /* \"#utility.yul\":564:604   */\n      and\n        /* \"#utility.yul\":552:605   */\n      dup2\n      add\n      swap1\n        /* \"#utility.yul\":620:638   */\n      dup4\n      dup3\n      gt\n        /* \"#utility.yul\":640:662   */\n      dup2\n      dup4\n      lt\n        /* \"#utility.yul\":617:663   */\n      or\n        /* \"#utility.yul\":614:686   */\n      iszero\n      tag_41\n      jumpi\n        /* \"#utility.yul\":666:684   */\n      tag_41\n      tag_39\n      jump\t// in\n    tag_41:\n        /* \"#utility.yul\":706:716   */\n      dup2\n        /* \"#utility.yul\":702:704   */\n      0x40\n        /* \"#utility.yul\":695:717   */\n      mstore\n        /* \"#utility.yul\":741:743   */\n      dup3\n        /* \"#utility.yul\":733:739   */\n      dup2\n        /* \"#utility.yul\":726:744   */\n      mstore\n        /* \"#utility.yul\":781:788   */\n      dup8\n        /* \"#utility.yul\":776:778   */\n      0x20\n        /* \"#utility.yul\":771:773   */\n      dup5\n        /* \"#utility.yul\":767:769   */\n      dup8\n        /* \"#utility.yul\":763:774   */\n      add\n        /* \"#utility.yul\":759:779   */\n      add\n        /* \"#utility.yul\":756:789   */\n      gt\n        /* \"#utility.yul\":753:806   */\n      iszero\n      tag_42\n      jumpi\n        /* \"#utility.yul\":802:803   */\n      0x00\n        /* \"#utility.yul\":799:800   */\n      dup1\n        /* \"#utility.yul\":792:804   */\n      revert\n        /* \"#utility.yul\":753:806   */\n    tag_42:\n        /* \"#utility.yul\":858:860   */\n      dup3\n        /* \"#utility.yul\":853:855   */\n      0x20\n        /* \"#utility.yul\":849:851   */\n      dup7\n        /* \"#utility.yul\":845:856   */\n      add\n        /* \"#utility.yul\":840:842   */\n      0x20\n        /* \"#utility.yul\":832:838   */\n      dup4\n        /* \"#utility.yul\":828:843   */\n      add\n        /* \"#utility.yul\":815:861   */\n      calldatacopy\n        /* \"#utility.yul\":903:904   */\n      0x00\n        /* \"#utility.yul\":881:896   */\n      swap3\n      dup2\n      add\n        /* \"#utility.yul\":898:900   */\n      0x20\n        /* \"#utility.yul\":877:901   */\n      add\n        /* \"#utility.yul\":870:905   */\n      swap3\n      swap1\n      swap3\n      mstore\n      pop\n        /* \"#utility.yul\":885:891   */\n      swap6\n        /* \"#utility.yul\":14:936   */\n      swap5\n      pop\n      pop\n      pop\n      pop\n      pop\n      jump\t// out\n        /* \"#utility.yul\":941:1121   */\n    tag_8:\n        /* \"#utility.yul\":1000:1006   */\n      0x00\n        /* \"#utility.yul\":1053:1055   */\n      0x20\n        /* \"#utility.yul\":1041:1050   */\n      dup3\n        /* \"#utility.yul\":1032:1039   */\n      dup5\n        /* \"#utility.yul\":1028:1051   */\n      sub\n        /* \"#utility.yul\":1024:1056   */\n      slt\n        /* \"#utility.yul\":1021:1073   */\n      iszero\n      tag_44\n      jumpi\n        /* \"#utility.yul\":1069:1070   */\n      0x00\n        /* \"#utility.yul\":1066:1067   */\n      dup1\n        /* \"#utility.yul\":1059:1071   */\n      revert\n        /* \"#utility.yul\":1021:1073   */\n    tag_44:\n      pop\n        /* \"#utility.yul\":1092:1115   */\n      calldataload\n      swap2\n        /* \"#utility.yul\":941:1121   */\n      swap1\n      pop\n      jump\t// out\n        /* \"#utility.yul\":1334:1992   */\n    tag_19:\n        /* \"#utility.yul\":1505:1507   */\n      0x20\n        /* \"#utility.yul\":1557:1578   */\n      dup1\n      dup3\n      mstore\n        /* \"#utility.yul\":1627:1640   */\n      dup3\n      mload\n        /* \"#utility.yul\":1530:1548   */\n      dup3\n      dup3\n      add\n        /* \"#utility.yul\":1649:1671   */\n      dup2\n      swap1\n      mstore\n        /* \"#utility.yul\":1476:1480   */\n      0x00\n      swap2\n        /* \"#utility.yul\":1505:1507   */\n      swap1\n        /* \"#utility.yul\":1728:1743   */\n      dup5\n      dup3\n      add\n      swap1\n        /* \"#utility.yul\":1702:1704   */\n      0x40\n        /* \"#utility.yul\":1687:1705   */\n      dup6\n      add\n      swap1\n        /* \"#utility.yul\":1476:1480   */\n      dup5\n        /* \"#utility.yul\":1771:1966   */\n    tag_47:\n        /* \"#utility.yul\":1785:1791   */\n      dup2\n        /* \"#utility.yul\":1782:1783   */\n      dup2\n        /* \"#utility.yul\":1779:1792   */\n      lt\n        /* \"#utility.yul\":1771:1966   */\n      iszero\n      tag_49\n      jumpi\n        /* \"#utility.yul\":1850:1863   */\n      dup4\n      mload\n      sub(shl(0xa0, 0x01), 0x01)\n        /* \"#utility.yul\":1846:1885   */\n      and\n        /* \"#utility.yul\":1834:1886   */\n      dup4\n      mstore\n        /* \"#utility.yul\":1941:1956   */\n      swap3\n      dup5\n      add\n      swap3\n        /* \"#utility.yul\":1906:1918   */\n      swap2\n      dup5\n      add\n      swap2\n        /* \"#utility.yul\":1882:1883   */\n      0x01\n        /* \"#utility.yul\":1800:1809   */\n      add\n        /* \"#utility.yul\":1771:1966   */\n      jump(tag_47)\n    tag_49:\n      pop\n        /* \"#utility.yul\":1983:1986   */\n      swap1\n      swap7\n        /* \"#utility.yul\":1334:1992   */\n      swap6\n      pop\n      pop\n      pop\n      pop\n      pop\n      pop\n      jump\t// out\n        /* \"#utility.yul\":1997:2676   */\n    tag_26:\n        /* \"#utility.yul\":2174:2176   */\n      0x40\n        /* \"#utility.yul\":2163:2172   */\n      dup2\n        /* \"#utility.yul\":2156:2177   */\n      mstore\n        /* \"#utility.yul\":2137:2141   */\n      0x00\n        /* \"#utility.yul\":2206:2212   */\n      dup4\n        /* \"#utility.yul\":2200:2213   */\n      mload\n        /* \"#utility.yul\":2249:2255   */\n      dup1\n        /* \"#utility.yul\":2244:2246   */\n      0x40\n        /* \"#utility.yul\":2233:2242   */\n      dup5\n        /* \"#utility.yul\":2229:2247   */\n      add\n        /* \"#utility.yul\":2222:2256   */\n      mstore\n        /* \"#utility.yul\":2274:2275   */\n      0x00\n        /* \"#utility.yul\":2284:2428   */\n    tag_51:\n        /* \"#utility.yul\":2298:2304   */\n      dup2\n        /* \"#utility.yul\":2295:2296   */\n      dup2\n        /* \"#utility.yul\":2292:2305   */\n      lt\n        /* \"#utility.yul\":2284:2428   */\n      iszero\n      tag_53\n      jumpi\n        /* \"#utility.yul\":2411:2415   */\n      0x20\n        /* \"#utility.yul\":2395:2409   */\n      dup2\n      dup8\n      add\n        /* \"#utility.yul\":2391:2416   */\n      dup2\n      add\n        /* \"#utility.yul\":2385:2417   */\n      mload\n        /* \"#utility.yul\":2380:2382   */\n      0x60\n        /* \"#utility.yul\":2361:2378   */\n      dup7\n      dup5\n      add\n        /* \"#utility.yul\":2357:2383   */\n      add\n        /* \"#utility.yul\":2350:2418   */\n      mstore\n        /* \"#utility.yul\":2313:2325   */\n      add\n        /* \"#utility.yul\":2284:2428   */\n      jump(tag_51)\n    tag_53:\n        /* \"#utility.yul\":2446:2452   */\n      dup2\n        /* \"#utility.yul\":2443:2444   */\n      dup2\n        /* \"#utility.yul\":2440:2453   */\n      gt\n        /* \"#utility.yul\":2437:2528   */\n      iszero\n      tag_54\n      jumpi\n        /* \"#utility.yul\":2516:2517   */\n      0x00\n        /* \"#utility.yul\":2511:2513   */\n      0x60\n        /* \"#utility.yul\":2502:2508   */\n      dup4\n        /* \"#utility.yul\":2491:2500   */\n      dup7\n        /* \"#utility.yul\":2487:2509   */\n      add\n        /* \"#utility.yul\":2483:2514   */\n      add\n        /* \"#utility.yul\":2476:2518   */\n      mstore\n        /* \"#utility.yul\":2437:2528   */\n    tag_54:\n      pop\n      sub(shl(0xa0, 0x01), 0x01)\n        /* \"#utility.yul\":2637:2669   */\n      swap4\n      swap1\n      swap4\n      and\n        /* \"#utility.yul\":2630:2634   */\n      0x20\n        /* \"#utility.yul\":2615:2635   */\n      dup4\n      add\n        /* \"#utility.yul\":2608:2670   */\n      mstore\n      pop\n        /* \"#utility.yul\":2589:2591   */\n      0x1f\n        /* \"#utility.yul\":2568:2583   */\n      swap2\n      swap1\n      swap2\n      add\n      not(0x1f)\n        /* \"#utility.yul\":2564:2593   */\n      and\n        /* \"#utility.yul\":2549:2594   */\n      add\n        /* \"#utility.yul\":2596:2598   */\n      0x60\n        /* \"#utility.yul\":2545:2599   */\n      add\n      swap2\n        /* \"#utility.yul\":1997:2676   */\n      swap1\n      pop\n      jump\t// out\n        /* \"#utility.yul\":2681:2808   */\n    tag_39:\n        /* \"#utility.yul\":2742:2752   */\n      0x4e487b71\n        /* \"#utility.yul\":2737:2740   */\n      0xe0\n        /* \"#utility.yul\":2733:2753   */\n      shl\n        /* \"#utility.yul\":2730:2731   */\n      0x00\n        /* \"#utility.yul\":2723:2754   */\n      mstore\n        /* \"#utility.yul\":2773:2777   */\n      0x41\n        /* \"#utility.yul\":2770:2771   */\n      0x04\n        /* \"#utility.yul\":2763:2778   */\n      mstore\n        /* \"#utility.yul\":2797:2801   */\n      0x24\n        /* \"#utility.yul\":2794:2795   */\n      0x00\n        /* \"#utility.yul\":2787:2802   */\n      revert\n    stop\n\n    sub_0: assembly {\n            /* \"Store.sol\":439:5421  contract Store {... */\n          mstore(0x40, 0x80)\n            /* \"Store.sol\":1429:1538  constructor(string memory name, address creator) {... */\n          callvalue\n          dup1\n          iszero\n          tag_1\n          jumpi\n          0x00\n          dup1\n          revert\n        tag_1:\n          pop\n          mload(0x40)\n          sub(codesize, bytecodeSize)\n          dup1\n          bytecodeSize\n          dup4\n          codecopy\n          dup2\n          add\n          0x40\n          dup2\n          swap1\n          mstore\n          tag_2\n          swap2\n          tag_3\n          jump\t// in\n        tag_2:\n            /* \"Store.sol\":1488:1504  storeName = name */\n          dup2\n          mload\n          tag_6\n          swap1\n            /* \"Store.sol\":1488:1497  storeName */\n          0x03\n          swap1\n            /* \"Store.sol\":1488:1504  storeName = name */\n          0x20\n          dup6\n          add\n          swap1\n          tag_7\n          jump\t// in\n        tag_6:\n          pop\n            /* \"Store.sol\":1514:1521  manager */\n          0x00\n            /* \"Store.sol\":1514:1531  manager = creator */\n          dup1\n          sload\n          not(sub(shl(0xa0, 0x01), 0x01))\n          and\n          sub(shl(0xa0, 0x01), 0x01)\n          swap3\n          swap1\n          swap3\n          and\n          swap2\n          swap1\n          swap2\n          or\n          swap1\n          sstore\n          pop\n            /* \"Store.sol\":439:5421  contract Store {... */\n          jump(tag_20)\n        tag_7:\n          dup3\n          dup1\n          sload\n          tag_9\n          swap1\n          tag_10\n          jump\t// in\n        tag_9:\n          swap1\n          0x00\n          mstore\n          keccak256(0x00, 0x20)\n          swap1\n          0x1f\n          add\n          0x20\n          swap1\n          div\n          dup2\n          add\n          swap3\n          dup3\n          tag_12\n          jumpi\n          0x00\n          dup6\n          sstore\n          jump(tag_15)\n        tag_12:\n          dup3\n          0x1f\n          lt\n          tag_13\n          jumpi\n          dup1\n          mload\n          not(0xff)\n          and\n          dup4\n          dup1\n          add\n          or\n          dup6\n          sstore\n          jump(tag_15)\n        tag_13:\n          dup3\n          dup1\n          add\n          0x01\n          add\n          dup6\n          sstore\n          dup3\n          iszero\n          tag_15\n          jumpi\n          swap2\n          dup3\n          add\n        tag_14:\n          dup3\n          dup2\n          gt\n          iszero\n          tag_15\n          jumpi\n          dup3\n          mload\n          dup3\n          sstore\n          swap2\n          0x20\n          add\n          swap2\n          swap1\n          0x01\n          add\n          swap1\n          jump(tag_14)\n        tag_15:\n          pop\n          tag_16\n          swap3\n          swap2\n          pop\n          tag_17\n          jump\t// in\n        tag_16:\n          pop\n          swap1\n          jump\t// out\n        tag_17:\n        tag_18:\n          dup1\n          dup3\n          gt\n          iszero\n          tag_16\n          jumpi\n          0x00\n          dup2\n          sstore\n          0x01\n          add\n          jump(tag_18)\n            /* \"#utility.yul\":14:191   */\n        tag_21:\n            /* \"#utility.yul\":93:106   */\n          dup1\n          mload\n          sub(shl(0xa0, 0x01), 0x01)\n            /* \"#utility.yul\":135:166   */\n          dup2\n          and\n            /* \"#utility.yul\":125:167   */\n          dup2\n          eq\n            /* \"#utility.yul\":115:185   */\n          tag_23\n          jumpi\n            /* \"#utility.yul\":181:182   */\n          0x00\n            /* \"#utility.yul\":178:179   */\n          dup1\n            /* \"#utility.yul\":171:183   */\n          revert\n            /* \"#utility.yul\":115:185   */\n        tag_23:\n            /* \"#utility.yul\":14:191   */\n          swap2\n          swap1\n          pop\n          jump\t// out\n            /* \"#utility.yul\":196:1370   */\n        tag_3:\n            /* \"#utility.yul\":285:291   */\n          0x00\n            /* \"#utility.yul\":293:299   */\n          dup1\n            /* \"#utility.yul\":346:348   */\n          0x40\n            /* \"#utility.yul\":334:343   */\n          dup4\n            /* \"#utility.yul\":325:332   */\n          dup6\n            /* \"#utility.yul\":321:344   */\n          sub\n            /* \"#utility.yul\":317:349   */\n          slt\n            /* \"#utility.yul\":314:366   */\n          iszero\n          tag_25\n          jumpi\n            /* \"#utility.yul\":362:363   */\n          0x00\n            /* \"#utility.yul\":359:360   */\n          dup1\n            /* \"#utility.yul\":352:364   */\n          revert\n            /* \"#utility.yul\":314:366   */\n        tag_25:\n            /* \"#utility.yul\":389:405   */\n          dup3\n          mload\n          0xffffffffffffffff\n            /* \"#utility.yul\":454:468   */\n          dup1\n          dup3\n          gt\n            /* \"#utility.yul\":451:485   */\n          iszero\n          tag_26\n          jumpi\n            /* \"#utility.yul\":481:482   */\n          0x00\n            /* \"#utility.yul\":478:479   */\n          dup1\n            /* \"#utility.yul\":471:483   */\n          revert\n            /* \"#utility.yul\":451:485   */\n        tag_26:\n            /* \"#utility.yul\":519:525   */\n          dup2\n            /* \"#utility.yul\":508:517   */\n          dup6\n            /* \"#utility.yul\":504:526   */\n          add\n            /* \"#utility.yul\":494:526   */\n          swap2\n          pop\n            /* \"#utility.yul\":564:571   */\n          dup6\n            /* \"#utility.yul\":557:561   */\n          0x1f\n            /* \"#utility.yul\":553:555   */\n          dup4\n            /* \"#utility.yul\":549:562   */\n          add\n            /* \"#utility.yul\":545:572   */\n          slt\n            /* \"#utility.yul\":535:590   */\n          tag_27\n          jumpi\n            /* \"#utility.yul\":586:587   */\n          0x00\n            /* \"#utility.yul\":583:584   */\n          dup1\n            /* \"#utility.yul\":576:588   */\n          revert\n            /* \"#utility.yul\":535:590   */\n        tag_27:\n            /* \"#utility.yul\":615:617   */\n          dup2\n            /* \"#utility.yul\":609:618   */\n          mload\n            /* \"#utility.yul\":637:639   */\n          dup2\n            /* \"#utility.yul\":633:635   */\n          dup2\n            /* \"#utility.yul\":630:640   */\n          gt\n            /* \"#utility.yul\":627:663   */\n          iszero\n          tag_29\n          jumpi\n            /* \"#utility.yul\":643:661   */\n          tag_29\n          tag_30\n          jump\t// in\n        tag_29:\n            /* \"#utility.yul\":718:720   */\n          0x40\n            /* \"#utility.yul\":712:721   */\n          mload\n            /* \"#utility.yul\":686:688   */\n          0x1f\n            /* \"#utility.yul\":772:785   */\n          dup3\n          add\n          not(0x1f)\n            /* \"#utility.yul\":768:790   */\n          swap1\n          dup2\n          and\n            /* \"#utility.yul\":792:794   */\n          0x3f\n            /* \"#utility.yul\":764:795   */\n          add\n            /* \"#utility.yul\":760:800   */\n          and\n            /* \"#utility.yul\":748:801   */\n          dup2\n          add\n          swap1\n            /* \"#utility.yul\":816:834   */\n          dup4\n          dup3\n          gt\n            /* \"#utility.yul\":836:858   */\n          dup2\n          dup4\n          lt\n            /* \"#utility.yul\":813:859   */\n          or\n            /* \"#utility.yul\":810:882   */\n          iszero\n          tag_32\n          jumpi\n            /* \"#utility.yul\":862:880   */\n          tag_32\n          tag_30\n          jump\t// in\n        tag_32:\n            /* \"#utility.yul\":902:912   */\n          dup2\n            /* \"#utility.yul\":898:900   */\n          0x40\n            /* \"#utility.yul\":891:913   */\n          mstore\n            /* \"#utility.yul\":937:939   */\n          dup3\n            /* \"#utility.yul\":929:935   */\n          dup2\n            /* \"#utility.yul\":922:940   */\n          mstore\n            /* \"#utility.yul\":959:963   */\n          0x20\n            /* \"#utility.yul\":949:963   */\n          swap4\n          pop\n            /* \"#utility.yul\":1000:1007   */\n          dup9\n            /* \"#utility.yul\":995:997   */\n          dup5\n            /* \"#utility.yul\":990:992   */\n          dup5\n            /* \"#utility.yul\":986:988   */\n          dup8\n            /* \"#utility.yul\":982:993   */\n          add\n            /* \"#utility.yul\":978:998   */\n          add\n            /* \"#utility.yul\":975:1008   */\n          gt\n            /* \"#utility.yul\":972:1025   */\n          iszero\n          tag_33\n          jumpi\n            /* \"#utility.yul\":1021:1022   */\n          0x00\n            /* \"#utility.yul\":1018:1019   */\n          dup1\n            /* \"#utility.yul\":1011:1023   */\n          revert\n            /* \"#utility.yul\":972:1025   */\n        tag_33:\n            /* \"#utility.yul\":1043:1044   */\n          0x00\n            /* \"#utility.yul\":1034:1044   */\n          swap2\n          pop\n            /* \"#utility.yul\":1053:1182   */\n        tag_34:\n            /* \"#utility.yul\":1067:1069   */\n          dup3\n            /* \"#utility.yul\":1064:1065   */\n          dup3\n            /* \"#utility.yul\":1061:1070   */\n          lt\n            /* \"#utility.yul\":1053:1182   */\n          iszero\n          tag_36\n          jumpi\n            /* \"#utility.yul\":1155:1165   */\n          dup5\n          dup3\n          add\n            /* \"#utility.yul\":1151:1170   */\n          dup5\n          add\n            /* \"#utility.yul\":1145:1171   */\n          mload\n            /* \"#utility.yul\":1124:1138   */\n          dup2\n          dup4\n          add\n            /* \"#utility.yul\":1120:1143   */\n          dup6\n          add\n            /* \"#utility.yul\":1113:1172   */\n          mstore\n            /* \"#utility.yul\":1078:1088   */\n          swap1\n          dup4\n          add\n          swap1\n            /* \"#utility.yul\":1053:1182   */\n          jump(tag_34)\n        tag_36:\n            /* \"#utility.yul\":1200:1202   */\n          dup3\n            /* \"#utility.yul\":1197:1198   */\n          dup3\n            /* \"#utility.yul\":1194:1203   */\n          gt\n            /* \"#utility.yul\":1191:1271   */\n          iszero\n          tag_37\n          jumpi\n            /* \"#utility.yul\":1259:1260   */\n          0x00\n            /* \"#utility.yul\":1254:1256   */\n          dup5\n            /* \"#utility.yul\":1249:1251   */\n          dup5\n            /* \"#utility.yul\":1241:1247   */\n          dup4\n            /* \"#utility.yul\":1237:1252   */\n          add\n            /* \"#utility.yul\":1233:1257   */\n          add\n            /* \"#utility.yul\":1226:1261   */\n          mstore\n            /* \"#utility.yul\":1191:1271   */\n        tag_37:\n            /* \"#utility.yul\":1290:1296   */\n          swap6\n          pop\n            /* \"#utility.yul\":1315:1364   */\n          tag_38\n          swap2\n          pop\n          pop\n            /* \"#utility.yul\":1345:1363   */\n          dup6\n          dup3\n          add\n            /* \"#utility.yul\":1315:1364   */\n          tag_21\n          jump\t// in\n        tag_38:\n            /* \"#utility.yul\":1305:1364   */\n          swap3\n          pop\n          pop\n          pop\n            /* \"#utility.yul\":196:1370   */\n          swap3\n          pop\n          swap3\n          swap1\n          pop\n          jump\t// out\n            /* \"#utility.yul\":1375:1755   */\n        tag_10:\n            /* \"#utility.yul\":1454:1455   */\n          0x01\n            /* \"#utility.yul\":1450:1462   */\n          dup2\n          dup2\n          shr\n          swap1\n            /* \"#utility.yul\":1497:1509   */\n          dup3\n          and\n          dup1\n            /* \"#utility.yul\":1518:1579   */\n          tag_40\n          jumpi\n            /* \"#utility.yul\":1572:1576   */\n          0x7f\n            /* \"#utility.yul\":1564:1570   */\n          dup3\n            /* \"#utility.yul\":1560:1577   */\n          and\n            /* \"#utility.yul\":1550:1577   */\n          swap2\n          pop\n            /* \"#utility.yul\":1518:1579   */\n        tag_40:\n            /* \"#utility.yul\":1625:1627   */\n          0x20\n            /* \"#utility.yul\":1617:1623   */\n          dup3\n            /* \"#utility.yul\":1614:1628   */\n          lt\n            /* \"#utility.yul\":1594:1612   */\n          dup2\n            /* \"#utility.yul\":1591:1629   */\n          eq\n            /* \"#utility.yul\":1588:1749   */\n          iszero\n          tag_41\n          jumpi\n            /* \"#utility.yul\":1671:1681   */\n          0x4e487b71\n            /* \"#utility.yul\":1666:1669   */\n          0xe0\n            /* \"#utility.yul\":1662:1682   */\n          shl\n            /* \"#utility.yul\":1659:1660   */\n          0x00\n            /* \"#utility.yul\":1652:1683   */\n          mstore\n            /* \"#utility.yul\":1706:1710   */\n          0x22\n            /* \"#utility.yul\":1703:1704   */\n          0x04\n            /* \"#utility.yul\":1696:1711   */\n          mstore\n            /* \"#utility.yul\":1734:1738   */\n          0x24\n            /* \"#utility.yul\":1731:1732   */\n          0x00\n            /* \"#utility.yul\":1724:1739   */\n          revert\n            /* \"#utility.yul\":1588:1749   */\n        tag_41:\n          pop\n            /* \"#utility.yul\":1375:1755   */\n          swap2\n          swap1\n          pop\n          jump\t// out\n            /* \"#utility.yul\":1760:1887   */\n        tag_30:\n            /* \"#utility.yul\":1821:1831   */\n          0x4e487b71\n            /* \"#utility.yul\":1816:1819   */\n          0xe0\n            /* \"#utility.yul\":1812:1832   */\n          shl\n            /* \"#utility.yul\":1809:1810   */\n          0x00\n            /* \"#utility.yul\":1802:1833   */\n          mstore\n            /* \"#utility.yul\":1852:1856   */\n          0x41\n            /* \"#utility.yul\":1849:1850   */\n          0x04\n            /* \"#utility.yul\":1842:1857   */\n          mstore\n            /* \"#utility.yul\":1876:1880   */\n          0x24\n            /* \"#utility.yul\":1873:1874   */\n          0x00\n            /* \"#utility.yul\":1866:1881   */\n          revert\n            /* \"#utility.yul\":1760:1887   */\n        tag_20:\n            /* \"Store.sol\":439:5421  contract Store {... */\n          dataSize(sub_0)\n          dup1\n          dataOffset(sub_0)\n          0x00\n          codecopy\n          0x00\n          return\n        stop\n\n        sub_0: assembly {\n                /* \"Store.sol\":439:5421  contract Store {... */\n              mstore(0x40, 0x80)\n              jumpi(tag_1, lt(calldatasize, 0x04))\n              shr(0xe0, calldataload(0x00))\n              dup1\n              0x7acc0b20\n              gt\n              tag_22\n              jumpi\n              dup1\n              0xb1b53c38\n              gt\n              tag_23\n              jumpi\n              dup1\n              0xb1b53c38\n              eq\n              tag_17\n              jumpi\n              dup1\n              0xb365221d\n              eq\n              tag_18\n              jumpi\n              dup1\n              0xc577d23c\n              eq\n              tag_19\n              jumpi\n              dup1\n              0xd69d5094\n              eq\n              tag_20\n              jumpi\n              dup1\n              0xd96a094a\n              eq\n              tag_21\n              jumpi\n              0x00\n              dup1\n              revert\n            tag_23:\n              dup1\n              0x7acc0b20\n              eq\n              tag_12\n              jumpi\n              dup1\n              0x8af213e2\n              eq\n              tag_13\n              jumpi\n              dup1\n              0x8d8ef2f0\n              eq\n              tag_14\n              jumpi\n              dup1\n              0x8dc51887\n              eq\n              tag_15\n              jumpi\n              dup1\n              0xac964f21\n              eq\n              tag_16\n              jumpi\n              0x00\n              dup1\n              revert\n            tag_22:\n              dup1\n              0x481c6a75\n              gt\n              tag_24\n              jumpi\n              dup1\n              0x481c6a75\n              eq\n              tag_7\n              jumpi\n              dup1\n              0x4a02990c\n              eq\n              tag_8\n              jumpi\n              dup1\n              0x4a64090b\n              eq\n              tag_9\n              jumpi\n              dup1\n              0x521936e6\n              eq\n              tag_10\n              jumpi\n              dup1\n              0x5786fd40\n              eq\n              tag_11\n              jumpi\n              0x00\n              dup1\n              revert\n            tag_24:\n              dup1\n              0xf73d4c\n              eq\n              tag_2\n              jumpi\n              dup1\n              0x06acdcfe\n              eq\n              tag_3\n              jumpi\n              dup1\n              0x07aa0bc4\n              eq\n              tag_4\n              jumpi\n              dup1\n              0x0a366cc8\n              eq\n              tag_5\n              jumpi\n              dup1\n              0x2c0d259d\n              eq\n              tag_6\n              jumpi\n            tag_1:\n              0x00\n              dup1\n              revert\n                /* \"Store.sol\":2828:3738  function reviewProduct(uint index, uint review, string memory opinion) public returns (uint, string[] memory, address[] memory, uint[] memory) {... */\n            tag_2:\n              callvalue\n              dup1\n              iszero\n              tag_25\n              jumpi\n              0x00\n              dup1\n              revert\n            tag_25:\n              pop\n              tag_26\n              tag_27\n              calldatasize\n              0x04\n              tag_28\n              jump\t// in\n            tag_27:\n              tag_29\n              jump\t// in\n            tag_26:\n              mload(0x40)\n              tag_30\n              swap5\n              swap4\n              swap3\n              swap2\n              swap1\n              tag_31\n              jump\t// in\n            tag_30:\n              mload(0x40)\n              dup1\n              swap2\n              sub\n              swap1\n              return\n                /* \"Store.sol\":1034:1061  uint public numStoreReviews */\n            tag_3:\n              callvalue\n              dup1\n              iszero\n              tag_32\n              jumpi\n              0x00\n              dup1\n              revert\n            tag_32:\n              pop\n              tag_33\n              sload(0x05)\n              dup2\n              jump\n            tag_33:\n              mload(0x40)\n                /* \"#utility.yul\":6640:6665   */\n              swap1\n              dup2\n              mstore\n                /* \"#utility.yul\":6628:6630   */\n              0x20\n                /* \"#utility.yul\":6613:6631   */\n              add\n                /* \"Store.sol\":1034:1061  uint public numStoreReviews */\n              tag_30\n                /* \"#utility.yul\":6494:6671   */\n              jump\n                /* \"Store.sol\":1293:1323  uint public bestSellerQuantity */\n            tag_4:\n              callvalue\n              dup1\n              iszero\n              tag_37\n              jumpi\n              0x00\n              dup1\n              revert\n            tag_37:\n              pop\n              tag_33\n              sload(0x0c)\n              dup2\n              jump\n                /* \"Store.sol\":4920:5139  function getProductsReviews(uint index) public view returns (string[] memory, address[] memory, uint[] memory) {... */\n            tag_5:\n              callvalue\n              dup1\n              iszero\n              tag_41\n              jumpi\n              0x00\n              dup1\n              revert\n            tag_41:\n              pop\n              tag_42\n              tag_43\n              calldatasize\n              0x04\n              tag_44\n              jump\t// in\n            tag_43:\n              tag_45\n              jump\t// in\n            tag_42:\n              mload(0x40)\n              tag_30\n              swap4\n              swap3\n              swap2\n              swap1\n              tag_47\n              jump\t// in\n                /* \"Store.sol\":3748:4517  function reviewStore(uint review, string memory opinion) public returns (uint, string[] memory, address[] memory, uint[] memory) {... */\n            tag_6:\n              callvalue\n              dup1\n              iszero\n              tag_48\n              jumpi\n              0x00\n              dup1\n              revert\n            tag_48:\n              pop\n              tag_26\n              tag_50\n              calldatasize\n              0x04\n              tag_51\n              jump\t// in\n            tag_50:\n              tag_52\n              jump\t// in\n                /* \"Store.sol\":872:894  address public manager */\n            tag_7:\n              callvalue\n              dup1\n              iszero\n              tag_54\n              jumpi\n              0x00\n              dup1\n              revert\n            tag_54:\n              pop\n              sload(0x00)\n              tag_55\n              swap1\n              sub(shl(0xa0, 0x01), 0x01)\n              and\n              dup2\n              jump\n            tag_55:\n              mload(0x40)\n              sub(shl(0xa0, 0x01), 0x01)\n                /* \"#utility.yul\":4840:4872   */\n              swap2\n              swap1\n              swap2\n              and\n                /* \"#utility.yul\":4822:4873   */\n              dup2\n              mstore\n                /* \"#utility.yul\":4810:4812   */\n              0x20\n                /* \"#utility.yul\":4795:4813   */\n              add\n                /* \"Store.sol\":872:894  address public manager */\n              tag_30\n                /* \"#utility.yul\":4676:4879   */\n              jump\n                /* \"Store.sol\":4527:4653  function productAvailable(uint index, bool available) public restricted {... */\n            tag_8:\n              callvalue\n              dup1\n              iszero\n              tag_59\n              jumpi\n              0x00\n              dup1\n              revert\n            tag_59:\n              pop\n              tag_60\n              tag_61\n              calldatasize\n              0x04\n              tag_62\n              jump\t// in\n            tag_61:\n              tag_63\n              jump\t// in\n            tag_60:\n              stop\n                /* \"Store.sol\":1263:1287  string public bestSeller */\n            tag_9:\n              callvalue\n              dup1\n              iszero\n              tag_64\n              jumpi\n              0x00\n              dup1\n              revert\n            tag_64:\n              pop\n              tag_65\n              tag_66\n              jump\t// in\n            tag_65:\n              mload(0x40)\n              tag_30\n              swap2\n              swap1\n              tag_68\n              jump\t// in\n                /* \"Store.sol\":976:999  string public storeName */\n            tag_10:\n              callvalue\n              dup1\n              iszero\n              tag_69\n              jumpi\n              0x00\n              dup1\n              revert\n            tag_69:\n              pop\n              tag_65\n              tag_71\n              jump\t// in\n                /* \"Store.sol\":5328:5419  function getProductsCount()  public view returns (uint) {... */\n            tag_11:\n              callvalue\n              dup1\n              iszero\n              tag_73\n              jumpi\n              0x00\n              dup1\n              revert\n            tag_73:\n              pop\n                /* \"Store.sol\":5401:5412  numProducts */\n              sload(0x01)\n                /* \"Store.sol\":5328:5419  function getProductsCount()  public view returns (uint) {... */\n              jump(tag_33)\n                /* \"Store.sol\":929:970  mapping (uint => Product) public products */\n            tag_12:\n              callvalue\n              dup1\n              iszero\n              tag_77\n              jumpi\n              0x00\n              dup1\n              revert\n            tag_77:\n              pop\n              tag_78\n              tag_79\n              calldatasize\n              0x04\n              tag_44\n              jump\t// in\n            tag_79:\n              tag_80\n              jump\t// in\n            tag_78:\n              mload(0x40)\n              tag_30\n              swap8\n              swap7\n              swap6\n              swap5\n              swap4\n              swap3\n              swap2\n              swap1\n              tag_82\n              jump\t// in\n                /* \"Store.sol\":1108:1139  address[] public storeReviewers */\n            tag_13:\n              callvalue\n              dup1\n              iszero\n              tag_83\n              jumpi\n              0x00\n              dup1\n              revert\n            tag_83:\n              pop\n              tag_55\n              tag_85\n              calldatasize\n              0x04\n              tag_44\n              jump\t// in\n            tag_85:\n              tag_86\n              jump\t// in\n                /* \"Store.sol\":1005:1028  uint public  storeScore */\n            tag_14:\n              callvalue\n              dup1\n              iszero\n              tag_88\n              jumpi\n              0x00\n              dup1\n              revert\n            tag_88:\n              pop\n              tag_33\n              sload(0x04)\n              dup2\n              jump\n                /* \"Store.sol\":2094:2818  function createProduct(string memory description, uint price, address seller) public restricted {... */\n            tag_15:\n              callvalue\n              dup1\n              iszero\n              tag_92\n              jumpi\n              0x00\n              dup1\n              revert\n            tag_92:\n              pop\n              tag_60\n              tag_94\n              calldatasize\n              0x04\n              tag_95\n              jump\t// in\n            tag_94:\n              tag_96\n              jump\t// in\n                /* \"Store.sol\":900:923  uint public numProducts */\n            tag_16:\n              callvalue\n              dup1\n              iszero\n              tag_97\n              jumpi\n              0x00\n              dup1\n              revert\n            tag_97:\n              pop\n              tag_33\n              sload(0x01)\n              dup2\n              jump\n                /* \"Store.sol\":1067:1102  string[] public storeWrittenReviews */\n            tag_17:\n              callvalue\n              dup1\n              iszero\n              tag_101\n              jumpi\n              0x00\n              dup1\n              revert\n            tag_101:\n              pop\n              tag_65\n              tag_103\n              calldatasize\n              0x04\n              tag_44\n              jump\t// in\n            tag_103:\n              tag_104\n              jump\t// in\n                /* \"Store.sol\":1145:1171  uint[] public storeRatings */\n            tag_18:\n              callvalue\n              dup1\n              iszero\n              tag_106\n              jumpi\n              0x00\n              dup1\n              revert\n            tag_106:\n              pop\n              tag_33\n              tag_108\n              calldatasize\n              0x04\n              tag_44\n              jump\t// in\n            tag_108:\n              tag_109\n              jump\t// in\n                /* \"Store.sol\":5149:5322  function getStoreReviews() public view returns (string[] memory, address[] memory, uint[] memory) {... */\n            tag_19:\n              callvalue\n              dup1\n              iszero\n              tag_111\n              jumpi\n              0x00\n              dup1\n              revert\n            tag_111:\n              pop\n              tag_42\n              tag_113\n              jump\t// in\n                /* \"Store.sol\":4663:4910  function getStoreSummary() public view returns (... */\n            tag_20:\n              callvalue\n              dup1\n              iszero\n              tag_115\n              jumpi\n              0x00\n              dup1\n              revert\n            tag_115:\n              pop\n              tag_116\n              tag_117\n              jump\t// in\n            tag_116:\n              mload(0x40)\n              tag_30\n              swap8\n              swap7\n              swap6\n              swap5\n              swap4\n              swap3\n              swap2\n              swap1\n              tag_119\n              jump\t// in\n                /* \"Store.sol\":1548:2084  function buy(uint index) public payable {... */\n            tag_21:\n              tag_60\n              tag_121\n              calldatasize\n              0x04\n              tag_44\n              jump\t// in\n            tag_121:\n              tag_122\n              jump\t// in\n                /* \"Store.sol\":2828:3738  function reviewProduct(uint index, uint review, string memory opinion) public returns (uint, string[] memory, address[] memory, uint[] memory) {... */\n            tag_29:\n                /* \"Store.sol\":2915:2919  uint */\n              0x00\n                /* \"Store.sol\":3007:3022  products[index] */\n              dup4\n              dup2\n              mstore\n                /* \"Store.sol\":3007:3015  products */\n              0x02\n                /* \"Store.sol\":3007:3022  products[index] */\n              0x20\n              swap1\n              dup2\n              mstore\n              0x40\n              dup1\n              dup4\n              keccak256\n                /* \"Store.sol\":3064:3074  msg.sender */\n              caller\n                /* \"Store.sol\":3049:3075  product.buyers[msg.sender] */\n              dup5\n              mstore\n                /* \"Store.sol\":3049:3063  product.buyers */\n              0x09\n              dup2\n              add\n                /* \"Store.sol\":3049:3075  product.buyers[msg.sender] */\n              swap1\n              swap3\n              mstore\n              dup3\n              keccak256\n              sload\n                /* \"Store.sol\":2921:2936  string[] memory */\n              0x60\n              swap2\n              dup3\n              swap2\n              dup3\n              swap2\n                /* \"Store.sol\":3007:3022  products[index] */\n              swap1\n                /* \"Store.sol\":3049:3075  product.buyers[msg.sender] */\n              0xff\n              and\n                /* \"Store.sol\":3041:3076  require(product.buyers[msg.sender]) */\n              tag_124\n              jumpi\n              0x00\n              dup1\n              revert\n            tag_124:\n                /* \"Store.sol\":3149:3159  msg.sender */\n              caller\n                /* \"Store.sol\":3133:3160  product.reviews[msg.sender] */\n              0x00\n              swap1\n              dup2\n              mstore\n                /* \"Store.sol\":3133:3148  product.reviews */\n              0x0a\n              dup3\n              add\n                /* \"Store.sol\":3133:3160  product.reviews[msg.sender] */\n              0x20\n              mstore\n              0x40\n              swap1\n              keccak256\n              sload\n              0xff\n              and\n                /* \"Store.sol\":3132:3160  !product.reviews[msg.sender] */\n              iszero\n                /* \"Store.sol\":3124:3161  require(!product.reviews[msg.sender]) */\n              tag_125\n              jumpi\n              0x00\n              dup1\n              revert\n            tag_125:\n                /* \"Store.sol\":3241:3242  5 */\n              0x05\n                /* \"Store.sol\":3232:3238  review */\n              dup8\n                /* \"Store.sol\":3232:3242  review <=5 */\n              gt\n              iszero\n                /* \"Store.sol\":3232:3256  review <=5 && review > 0 */\n              dup1\n              iszero\n              tag_126\n              jumpi\n              pop\n                /* \"Store.sol\":3255:3256  0 */\n              0x00\n                /* \"Store.sol\":3246:3252  review */\n              dup8\n                /* \"Store.sol\":3246:3256  review > 0 */\n              gt\n                /* \"Store.sol\":3232:3256  review <=5 && review > 0 */\n            tag_126:\n                /* \"Store.sol\":3232:3277  review <=5 && review > 0 && (review % 1 == 0) */\n              dup1\n              iszero\n              tag_127\n              jumpi\n              pop\n                /* \"Store.sol\":3261:3271  review % 1 */\n              tag_128\n                /* \"Store.sol\":3270:3271  1 */\n              0x01\n                /* \"Store.sol\":3261:3267  review */\n              dup9\n                /* \"Store.sol\":3261:3271  review % 1 */\n              tag_129\n              jump\t// in\n            tag_128:\n                /* \"Store.sol\":3261:3276  review % 1 == 0 */\n              iszero\n                /* \"Store.sol\":3232:3277  review <=5 && review > 0 && (review % 1 == 0) */\n            tag_127:\n                /* \"Store.sol\":3224:3278  require(review <=5 && review > 0 && (review % 1 == 0)) */\n              tag_130\n              jumpi\n              0x00\n              dup1\n              revert\n            tag_130:\n                /* \"Store.sol\":3304:3314  msg.sender */\n              caller\n                /* \"Store.sol\":3288:3315  product.reviews[msg.sender] */\n              0x00\n              swap1\n              dup2\n              mstore\n                /* \"Store.sol\":3288:3303  product.reviews */\n              0x0a\n              dup3\n              add\n                /* \"Store.sol\":3288:3315  product.reviews[msg.sender] */\n              0x20\n              mstore\n              0x40\n              dup2\n              keccak256\n                /* \"Store.sol\":3288:3322  product.reviews[msg.sender] = true */\n              dup1\n              sload\n              not(0xff)\n              and\n                /* \"Store.sol\":3318:3322  true */\n              0x01\n                /* \"Store.sol\":3288:3322  product.reviews[msg.sender] = true */\n              or\n              swap1\n              sstore\n                /* \"Store.sol\":3371:3391  product.totalReviews */\n              0x04\n              dup3\n              add\n                /* \"Store.sol\":3371:3393  product.totalReviews++ */\n              dup1\n              sload\n              swap2\n              tag_131\n              dup4\n              tag_132\n              jump\t// in\n            tag_131:\n              swap1\n              swap2\n              sstore\n              pop\n              pop\n                /* \"Store.sol\":3480:3500  product.totalReviews */\n              0x04\n              dup2\n              add\n              sload\n                /* \"Store.sol\":3480:3504  product.totalReviews + 1 */\n              tag_133\n              swap1\n                /* \"Store.sol\":3503:3504  1 */\n              0x01\n                /* \"Store.sol\":3480:3504  product.totalReviews + 1 */\n              tag_134\n              jump\t// in\n            tag_133:\n                /* \"Store.sol\":3469:3475  review */\n              dup8\n                /* \"Store.sol\":3446:3453  product */\n              dup3\n                /* \"Store.sol\":3446:3466  product.totalReviews */\n              0x04\n              add\n              sload\n                /* \"Store.sol\":3426:3433  product */\n              dup4\n                /* \"Store.sol\":3426:3445  product.reviewScore */\n              0x03\n              add\n              sload\n                /* \"Store.sol\":3426:3466  product.reviewScore*product.totalReviews */\n              tag_135\n              swap2\n              swap1\n              tag_136\n              jump\t// in\n            tag_135:\n                /* \"Store.sol\":3426:3475  product.reviewScore*product.totalReviews + review */\n              tag_137\n              swap2\n              swap1\n              tag_134\n              jump\t// in\n            tag_137:\n                /* \"Store.sol\":3425:3505  (product.reviewScore*product.totalReviews + review) / (product.totalReviews + 1) */\n              tag_138\n              swap2\n              swap1\n              tag_139\n              jump\t// in\n            tag_138:\n                /* \"Store.sol\":3403:3422  product.reviewScore */\n              0x03\n              dup3\n              add\n                /* \"Store.sol\":3403:3505  product.reviewScore = (product.reviewScore*product.totalReviews + review) / (product.totalReviews + 1) */\n              sstore\n                /* \"Store.sol\":3515:3537  product.writtenReviews */\n              0x05\n              dup2\n              add\n                /* \"Store.sol\":3515:3551  product.writtenReviews.push(opinion) */\n              dup1\n              sload\n              0x01\n              dup2\n              add\n              dup3\n              sstore\n              0x00\n              swap2\n              dup3\n              mstore\n              0x20\n              swap2\n              dup3\n              swap1\n              keccak256\n              dup9\n              mload\n              tag_141\n              swap4\n              swap2\n              swap1\n              swap3\n              add\n              swap2\n              swap1\n              dup10\n              add\n              swap1\n              tag_142\n              jump\t// in\n            tag_141:\n              pop\n                /* \"Store.sol\":3561:3578  product.reviewers */\n              0x06\n              dup2\n              add\n                /* \"Store.sol\":3561:3595  product.reviewers.push(msg.sender) */\n              dup1\n              sload\n              0x01\n              dup1\n              dup3\n              add\n              dup4\n              sstore\n              0x00\n              dup4\n              dup2\n              mstore\n              0x20\n              dup1\n              dup3\n              keccak256\n              swap1\n              swap4\n              add\n              dup1\n              sload\n              not(sub(shl(0xa0, 0x01), 0x01))\n              and\n                /* \"Store.sol\":3584:3594  msg.sender */\n              caller\n                /* \"Store.sol\":3561:3595  product.reviewers.push(msg.sender) */\n              or\n              swap1\n              sstore\n                /* \"Store.sol\":3605:3620  product.ratings */\n              0x07\n              dup6\n              add\n                /* \"Store.sol\":3605:3633  product.ratings.push(review) */\n              dup1\n              sload\n              swap3\n              dup4\n              add\n              dup2\n              sstore\n              dup1\n              dup3\n              mstore\n              dup4\n              dup3\n              keccak256\n              swap1\n              swap3\n              add\n              dup12\n              swap1\n              sstore\n                /* \"Store.sol\":3651:3670  product.reviewScore */\n              0x03\n              dup6\n              add\n              sload\n                /* \"Store.sol\":3672:3694  product.writtenReviews */\n              0x05\n              dup7\n              add\n                /* \"Store.sol\":3643:3731  return (product.reviewScore, product.writtenReviews, product.reviewers, product.ratings) */\n              dup1\n              sload\n              0x40\n              dup1\n              mload\n              dup3\n              dup9\n              mul\n              dup2\n              add\n              dup9\n              add\n              swap1\n              swap2\n              mstore\n              dup2\n              dup2\n              mstore\n                /* \"Store.sol\":3651:3670  product.reviewScore */\n              swap3\n              swap7\n                /* \"Store.sol\":3672:3694  product.writtenReviews */\n              swap2\n              swap6\n                /* \"Store.sol\":3561:3578  product.reviewers */\n              swap2\n              swap5\n                /* \"Store.sol\":3605:3620  product.ratings */\n              swap4\n                /* \"Store.sol\":3672:3694  product.writtenReviews */\n              dup7\n              swap3\n                /* \"Store.sol\":3643:3731  return (product.reviewScore, product.writtenReviews, product.reviewers, product.ratings) */\n              dup5\n              add\n            tag_145:\n              dup3\n              dup3\n              lt\n              iszero\n              tag_146\n              jumpi\n              dup4\n              dup3\n              swap1\n              0x00\n              mstore\n              keccak256(0x00, 0x20)\n              add\n              dup1\n              sload\n              tag_148\n              swap1\n              tag_149\n              jump\t// in\n            tag_148:\n              dup1\n              0x1f\n              add\n              0x20\n              dup1\n              swap2\n              div\n              mul\n              0x20\n              add\n              mload(0x40)\n              swap1\n              dup2\n              add\n              0x40\n              mstore\n              dup1\n              swap3\n              swap2\n              swap1\n              dup2\n              dup2\n              mstore\n              0x20\n              add\n              dup3\n              dup1\n              sload\n              tag_150\n              swap1\n              tag_149\n              jump\t// in\n            tag_150:\n              dup1\n              iszero\n              tag_151\n              jumpi\n              dup1\n              0x1f\n              lt\n              tag_152\n              jumpi\n              0x0100\n              dup1\n              dup4\n              sload\n              div\n              mul\n              dup4\n              mstore\n              swap2\n              0x20\n              add\n              swap2\n              jump(tag_151)\n            tag_152:\n              dup3\n              add\n              swap2\n              swap1\n              0x00\n              mstore\n              keccak256(0x00, 0x20)\n              swap1\n            tag_153:\n              dup2\n              sload\n              dup2\n              mstore\n              swap1\n              0x01\n              add\n              swap1\n              0x20\n              add\n              dup1\n              dup4\n              gt\n              tag_153\n              jumpi\n              dup3\n              swap1\n              sub\n              0x1f\n              and\n              dup3\n              add\n              swap2\n            tag_151:\n              pop\n              pop\n              pop\n              pop\n              pop\n              dup2\n              mstore\n              0x20\n              add\n              swap1\n              0x01\n              add\n              swap1\n              jump(tag_145)\n            tag_146:\n              pop\n              pop\n              pop\n              pop\n              swap3\n              pop\n              dup2\n              dup1\n              sload\n              dup1\n              0x20\n              mul\n              0x20\n              add\n              mload(0x40)\n              swap1\n              dup2\n              add\n              0x40\n              mstore\n              dup1\n              swap3\n              swap2\n              swap1\n              dup2\n              dup2\n              mstore\n              0x20\n              add\n              dup3\n              dup1\n              sload\n              dup1\n              iszero\n              tag_154\n              jumpi\n              0x20\n              mul\n              dup3\n              add\n              swap2\n              swap1\n              0x00\n              mstore\n              keccak256(0x00, 0x20)\n              swap1\n            tag_155:\n              dup2\n              sload\n              sub(shl(0xa0, 0x01), 0x01)\n              and\n              dup2\n              mstore\n              0x01\n              swap1\n              swap2\n              add\n              swap1\n              0x20\n              add\n              dup1\n              dup4\n              gt\n              tag_155\n              jumpi\n            tag_154:\n              pop\n              pop\n              pop\n              pop\n              pop\n              swap2\n              pop\n              dup1\n              dup1\n              sload\n              dup1\n              0x20\n              mul\n              0x20\n              add\n              mload(0x40)\n              swap1\n              dup2\n              add\n              0x40\n              mstore\n              dup1\n              swap3\n              swap2\n              swap1\n              dup2\n              dup2\n              mstore\n              0x20\n              add\n              dup3\n              dup1\n              sload\n              dup1\n              iszero\n              tag_156\n              jumpi\n              0x20\n              mul\n              dup3\n              add\n              swap2\n              swap1\n              0x00\n              mstore\n              keccak256(0x00, 0x20)\n              swap1\n            tag_157:\n              dup2\n              sload\n              dup2\n              mstore\n              0x20\n              add\n              swap1\n              0x01\n              add\n              swap1\n              dup1\n              dup4\n              gt\n              tag_157\n              jumpi\n            tag_156:\n              pop\n              pop\n              pop\n              pop\n              pop\n              swap1\n              pop\n              swap5\n              pop\n              swap5\n              pop\n              swap5\n              pop\n              swap5\n              pop\n              pop\n                /* \"Store.sol\":2828:3738  function reviewProduct(uint index, uint review, string memory opinion) public returns (uint, string[] memory, address[] memory, uint[] memory) {... */\n              swap4\n              pop\n              swap4\n              pop\n              swap4\n              pop\n              swap4\n              jump\t// out\n                /* \"Store.sol\":4920:5139  function getProductsReviews(uint index) public view returns (string[] memory, address[] memory, uint[] memory) {... */\n            tag_45:\n                /* \"Store.sol\":5049:5064  products[index] */\n              0x00\n              dup2\n              dup2\n              mstore\n                /* \"Store.sol\":5049:5057  products */\n              0x02\n                /* \"Store.sol\":5049:5064  products[index] */\n              0x20\n              swap1\n              dup2\n              mstore\n              0x40\n              dup1\n              dup4\n              keccak256\n                /* \"Store.sol\":5049:5079  products[index].writtenReviews */\n              0x05\n              dup2\n              add\n                /* \"Store.sol\":5041:5132  return (products[index].writtenReviews, products[index].reviewers, products[index].ratings) */\n              dup1\n              sload\n              dup4\n              mload\n              dup2\n              dup7\n              mul\n              dup2\n              add\n              dup7\n              add\n              swap1\n              swap5\n              mstore\n              dup1\n              dup5\n              mstore\n                /* \"Store.sol\":4981:4996  string[] memory */\n              0x60\n              swap6\n              dup7\n              swap6\n              dup7\n              swap6\n                /* \"Store.sol\":5049:5079  products[index].writtenReviews */\n              swap4\n              swap5\n                /* \"Store.sol\":5081:5106  products[index].reviewers */\n              0x06\n              dup2\n              add\n              swap5\n                /* \"Store.sol\":5108:5131  products[index].ratings */\n              0x07\n              swap1\n              swap2\n              add\n              swap4\n                /* \"Store.sol\":5041:5132  return (products[index].writtenReviews, products[index].reviewers, products[index].ratings) */\n              swap1\n              swap3\n                /* \"Store.sol\":5049:5079  products[index].writtenReviews */\n              dup7\n              swap3\n                /* \"Store.sol\":5041:5132  return (products[index].writtenReviews, products[index].reviewers, products[index].ratings) */\n              dup5\n              add\n            tag_159:\n              dup3\n              dup3\n              lt\n              iszero\n              tag_160\n              jumpi\n              dup4\n              dup3\n              swap1\n              0x00\n              mstore\n              keccak256(0x00, 0x20)\n              add\n              dup1\n              sload\n              tag_162\n              swap1\n              tag_149\n              jump\t// in\n            tag_162:\n              dup1\n              0x1f\n              add\n              0x20\n              dup1\n              swap2\n              div\n              mul\n              0x20\n              add\n              mload(0x40)\n              swap1\n              dup2\n              add\n              0x40\n              mstore\n              dup1\n              swap3\n              swap2\n              swap1\n              dup2\n              dup2\n              mstore\n              0x20\n              add\n              dup3\n              dup1\n              sload\n              tag_163\n              swap1\n              tag_149\n              jump\t// in\n            tag_163:\n              dup1\n              iszero\n              tag_164\n              jumpi\n              dup1\n              0x1f\n              lt\n              tag_165\n              jumpi\n              0x0100\n              dup1\n              dup4\n              sload\n              div\n              mul\n              dup4\n              mstore\n              swap2\n              0x20\n              add\n              swap2\n              jump(tag_164)\n            tag_165:\n              dup3\n              add\n              swap2\n              swap1\n              0x00\n              mstore\n              keccak256(0x00, 0x20)\n              swap1\n            tag_166:\n              dup2\n              sload\n              dup2\n              mstore\n              swap1\n              0x01\n              add\n              swap1\n              0x20\n              add\n              dup1\n              dup4\n              gt\n              tag_166\n              jumpi\n              dup3\n              swap1\n              sub\n              0x1f\n              and\n              dup3\n              add\n              swap2\n            tag_164:\n              pop\n              pop\n              pop\n              pop\n              pop\n              dup2\n              mstore\n              0x20\n              add\n              swap1\n              0x01\n              add\n              swap1\n              jump(tag_159)\n            tag_160:\n              pop\n              pop\n              pop\n              pop\n              swap3\n              pop\n              dup2\n              dup1\n              sload\n              dup1\n              0x20\n              mul\n              0x20\n              add\n              mload(0x40)\n              swap1\n              dup2\n              add\n              0x40\n              mstore\n              dup1\n              swap3\n              swap2\n              swap1\n              dup2\n              dup2\n              mstore\n              0x20\n              add\n              dup3\n              dup1\n              sload\n              dup1\n              iszero\n              tag_167\n              jumpi\n              0x20\n              mul\n              dup3\n              add\n              swap2\n              swap1\n              0x00\n              mstore\n              keccak256(0x00, 0x20)\n              swap1\n            tag_168:\n              dup2\n              sload\n              sub(shl(0xa0, 0x01), 0x01)\n              and\n              dup2\n              mstore\n              0x01\n              swap1\n              swap2\n              add\n              swap1\n              0x20\n              add\n              dup1\n              dup4\n              gt\n              tag_168\n              jumpi\n            tag_167:\n              pop\n              pop\n              pop\n              pop\n              pop\n              swap2\n              pop\n              dup1\n              dup1\n              sload\n              dup1\n              0x20\n              mul\n              0x20\n              add\n              mload(0x40)\n              swap1\n              dup2\n              add\n              0x40\n              mstore\n              dup1\n              swap3\n              swap2\n              swap1\n              dup2\n              dup2\n              mstore\n              0x20\n              add\n              dup3\n              dup1\n              sload\n              dup1\n              iszero\n              tag_169\n              jumpi\n              0x20\n              mul\n              dup3\n              add\n              swap2\n              swap1\n              0x00\n              mstore\n              keccak256(0x00, 0x20)\n              swap1\n            tag_170:\n              dup2\n              sload\n              dup2\n              mstore\n              0x20\n              add\n              swap1\n              0x01\n              add\n              swap1\n              dup1\n              dup4\n              gt\n              tag_170\n              jumpi\n            tag_169:\n              pop\n              pop\n              pop\n              pop\n              pop\n              swap1\n              pop\n              swap3\n              pop\n              swap3\n              pop\n              swap3\n              pop\n                /* \"Store.sol\":4920:5139  function getProductsReviews(uint index) public view returns (string[] memory, address[] memory, uint[] memory) {... */\n              swap2\n              swap4\n              swap1\n              swap3\n              pop\n              jump\t// out\n                /* \"Store.sol\":3748:4517  function reviewStore(uint review, string memory opinion) public returns (uint, string[] memory, address[] memory, uint[] memory) {... */\n            tag_52:\n                /* \"Store.sol\":3908:3918  msg.sender */\n              caller\n                /* \"Store.sol\":3821:3825  uint */\n              0x00\n                /* \"Store.sol\":3895:3919  storeShopper[msg.sender] */\n              swap1\n              dup2\n              mstore\n                /* \"Store.sol\":3895:3907  storeShopper */\n              0x09\n                /* \"Store.sol\":3895:3919  storeShopper[msg.sender] */\n              0x20\n              mstore\n              0x40\n              dup2\n              keccak256\n              sload\n                /* \"Store.sol\":3827:3842  string[] memory */\n              0x60\n              swap1\n              dup2\n              swap1\n              dup2\n              swap1\n                /* \"Store.sol\":3895:3919  storeShopper[msg.sender] */\n              0xff\n              and\n                /* \"Store.sol\":3887:3920  require(storeShopper[msg.sender]) */\n              tag_172\n              jumpi\n              0x00\n              dup1\n              revert\n            tag_172:\n                /* \"Store.sol\":3990:4000  msg.sender */\n              caller\n                /* \"Store.sol\":3977:4001  storeReviews[msg.sender] */\n              0x00\n              swap1\n              dup2\n              mstore\n                /* \"Store.sol\":3977:3989  storeReviews */\n              0x0a\n                /* \"Store.sol\":3977:4001  storeReviews[msg.sender] */\n              0x20\n              mstore\n              0x40\n              swap1\n              keccak256\n              sload\n              0xff\n              and\n                /* \"Store.sol\":3976:4001  !storeReviews[msg.sender] */\n              iszero\n                /* \"Store.sol\":3968:4002  require(!storeReviews[msg.sender]) */\n              tag_173\n              jumpi\n              0x00\n              dup1\n              revert\n            tag_173:\n                /* \"Store.sol\":4082:4083  5 */\n              0x05\n                /* \"Store.sol\":4073:4079  review */\n              dup7\n                /* \"Store.sol\":4073:4083  review <=5 */\n              gt\n              iszero\n                /* \"Store.sol\":4073:4097  review <=5 && review > 0 */\n              dup1\n              iszero\n              tag_174\n              jumpi\n              pop\n                /* \"Store.sol\":4096:4097  0 */\n              0x00\n                /* \"Store.sol\":4087:4093  review */\n              dup7\n                /* \"Store.sol\":4087:4097  review > 0 */\n              gt\n                /* \"Store.sol\":4073:4097  review <=5 && review > 0 */\n            tag_174:\n                /* \"Store.sol\":4073:4118  review <=5 && review > 0 && (review % 1 == 0) */\n              dup1\n              iszero\n              tag_175\n              jumpi\n              pop\n                /* \"Store.sol\":4102:4112  review % 1 */\n              tag_176\n                /* \"Store.sol\":4111:4112  1 */\n              0x01\n                /* \"Store.sol\":4102:4108  review */\n              dup8\n                /* \"Store.sol\":4102:4112  review % 1 */\n              tag_129\n              jump\t// in\n            tag_176:\n                /* \"Store.sol\":4102:4117  review % 1 == 0 */\n              iszero\n                /* \"Store.sol\":4073:4118  review <=5 && review > 0 && (review % 1 == 0) */\n            tag_175:\n                /* \"Store.sol\":4065:4119  require(review <=5 && review > 0 && (review % 1 == 0)) */\n              tag_177\n              jumpi\n              0x00\n              dup1\n              revert\n            tag_177:\n                /* \"Store.sol\":4142:4152  msg.sender */\n              caller\n                /* \"Store.sol\":4129:4153  storeReviews[msg.sender] */\n              0x00\n              swap1\n              dup2\n              mstore\n                /* \"Store.sol\":4129:4141  storeReviews */\n              0x0a\n                /* \"Store.sol\":4129:4153  storeReviews[msg.sender] */\n              0x20\n              mstore\n              0x40\n              dup2\n              keccak256\n                /* \"Store.sol\":4129:4160  storeReviews[msg.sender] = true */\n              dup1\n              sload\n              not(0xff)\n              and\n                /* \"Store.sol\":4156:4160  true */\n              0x01\n                /* \"Store.sol\":4129:4160  storeReviews[msg.sender] = true */\n              or\n              swap1\n              sstore\n                /* \"Store.sol\":4209:4224  numStoreReviews */\n              0x05\n                /* \"Store.sol\":4209:4226  numStoreReviews++ */\n              dup1\n              sload\n              swap2\n              tag_178\n              dup4\n              tag_132\n              jump\t// in\n            tag_178:\n              swap1\n              swap2\n              sstore\n              pop\n              pop\n                /* \"Store.sol\":4295:4310  numStoreReviews */\n              sload(0x05)\n                /* \"Store.sol\":4284:4290  review */\n              dup7\n                /* \"Store.sol\":4262:4280  numStoreReviews -1 */\n              tag_179\n                /* \"Store.sol\":4279:4280  1 */\n              0x01\n                /* \"Store.sol\":4295:4310  numStoreReviews */\n              dup4\n                /* \"Store.sol\":4262:4280  numStoreReviews -1 */\n              tag_180\n              jump\t// in\n            tag_179:\n                /* \"Store.sol\":4250:4260  storeScore */\n              sload(0x04)\n                /* \"Store.sol\":4250:4281  storeScore*(numStoreReviews -1) */\n              tag_181\n              swap2\n              swap1\n              tag_136\n              jump\t// in\n            tag_181:\n                /* \"Store.sol\":4250:4290  storeScore*(numStoreReviews -1) + review */\n              tag_182\n              swap2\n              swap1\n              tag_134\n              jump\t// in\n            tag_182:\n                /* \"Store.sol\":4249:4311  (storeScore*(numStoreReviews -1) + review) / (numStoreReviews) */\n              tag_183\n              swap2\n              swap1\n              tag_139\n              jump\t// in\n            tag_183:\n                /* \"Store.sol\":4236:4246  storeScore */\n              0x04\n                /* \"Store.sol\":4236:4311  storeScore = (storeScore*(numStoreReviews -1) + review) / (numStoreReviews) */\n              sstore\n                /* \"Store.sol\":4321:4340  storeWrittenReviews */\n              0x06\n                /* \"Store.sol\":4321:4354  storeWrittenReviews.push(opinion) */\n              dup1\n              sload\n              0x01\n              dup2\n              add\n              dup3\n              sstore\n              0x00\n              swap2\n              swap1\n              swap2\n              mstore\n              dup6\n              mload\n              tag_185\n              swap2\n              0xf652222313e28459528d920b65115c16c04f3efc82aaedc97be59f3f377c0d3f\n              add\n              swap1\n              0x20\n              dup9\n              add\n              swap1\n              tag_142\n              jump\t// in\n            tag_185:\n              pop\n                /* \"Store.sol\":4364:4378  storeReviewers */\n              0x07\n                /* \"Store.sol\":4364:4395  storeReviewers.push(msg.sender) */\n              dup1\n              sload\n              0x01\n              dup1\n              dup3\n              add\n              dup4\n              sstore\n              0xa66cc928b5edb82af9bd49922954155ab7b0942694bea4ce44661d9a8736c688\n              swap1\n              swap2\n              add\n              dup1\n              sload\n              not(sub(shl(0xa0, 0x01), 0x01))\n              and\n                /* \"Store.sol\":4384:4394  msg.sender */\n              caller\n                /* \"Store.sol\":4364:4395  storeReviewers.push(msg.sender) */\n              or\n              swap1\n              sstore\n                /* \"Store.sol\":4405:4417  storeRatings */\n              0x08\n                /* \"Store.sol\":4405:4430  storeRatings.push(review) */\n              dup1\n              sload\n              swap2\n              dup3\n              add\n              dup2\n              sstore\n              0x00\n              dup2\n              dup2\n              mstore\n              0xf3f7a9fe364faab93b216da50a3214154f22a0a2b415b23a84c8169e8b636ee3\n              swap1\n              swap3\n              add\n              dup10\n              swap1\n              sstore\n                /* \"Store.sol\":4448:4458  storeScore */\n              sload(0x04)\n                /* \"Store.sol\":4460:4479  storeWrittenReviews */\n              0x06\n                /* \"Store.sol\":4440:4510  return (storeScore, storeWrittenReviews, storeReviewers, storeRatings) */\n              dup1\n              sload\n              0x40\n              dup1\n              mload\n                /* \"Store.sol\":4364:4395  storeReviewers.push(msg.sender) */\n              0x20\n                /* \"Store.sol\":4440:4510  return (storeScore, storeWrittenReviews, storeReviewers, storeRatings) */\n              dup1\n              dup5\n              mul\n              dup3\n              add\n              dup2\n              add\n              swap1\n              swap3\n              mstore\n              dup3\n              dup2\n              mstore\n                /* \"Store.sol\":4448:4458  storeScore */\n              swap4\n              swap7\n                /* \"Store.sol\":4460:4479  storeWrittenReviews */\n              swap3\n              swap6\n                /* \"Store.sol\":4364:4378  storeReviewers */\n              swap3\n              swap5\n                /* \"Store.sol\":4405:4417  storeRatings */\n              swap4\n                /* \"Store.sol\":4440:4510  return (storeScore, storeWrittenReviews, storeReviewers, storeRatings) */\n              swap3\n                /* \"Store.sol\":4460:4479  storeWrittenReviews */\n              dup7\n              swap3\n                /* \"Store.sol\":4440:4510  return (storeScore, storeWrittenReviews, storeReviewers, storeRatings) */\n              swap2\n              dup5\n              add\n            tag_188:\n              dup3\n              dup3\n              lt\n              iszero\n              tag_189\n              jumpi\n              dup4\n              dup3\n              swap1\n              0x00\n              mstore\n              keccak256(0x00, 0x20)\n              add\n              dup1\n              sload\n              tag_191\n              swap1\n              tag_149\n              jump\t// in\n            tag_191:\n              dup1\n              0x1f\n              add\n              0x20\n              dup1\n              swap2\n              div\n              mul\n              0x20\n              add\n              mload(0x40)\n              swap1\n              dup2\n              add\n              0x40\n              mstore\n              dup1\n              swap3\n              swap2\n              swap1\n              dup2\n              dup2\n              mstore\n              0x20\n              add\n              dup3\n              dup1\n              sload\n              tag_192\n              swap1\n              tag_149\n              jump\t// in\n            tag_192:\n              dup1\n              iszero\n              tag_193\n              jumpi\n              dup1\n              0x1f\n              lt\n              tag_194\n              jumpi\n              0x0100\n              dup1\n              dup4\n              sload\n              div\n              mul\n              dup4\n              mstore\n              swap2\n              0x20\n              add\n              swap2\n              jump(tag_193)\n            tag_194:\n              dup3\n              add\n              swap2\n              swap1\n              0x00\n              mstore\n              keccak256(0x00, 0x20)\n              swap1\n            tag_195:\n              dup2\n              sload\n              dup2\n              mstore\n              swap1\n              0x01\n              add\n              swap1\n              0x20\n              add\n              dup1\n              dup4\n              gt\n              tag_195\n              jumpi\n              dup3\n              swap1\n              sub\n              0x1f\n              and\n              dup3\n              add\n              swap2\n            tag_193:\n              pop\n              pop\n              pop\n              pop\n              pop\n              dup2\n              mstore\n              0x20\n              add\n              swap1\n              0x01\n              add\n              swap1\n              jump(tag_188)\n            tag_189:\n              pop\n              pop\n              pop\n              pop\n              swap3\n              pop\n              dup2\n              dup1\n              sload\n              dup1\n              0x20\n              mul\n              0x20\n              add\n              mload(0x40)\n              swap1\n              dup2\n              add\n              0x40\n              mstore\n              dup1\n              swap3\n              swap2\n              swap1\n              dup2\n              dup2\n              mstore\n              0x20\n              add\n              dup3\n              dup1\n              sload\n              dup1\n              iszero\n              tag_196\n              jumpi\n              0x20\n              mul\n              dup3\n              add\n              swap2\n              swap1\n              0x00\n              mstore\n              keccak256(0x00, 0x20)\n              swap1\n            tag_197:\n              dup2\n              sload\n              sub(shl(0xa0, 0x01), 0x01)\n              and\n              dup2\n              mstore\n              0x01\n              swap1\n              swap2\n              add\n              swap1\n              0x20\n              add\n              dup1\n              dup4\n              gt\n              tag_197\n              jumpi\n            tag_196:\n              pop\n              pop\n              pop\n              pop\n              pop\n              swap2\n              pop\n              dup1\n              dup1\n              sload\n              dup1\n              0x20\n              mul\n              0x20\n              add\n              mload(0x40)\n              swap1\n              dup2\n              add\n              0x40\n              mstore\n              dup1\n              swap3\n              swap2\n              swap1\n              dup2\n              dup2\n              mstore\n              0x20\n              add\n              dup3\n              dup1\n              sload\n              dup1\n              iszero\n              tag_198\n              jumpi\n              0x20\n              mul\n              dup3\n              add\n              swap2\n              swap1\n              0x00\n              mstore\n              keccak256(0x00, 0x20)\n              swap1\n            tag_199:\n              dup2\n              sload\n              dup2\n              mstore\n              0x20\n              add\n              swap1\n              0x01\n              add\n              swap1\n              dup1\n              dup4\n              gt\n              tag_199\n              jumpi\n            tag_198:\n              pop\n              pop\n              pop\n              pop\n              pop\n              swap1\n              pop\n              swap4\n              pop\n              swap4\n              pop\n              swap4\n              pop\n              swap4\n              pop\n                /* \"Store.sol\":3748:4517  function reviewStore(uint review, string memory opinion) public returns (uint, string[] memory, address[] memory, uint[] memory) {... */\n              swap3\n              swap6\n              swap2\n              swap5\n              pop\n              swap3\n              pop\n              jump\t// out\n                /* \"Store.sol\":4527:4653  function productAvailable(uint index, bool available) public restricted {... */\n            tag_63:\n                /* \"Store.sol\":1393:1400  manager */\n              and(sub(shl(0xa0, 0x01), 0x01), sload(0x00))\n                /* \"Store.sol\":1379:1389  msg.sender */\n              caller\n                /* \"Store.sol\":1379:1400  msg.sender == manager */\n              eq\n                /* \"Store.sol\":1371:1401  require(msg.sender == manager) */\n              tag_201\n              jumpi\n              0x00\n              dup1\n              revert\n            tag_201:\n                /* \"Store.sol\":4609:4624  products[index] */\n              0x00\n              swap2\n              dup3\n              mstore\n                /* \"Store.sol\":4609:4617  products */\n              0x02\n                /* \"Store.sol\":4609:4624  products[index] */\n              0x20\n              dup2\n              swap1\n              mstore\n              0x40\n              swap1\n              swap3\n              keccak256\n                /* \"Store.sol\":4609:4634  products[index].available */\n              swap1\n              swap2\n              add\n                /* \"Store.sol\":4609:4646  products[index].available = available */\n              dup1\n              sload\n              swap2\n              iszero\n              iszero\n              shl(0xa0, 0x01)\n              mul\n              not(shl(0xa0, 0xff))\n              swap1\n              swap3\n              and\n              swap2\n              swap1\n              swap2\n              or\n              swap1\n              sstore\n                /* \"Store.sol\":4527:4653  function productAvailable(uint index, bool available) public restricted {... */\n              jump\t// out\n                /* \"Store.sol\":1263:1287  string public bestSeller */\n            tag_66:\n              0x0b\n              dup1\n              sload\n              tag_203\n              swap1\n              tag_149\n              jump\t// in\n            tag_203:\n              dup1\n              0x1f\n              add\n              0x20\n              dup1\n              swap2\n              div\n              mul\n              0x20\n              add\n              mload(0x40)\n              swap1\n              dup2\n              add\n              0x40\n              mstore\n              dup1\n              swap3\n              swap2\n              swap1\n              dup2\n              dup2\n              mstore\n              0x20\n              add\n              dup3\n              dup1\n              sload\n              tag_204\n              swap1\n              tag_149\n              jump\t// in\n            tag_204:\n              dup1\n              iszero\n              tag_205\n              jumpi\n              dup1\n              0x1f\n              lt\n              tag_206\n              jumpi\n              0x0100\n              dup1\n              dup4\n              sload\n              div\n              mul\n              dup4\n              mstore\n              swap2\n              0x20\n              add\n              swap2\n              jump(tag_205)\n            tag_206:\n              dup3\n              add\n              swap2\n              swap1\n              0x00\n              mstore\n              keccak256(0x00, 0x20)\n              swap1\n            tag_207:\n              dup2\n              sload\n              dup2\n              mstore\n              swap1\n              0x01\n              add\n              swap1\n              0x20\n              add\n              dup1\n              dup4\n              gt\n              tag_207\n              jumpi\n              dup3\n              swap1\n              sub\n              0x1f\n              and\n              dup3\n              add\n              swap2\n            tag_205:\n              pop\n              pop\n              pop\n              pop\n              pop\n              dup2\n              jump\t// out\n                /* \"Store.sol\":976:999  string public storeName */\n            tag_71:\n              0x03\n              dup1\n              sload\n              tag_203\n              swap1\n              tag_149\n              jump\t// in\n                /* \"Store.sol\":929:970  mapping (uint => Product) public products */\n            tag_80:\n              mstore(0x20, 0x02)\n              0x00\n              swap1\n              dup2\n              mstore\n              0x40\n              swap1\n              keccak256\n              dup1\n              sload\n              dup2\n              swap1\n              tag_214\n              swap1\n              tag_149\n              jump\t// in\n            tag_214:\n              dup1\n              0x1f\n              add\n              0x20\n              dup1\n              swap2\n              div\n              mul\n              0x20\n              add\n              mload(0x40)\n              swap1\n              dup2\n              add\n              0x40\n              mstore\n              dup1\n              swap3\n              swap2\n              swap1\n              dup2\n              dup2\n              mstore\n              0x20\n              add\n              dup3\n              dup1\n              sload\n              tag_215\n              swap1\n              tag_149\n              jump\t// in\n            tag_215:\n              dup1\n              iszero\n              tag_216\n              jumpi\n              dup1\n              0x1f\n              lt\n              tag_217\n              jumpi\n              0x0100\n              dup1\n              dup4\n              sload\n              div\n              mul\n              dup4\n              mstore\n              swap2\n              0x20\n              add\n              swap2\n              jump(tag_216)\n            tag_217:\n              dup3\n              add\n              swap2\n              swap1\n              0x00\n              mstore\n              keccak256(0x00, 0x20)\n              swap1\n            tag_218:\n              dup2\n              sload\n              dup2\n              mstore\n              swap1\n              0x01\n              add\n              swap1\n              0x20\n              add\n              dup1\n              dup4\n              gt\n              tag_218\n              jumpi\n              dup3\n              swap1\n              sub\n              0x1f\n              and\n              dup3\n              add\n              swap2\n            tag_216:\n              pop\n              pop\n              pop\n              pop\n              0x01\n              dup4\n              add\n              sload\n              0x02\n              dup5\n              add\n              sload\n              0x03\n              dup6\n              add\n              sload\n              0x04\n              dup7\n              add\n              sload\n              0x08\n              swap1\n              swap7\n              add\n              sload\n              swap5\n              swap6\n              swap3\n              swap5\n              sub(shl(0xa0, 0x01), 0x01)\n              dup4\n              and\n              swap5\n              pop\n              shl(0xa0, 0x01)\n              swap1\n              swap3\n              div\n              0xff\n              and\n              swap3\n              swap1\n              swap2\n              dup8\n              jump\t// out\n                /* \"Store.sol\":1108:1139  address[] public storeReviewers */\n            tag_86:\n              0x07\n              dup2\n              dup2\n              sload\n              dup2\n              lt\n              tag_219\n              jumpi\n              0x00\n              dup1\n              revert\n            tag_219:\n              0x00\n              swap2\n              dup3\n              mstore\n              0x20\n              swap1\n              swap2\n              keccak256\n              add\n              sload\n              sub(shl(0xa0, 0x01), 0x01)\n              and\n              swap1\n              pop\n              dup2\n              jump\t// out\n                /* \"Store.sol\":2094:2818  function createProduct(string memory description, uint price, address seller) public restricted {... */\n            tag_96:\n                /* \"Store.sol\":1393:1400  manager */\n              and(sub(shl(0xa0, 0x01), 0x01), sload(0x00))\n                /* \"Store.sol\":1379:1389  msg.sender */\n              caller\n                /* \"Store.sol\":1379:1400  msg.sender == manager */\n              eq\n                /* \"Store.sol\":1371:1401  require(msg.sender == manager) */\n              tag_222\n              jumpi\n              0x00\n              dup1\n              revert\n            tag_222:\n                /* \"Store.sol\":2495:2506  numProducts */\n              0x01\n                /* \"Store.sol\":2495:2508  numProducts++ */\n              dup1\n              sload\n                /* \"Store.sol\":2457:2483  Product storage newProduct */\n              0x00\n              swap2\n                /* \"Store.sol\":2486:2494  products */\n              0x02\n              swap2\n                /* \"Store.sol\":2457:2483  Product storage newProduct */\n              dup4\n              swap2\n              dup3\n                /* \"Store.sol\":2495:2508  numProducts++ */\n              tag_224\n              dup4\n              tag_132\n              jump\t// in\n            tag_224:\n              swap1\n              swap2\n              sstore\n              pop\n                /* \"Store.sol\":2486:2509  products[numProducts++] */\n              dup2\n              mstore\n              0x20\n              dup1\n              dup3\n              add\n              swap3\n              swap1\n              swap3\n              mstore\n              0x40\n              add\n              0x00\n              keccak256\n                /* \"Store.sol\":2519:2555  newProduct.description = description */\n              dup6\n              mload\n                /* \"Store.sol\":2486:2509  products[numProducts++] */\n              swap1\n              swap3\n              pop\n                /* \"Store.sol\":2519:2555  newProduct.description = description */\n              tag_225\n              swap2\n                /* \"Store.sol\":2486:2509  products[numProducts++] */\n              dup4\n              swap2\n                /* \"Store.sol\":2519:2555  newProduct.description = description */\n              swap1\n              dup8\n              add\n              swap1\n              tag_142\n              jump\t// in\n            tag_225:\n              pop\n                /* \"Store.sol\":2565:2581  newProduct.price */\n              0x01\n              dup2\n              add\n                /* \"Store.sol\":2565:2589  newProduct.price = price */\n              swap3\n              swap1\n              swap3\n              sstore\n                /* \"Store.sol\":2599:2616  newProduct.seller */\n              0x02\n              dup3\n              add\n                /* \"Store.sol\":2599:2625  newProduct.seller = seller */\n              dup1\n              sload\n              sub(shl(0xa0, 0x01), 0x01)\n              swap3\n              swap1\n              swap3\n              and\n              not(sub(shl(0xa8, 0x01), 0x01))\n                /* \"Store.sol\":2635:2662  newProduct.available = true */\n              swap1\n              swap3\n              and\n              swap2\n              swap1\n              swap2\n              or\n              shl(0xa0, 0x01)\n              or\n              swap1\n              sstore\n                /* \"Store.sol\":2697:2698  5 */\n              0x05\n                /* \"Store.sol\":2672:2694  newProduct.reviewScore */\n              0x03\n              dup3\n              add\n                /* \"Store.sol\":2672:2698  newProduct.reviewScore = 5 */\n              sstore\n              0x00\n                /* \"Store.sol\":2708:2731  newProduct.totalReviews */\n              0x04\n              dup3\n              add\n                /* \"Store.sol\":2708:2735  newProduct.totalReviews = 0 */\n              dup2\n              swap1\n              sstore\n                /* \"Store.sol\":2745:2770  newProduct.numSoldProduct */\n              0x08\n              swap1\n              swap2\n              add\n                /* \"Store.sol\":2745:2774  newProduct.numSoldProduct = 0 */\n              sstore\n              pop\n                /* \"Store.sol\":2094:2818  function createProduct(string memory description, uint price, address seller) public restricted {... */\n              jump\t// out\n                /* \"Store.sol\":1067:1102  string[] public storeWrittenReviews */\n            tag_104:\n              0x06\n              dup2\n              dup2\n              sload\n              dup2\n              lt\n              tag_226\n              jumpi\n              0x00\n              dup1\n              revert\n            tag_226:\n              swap1\n              0x00\n              mstore\n              keccak256(0x00, 0x20)\n              add\n              0x00\n              swap2\n              pop\n              swap1\n              pop\n              dup1\n              sload\n              tag_203\n              swap1\n              tag_149\n              jump\t// in\n                /* \"Store.sol\":1145:1171  uint[] public storeRatings */\n            tag_109:\n              0x08\n              dup2\n              dup2\n              sload\n              dup2\n              lt\n              tag_233\n              jumpi\n              0x00\n              dup1\n              revert\n            tag_233:\n              0x00\n              swap2\n              dup3\n              mstore\n              0x20\n              swap1\n              swap2\n              keccak256\n              add\n              sload\n              swap1\n              pop\n              dup2\n              jump\t// out\n                /* \"Store.sol\":5149:5322  function getStoreReviews() public view returns (string[] memory, address[] memory, uint[] memory) {... */\n            tag_113:\n                /* \"Store.sol\":5197:5212  string[] memory */\n              0x60\n                /* \"Store.sol\":5214:5230  address[] memory */\n              dup1\n                /* \"Store.sol\":5232:5245  uint[] memory */\n              0x60\n                /* \"Store.sol\":5265:5284  storeWrittenReviews */\n              0x06\n                /* \"Store.sol\":5286:5300  storeReviewers */\n              0x07\n                /* \"Store.sol\":5302:5314  storeRatings */\n              0x08\n                /* \"Store.sol\":5257:5315  return (storeWrittenReviews, storeReviewers, storeRatings) */\n              dup3\n              dup1\n              sload\n              dup1\n              0x20\n              mul\n              0x20\n              add\n              mload(0x40)\n              swap1\n              dup2\n              add\n              0x40\n              mstore\n              dup1\n              swap3\n              swap2\n              swap1\n              dup2\n              dup2\n              mstore\n              0x20\n              add\n              0x00\n              swap1\n            tag_236:\n              dup3\n              dup3\n              lt\n              iszero\n              tag_237\n              jumpi\n              dup4\n              dup3\n              swap1\n              0x00\n              mstore\n              keccak256(0x00, 0x20)\n              add\n              dup1\n              sload\n              tag_239\n              swap1\n              tag_149\n              jump\t// in\n            tag_239:\n              dup1\n              0x1f\n              add\n              0x20\n              dup1\n              swap2\n              div\n              mul\n              0x20\n              add\n              mload(0x40)\n              swap1\n              dup2\n              add\n              0x40\n              mstore\n              dup1\n              swap3\n              swap2\n              swap1\n              dup2\n              dup2\n              mstore\n              0x20\n              add\n              dup3\n              dup1\n              sload\n              tag_240\n              swap1\n              tag_149\n              jump\t// in\n            tag_240:\n              dup1\n              iszero\n              tag_241\n              jumpi\n              dup1\n              0x1f\n              lt\n              tag_242\n              jumpi\n              0x0100\n              dup1\n              dup4\n              sload\n              div\n              mul\n              dup4\n              mstore\n              swap2\n              0x20\n              add\n              swap2\n              jump(tag_241)\n            tag_242:\n              dup3\n              add\n              swap2\n              swap1\n              0x00\n              mstore\n              keccak256(0x00, 0x20)\n              swap1\n            tag_243:\n              dup2\n              sload\n              dup2\n              mstore\n              swap1\n              0x01\n              add\n              swap1\n              0x20\n              add\n              dup1\n              dup4\n              gt\n              tag_243\n              jumpi\n              dup3\n              swap1\n              sub\n              0x1f\n              and\n              dup3\n              add\n              swap2\n            tag_241:\n              pop\n              pop\n              pop\n              pop\n              pop\n              dup2\n              mstore\n              0x20\n              add\n              swap1\n              0x01\n              add\n              swap1\n              jump(tag_236)\n            tag_237:\n              pop\n              pop\n              pop\n              pop\n              swap3\n              pop\n              dup2\n              dup1\n              sload\n              dup1\n              0x20\n              mul\n              0x20\n              add\n              mload(0x40)\n              swap1\n              dup2\n              add\n              0x40\n              mstore\n              dup1\n              swap3\n              swap2\n              swap1\n              dup2\n              dup2\n              mstore\n              0x20\n              add\n              dup3\n              dup1\n              sload\n              dup1\n              iszero\n              tag_244\n              jumpi\n              0x20\n              mul\n              dup3\n              add\n              swap2\n              swap1\n              0x00\n              mstore\n              keccak256(0x00, 0x20)\n              swap1\n            tag_245:\n              dup2\n              sload\n              sub(shl(0xa0, 0x01), 0x01)\n              and\n              dup2\n              mstore\n              0x01\n              swap1\n              swap2\n              add\n              swap1\n              0x20\n              add\n              dup1\n              dup4\n              gt\n              tag_245\n              jumpi\n            tag_244:\n              pop\n              pop\n              pop\n              pop\n              pop\n              swap2\n              pop\n              dup1\n              dup1\n              sload\n              dup1\n              0x20\n              mul\n              0x20\n              add\n              mload(0x40)\n              swap1\n              dup2\n              add\n              0x40\n              mstore\n              dup1\n              swap3\n              swap2\n              swap1\n              dup2\n              dup2\n              mstore\n              0x20\n              add\n              dup3\n              dup1\n              sload\n              dup1\n              iszero\n              tag_246\n              jumpi\n              0x20\n              mul\n              dup3\n              add\n              swap2\n              swap1\n              0x00\n              mstore\n              keccak256(0x00, 0x20)\n              swap1\n            tag_247:\n              dup2\n              sload\n              dup2\n              mstore\n              0x20\n              add\n              swap1\n              0x01\n              add\n              swap1\n              dup1\n              dup4\n              gt\n              tag_247\n              jumpi\n            tag_246:\n              pop\n              pop\n              pop\n              pop\n              pop\n              swap1\n              pop\n              swap3\n              pop\n              swap3\n              pop\n              swap3\n              pop\n                /* \"Store.sol\":5149:5322  function getStoreReviews() public view returns (string[] memory, address[] memory, uint[] memory) {... */\n              swap1\n              swap2\n              swap3\n              jump\t// out\n                /* \"Store.sol\":4663:4910  function getStoreSummary() public view returns (... */\n            tag_117:\n                /* \"Store.sol\":4720:4724  uint */\n              0x00\n                /* \"Store.sol\":4726:4733  address */\n              dup1\n                /* \"Store.sol\":4735:4748  string memory */\n              0x60\n                /* \"Store.sol\":4750:4754  uint */\n              0x00\n                /* \"Store.sol\":4756:4769  string memory */\n              0x60\n                /* \"Store.sol\":4771:4775  uint */\n              0x00\n                /* \"Store.sol\":4777:4781  uint */\n              dup1\n                /* \"Store.sol\":4810:4821  numProducts */\n              sload(0x01)\n                /* \"Store.sol\":4823:4830  manager */\n              0x00\n              dup1\n              sload\n              swap1\n              0x0100\n              exp\n              swap1\n              div\n              0x01\n              dup1\n              0xa0\n              shl\n              sub\n              and\n                /* \"Store.sol\":4832:4842  bestSeller */\n              0x0b\n                /* \"Store.sol\":4844:4862  bestSellerQuantity */\n              sload(0x0c)\n                /* \"Store.sol\":4864:4873  storeName */\n              0x03\n                /* \"Store.sol\":4875:4885  storeScore */\n              sload(0x04)\n                /* \"Store.sol\":4887:4902  numStoreReviews */\n              sload(0x05)\n                /* \"Store.sol\":4802:4903  return (numProducts, manager, bestSeller, bestSellerQuantity, storeName, storeScore, numStoreReviews) */\n              dup5\n              dup1\n              sload\n              tag_249\n              swap1\n              tag_149\n              jump\t// in\n            tag_249:\n              dup1\n              0x1f\n              add\n              0x20\n              dup1\n              swap2\n              div\n              mul\n              0x20\n              add\n              mload(0x40)\n              swap1\n              dup2\n              add\n              0x40\n              mstore\n              dup1\n              swap3\n              swap2\n              swap1\n              dup2\n              dup2\n              mstore\n              0x20\n              add\n              dup3\n              dup1\n              sload\n              tag_250\n              swap1\n              tag_149\n              jump\t// in\n            tag_250:\n              dup1\n              iszero\n              tag_251\n              jumpi\n              dup1\n              0x1f\n              lt\n              tag_252\n              jumpi\n              0x0100\n              dup1\n              dup4\n              sload\n              div\n              mul\n              dup4\n              mstore\n              swap2\n              0x20\n              add\n              swap2\n              jump(tag_251)\n            tag_252:\n              dup3\n              add\n              swap2\n              swap1\n              0x00\n              mstore\n              keccak256(0x00, 0x20)\n              swap1\n            tag_253:\n              dup2\n              sload\n              dup2\n              mstore\n              swap1\n              0x01\n              add\n              swap1\n              0x20\n              add\n              dup1\n              dup4\n              gt\n              tag_253\n              jumpi\n              dup3\n              swap1\n              sub\n              0x1f\n              and\n              dup3\n              add\n              swap2\n            tag_251:\n              pop\n              pop\n              pop\n              pop\n              pop\n              swap5\n              pop\n              dup3\n              dup1\n              sload\n              tag_254\n              swap1\n              tag_149\n              jump\t// in\n            tag_254:\n              dup1\n              0x1f\n              add\n              0x20\n              dup1\n              swap2\n              div\n              mul\n              0x20\n              add\n              mload(0x40)\n              swap1\n              dup2\n              add\n              0x40\n              mstore\n              dup1\n              swap3\n              swap2\n              swap1\n              dup2\n              dup2\n              mstore\n              0x20\n              add\n              dup3\n              dup1\n              sload\n              tag_255\n              swap1\n              tag_149\n              jump\t// in\n            tag_255:\n              dup1\n              iszero\n              tag_256\n              jumpi\n              dup1\n              0x1f\n              lt\n              tag_257\n              jumpi\n              0x0100\n              dup1\n              dup4\n              sload\n              div\n              mul\n              dup4\n              mstore\n              swap2\n              0x20\n              add\n              swap2\n              jump(tag_256)\n            tag_257:\n              dup3\n              add\n              swap2\n              swap1\n              0x00\n              mstore\n              keccak256(0x00, 0x20)\n              swap1\n            tag_258:\n              dup2\n              sload\n              dup2\n              mstore\n              swap1\n              0x01\n              add\n              swap1\n              0x20\n              add\n              dup1\n              dup4\n              gt\n              tag_258\n              jumpi\n              dup3\n              swap1\n              sub\n              0x1f\n              and\n              dup3\n              add\n              swap2\n            tag_256:\n              pop\n              pop\n              pop\n              pop\n              pop\n              swap3\n              pop\n              swap7\n              pop\n              swap7\n              pop\n              swap7\n              pop\n              swap7\n              pop\n              swap7\n              pop\n              swap7\n              pop\n              swap7\n              pop\n                /* \"Store.sol\":4663:4910  function getStoreSummary() public view returns (... */\n              swap1\n              swap2\n              swap3\n              swap4\n              swap5\n              swap6\n              swap7\n              jump\t// out\n                /* \"Store.sol\":1548:2084  function buy(uint index) public payable {... */\n            tag_122:\n                /* \"Store.sol\":1598:1621  Product storage product */\n              0x00\n                /* \"Store.sol\":1624:1639  products[index] */\n              dup2\n              dup2\n              mstore\n                /* \"Store.sol\":1624:1632  products */\n              0x02\n                /* \"Store.sol\":1624:1639  products[index] */\n              0x20\n              mstore\n              0x40\n              swap1\n              keccak256\n                /* \"Store.sol\":1679:1692  product.price */\n              0x01\n              dup2\n              add\n              sload\n                /* \"Store.sol\":1666:1675  msg.value */\n              callvalue\n                /* \"Store.sol\":1666:1692  msg.value == product.price */\n              eq\n                /* \"Store.sol\":1658:1693  require(msg.value == product.price) */\n              tag_260\n              jumpi\n              0x00\n              dup1\n              revert\n            tag_260:\n                /* \"Store.sol\":1711:1728  product.available */\n              0x02\n              dup2\n              add\n              sload\n              shl(0xa0, 0x01)\n              swap1\n              div\n              0xff\n              and\n                /* \"Store.sol\":1703:1729  require(product.available) */\n              tag_261\n              jumpi\n              0x00\n              dup1\n              revert\n            tag_261:\n                /* \"Store.sol\":1756:1770  product.seller */\n              0x02\n              dup2\n              add\n              sload\n                /* \"Store.sol\":1748:1791  payable(product.seller).transfer(msg.value) */\n              mload(0x40)\n              sub(shl(0xa0, 0x01), 0x01)\n                /* \"Store.sol\":1756:1770  product.seller */\n              swap1\n              swap2\n              and\n              swap1\n                /* \"Store.sol\":1781:1790  msg.value */\n              callvalue\n                /* \"Store.sol\":1748:1791  payable(product.seller).transfer(msg.value) */\n              dup1\n              iszero\n              0x08fc\n              mul\n              swap2\n                /* \"Store.sol\":1756:1770  product.seller */\n              0x00\n                /* \"Store.sol\":1748:1791  payable(product.seller).transfer(msg.value) */\n              dup2\n                /* \"Store.sol\":1756:1770  product.seller */\n              dup2\n                /* \"Store.sol\":1748:1791  payable(product.seller).transfer(msg.value) */\n              dup2\n                /* \"Store.sol\":1781:1790  msg.value */\n              dup6\n                /* \"Store.sol\":1756:1770  product.seller */\n              dup9\n                /* \"Store.sol\":1748:1791  payable(product.seller).transfer(msg.value) */\n              dup9\n              call\n              swap4\n              pop\n              pop\n              pop\n              pop\n              iszero\n              dup1\n              iszero\n              tag_263\n              jumpi\n              returndatasize\n              0x00\n              dup1\n              returndatacopy\n              revert(0x00, returndatasize)\n            tag_263:\n              pop\n                /* \"Store.sol\":1816:1826  msg.sender */\n              caller\n                /* \"Store.sol\":1801:1827  product.buyers[msg.sender] */\n              0x00\n              swap1\n              dup2\n              mstore\n                /* \"Store.sol\":1801:1815  product.buyers */\n              0x09\n              dup3\n              dup2\n              add\n                /* \"Store.sol\":1801:1827  product.buyers[msg.sender] */\n              0x20\n              swap1\n              dup2\n              mstore\n              0x40\n              dup1\n              dup5\n              keccak256\n                /* \"Store.sol\":1801:1834  product.buyers[msg.sender] = true */\n              dup1\n              sload\n                /* \"Store.sol\":1830:1834  true */\n              0x01\n              not(0xff)\n                /* \"Store.sol\":1801:1834  product.buyers[msg.sender] = true */\n              swap2\n              dup3\n              and\n              dup2\n              or\n              swap1\n              swap3\n              sstore\n                /* \"Store.sol\":1844:1868  storeShopper[msg.sender] */\n              swap4\n              swap1\n              swap3\n              mstore\n              dup4\n              keccak256\n                /* \"Store.sol\":1844:1875  storeShopper[msg.sender] = true */\n              dup1\n              sload\n              swap1\n              swap3\n              and\n              or\n              swap1\n              sstore\n                /* \"Store.sol\":1885:1907  product.numSoldProduct */\n              0x08\n              dup3\n              add\n                /* \"Store.sol\":1885:1909  product.numSoldProduct++ */\n              dup1\n              sload\n              swap2\n              tag_264\n              dup4\n              tag_132\n              jump\t// in\n            tag_264:\n              swap2\n              swap1\n              pop\n              sstore\n              pop\n                /* \"Store.sol\":1945:1963  bestSellerQuantity */\n              sload(0x0c)\n                /* \"Store.sol\":1922:1929  product */\n              dup2\n                /* \"Store.sol\":1922:1944  product.numSoldProduct */\n              0x08\n              add\n              sload\n                /* \"Store.sol\":1922:1963  product.numSoldProduct>bestSellerQuantity */\n              gt\n                /* \"Store.sol\":1919:2078  if(product.numSoldProduct>bestSellerQuantity){... */\n              iszero\n              tag_265\n              jumpi\n                /* \"Store.sol\":1978:2010  bestSeller = product.description */\n              dup1\n              sload\n                /* \"Store.sol\":1978:1988  bestSeller */\n              0x0b\n              swap1\n                /* \"Store.sol\":1991:1998  product */\n              dup3\n              swap1\n                /* \"Store.sol\":1978:2010  bestSeller = product.description */\n              tag_266\n              swap1\n              tag_149\n              jump\t// in\n            tag_266:\n              tag_267\n              swap3\n              swap2\n              swap1\n              tag_268\n              jump\t// in\n            tag_267:\n              pop\n                /* \"Store.sol\":2045:2067  product.numSoldProduct */\n              0x08\n              dup2\n              add\n              sload\n                /* \"Store.sol\":2024:2042  bestSellerQuantity */\n              0x0c\n                /* \"Store.sol\":2024:2067  bestSellerQuantity = product.numSoldProduct */\n              sstore\n                /* \"Store.sol\":1919:2078  if(product.numSoldProduct>bestSellerQuantity){... */\n            tag_265:\n                /* \"Store.sol\":1588:2084  {... */\n              pop\n                /* \"Store.sol\":1548:2084  function buy(uint index) public payable {... */\n              pop\n              jump\t// out\n            tag_142:\n              dup3\n              dup1\n              sload\n              tag_269\n              swap1\n              tag_149\n              jump\t// in\n            tag_269:\n              swap1\n              0x00\n              mstore\n              keccak256(0x00, 0x20)\n              swap1\n              0x1f\n              add\n              0x20\n              swap1\n              div\n              dup2\n              add\n              swap3\n              dup3\n              tag_271\n              jumpi\n              0x00\n              dup6\n              sstore\n              jump(tag_274)\n            tag_271:\n              dup3\n              0x1f\n              lt\n              tag_272\n              jumpi\n              dup1\n              mload\n              not(0xff)\n              and\n              dup4\n              dup1\n              add\n              or\n              dup6\n              sstore\n              jump(tag_274)\n            tag_272:\n              dup3\n              dup1\n              add\n              0x01\n              add\n              dup6\n              sstore\n              dup3\n              iszero\n              tag_274\n              jumpi\n              swap2\n              dup3\n              add\n            tag_273:\n              dup3\n              dup2\n              gt\n              iszero\n              tag_274\n              jumpi\n              dup3\n              mload\n              dup3\n              sstore\n              swap2\n              0x20\n              add\n              swap2\n              swap1\n              0x01\n              add\n              swap1\n              jump(tag_273)\n            tag_274:\n              pop\n              tag_275\n              swap3\n              swap2\n              pop\n              tag_276\n              jump\t// in\n            tag_275:\n              pop\n              swap1\n              jump\t// out\n            tag_268:\n              dup3\n              dup1\n              sload\n              tag_277\n              swap1\n              tag_149\n              jump\t// in\n            tag_277:\n              swap1\n              0x00\n              mstore\n              keccak256(0x00, 0x20)\n              swap1\n              0x1f\n              add\n              0x20\n              swap1\n              div\n              dup2\n              add\n              swap3\n              dup3\n              tag_279\n              jumpi\n              0x00\n              dup6\n              sstore\n              jump(tag_274)\n            tag_279:\n              dup3\n              0x1f\n              lt\n              tag_280\n              jumpi\n              dup1\n              sload\n              dup6\n              sstore\n              jump(tag_274)\n            tag_280:\n              dup3\n              dup1\n              add\n              0x01\n              add\n              dup6\n              sstore\n              dup3\n              iszero\n              tag_274\n              jumpi\n              0x00\n              mstore\n              keccak256(0x00, 0x20)\n              swap2\n              0x1f\n              add\n              0x20\n              swap1\n              div\n              dup3\n              add\n            tag_281:\n              dup3\n              dup2\n              gt\n              iszero\n              tag_274\n              jumpi\n              dup3\n              sload\n              dup3\n              sstore\n              swap2\n              0x01\n              add\n              swap2\n              swap1\n              0x01\n              add\n              swap1\n              jump(tag_281)\n            tag_276:\n            tag_284:\n              dup1\n              dup3\n              gt\n              iszero\n              tag_275\n              jumpi\n              0x00\n              dup2\n              sstore\n              0x01\n              add\n              jump(tag_284)\n                /* \"#utility.yul\":14:733   */\n            tag_287:\n                /* \"#utility.yul\":57:62   */\n              0x00\n                /* \"#utility.yul\":110:113   */\n              dup3\n                /* \"#utility.yul\":103:107   */\n              0x1f\n                /* \"#utility.yul\":95:101   */\n              dup4\n                /* \"#utility.yul\":91:108   */\n              add\n                /* \"#utility.yul\":87:114   */\n              slt\n                /* \"#utility.yul\":77:132   */\n              tag_289\n              jumpi\n                /* \"#utility.yul\":128:129   */\n              0x00\n                /* \"#utility.yul\":125:126   */\n              dup1\n                /* \"#utility.yul\":118:130   */\n              revert\n                /* \"#utility.yul\":77:132   */\n            tag_289:\n                /* \"#utility.yul\":164:170   */\n              dup2\n                /* \"#utility.yul\":151:171   */\n              calldataload\n                /* \"#utility.yul\":190:208   */\n              0xffffffffffffffff\n                /* \"#utility.yul\":227:229   */\n              dup1\n                /* \"#utility.yul\":223:225   */\n              dup3\n                /* \"#utility.yul\":220:230   */\n              gt\n                /* \"#utility.yul\":217:253   */\n              iszero\n              tag_291\n              jumpi\n                /* \"#utility.yul\":233:251   */\n              tag_291\n              tag_292\n              jump\t// in\n            tag_291:\n                /* \"#utility.yul\":308:310   */\n              0x40\n                /* \"#utility.yul\":302:311   */\n              mload\n                /* \"#utility.yul\":276:278   */\n              0x1f\n                /* \"#utility.yul\":362:375   */\n              dup4\n              add\n              not(0x1f)\n                /* \"#utility.yul\":358:380   */\n              swap1\n              dup2\n              and\n                /* \"#utility.yul\":382:384   */\n              0x3f\n                /* \"#utility.yul\":354:385   */\n              add\n                /* \"#utility.yul\":350:390   */\n              and\n                /* \"#utility.yul\":338:391   */\n              dup2\n              add\n              swap1\n                /* \"#utility.yul\":406:424   */\n              dup3\n              dup3\n              gt\n                /* \"#utility.yul\":426:448   */\n              dup2\n              dup4\n              lt\n                /* \"#utility.yul\":403:449   */\n              or\n                /* \"#utility.yul\":400:472   */\n              iszero\n              tag_294\n              jumpi\n                /* \"#utility.yul\":452:470   */\n              tag_294\n              tag_292\n              jump\t// in\n            tag_294:\n                /* \"#utility.yul\":492:502   */\n              dup2\n                /* \"#utility.yul\":488:490   */\n              0x40\n                /* \"#utility.yul\":481:503   */\n              mstore\n                /* \"#utility.yul\":527:529   */\n              dup4\n                /* \"#utility.yul\":519:525   */\n              dup2\n                /* \"#utility.yul\":512:530   */\n              mstore\n                /* \"#utility.yul\":573:576   */\n              dup7\n                /* \"#utility.yul\":566:570   */\n              0x20\n                /* \"#utility.yul\":561:563   */\n              dup6\n                /* \"#utility.yul\":553:559   */\n              dup9\n                /* \"#utility.yul\":549:564   */\n              add\n                /* \"#utility.yul\":545:571   */\n              add\n                /* \"#utility.yul\":542:577   */\n              gt\n                /* \"#utility.yul\":539:594   */\n              iszero\n              tag_295\n              jumpi\n                /* \"#utility.yul\":590:591   */\n              0x00\n                /* \"#utility.yul\":587:588   */\n              dup1\n                /* \"#utility.yul\":580:592   */\n              revert\n                /* \"#utility.yul\":539:594   */\n            tag_295:\n                /* \"#utility.yul\":654:656   */\n              dup4\n                /* \"#utility.yul\":647:651   */\n              0x20\n                /* \"#utility.yul\":639:645   */\n              dup8\n                /* \"#utility.yul\":635:652   */\n              add\n                /* \"#utility.yul\":628:632   */\n              0x20\n                /* \"#utility.yul\":620:626   */\n              dup4\n                /* \"#utility.yul\":616:633   */\n              add\n                /* \"#utility.yul\":603:657   */\n              calldatacopy\n                /* \"#utility.yul\":701:702   */\n              0x00\n                /* \"#utility.yul\":694:698   */\n              0x20\n                /* \"#utility.yul\":689:691   */\n              dup6\n                /* \"#utility.yul\":681:687   */\n              dup4\n                /* \"#utility.yul\":677:692   */\n              add\n                /* \"#utility.yul\":673:699   */\n              add\n                /* \"#utility.yul\":666:703   */\n              mstore\n                /* \"#utility.yul\":721:727   */\n              dup1\n                /* \"#utility.yul\":712:727   */\n              swap5\n              pop\n              pop\n              pop\n              pop\n              pop\n                /* \"#utility.yul\":14:733   */\n              swap3\n              swap2\n              pop\n              pop\n              jump\t// out\n                /* \"#utility.yul\":738:1302   */\n            tag_95:\n                /* \"#utility.yul\":825:831   */\n              0x00\n                /* \"#utility.yul\":833:839   */\n              dup1\n                /* \"#utility.yul\":841:847   */\n              0x00\n                /* \"#utility.yul\":894:896   */\n              0x60\n                /* \"#utility.yul\":882:891   */\n              dup5\n                /* \"#utility.yul\":873:880   */\n              dup7\n                /* \"#utility.yul\":869:892   */\n              sub\n                /* \"#utility.yul\":865:897   */\n              slt\n                /* \"#utility.yul\":862:914   */\n              iszero\n              tag_297\n              jumpi\n                /* \"#utility.yul\":910:911   */\n              0x00\n                /* \"#utility.yul\":907:908   */\n              dup1\n                /* \"#utility.yul\":900:912   */\n              revert\n                /* \"#utility.yul\":862:914   */\n            tag_297:\n                /* \"#utility.yul\":950:959   */\n              dup4\n                /* \"#utility.yul\":937:960   */\n              calldataload\n                /* \"#utility.yul\":983:1001   */\n              0xffffffffffffffff\n                /* \"#utility.yul\":975:981   */\n              dup2\n                /* \"#utility.yul\":972:1002   */\n              gt\n                /* \"#utility.yul\":969:1019   */\n              iszero\n              tag_298\n              jumpi\n                /* \"#utility.yul\":1015:1016   */\n              0x00\n                /* \"#utility.yul\":1012:1013   */\n              dup1\n                /* \"#utility.yul\":1005:1017   */\n              revert\n                /* \"#utility.yul\":969:1019   */\n            tag_298:\n                /* \"#utility.yul\":1038:1088   */\n              tag_299\n                /* \"#utility.yul\":1080:1087   */\n              dup7\n                /* \"#utility.yul\":1071:1077   */\n              dup3\n                /* \"#utility.yul\":1060:1069   */\n              dup8\n                /* \"#utility.yul\":1056:1078   */\n              add\n                /* \"#utility.yul\":1038:1088   */\n              tag_287\n              jump\t// in\n            tag_299:\n                /* \"#utility.yul\":1028:1088   */\n              swap4\n              pop\n              pop\n                /* \"#utility.yul\":1135:1137   */\n              0x20\n                /* \"#utility.yul\":1120:1138   */\n              dup5\n              add\n                /* \"#utility.yul\":1107:1139   */\n              calldataload\n              swap2\n              pop\n                /* \"#utility.yul\":1189:1191   */\n              0x40\n                /* \"#utility.yul\":1174:1192   */\n              dup5\n              add\n                /* \"#utility.yul\":1161:1193   */\n              calldataload\n              sub(shl(0xa0, 0x01), 0x01)\n                /* \"#utility.yul\":1222:1253   */\n              dup2\n              and\n                /* \"#utility.yul\":1212:1254   */\n              dup2\n              eq\n                /* \"#utility.yul\":1202:1272   */\n              tag_300\n              jumpi\n                /* \"#utility.yul\":1268:1269   */\n              0x00\n                /* \"#utility.yul\":1265:1266   */\n              dup1\n                /* \"#utility.yul\":1258:1270   */\n              revert\n                /* \"#utility.yul\":1202:1272   */\n            tag_300:\n                /* \"#utility.yul\":1291:1296   */\n              dup1\n                /* \"#utility.yul\":1281:1296   */\n              swap2\n              pop\n              pop\n                /* \"#utility.yul\":738:1302   */\n              swap3\n              pop\n              swap3\n              pop\n              swap3\n              jump\t// out\n                /* \"#utility.yul\":1307:1487   */\n            tag_44:\n                /* \"#utility.yul\":1366:1372   */\n              0x00\n                /* \"#utility.yul\":1419:1421   */\n              0x20\n                /* \"#utility.yul\":1407:1416   */\n              dup3\n                /* \"#utility.yul\":1398:1405   */\n              dup5\n                /* \"#utility.yul\":1394:1417   */\n              sub\n                /* \"#utility.yul\":1390:1422   */\n              slt\n                /* \"#utility.yul\":1387:1439   */\n              iszero\n              tag_302\n              jumpi\n                /* \"#utility.yul\":1435:1436   */\n              0x00\n                /* \"#utility.yul\":1432:1433   */\n              dup1\n                /* \"#utility.yul\":1425:1437   */\n              revert\n                /* \"#utility.yul\":1387:1439   */\n            tag_302:\n              pop\n                /* \"#utility.yul\":1458:1481   */\n              calldataload\n              swap2\n                /* \"#utility.yul\":1307:1487   */\n              swap1\n              pop\n              jump\t// out\n                /* \"#utility.yul\":1492:1833   */\n            tag_62:\n                /* \"#utility.yul\":1557:1563   */\n              0x00\n                /* \"#utility.yul\":1565:1571   */\n              dup1\n                /* \"#utility.yul\":1618:1620   */\n              0x40\n                /* \"#utility.yul\":1606:1615   */\n              dup4\n                /* \"#utility.yul\":1597:1604   */\n              dup6\n                /* \"#utility.yul\":1593:1616   */\n              sub\n                /* \"#utility.yul\":1589:1621   */\n              slt\n                /* \"#utility.yul\":1586:1638   */\n              iszero\n              tag_304\n              jumpi\n                /* \"#utility.yul\":1634:1635   */\n              0x00\n                /* \"#utility.yul\":1631:1632   */\n              dup1\n                /* \"#utility.yul\":1624:1636   */\n              revert\n                /* \"#utility.yul\":1586:1638   */\n            tag_304:\n                /* \"#utility.yul\":1670:1679   */\n              dup3\n                /* \"#utility.yul\":1657:1680   */\n              calldataload\n                /* \"#utility.yul\":1647:1680   */\n              swap2\n              pop\n                /* \"#utility.yul\":1730:1732   */\n              0x20\n                /* \"#utility.yul\":1719:1728   */\n              dup4\n                /* \"#utility.yul\":1715:1733   */\n              add\n                /* \"#utility.yul\":1702:1734   */\n              calldataload\n                /* \"#utility.yul\":1777:1782   */\n              dup1\n                /* \"#utility.yul\":1770:1783   */\n              iszero\n                /* \"#utility.yul\":1763:1784   */\n              iszero\n                /* \"#utility.yul\":1756:1761   */\n              dup2\n                /* \"#utility.yul\":1753:1785   */\n              eq\n                /* \"#utility.yul\":1743:1803   */\n              tag_305\n              jumpi\n                /* \"#utility.yul\":1799:1800   */\n              0x00\n                /* \"#utility.yul\":1796:1797   */\n              dup1\n                /* \"#utility.yul\":1789:1801   */\n              revert\n                /* \"#utility.yul\":1743:1803   */\n            tag_305:\n                /* \"#utility.yul\":1822:1827   */\n              dup1\n                /* \"#utility.yul\":1812:1827   */\n              swap2\n              pop\n              pop\n                /* \"#utility.yul\":1492:1833   */\n              swap3\n              pop\n              swap3\n              swap1\n              pop\n              jump\t// out\n                /* \"#utility.yul\":1838:2228   */\n            tag_51:\n                /* \"#utility.yul\":1916:1922   */\n              0x00\n                /* \"#utility.yul\":1924:1930   */\n              dup1\n                /* \"#utility.yul\":1977:1979   */\n              0x40\n                /* \"#utility.yul\":1965:1974   */\n              dup4\n                /* \"#utility.yul\":1956:1963   */\n              dup6\n                /* \"#utility.yul\":1952:1975   */\n              sub\n                /* \"#utility.yul\":1948:1980   */\n              slt\n                /* \"#utility.yul\":1945:1997   */\n              iszero\n              tag_307\n              jumpi\n                /* \"#utility.yul\":1993:1994   */\n              0x00\n                /* \"#utility.yul\":1990:1991   */\n              dup1\n                /* \"#utility.yul\":1983:1995   */\n              revert\n                /* \"#utility.yul\":1945:1997   */\n            tag_307:\n                /* \"#utility.yul\":2029:2038   */\n              dup3\n                /* \"#utility.yul\":2016:2039   */\n              calldataload\n                /* \"#utility.yul\":2006:2039   */\n              swap2\n              pop\n                /* \"#utility.yul\":2090:2092   */\n              0x20\n                /* \"#utility.yul\":2079:2088   */\n              dup4\n                /* \"#utility.yul\":2075:2093   */\n              add\n                /* \"#utility.yul\":2062:2094   */\n              calldataload\n                /* \"#utility.yul\":2117:2135   */\n              0xffffffffffffffff\n                /* \"#utility.yul\":2109:2115   */\n              dup2\n                /* \"#utility.yul\":2106:2136   */\n              gt\n                /* \"#utility.yul\":2103:2153   */\n              iszero\n              tag_308\n              jumpi\n                /* \"#utility.yul\":2149:2150   */\n              0x00\n                /* \"#utility.yul\":2146:2147   */\n              dup1\n                /* \"#utility.yul\":2139:2151   */\n              revert\n                /* \"#utility.yul\":2103:2153   */\n            tag_308:\n                /* \"#utility.yul\":2172:2222   */\n              tag_309\n                /* \"#utility.yul\":2214:2221   */\n              dup6\n                /* \"#utility.yul\":2205:2211   */\n              dup3\n                /* \"#utility.yul\":2194:2203   */\n              dup7\n                /* \"#utility.yul\":2190:2212   */\n              add\n                /* \"#utility.yul\":2172:2222   */\n              tag_287\n              jump\t// in\n            tag_309:\n                /* \"#utility.yul\":2162:2222   */\n              swap2\n              pop\n              pop\n                /* \"#utility.yul\":1838:2228   */\n              swap3\n              pop\n              swap3\n              swap1\n              pop\n              jump\t// out\n                /* \"#utility.yul\":2233:2691   */\n            tag_28:\n                /* \"#utility.yul\":2320:2326   */\n              0x00\n                /* \"#utility.yul\":2328:2334   */\n              dup1\n                /* \"#utility.yul\":2336:2342   */\n              0x00\n                /* \"#utility.yul\":2389:2391   */\n              0x60\n                /* \"#utility.yul\":2377:2386   */\n              dup5\n                /* \"#utility.yul\":2368:2375   */\n              dup7\n                /* \"#utility.yul\":2364:2387   */\n              sub\n                /* \"#utility.yul\":2360:2392   */\n              slt\n                /* \"#utility.yul\":2357:2409   */\n              iszero\n              tag_311\n              jumpi\n                /* \"#utility.yul\":2405:2406   */\n              0x00\n                /* \"#utility.yul\":2402:2403   */\n              dup1\n                /* \"#utility.yul\":2395:2407   */\n              revert\n                /* \"#utility.yul\":2357:2409   */\n            tag_311:\n                /* \"#utility.yul\":2441:2450   */\n              dup4\n                /* \"#utility.yul\":2428:2451   */\n              calldataload\n                /* \"#utility.yul\":2418:2451   */\n              swap3\n              pop\n                /* \"#utility.yul\":2498:2500   */\n              0x20\n                /* \"#utility.yul\":2487:2496   */\n              dup5\n                /* \"#utility.yul\":2483:2501   */\n              add\n                /* \"#utility.yul\":2470:2502   */\n              calldataload\n                /* \"#utility.yul\":2460:2502   */\n              swap2\n              pop\n                /* \"#utility.yul\":2553:2555   */\n              0x40\n                /* \"#utility.yul\":2542:2551   */\n              dup5\n                /* \"#utility.yul\":2538:2556   */\n              add\n                /* \"#utility.yul\":2525:2557   */\n              calldataload\n                /* \"#utility.yul\":2580:2598   */\n              0xffffffffffffffff\n                /* \"#utility.yul\":2572:2578   */\n              dup2\n                /* \"#utility.yul\":2569:2599   */\n              gt\n                /* \"#utility.yul\":2566:2616   */\n              iszero\n              tag_312\n              jumpi\n                /* \"#utility.yul\":2612:2613   */\n              0x00\n                /* \"#utility.yul\":2609:2610   */\n              dup1\n                /* \"#utility.yul\":2602:2614   */\n              revert\n                /* \"#utility.yul\":2566:2616   */\n            tag_312:\n                /* \"#utility.yul\":2635:2685   */\n              tag_313\n                /* \"#utility.yul\":2677:2684   */\n              dup7\n                /* \"#utility.yul\":2668:2674   */\n              dup3\n                /* \"#utility.yul\":2657:2666   */\n              dup8\n                /* \"#utility.yul\":2653:2675   */\n              add\n                /* \"#utility.yul\":2635:2685   */\n              tag_287\n              jump\t// in\n            tag_313:\n                /* \"#utility.yul\":2625:2685   */\n              swap2\n              pop\n              pop\n                /* \"#utility.yul\":2233:2691   */\n              swap3\n              pop\n              swap3\n              pop\n              swap3\n              jump\t// out\n                /* \"#utility.yul\":2696:3157   */\n            tag_314:\n                /* \"#utility.yul\":2749:2752   */\n              0x00\n                /* \"#utility.yul\":2787:2792   */\n              dup2\n                /* \"#utility.yul\":2781:2793   */\n              mload\n                /* \"#utility.yul\":2814:2820   */\n              dup1\n                /* \"#utility.yul\":2809:2812   */\n              dup5\n                /* \"#utility.yul\":2802:2821   */\n              mstore\n                /* \"#utility.yul\":2840:2844   */\n              0x20\n                /* \"#utility.yul\":2869:2871   */\n              dup1\n                /* \"#utility.yul\":2864:2867   */\n              dup6\n                /* \"#utility.yul\":2860:2872   */\n              add\n                /* \"#utility.yul\":2853:2872   */\n              swap5\n              pop\n                /* \"#utility.yul\":2906:2908   */\n              dup1\n                /* \"#utility.yul\":2899:2904   */\n              dup5\n                /* \"#utility.yul\":2895:2909   */\n              add\n                /* \"#utility.yul\":2927:2928   */\n              0x00\n                /* \"#utility.yul\":2937:3132   */\n            tag_316:\n                /* \"#utility.yul\":2951:2957   */\n              dup4\n                /* \"#utility.yul\":2948:2949   */\n              dup2\n                /* \"#utility.yul\":2945:2958   */\n              lt\n                /* \"#utility.yul\":2937:3132   */\n              iszero\n              tag_318\n              jumpi\n                /* \"#utility.yul\":3016:3029   */\n              dup2\n              mload\n              sub(shl(0xa0, 0x01), 0x01)\n                /* \"#utility.yul\":3012:3051   */\n              and\n                /* \"#utility.yul\":3000:3052   */\n              dup8\n              mstore\n                /* \"#utility.yul\":3072:3084   */\n              swap6\n              dup3\n              add\n              swap6\n                /* \"#utility.yul\":3107:3122   */\n              swap1\n              dup3\n              add\n              swap1\n              0x01\n                /* \"#utility.yul\":2966:2975   */\n              add\n                /* \"#utility.yul\":2937:3132   */\n              jump(tag_316)\n            tag_318:\n              pop\n                /* \"#utility.yul\":3148:3151   */\n              swap5\n              swap6\n                /* \"#utility.yul\":2696:3157   */\n              swap5\n              pop\n              pop\n              pop\n              pop\n              pop\n              jump\t// out\n                /* \"#utility.yul\":3162:3754   */\n            tag_319:\n                /* \"#utility.yul\":3214:3217   */\n              0x00\n                /* \"#utility.yul\":3245:3248   */\n              dup3\n                /* \"#utility.yul\":3277:3282   */\n              dup3\n                /* \"#utility.yul\":3271:3283   */\n              mload\n                /* \"#utility.yul\":3304:3310   */\n              dup1\n                /* \"#utility.yul\":3299:3302   */\n              dup6\n                /* \"#utility.yul\":3292:3311   */\n              mstore\n                /* \"#utility.yul\":3330:3334   */\n              0x20\n                /* \"#utility.yul\":3359:3361   */\n              dup1\n                /* \"#utility.yul\":3354:3357   */\n              dup7\n                /* \"#utility.yul\":3350:3362   */\n              add\n                /* \"#utility.yul\":3343:3362   */\n              swap6\n              pop\n                /* \"#utility.yul\":3415:3417   */\n              dup1\n                /* \"#utility.yul\":3405:3411   */\n              dup3\n                /* \"#utility.yul\":3402:3403   */\n              0x05\n                /* \"#utility.yul\":3398:3412   */\n              shl\n                /* \"#utility.yul\":3391:3396   */\n              dup5\n                /* \"#utility.yul\":3387:3413   */\n              add\n                /* \"#utility.yul\":3383:3418   */\n              add\n                /* \"#utility.yul\":3452:3454   */\n              dup2\n                /* \"#utility.yul\":3445:3450   */\n              dup7\n                /* \"#utility.yul\":3441:3455   */\n              add\n                /* \"#utility.yul\":3473:3474   */\n              0x00\n                /* \"#utility.yul\":3483:3728   */\n            tag_321:\n                /* \"#utility.yul\":3497:3503   */\n              dup5\n                /* \"#utility.yul\":3494:3495   */\n              dup2\n                /* \"#utility.yul\":3491:3504   */\n              lt\n                /* \"#utility.yul\":3483:3728   */\n              iszero\n              tag_323\n              jumpi\n                /* \"#utility.yul\":3584:3586   */\n              0x1f\n                /* \"#utility.yul\":3580:3587   */\n              not\n                /* \"#utility.yul\":3572:3577   */\n              dup7\n                /* \"#utility.yul\":3566:3570   */\n              dup5\n                /* \"#utility.yul\":3562:3578   */\n              sub\n                /* \"#utility.yul\":3558:3588   */\n              add\n                /* \"#utility.yul\":3553:3556   */\n              dup10\n                /* \"#utility.yul\":3546:3589   */\n              mstore\n                /* \"#utility.yul\":3610:3648   */\n              tag_324\n                /* \"#utility.yul\":3643:3647   */\n              dup4\n                /* \"#utility.yul\":3634:3640   */\n              dup4\n                /* \"#utility.yul\":3628:3641   */\n              mload\n                /* \"#utility.yul\":3610:3648   */\n              tag_325\n              jump\t// in\n            tag_324:\n                /* \"#utility.yul\":3706:3718   */\n              swap9\n              dup5\n              add\n              swap9\n                /* \"#utility.yul\":3602:3648   */\n              swap3\n              pop\n                /* \"#utility.yul\":3671:3686   */\n              swap1\n              dup4\n              add\n              swap1\n                /* \"#utility.yul\":3519:3520   */\n              0x01\n                /* \"#utility.yul\":3512:3521   */\n              add\n                /* \"#utility.yul\":3483:3728   */\n              jump(tag_321)\n            tag_323:\n              pop\n                /* \"#utility.yul\":3744:3748   */\n              swap1\n              swap8\n                /* \"#utility.yul\":3162:3754   */\n              swap7\n              pop\n              pop\n              pop\n              pop\n              pop\n              pop\n              pop\n              jump\t// out\n                /* \"#utility.yul\":3759:4194   */\n            tag_326:\n                /* \"#utility.yul\":3812:3815   */\n              0x00\n                /* \"#utility.yul\":3850:3855   */\n              dup2\n                /* \"#utility.yul\":3844:3856   */\n              mload\n                /* \"#utility.yul\":3877:3883   */\n              dup1\n                /* \"#utility.yul\":3872:3875   */\n              dup5\n                /* \"#utility.yul\":3865:3884   */\n              mstore\n                /* \"#utility.yul\":3903:3907   */\n              0x20\n                /* \"#utility.yul\":3932:3934   */\n              dup1\n                /* \"#utility.yul\":3927:3930   */\n              dup6\n                /* \"#utility.yul\":3923:3935   */\n              add\n                /* \"#utility.yul\":3916:3935   */\n              swap5\n              pop\n                /* \"#utility.yul\":3969:3971   */\n              dup1\n                /* \"#utility.yul\":3962:3967   */\n              dup5\n                /* \"#utility.yul\":3958:3972   */\n              add\n                /* \"#utility.yul\":3990:3991   */\n              0x00\n                /* \"#utility.yul\":4000:4169   */\n            tag_328:\n                /* \"#utility.yul\":4014:4020   */\n              dup4\n                /* \"#utility.yul\":4011:4012   */\n              dup2\n                /* \"#utility.yul\":4008:4021   */\n              lt\n                /* \"#utility.yul\":4000:4169   */\n              iszero\n              tag_318\n              jumpi\n                /* \"#utility.yul\":4075:4088   */\n              dup2\n              mload\n                /* \"#utility.yul\":4063:4089   */\n              dup8\n              mstore\n                /* \"#utility.yul\":4109:4121   */\n              swap6\n              dup3\n              add\n              swap6\n                /* \"#utility.yul\":4144:4159   */\n              swap1\n              dup3\n              add\n              swap1\n                /* \"#utility.yul\":4036:4037   */\n              0x01\n                /* \"#utility.yul\":4029:4038   */\n              add\n                /* \"#utility.yul\":4000:4169   */\n              jump(tag_328)\n                /* \"#utility.yul\":4199:4671   */\n            tag_325:\n                /* \"#utility.yul\":4241:4244   */\n              0x00\n                /* \"#utility.yul\":4279:4284   */\n              dup2\n                /* \"#utility.yul\":4273:4285   */\n              mload\n                /* \"#utility.yul\":4306:4312   */\n              dup1\n                /* \"#utility.yul\":4301:4304   */\n              dup5\n                /* \"#utility.yul\":4294:4313   */\n              mstore\n                /* \"#utility.yul\":4331:4332   */\n              0x00\n                /* \"#utility.yul\":4341:4503   */\n            tag_332:\n                /* \"#utility.yul\":4355:4361   */\n              dup2\n                /* \"#utility.yul\":4352:4353   */\n              dup2\n                /* \"#utility.yul\":4349:4362   */\n              lt\n                /* \"#utility.yul\":4341:4503   */\n              iszero\n              tag_334\n              jumpi\n                /* \"#utility.yul\":4417:4421   */\n              0x20\n                /* \"#utility.yul\":4473:4486   */\n              dup2\n              dup6\n              add\n                /* \"#utility.yul\":4469:4491   */\n              dup2\n              add\n                /* \"#utility.yul\":4463:4492   */\n              mload\n                /* \"#utility.yul\":4445:4456   */\n              dup7\n              dup4\n              add\n                /* \"#utility.yul\":4441:4461   */\n              dup3\n              add\n                /* \"#utility.yul\":4434:4493   */\n              mstore\n                /* \"#utility.yul\":4370:4382   */\n              add\n                /* \"#utility.yul\":4341:4503   */\n              jump(tag_332)\n            tag_334:\n                /* \"#utility.yul\":4521:4527   */\n              dup2\n                /* \"#utility.yul\":4518:4519   */\n              dup2\n                /* \"#utility.yul\":4515:4528   */\n              gt\n                /* \"#utility.yul\":4512:4599   */\n              iszero\n              tag_335\n              jumpi\n                /* \"#utility.yul\":4587:4588   */\n              0x00\n                /* \"#utility.yul\":4580:4584   */\n              0x20\n                /* \"#utility.yul\":4571:4577   */\n              dup4\n                /* \"#utility.yul\":4566:4569   */\n              dup8\n                /* \"#utility.yul\":4562:4578   */\n              add\n                /* \"#utility.yul\":4558:4585   */\n              add\n                /* \"#utility.yul\":4551:4589   */\n              mstore\n                /* \"#utility.yul\":4512:4599   */\n            tag_335:\n              pop\n                /* \"#utility.yul\":4653:4655   */\n              0x1f\n                /* \"#utility.yul\":4632:4647   */\n              add\n              not(0x1f)\n                /* \"#utility.yul\":4628:4657   */\n              and\n                /* \"#utility.yul\":4619:4658   */\n              swap3\n              swap1\n              swap3\n              add\n                /* \"#utility.yul\":4660:4664   */\n              0x20\n                /* \"#utility.yul\":4615:4665   */\n              add\n              swap3\n                /* \"#utility.yul\":4199:4671   */\n              swap2\n              pop\n              pop\n              jump\t// out\n                /* \"#utility.yul\":4884:5572   */\n            tag_47:\n                /* \"#utility.yul\":5239:5241   */\n              0x60\n                /* \"#utility.yul\":5228:5237   */\n              dup2\n                /* \"#utility.yul\":5221:5242   */\n              mstore\n                /* \"#utility.yul\":5202:5206   */\n              0x00\n                /* \"#utility.yul\":5265:5320   */\n              tag_338\n                /* \"#utility.yul\":5316:5318   */\n              0x60\n                /* \"#utility.yul\":5305:5314   */\n              dup4\n                /* \"#utility.yul\":5301:5319   */\n              add\n                /* \"#utility.yul\":5293:5299   */\n              dup7\n                /* \"#utility.yul\":5265:5320   */\n              tag_319\n              jump\t// in\n            tag_338:\n                /* \"#utility.yul\":5368:5377   */\n              dup3\n                /* \"#utility.yul\":5360:5366   */\n              dup2\n                /* \"#utility.yul\":5356:5378   */\n              sub\n                /* \"#utility.yul\":5351:5353   */\n              0x20\n                /* \"#utility.yul\":5340:5349   */\n              dup5\n                /* \"#utility.yul\":5336:5354   */\n              add\n                /* \"#utility.yul\":5329:5379   */\n              mstore\n                /* \"#utility.yul\":5402:5446   */\n              tag_339\n                /* \"#utility.yul\":5439:5445   */\n              dup2\n                /* \"#utility.yul\":5431:5437   */\n              dup7\n                /* \"#utility.yul\":5402:5446   */\n              tag_314\n              jump\t// in\n            tag_339:\n                /* \"#utility.yul\":5388:5446   */\n              swap1\n              pop\n                /* \"#utility.yul\":5494:5503   */\n              dup3\n                /* \"#utility.yul\":5486:5492   */\n              dup2\n                /* \"#utility.yul\":5482:5504   */\n              sub\n                /* \"#utility.yul\":5477:5479   */\n              0x40\n                /* \"#utility.yul\":5466:5475   */\n              dup5\n                /* \"#utility.yul\":5462:5480   */\n              add\n                /* \"#utility.yul\":5455:5505   */\n              mstore\n                /* \"#utility.yul\":5522:5566   */\n              tag_340\n                /* \"#utility.yul\":5559:5565   */\n              dup2\n                /* \"#utility.yul\":5551:5557   */\n              dup6\n                /* \"#utility.yul\":5522:5566   */\n              tag_326\n              jump\t// in\n            tag_340:\n                /* \"#utility.yul\":5514:5566   */\n              swap7\n                /* \"#utility.yul\":4884:5572   */\n              swap6\n              pop\n              pop\n              pop\n              pop\n              pop\n              pop\n              jump\t// out\n                /* \"#utility.yul\":5577:5797   */\n            tag_68:\n                /* \"#utility.yul\":5726:5728   */\n              0x20\n                /* \"#utility.yul\":5715:5724   */\n              dup2\n                /* \"#utility.yul\":5708:5729   */\n              mstore\n                /* \"#utility.yul\":5689:5693   */\n              0x00\n                /* \"#utility.yul\":5746:5791   */\n              tag_342\n                /* \"#utility.yul\":5787:5789   */\n              0x20\n                /* \"#utility.yul\":5776:5785   */\n              dup4\n                /* \"#utility.yul\":5772:5790   */\n              add\n                /* \"#utility.yul\":5764:5770   */\n              dup5\n                /* \"#utility.yul\":5746:5791   */\n              tag_325\n              jump\t// in\n            tag_342:\n                /* \"#utility.yul\":5738:5791   */\n              swap4\n                /* \"#utility.yul\":5577:5797   */\n              swap3\n              pop\n              pop\n              pop\n              jump\t// out\n                /* \"#utility.yul\":5802:6489   */\n            tag_82:\n                /* \"#utility.yul\":6113:6116   */\n              0xe0\n                /* \"#utility.yul\":6102:6111   */\n              dup2\n                /* \"#utility.yul\":6095:6117   */\n              mstore\n                /* \"#utility.yul\":6076:6080   */\n              0x00\n                /* \"#utility.yul\":6134:6180   */\n              tag_344\n                /* \"#utility.yul\":6175:6178   */\n              0xe0\n                /* \"#utility.yul\":6164:6173   */\n              dup4\n                /* \"#utility.yul\":6160:6179   */\n              add\n                /* \"#utility.yul\":6152:6158   */\n              dup11\n                /* \"#utility.yul\":6134:6180   */\n              tag_325\n              jump\t// in\n            tag_344:\n                /* \"#utility.yul\":6211:6213   */\n              0x20\n                /* \"#utility.yul\":6196:6214   */\n              dup4\n              add\n                /* \"#utility.yul\":6189:6223   */\n              swap9\n              swap1\n              swap9\n              mstore\n              pop\n              sub(shl(0xa0, 0x01), 0x01)\n                /* \"#utility.yul\":6259:6291   */\n              swap6\n              swap1\n              swap6\n              and\n                /* \"#utility.yul\":6254:6256   */\n              0x40\n                /* \"#utility.yul\":6239:6257   */\n              dup7\n              add\n                /* \"#utility.yul\":6232:6292   */\n              mstore\n                /* \"#utility.yul\":6335:6349   */\n              swap3\n              iszero\n                /* \"#utility.yul\":6328:6350   */\n              iszero\n                /* \"#utility.yul\":6323:6325   */\n              0x60\n                /* \"#utility.yul\":6308:6326   */\n              dup6\n              add\n                /* \"#utility.yul\":6301:6351   */\n              mstore\n                /* \"#utility.yul\":6382:6385   */\n              0x80\n                /* \"#utility.yul\":6367:6386   */\n              dup5\n              add\n                /* \"#utility.yul\":6360:6395   */\n              swap2\n              swap1\n              swap2\n              mstore\n              0xa0\n                /* \"#utility.yul\":6411:6430   */\n              dup4\n              add\n                /* \"#utility.yul\":6404:6439   */\n              mstore\n                /* \"#utility.yul\":6470:6473   */\n              0xc0\n                /* \"#utility.yul\":6455:6474   */\n              swap1\n              swap2\n              add\n                /* \"#utility.yul\":6448:6483   */\n              mstore\n                /* \"#utility.yul\":6189:6223   */\n              swap2\n                /* \"#utility.yul\":6126:6180   */\n              swap1\n              pop\n                /* \"#utility.yul\":5802:6489   */\n              jump\t// out\n                /* \"#utility.yul\":6676:7445   */\n            tag_119:\n                /* \"#utility.yul\":6995:7020   */\n              dup8\n              dup2\n              mstore\n              sub(shl(0xa0, 0x01), 0x01)\n                /* \"#utility.yul\":7056:7088   */\n              dup8\n              and\n                /* \"#utility.yul\":7051:7053   */\n              0x20\n                /* \"#utility.yul\":7036:7054   */\n              dup3\n              add\n                /* \"#utility.yul\":7029:7089   */\n              mstore\n                /* \"#utility.yul\":7125:7128   */\n              0xe0\n                /* \"#utility.yul\":7120:7122   */\n              0x40\n                /* \"#utility.yul\":7105:7123   */\n              dup3\n              add\n                /* \"#utility.yul\":7098:7129   */\n              dup2\n              swap1\n              mstore\n              0x00\n              swap1\n                /* \"#utility.yul\":7152:7198   */\n              tag_347\n              swap1\n                /* \"#utility.yul\":7178:7197   */\n              dup4\n              add\n                /* \"#utility.yul\":7170:7176   */\n              dup9\n                /* \"#utility.yul\":7152:7198   */\n              tag_325\n              jump\t// in\n            tag_347:\n                /* \"#utility.yul\":7234:7240   */\n              dup7\n                /* \"#utility.yul\":7229:7231   */\n              0x60\n                /* \"#utility.yul\":7218:7227   */\n              dup5\n                /* \"#utility.yul\":7214:7232   */\n              add\n                /* \"#utility.yul\":7207:7241   */\n              mstore\n                /* \"#utility.yul\":7290:7299   */\n              dup3\n                /* \"#utility.yul\":7282:7288   */\n              dup2\n                /* \"#utility.yul\":7278:7300   */\n              sub\n                /* \"#utility.yul\":7272:7275   */\n              0x80\n                /* \"#utility.yul\":7261:7270   */\n              dup5\n                /* \"#utility.yul\":7257:7276   */\n              add\n                /* \"#utility.yul\":7250:7301   */\n              mstore\n                /* \"#utility.yul\":7318:7351   */\n              tag_348\n                /* \"#utility.yul\":7344:7350   */\n              dup2\n                /* \"#utility.yul\":7336:7342   */\n              dup8\n                /* \"#utility.yul\":7318:7351   */\n              tag_325\n              jump\t// in\n            tag_348:\n                /* \"#utility.yul\":7382:7385   */\n              0xa0\n                /* \"#utility.yul\":7367:7386   */\n              dup5\n              add\n                /* \"#utility.yul\":7360:7395   */\n              swap6\n              swap1\n              swap6\n              mstore\n              pop\n              pop\n                /* \"#utility.yul\":7426:7429   */\n              0xc0\n                /* \"#utility.yul\":7411:7430   */\n              add\n                /* \"#utility.yul\":7404:7439   */\n              mstore\n                /* \"#utility.yul\":7310:7351   */\n              swap6\n                /* \"#utility.yul\":6676:7445   */\n              swap5\n              pop\n              pop\n              pop\n              pop\n              pop\n              jump\t// out\n                /* \"#utility.yul\":7450:8211   */\n            tag_31:\n                /* \"#utility.yul\":7833:7839   */\n              dup5\n                /* \"#utility.yul\":7822:7831   */\n              dup2\n                /* \"#utility.yul\":7815:7840   */\n              mstore\n                /* \"#utility.yul\":7876:7879   */\n              0x80\n                /* \"#utility.yul\":7871:7873   */\n              0x20\n                /* \"#utility.yul\":7860:7869   */\n              dup3\n                /* \"#utility.yul\":7856:7874   */\n              add\n                /* \"#utility.yul\":7849:7880   */\n              mstore\n                /* \"#utility.yul\":7796:7800   */\n              0x00\n                /* \"#utility.yul\":7903:7959   */\n              tag_350\n                /* \"#utility.yul\":7954:7957   */\n              0x80\n                /* \"#utility.yul\":7943:7952   */\n              dup4\n                /* \"#utility.yul\":7939:7958   */\n              add\n                /* \"#utility.yul\":7931:7937   */\n              dup7\n                /* \"#utility.yul\":7903:7959   */\n              tag_319\n              jump\t// in\n            tag_350:\n                /* \"#utility.yul\":8007:8016   */\n              dup3\n                /* \"#utility.yul\":7999:8005   */\n              dup2\n                /* \"#utility.yul\":7995:8017   */\n              sub\n                /* \"#utility.yul\":7990:7992   */\n              0x40\n                /* \"#utility.yul\":7979:7988   */\n              dup5\n                /* \"#utility.yul\":7975:7993   */\n              add\n                /* \"#utility.yul\":7968:8018   */\n              mstore\n                /* \"#utility.yul\":8041:8085   */\n              tag_351\n                /* \"#utility.yul\":8078:8084   */\n              dup2\n                /* \"#utility.yul\":8070:8076   */\n              dup7\n                /* \"#utility.yul\":8041:8085   */\n              tag_314\n              jump\t// in\n            tag_351:\n                /* \"#utility.yul\":8027:8085   */\n              swap1\n              pop\n                /* \"#utility.yul\":8133:8142   */\n              dup3\n                /* \"#utility.yul\":8125:8131   */\n              dup2\n                /* \"#utility.yul\":8121:8143   */\n              sub\n                /* \"#utility.yul\":8116:8118   */\n              0x60\n                /* \"#utility.yul\":8105:8114   */\n              dup5\n                /* \"#utility.yul\":8101:8119   */\n              add\n                /* \"#utility.yul\":8094:8144   */\n              mstore\n                /* \"#utility.yul\":8161:8205   */\n              tag_352\n                /* \"#utility.yul\":8198:8204   */\n              dup2\n                /* \"#utility.yul\":8190:8196   */\n              dup6\n                /* \"#utility.yul\":8161:8205   */\n              tag_326\n              jump\t// in\n            tag_352:\n                /* \"#utility.yul\":8153:8205   */\n              swap8\n                /* \"#utility.yul\":7450:8211   */\n              swap7\n              pop\n              pop\n              pop\n              pop\n              pop\n              pop\n              pop\n              jump\t// out\n                /* \"#utility.yul\":8216:8344   */\n            tag_134:\n                /* \"#utility.yul\":8256:8259   */\n              0x00\n                /* \"#utility.yul\":8287:8288   */\n              dup3\n                /* \"#utility.yul\":8283:8289   */\n              not\n                /* \"#utility.yul\":8280:8281   */\n              dup3\n                /* \"#utility.yul\":8277:8290   */\n              gt\n                /* \"#utility.yul\":8274:8313   */\n              iszero\n              tag_355\n              jumpi\n                /* \"#utility.yul\":8293:8311   */\n              tag_355\n              tag_356\n              jump\t// in\n            tag_355:\n              pop\n                /* \"#utility.yul\":8329:8338   */\n              add\n              swap1\n                /* \"#utility.yul\":8216:8344   */\n              jump\t// out\n                /* \"#utility.yul\":8349:8469   */\n            tag_139:\n                /* \"#utility.yul\":8389:8390   */\n              0x00\n                /* \"#utility.yul\":8415:8416   */\n              dup3\n                /* \"#utility.yul\":8405:8440   */\n              tag_359\n              jumpi\n                /* \"#utility.yul\":8420:8438   */\n              tag_359\n              tag_360\n              jump\t// in\n            tag_359:\n              pop\n                /* \"#utility.yul\":8454:8463   */\n              div\n              swap1\n                /* \"#utility.yul\":8349:8469   */\n              jump\t// out\n                /* \"#utility.yul\":8474:8642   */\n            tag_136:\n                /* \"#utility.yul\":8514:8521   */\n              0x00\n                /* \"#utility.yul\":8580:8581   */\n              dup2\n                /* \"#utility.yul\":8576:8577   */\n              0x00\n                /* \"#utility.yul\":8572:8578   */\n              not\n                /* \"#utility.yul\":8568:8582   */\n              div\n                /* \"#utility.yul\":8565:8566   */\n              dup4\n                /* \"#utility.yul\":8562:8583   */\n              gt\n                /* \"#utility.yul\":8557:8558   */\n              dup3\n                /* \"#utility.yul\":8550:8559   */\n              iszero\n                /* \"#utility.yul\":8543:8560   */\n              iszero\n                /* \"#utility.yul\":8539:8584   */\n              and\n                /* \"#utility.yul\":8536:8607   */\n              iszero\n              tag_363\n              jumpi\n                /* \"#utility.yul\":8587:8605   */\n              tag_363\n              tag_356\n              jump\t// in\n            tag_363:\n              pop\n                /* \"#utility.yul\":8627:8636   */\n              mul\n              swap1\n                /* \"#utility.yul\":8474:8642   */\n              jump\t// out\n                /* \"#utility.yul\":8647:8772   */\n            tag_180:\n                /* \"#utility.yul\":8687:8691   */\n              0x00\n                /* \"#utility.yul\":8715:8716   */\n              dup3\n                /* \"#utility.yul\":8712:8713   */\n              dup3\n                /* \"#utility.yul\":8709:8717   */\n              lt\n                /* \"#utility.yul\":8706:8740   */\n              iszero\n              tag_366\n              jumpi\n                /* \"#utility.yul\":8720:8738   */\n              tag_366\n              tag_356\n              jump\t// in\n            tag_366:\n              pop\n                /* \"#utility.yul\":8757:8766   */\n              sub\n              swap1\n                /* \"#utility.yul\":8647:8772   */\n              jump\t// out\n                /* \"#utility.yul\":8777:9157   */\n            tag_149:\n                /* \"#utility.yul\":8856:8857   */\n              0x01\n                /* \"#utility.yul\":8852:8864   */\n              dup2\n              dup2\n              shr\n              swap1\n                /* \"#utility.yul\":8899:8911   */\n              dup3\n              and\n              dup1\n                /* \"#utility.yul\":8920:8981   */\n              tag_368\n              jumpi\n                /* \"#utility.yul\":8974:8978   */\n              0x7f\n                /* \"#utility.yul\":8966:8972   */\n              dup3\n                /* \"#utility.yul\":8962:8979   */\n              and\n                /* \"#utility.yul\":8952:8979   */\n              swap2\n              pop\n                /* \"#utility.yul\":8920:8981   */\n            tag_368:\n                /* \"#utility.yul\":9027:9029   */\n              0x20\n                /* \"#utility.yul\":9019:9025   */\n              dup3\n                /* \"#utility.yul\":9016:9030   */\n              lt\n                /* \"#utility.yul\":8996:9014   */\n              dup2\n                /* \"#utility.yul\":8993:9031   */\n              eq\n                /* \"#utility.yul\":8990:9151   */\n              iszero\n              tag_369\n              jumpi\n                /* \"#utility.yul\":9073:9083   */\n              0x4e487b71\n                /* \"#utility.yul\":9068:9071   */\n              0xe0\n                /* \"#utility.yul\":9064:9084   */\n              shl\n                /* \"#utility.yul\":9061:9062   */\n              0x00\n                /* \"#utility.yul\":9054:9085   */\n              mstore\n                /* \"#utility.yul\":9108:9112   */\n              0x22\n                /* \"#utility.yul\":9105:9106   */\n              0x04\n                /* \"#utility.yul\":9098:9113   */\n              mstore\n                /* \"#utility.yul\":9136:9140   */\n              0x24\n                /* \"#utility.yul\":9133:9134   */\n              0x00\n                /* \"#utility.yul\":9126:9141   */\n              revert\n                /* \"#utility.yul\":8990:9151   */\n            tag_369:\n              pop\n                /* \"#utility.yul\":8777:9157   */\n              swap2\n              swap1\n              pop\n              jump\t// out\n                /* \"#utility.yul\":9162:9297   */\n            tag_132:\n                /* \"#utility.yul\":9201:9204   */\n              0x00\n              not(0x00)\n                /* \"#utility.yul\":9222:9239   */\n              dup3\n              eq\n                /* \"#utility.yul\":9219:9262   */\n              iszero\n              tag_372\n              jumpi\n                /* \"#utility.yul\":9242:9260   */\n              tag_372\n              tag_356\n              jump\t// in\n            tag_372:\n              pop\n                /* \"#utility.yul\":9289:9290   */\n              0x01\n                /* \"#utility.yul\":9278:9291   */\n              add\n              swap1\n                /* \"#utility.yul\":9162:9297   */\n              jump\t// out\n                /* \"#utility.yul\":9302:9414   */\n            tag_129:\n                /* \"#utility.yul\":9334:9335   */\n              0x00\n                /* \"#utility.yul\":9360:9361   */\n              dup3\n                /* \"#utility.yul\":9350:9385   */\n              tag_375\n              jumpi\n                /* \"#utility.yul\":9365:9383   */\n              tag_375\n              tag_360\n              jump\t// in\n            tag_375:\n              pop\n                /* \"#utility.yul\":9399:9408   */\n              mod\n              swap1\n                /* \"#utility.yul\":9302:9414   */\n              jump\t// out\n                /* \"#utility.yul\":9419:9546   */\n            tag_356:\n                /* \"#utility.yul\":9480:9490   */\n              0x4e487b71\n                /* \"#utility.yul\":9475:9478   */\n              0xe0\n                /* \"#utility.yul\":9471:9491   */\n              shl\n                /* \"#utility.yul\":9468:9469   */\n              0x00\n                /* \"#utility.yul\":9461:9492   */\n              mstore\n                /* \"#utility.yul\":9511:9515   */\n              0x11\n                /* \"#utility.yul\":9508:9509   */\n              0x04\n                /* \"#utility.yul\":9501:9516   */\n              mstore\n                /* \"#utility.yul\":9535:9539   */\n              0x24\n                /* \"#utility.yul\":9532:9533   */\n              0x00\n                /* \"#utility.yul\":9525:9540   */\n              revert\n                /* \"#utility.yul\":9551:9678   */\n            tag_360:\n                /* \"#utility.yul\":9612:9622   */\n              0x4e487b71\n                /* \"#utility.yul\":9607:9610   */\n              0xe0\n                /* \"#utility.yul\":9603:9623   */\n              shl\n                /* \"#utility.yul\":9600:9601   */\n              0x00\n                /* \"#utility.yul\":9593:9624   */\n              mstore\n                /* \"#utility.yul\":9643:9647   */\n              0x12\n                /* \"#utility.yul\":9640:9641   */\n              0x04\n                /* \"#utility.yul\":9633:9648   */\n              mstore\n                /* \"#utility.yul\":9667:9671   */\n              0x24\n                /* \"#utility.yul\":9664:9665   */\n              0x00\n                /* \"#utility.yul\":9657:9672   */\n              revert\n                /* \"#utility.yul\":9683:9810   */\n            tag_292:\n                /* \"#utility.yul\":9744:9754   */\n              0x4e487b71\n                /* \"#utility.yul\":9739:9742   */\n              0xe0\n                /* \"#utility.yul\":9735:9755   */\n              shl\n                /* \"#utility.yul\":9732:9733   */\n              0x00\n                /* \"#utility.yul\":9725:9756   */\n              mstore\n                /* \"#utility.yul\":9775:9779   */\n              0x41\n                /* \"#utility.yul\":9772:9773   */\n              0x04\n                /* \"#utility.yul\":9765:9780   */\n              mstore\n                /* \"#utility.yul\":9799:9803   */\n              0x24\n                /* \"#utility.yul\":9796:9797   */\n              0x00\n                /* \"#utility.yul\":9789:9804   */\n              revert\n\n            auxdata: 0xa26469706673582212206291e07519fdd6c77266c203589ee584f1f3693dcf29f2d0401a93e9a0821ef264736f6c63430008070033\n        }\n    }\n\n    auxdata: 0xa2646970667358221220d1f1a2e0d7f6e3db3f949cf8be69a45623eff3780e0da53e2b0dc03e672c6a8864736f6c63430008070033\n}\n","bytecode":{"linkReferences":{},"object":"608060405234801561001057600080fd5b50611ed6806100206000396000f3fe608060405234801561001057600080fd5b50600436106100415760003560e01c80632d9fd7ae14610046578063d0e04fe314610076578063d9c509e61461008b575b600080fd5b610059610054366004610273565b6100a0565b6040516001600160a01b0390911681526020015b60405180910390f35b6100896100843660046101c2565b6100ca565b005b610093610153565b60405161006d919061028c565b600081815481106100b057600080fd5b6000918252602090912001546001600160a01b0316905081565b600081336040516100da906101b5565b6100e59291906102d9565b604051809103906000f080158015610101573d6000803e3d6000fd5b50600080546001810182559080527f290decd9548b62a8d60345a988386fc84ba6bc95484008f6362f93160ef3e5630180546001600160a01b0319166001600160a01b03929092169190911790555050565b606060008054806020026020016040519081016040528092919081815260200182805480156101ab57602002820191906000526020600020905b81546001600160a01b0316815260019091019060200180831161018d575b5050505050905090565b611b4b8061035683390190565b6000602082840312156101d457600080fd5b813567ffffffffffffffff808211156101ec57600080fd5b818401915084601f83011261020057600080fd5b8135818111156102125761021261033f565b604051601f8201601f19908116603f0116810190838211818310171561023a5761023a61033f565b8160405282815287602084870101111561025357600080fd5b826020860160208301376000928101602001929092525095945050505050565b60006020828403121561028557600080fd5b5035919050565b6020808252825182820181905260009190848201906040850190845b818110156102cd5783516001600160a01b0316835292840192918401916001016102a8565b50909695505050505050565b604081526000835180604084015260005b8181101561030757602081870181015160608684010152016102ea565b81811115610319576000606083860101525b506001600160a01b0393909316602083015250601f91909101601f191601606001919050565b634e487b7160e01b600052604160045260246000fdfe60806040523480156200001157600080fd5b5060405162001b4b38038062001b4b833981016040819052620000349162000134565b81516200004990600390602085019062000071565b50600080546001600160a01b0319166001600160a01b03929092169190911790555062000278565b8280546200007f9062000225565b90600052602060002090601f016020900481019282620000a35760008555620000ee565b82601f10620000be57805160ff1916838001178555620000ee565b82800160010185558215620000ee579182015b82811115620000ee578251825591602001919060010190620000d1565b50620000fc92915062000100565b5090565b5b80821115620000fc576000815560010162000101565b80516001600160a01b03811681146200012f57600080fd5b919050565b600080604083850312156200014857600080fd5b82516001600160401b03808211156200016057600080fd5b818501915085601f8301126200017557600080fd5b8151818111156200018a576200018a62000262565b604051601f8201601f19908116603f01168101908382118183101715620001b557620001b562000262565b81604052828152602093508884848701011115620001d257600080fd5b600091505b82821015620001f65784820184015181830185015290830190620001d7565b82821115620002085760008484830101525b95506200021a91505085820162000117565b925050509250929050565b600181811c908216806200023a57607f821691505b602082108114156200025c57634e487b7160e01b600052602260045260246000fd5b50919050565b634e487b7160e01b600052604160045260246000fd5b6118c380620002886000396000f3fe60806040526004361061011e5760003560e01c80637acc0b20116100a0578063b1b53c3811610064578063b1b53c381461032a578063b365221d1461034a578063c577d23c1461036a578063d69d50941461037f578063d96a094a146103a757600080fd5b80637acc0b201461028b5780638af213e2146102be5780638d8ef2f0146102de5780638dc51887146102f4578063ac964f211461031457600080fd5b8063481c6a75116100e7578063481c6a75146101e55780634a02990c1461021d5780634a64090b1461023f578063521936e6146102615780635786fd401461027657600080fd5b8062f73d4c1461012357806306acdcfe1461015c57806307aa0bc4146101805780630a366cc8146101965780632c0d259d146101c5575b600080fd5b34801561012f57600080fd5b5061014361013e3660046114c9565b6103ba565b6040516101539493929190611735565b60405180910390f35b34801561016857600080fd5b5061017260055481565b604051908152602001610153565b34801561018c57600080fd5b50610172600c5481565b3480156101a257600080fd5b506101b66101b1366004611434565b6106af565b60405161015393929190611632565b3480156101d157600080fd5b506101436101e0366004611482565b61085d565b3480156101f157600080fd5b50600054610205906001600160a01b031681565b6040516001600160a01b039091168152602001610153565b34801561022957600080fd5b5061023d61023836600461144d565b610b7c565b005b34801561024b57600080fd5b50610254610bc3565b6040516101539190611675565b34801561026d57600080fd5b50610254610c51565b34801561028257600080fd5b50600154610172565b34801561029757600080fd5b506102ab6102a6366004611434565b610c5e565b604051610153979695949392919061168f565b3480156102ca57600080fd5b506102056102d9366004611434565b610d31565b3480156102ea57600080fd5b5061017260045481565b34801561030057600080fd5b5061023d61030f3660046113cd565b610d5b565b34801561032057600080fd5b5061017260015481565b34801561033657600080fd5b50610254610345366004611434565b610dfa565b34801561035657600080fd5b50610172610365366004611434565b610e25565b34801561037657600080fd5b506101b6610e46565b34801561038b57600080fd5b50610394610fdd565b60405161015397969594939291906116dc565b61023d6103b5366004611434565b61113c565b600083815260026020908152604080832033845260098101909252822054606091829182919060ff166103ec57600080fd5b336000908152600a8201602052604090205460ff161561040b57600080fd5b6005871115801561041c5750600087115b8015610430575061042e600188611837565b155b61043957600080fd5b336000908152600a820160205260408120805460ff19166001179055600482018054916104658361181c565b9091555050600481015461047a90600161177f565b878260040154836003015461048f91906117ab565b610499919061177f565b6104a39190611797565b6003820155600581018054600181018255600091825260209182902088516104d39391909201919089019061122c565b50600681018054600181810183556000838152602080822090930180546001600160a01b0319163317905560078501805492830181558082528382209092018b90556003850154600586018054604080518288028101880190915281815292969195919493869284015b828210156105e957838290600052602060002001805461055c906117e1565b80601f0160208091040260200160405190810160405280929190818152602001828054610588906117e1565b80156105d55780601f106105aa576101008083540402835291602001916105d5565b820191906000526020600020905b8154815290600101906020018083116105b857829003601f168201915b50505050508152602001906001019061053d565b5050505092508180548060200260200160405190810160405280929190818152602001828054801561064457602002820191906000526020600020905b81546001600160a01b03168152600190910190602001808311610626575b505050505091508080548060200260200160405190810160405280929190818152602001828054801561069657602002820191906000526020600020905b815481526020019060010190808311610682575b5050505050905094509450945094505093509350935093565b600081815260026020908152604080832060058101805483518186028101860190945280845260609586958695939460068101946007909101939092869284015b8282101561079c57838290600052602060002001805461070f906117e1565b80601f016020809104026020016040519081016040528092919081815260200182805461073b906117e1565b80156107885780601f1061075d57610100808354040283529160200191610788565b820191906000526020600020905b81548152906001019060200180831161076b57829003601f168201915b5050505050815260200190600101906106f0565b505050509250818054806020026020016040519081016040528092919081815260200182805480156107f757602002820191906000526020600020905b81546001600160a01b031681526001909101906020018083116107d9575b505050505091508080548060200260200160405190810160405280929190818152602001828054801561084957602002820191906000526020600020905b815481526020019060010190808311610835575b505050505090509250925092509193909250565b336000908152600960205260408120546060908190819060ff1661088057600080fd5b336000908152600a602052604090205460ff161561089d57600080fd5b600586111580156108ae5750600086115b80156108c257506108c0600187611837565b155b6108cb57600080fd5b336000908152600a60205260408120805460ff1916600117905560058054916108f38361181c565b9091555050600554866109076001836117ca565b60045461091491906117ab565b61091e919061177f565b6109289190611797565b60045560068054600181018255600091909152855161096e917ff652222313e28459528d920b65115c16c04f3efc82aaedc97be59f3f377c0d3f0190602088019061122c565b5060078054600181810183557fa66cc928b5edb82af9bd49922954155ab7b0942694bea4ce44661d9a8736c68890910180546001600160a01b0319163317905560088054918201815560008181527ff3f7a9fe364faab93b216da50a3214154f22a0a2b415b23a84c8169e8b636ee39092018990556004546006805460408051602083810282018101909252828152939692959294939286929184015b82821015610ab7578382906000526020600020018054610a2a906117e1565b80601f0160208091040260200160405190810160405280929190818152602001828054610a56906117e1565b8015610aa35780601f10610a7857610100808354040283529160200191610aa3565b820191906000526020600020905b815481529060010190602001808311610a8657829003601f168201915b505050505081526020019060010190610a0b565b50505050925081805480602002602001604051908101604052809291908181526020018280548015610b1257602002820191906000526020600020905b81546001600160a01b03168152600190910190602001808311610af4575b5050505050915080805480602002602001604051908101604052809291908181526020018280548015610b6457602002820191906000526020600020905b815481526020019060010190808311610b50575b50505050509050935093509350935092959194509250565b6000546001600160a01b03163314610b9357600080fd5b60009182526002602081905260409092209091018054911515600160a01b0260ff60a01b19909216919091179055565b600b8054610bd0906117e1565b80601f0160208091040260200160405190810160405280929190818152602001828054610bfc906117e1565b8015610c495780601f10610c1e57610100808354040283529160200191610c49565b820191906000526020600020905b815481529060010190602001808311610c2c57829003601f168201915b505050505081565b60038054610bd0906117e1565b600260205260009081526040902080548190610c79906117e1565b80601f0160208091040260200160405190810160405280929190818152602001828054610ca5906117e1565b8015610cf25780601f10610cc757610100808354040283529160200191610cf2565b820191906000526020600020905b815481529060010190602001808311610cd557829003601f168201915b505050506001830154600284015460038501546004860154600890960154949592946001600160a01b0383169450600160a01b90920460ff1692909187565b60078181548110610d4157600080fd5b6000918252602090912001546001600160a01b0316905081565b6000546001600160a01b03163314610d7257600080fd5b60018054600091600291839182610d888361181c565b9091555081526020808201929092526040016000208551909250610db19183919087019061122c565b5060018101929092556002820180546001600160a81b0319166001600160a01b0390921691909117600160a01b1790556005600382015560006004820181905560089091015550565b60068181548110610e0a57600080fd5b906000526020600020016000915090508054610bd0906117e1565b60088181548110610e3557600080fd5b600091825260209091200154905081565b606080606060066007600882805480602002602001604051908101604052809291908181526020016000905b82821015610f1e578382906000526020600020018054610e91906117e1565b80601f0160208091040260200160405190810160405280929190818152602001828054610ebd906117e1565b8015610f0a5780601f10610edf57610100808354040283529160200191610f0a565b820191906000526020600020905b815481529060010190602001808311610eed57829003601f168201915b505050505081526020019060010190610e72565b50505050925081805480602002602001604051908101604052809291908181526020018280548015610f7957602002820191906000526020600020905b81546001600160a01b03168152600190910190602001808311610f5b575b5050505050915080805480602002602001604051908101604052809291908181526020018280548015610fcb57602002820191906000526020600020905b815481526020019060010190808311610fb7575b50505050509050925092509250909192565b60008060606000606060008060015460008054906101000a90046001600160a01b0316600b600c546003600454600554848054611019906117e1565b80601f0160208091040260200160405190810160405280929190818152602001828054611045906117e1565b80156110925780601f1061106757610100808354040283529160200191611092565b820191906000526020600020905b81548152906001019060200180831161107557829003601f168201915b505050505094508280546110a5906117e1565b80601f01602080910402602001604051908101604052809291908181526020018280546110d1906117e1565b801561111e5780601f106110f35761010080835404028352916020019161111e565b820191906000526020600020905b81548152906001019060200180831161110157829003601f168201915b50505050509250965096509650965096509650965090919293949596565b60008181526002602052604090206001810154341461115a57600080fd5b6002810154600160a01b900460ff1661117257600080fd5b60028101546040516001600160a01b03909116903480156108fc02916000818181858888f193505050501580156111ad573d6000803e3d6000fd5b503360009081526009828101602090815260408084208054600160ff1991821681179092559390925283208054909216179055600882018054916111f08361181c565b9190505550600c5481600801541115611228578054600b908290611213906117e1565b61121e9291906112b0565b506008810154600c555b5050565b828054611238906117e1565b90600052602060002090601f01602090048101928261125a57600085556112a0565b82601f1061127357805160ff19168380011785556112a0565b828001600101855582156112a0579182015b828111156112a0578251825591602001919060010190611285565b506112ac92915061132b565b5090565b8280546112bc906117e1565b90600052602060002090601f0160209004810192826112de57600085556112a0565b82601f106112ef57805485556112a0565b828001600101855582156112a057600052602060002091601f016020900482015b828111156112a0578254825591600101919060010190611310565b5b808211156112ac576000815560010161132c565b600082601f83011261135157600080fd5b813567ffffffffffffffff8082111561136c5761136c611877565b604051601f8301601f19908116603f0116810190828211818310171561139457611394611877565b816040528381528660208588010111156113ad57600080fd5b836020870160208301376000602085830101528094505050505092915050565b6000806000606084860312156113e257600080fd5b833567ffffffffffffffff8111156113f957600080fd5b61140586828701611340565b9350506020840135915060408401356001600160a01b038116811461142957600080fd5b809150509250925092565b60006020828403121561144657600080fd5b5035919050565b6000806040838503121561146057600080fd5b823591506020830135801515811461147757600080fd5b809150509250929050565b6000806040838503121561149557600080fd5b82359150602083013567ffffffffffffffff8111156114b357600080fd5b6114bf85828601611340565b9150509250929050565b6000806000606084860312156114de57600080fd5b8335925060208401359150604084013567ffffffffffffffff81111561150357600080fd5b61150f86828701611340565b9150509250925092565b600081518084526020808501945080840160005b838110156115525781516001600160a01b03168752958201959082019060010161152d565b509495945050505050565b600082825180855260208086019550808260051b84010181860160005b848110156115a857601f198684030189526115968383516115e5565b9884019892509083019060010161157a565b5090979650505050505050565b600081518084526020808501945080840160005b83811015611552578151875295820195908201906001016115c9565b6000815180845260005b8181101561160b576020818501810151868301820152016115ef565b8181111561161d576000602083870101525b50601f01601f19169290920160200192915050565b606081526000611645606083018661155d565b82810360208401526116578186611519565b9050828103604084015261166b81856115b5565b9695505050505050565b60208152600061168860208301846115e5565b9392505050565b60e0815260006116a260e083018a6115e5565b6020830198909852506001600160a01b039590951660408601529215156060850152608084019190915260a083015260c090910152919050565b8781526001600160a01b038716602082015260e060408201819052600090611706908301886115e5565b866060840152828103608084015261171e81876115e5565b60a0840195909552505060c0015295945050505050565b84815260806020820152600061174e608083018661155d565b82810360408401526117608186611519565b9050828103606084015261177481856115b5565b979650505050505050565b600082198211156117925761179261184b565b500190565b6000826117a6576117a6611861565b500490565b60008160001904831182151516156117c5576117c561184b565b500290565b6000828210156117dc576117dc61184b565b500390565b600181811c908216806117f557607f821691505b6020821081141561181657634e487b7160e01b600052602260045260246000fd5b50919050565b60006000198214156118305761183061184b565b5060010190565b60008261184657611846611861565b500690565b634e487b7160e01b600052601160045260246000fd5b634e487b7160e01b600052601260045260246000fd5b634e487b7160e01b600052604160045260246000fdfea26469706673582212206291e07519fdd6c77266c203589ee584f1f3693dcf29f2d0401a93e9a0821ef264736f6c63430008070033a2646970667358221220d1f1a2e0d7f6e3db3f949cf8be69a45623eff3780e0da53e2b0dc03e672c6a8864736f6c63430008070033","opcodes":"PUSH1 0x80 PUSH1 0x40 MSTORE CALLVALUE DUP1 ISZERO PUSH2 0x10 JUMPI PUSH1 0x0 DUP1 REVERT JUMPDEST POP PUSH2 0x1ED6 DUP1 PUSH2 0x20 PUSH1 0x0 CODECOPY PUSH1 0x0 RETURN INVALID PUSH1 0x80 PUSH1 0x40 MSTORE CALLVALUE DUP1 ISZERO PUSH2 0x10 JUMPI PUSH1 0x0 DUP1 REVERT JUMPDEST POP PUSH1 0x4 CALLDATASIZE LT PUSH2 0x41 JUMPI PUSH1 0x0 CALLDATALOAD PUSH1 0xE0 SHR DUP1 PUSH4 0x2D9FD7AE EQ PUSH2 0x46 JUMPI DUP1 PUSH4 0xD0E04FE3 EQ PUSH2 0x76 JUMPI DUP1 PUSH4 0xD9C509E6 EQ PUSH2 0x8B JUMPI JUMPDEST PUSH1 0x0 DUP1 REVERT JUMPDEST PUSH2 0x59 PUSH2 0x54 CALLDATASIZE PUSH1 0x4 PUSH2 0x273 JUMP JUMPDEST PUSH2 0xA0 JUMP JUMPDEST PUSH1 0x40 MLOAD PUSH1 0x1 PUSH1 0x1 PUSH1 0xA0 SHL SUB SWAP1 SWAP2 AND DUP2 MSTORE PUSH1 0x20 ADD JUMPDEST PUSH1 0x40 MLOAD DUP1 SWAP2 SUB SWAP1 RETURN JUMPDEST PUSH2 0x89 PUSH2 0x84 CALLDATASIZE PUSH1 0x4 PUSH2 0x1C2 JUMP JUMPDEST PUSH2 0xCA JUMP JUMPDEST STOP JUMPDEST PUSH2 0x93 PUSH2 0x153 JUMP JUMPDEST PUSH1 0x40 MLOAD PUSH2 0x6D SWAP2 SWAP1 PUSH2 0x28C JUMP JUMPDEST PUSH1 0x0 DUP2 DUP2 SLOAD DUP2 LT PUSH2 0xB0 JUMPI PUSH1 0x0 DUP1 REVERT JUMPDEST PUSH1 0x0 SWAP2 DUP3 MSTORE PUSH1 0x20 SWAP1 SWAP2 KECCAK256 ADD SLOAD PUSH1 0x1 PUSH1 0x1 PUSH1 0xA0 SHL SUB AND SWAP1 POP DUP2 JUMP JUMPDEST PUSH1 0x0 DUP2 CALLER PUSH1 0x40 MLOAD PUSH2 0xDA SWAP1 PUSH2 0x1B5 JUMP JUMPDEST PUSH2 0xE5 SWAP3 SWAP2 SWAP1 PUSH2 0x2D9 JUMP JUMPDEST PUSH1 0x40 MLOAD DUP1 SWAP2 SUB SWAP1 PUSH1 0x0 CREATE DUP1 ISZERO DUP1 ISZERO PUSH2 0x101 JUMPI RETURNDATASIZE PUSH1 0x0 DUP1 RETURNDATACOPY RETURNDATASIZE PUSH1 0x0 REVERT JUMPDEST POP PUSH1 0x0 DUP1 SLOAD PUSH1 0x1 DUP2 ADD DUP3 SSTORE SWAP1 DUP1 MSTORE PUSH32 0x290DECD9548B62A8D60345A988386FC84BA6BC95484008F6362F93160EF3E563 ADD DUP1 SLOAD PUSH1 0x1 PUSH1 0x1 PUSH1 0xA0 SHL SUB NOT AND PUSH1 0x1 PUSH1 0x1 PUSH1 0xA0 SHL SUB SWAP3 SWAP1 SWAP3 AND SWAP2 SWAP1 SWAP2 OR SWAP1 SSTORE POP POP JUMP JUMPDEST PUSH1 0x60 PUSH1 0x0 DUP1 SLOAD DUP1 PUSH1 0x20 MUL PUSH1 0x20 ADD PUSH1 0x40 MLOAD SWAP1 DUP2 ADD PUSH1 0x40 MSTORE DUP1 SWAP3 SWAP2 SWAP1 DUP2 DUP2 MSTORE PUSH1 0x20 ADD DUP3 DUP1 SLOAD DUP1 ISZERO PUSH2 0x1AB JUMPI PUSH1 0x20 MUL DUP3 ADD SWAP2 SWAP1 PUSH1 0x0 MSTORE PUSH1 0x20 PUSH1 0x0 KECCAK256 SWAP1 JUMPDEST DUP2 SLOAD PUSH1 0x1 PUSH1 0x1 PUSH1 0xA0 SHL SUB AND DUP2 MSTORE PUSH1 0x1 SWAP1 SWAP2 ADD SWAP1 PUSH1 0x20 ADD DUP1 DUP4 GT PUSH2 0x18D JUMPI JUMPDEST POP POP POP POP POP SWAP1 POP SWAP1 JUMP JUMPDEST PUSH2 0x1B4B DUP1 PUSH2 0x356 DUP4 CODECOPY ADD SWAP1 JUMP JUMPDEST PUSH1 0x0 PUSH1 0x20 DUP3 DUP5 SUB SLT ISZERO PUSH2 0x1D4 JUMPI PUSH1 0x0 DUP1 REVERT JUMPDEST DUP2 CALLDATALOAD PUSH8 0xFFFFFFFFFFFFFFFF DUP1 DUP3 GT ISZERO PUSH2 0x1EC JUMPI PUSH1 0x0 DUP1 REVERT JUMPDEST DUP2 DUP5 ADD SWAP2 POP DUP5 PUSH1 0x1F DUP4 ADD SLT PUSH2 0x200 JUMPI PUSH1 0x0 DUP1 REVERT JUMPDEST DUP2 CALLDATALOAD DUP2 DUP2 GT ISZERO PUSH2 0x212 JUMPI PUSH2 0x212 PUSH2 0x33F JUMP JUMPDEST PUSH1 0x40 MLOAD PUSH1 0x1F DUP3 ADD PUSH1 0x1F NOT SWAP1 DUP2 AND PUSH1 0x3F ADD AND DUP2 ADD SWAP1 DUP4 DUP3 GT DUP2 DUP4 LT OR ISZERO PUSH2 0x23A JUMPI PUSH2 0x23A PUSH2 0x33F JUMP JUMPDEST DUP2 PUSH1 0x40 MSTORE DUP3 DUP2 MSTORE DUP8 PUSH1 0x20 DUP5 DUP8 ADD ADD GT ISZERO PUSH2 0x253 JUMPI PUSH1 0x0 DUP1 REVERT JUMPDEST DUP3 PUSH1 0x20 DUP7 ADD PUSH1 0x20 DUP4 ADD CALLDATACOPY PUSH1 0x0 SWAP3 DUP2 ADD PUSH1 0x20 ADD SWAP3 SWAP1 SWAP3 MSTORE POP SWAP6 SWAP5 POP POP POP POP POP JUMP JUMPDEST PUSH1 0x0 PUSH1 0x20 DUP3 DUP5 SUB SLT ISZERO PUSH2 0x285 JUMPI PUSH1 0x0 DUP1 REVERT JUMPDEST POP CALLDATALOAD SWAP2 SWAP1 POP JUMP JUMPDEST PUSH1 0x20 DUP1 DUP3 MSTORE DUP3 MLOAD DUP3 DUP3 ADD DUP2 SWAP1 MSTORE PUSH1 0x0 SWAP2 SWAP1 DUP5 DUP3 ADD SWAP1 PUSH1 0x40 DUP6 ADD SWAP1 DUP5 JUMPDEST DUP2 DUP2 LT ISZERO PUSH2 0x2CD JUMPI DUP4 MLOAD PUSH1 0x1 PUSH1 0x1 PUSH1 0xA0 SHL SUB AND DUP4 MSTORE SWAP3 DUP5 ADD SWAP3 SWAP2 DUP5 ADD SWAP2 PUSH1 0x1 ADD PUSH2 0x2A8 JUMP JUMPDEST POP SWAP1 SWAP7 SWAP6 POP POP POP POP POP POP JUMP JUMPDEST PUSH1 0x40 DUP2 MSTORE PUSH1 0x0 DUP4 MLOAD DUP1 PUSH1 0x40 DUP5 ADD MSTORE PUSH1 0x0 JUMPDEST DUP2 DUP2 LT ISZERO PUSH2 0x307 JUMPI PUSH1 0x20 DUP2 DUP8 ADD DUP2 ADD MLOAD PUSH1 0x60 DUP7 DUP5 ADD ADD MSTORE ADD PUSH2 0x2EA JUMP JUMPDEST DUP2 DUP2 GT ISZERO PUSH2 0x319 JUMPI PUSH1 0x0 PUSH1 0x60 DUP4 DUP7 ADD ADD MSTORE JUMPDEST POP PUSH1 0x1 PUSH1 0x1 PUSH1 0xA0 SHL SUB SWAP4 SWAP1 SWAP4 AND PUSH1 0x20 DUP4 ADD MSTORE POP PUSH1 0x1F SWAP2 SWAP1 SWAP2 ADD PUSH1 0x1F NOT AND ADD PUSH1 0x60 ADD SWAP2 SWAP1 POP JUMP JUMPDEST PUSH4 0x4E487B71 PUSH1 0xE0 SHL PUSH1 0x0 MSTORE PUSH1 0x41 PUSH1 0x4 MSTORE PUSH1 0x24 PUSH1 0x0 REVERT INVALID PUSH1 0x80 PUSH1 0x40 MSTORE CALLVALUE DUP1 ISZERO PUSH3 0x11 JUMPI PUSH1 0x0 DUP1 REVERT JUMPDEST POP PUSH1 0x40 MLOAD PUSH3 0x1B4B CODESIZE SUB DUP1 PUSH3 0x1B4B DUP4 CODECOPY DUP2 ADD PUSH1 0x40 DUP2 SWAP1 MSTORE PUSH3 0x34 SWAP2 PUSH3 0x134 JUMP JUMPDEST DUP2 MLOAD PUSH3 0x49 SWAP1 PUSH1 0x3 SWAP1 PUSH1 0x20 DUP6 ADD SWAP1 PUSH3 0x71 JUMP JUMPDEST POP PUSH1 0x0 DUP1 SLOAD PUSH1 0x1 PUSH1 0x1 PUSH1 0xA0 SHL SUB NOT AND PUSH1 0x1 PUSH1 0x1 PUSH1 0xA0 SHL SUB SWAP3 SWAP1 SWAP3 AND SWAP2 SWAP1 SWAP2 OR SWAP1 SSTORE POP PUSH3 0x278 JUMP JUMPDEST DUP3 DUP1 SLOAD PUSH3 0x7F SWAP1 PUSH3 0x225 JUMP JUMPDEST SWAP1 PUSH1 0x0 MSTORE PUSH1 0x20 PUSH1 0x0 KECCAK256 SWAP1 PUSH1 0x1F ADD PUSH1 0x20 SWAP1 DIV DUP2 ADD SWAP3 DUP3 PUSH3 0xA3 JUMPI PUSH1 0x0 DUP6 SSTORE PUSH3 0xEE JUMP JUMPDEST DUP3 PUSH1 0x1F LT PUSH3 0xBE JUMPI DUP1 MLOAD PUSH1 0xFF NOT AND DUP4 DUP1 ADD OR DUP6 SSTORE PUSH3 0xEE JUMP JUMPDEST DUP3 DUP1 ADD PUSH1 0x1 ADD DUP6 SSTORE DUP3 ISZERO PUSH3 0xEE JUMPI SWAP2 DUP3 ADD JUMPDEST DUP3 DUP2 GT ISZERO PUSH3 0xEE JUMPI DUP3 MLOAD DUP3 SSTORE SWAP2 PUSH1 0x20 ADD SWAP2 SWAP1 PUSH1 0x1 ADD SWAP1 PUSH3 0xD1 JUMP JUMPDEST POP PUSH3 0xFC SWAP3 SWAP2 POP PUSH3 0x100 JUMP JUMPDEST POP SWAP1 JUMP JUMPDEST JUMPDEST DUP1 DUP3 GT ISZERO PUSH3 0xFC JUMPI PUSH1 0x0 DUP2 SSTORE PUSH1 0x1 ADD PUSH3 0x101 JUMP JUMPDEST DUP1 MLOAD PUSH1 0x1 PUSH1 0x1 PUSH1 0xA0 SHL SUB DUP2 AND DUP2 EQ PUSH3 0x12F JUMPI PUSH1 0x0 DUP1 REVERT JUMPDEST SWAP2 SWAP1 POP JUMP JUMPDEST PUSH1 0x0 DUP1 PUSH1 0x40 DUP4 DUP6 SUB SLT ISZERO PUSH3 0x148 JUMPI PUSH1 0x0 DUP1 REVERT JUMPDEST DUP3 MLOAD PUSH1 0x1 PUSH1 0x1 PUSH1 0x40 SHL SUB DUP1 DUP3 GT ISZERO PUSH3 0x160 JUMPI PUSH1 0x0 DUP1 REVERT JUMPDEST DUP2 DUP6 ADD SWAP2 POP DUP6 PUSH1 0x1F DUP4 ADD SLT PUSH3 0x175 JUMPI PUSH1 0x0 DUP1 REVERT JUMPDEST DUP2 MLOAD DUP2 DUP2 GT ISZERO PUSH3 0x18A JUMPI PUSH3 0x18A PUSH3 0x262 JUMP JUMPDEST PUSH1 0x40 MLOAD PUSH1 0x1F DUP3 ADD PUSH1 0x1F NOT SWAP1 DUP2 AND PUSH1 0x3F ADD AND DUP2 ADD SWAP1 DUP4 DUP3 GT DUP2 DUP4 LT OR ISZERO PUSH3 0x1B5 JUMPI PUSH3 0x1B5 PUSH3 0x262 JUMP JUMPDEST DUP2 PUSH1 0x40 MSTORE DUP3 DUP2 MSTORE PUSH1 0x20 SWAP4 POP DUP9 DUP5 DUP5 DUP8 ADD ADD GT ISZERO PUSH3 0x1D2 JUMPI PUSH1 0x0 DUP1 REVERT JUMPDEST PUSH1 0x0 SWAP2 POP JUMPDEST DUP3 DUP3 LT ISZERO PUSH3 0x1F6 JUMPI DUP5 DUP3 ADD DUP5 ADD MLOAD DUP2 DUP4 ADD DUP6 ADD MSTORE SWAP1 DUP4 ADD SWAP1 PUSH3 0x1D7 JUMP JUMPDEST DUP3 DUP3 GT ISZERO PUSH3 0x208 JUMPI PUSH1 0x0 DUP5 DUP5 DUP4 ADD ADD MSTORE JUMPDEST SWAP6 POP PUSH3 0x21A SWAP2 POP POP DUP6 DUP3 ADD PUSH3 0x117 JUMP JUMPDEST SWAP3 POP POP POP SWAP3 POP SWAP3 SWAP1 POP JUMP JUMPDEST PUSH1 0x1 DUP2 DUP2 SHR SWAP1 DUP3 AND DUP1 PUSH3 0x23A JUMPI PUSH1 0x7F DUP3 AND SWAP2 POP JUMPDEST PUSH1 0x20 DUP3 LT DUP2 EQ ISZERO PUSH3 0x25C JUMPI PUSH4 0x4E487B71 PUSH1 0xE0 SHL PUSH1 0x0 MSTORE PUSH1 0x22 PUSH1 0x4 MSTORE PUSH1 0x24 PUSH1 0x0 REVERT JUMPDEST POP SWAP2 SWAP1 POP JUMP JUMPDEST PUSH4 0x4E487B71 PUSH1 0xE0 SHL PUSH1 0x0 MSTORE PUSH1 0x41 PUSH1 0x4 MSTORE PUSH1 0x24 PUSH1 0x0 REVERT JUMPDEST PUSH2 0x18C3 DUP1 PUSH3 0x288 PUSH1 0x0 CODECOPY PUSH1 0x0 RETURN INVALID PUSH1 0x80 PUSH1 0x40 MSTORE PUSH1 0x4 CALLDATASIZE LT PUSH2 0x11E JUMPI PUSH1 0x0 CALLDATALOAD PUSH1 0xE0 SHR DUP1 PUSH4 0x7ACC0B20 GT PUSH2 0xA0 JUMPI DUP1 PUSH4 0xB1B53C38 GT PUSH2 0x64 JUMPI DUP1 PUSH4 0xB1B53C38 EQ PUSH2 0x32A JUMPI DUP1 PUSH4 0xB365221D EQ PUSH2 0x34A JUMPI DUP1 PUSH4 0xC577D23C EQ PUSH2 0x36A JUMPI DUP1 PUSH4 0xD69D5094 EQ PUSH2 0x37F JUMPI DUP1 PUSH4 0xD96A094A EQ PUSH2 0x3A7 JUMPI PUSH1 0x0 DUP1 REVERT JUMPDEST DUP1 PUSH4 0x7ACC0B20 EQ PUSH2 0x28B JUMPI DUP1 PUSH4 0x8AF213E2 EQ PUSH2 0x2BE JUMPI DUP1 PUSH4 0x8D8EF2F0 EQ PUSH2 0x2DE JUMPI DUP1 PUSH4 0x8DC51887 EQ PUSH2 0x2F4 JUMPI DUP1 PUSH4 0xAC964F21 EQ PUSH2 0x314 JUMPI PUSH1 0x0 DUP1 REVERT JUMPDEST DUP1 PUSH4 0x481C6A75 GT PUSH2 0xE7 JUMPI DUP1 PUSH4 0x481C6A75 EQ PUSH2 0x1E5 JUMPI DUP1 PUSH4 0x4A02990C EQ PUSH2 0x21D JUMPI DUP1 PUSH4 0x4A64090B EQ PUSH2 0x23F JUMPI DUP1 PUSH4 0x521936E6 EQ PUSH2 0x261 JUMPI DUP1 PUSH4 0x5786FD40 EQ PUSH2 0x276 JUMPI PUSH1 0x0 DUP1 REVERT JUMPDEST DUP1 PUSH3 0xF73D4C EQ PUSH2 0x123 JUMPI DUP1 PUSH4 0x6ACDCFE EQ PUSH2 0x15C JUMPI DUP1 PUSH4 0x7AA0BC4 EQ PUSH2 0x180 JUMPI DUP1 PUSH4 0xA366CC8 EQ PUSH2 0x196 JUMPI DUP1 PUSH4 0x2C0D259D EQ PUSH2 0x1C5 JUMPI JUMPDEST PUSH1 0x0 DUP1 REVERT JUMPDEST CALLVALUE DUP1 ISZERO PUSH2 0x12F JUMPI PUSH1 0x0 DUP1 REVERT JUMPDEST POP PUSH2 0x143 PUSH2 0x13E CALLDATASIZE PUSH1 0x4 PUSH2 0x14C9 JUMP JUMPDEST PUSH2 0x3BA JUMP JUMPDEST PUSH1 0x40 MLOAD PUSH2 0x153 SWAP5 SWAP4 SWAP3 SWAP2 SWAP1 PUSH2 0x1735 JUMP JUMPDEST PUSH1 0x40 MLOAD DUP1 SWAP2 SUB SWAP1 RETURN JUMPDEST CALLVALUE DUP1 ISZERO PUSH2 0x168 JUMPI PUSH1 0x0 DUP1 REVERT JUMPDEST POP PUSH2 0x172 PUSH1 0x5 SLOAD DUP2 JUMP JUMPDEST PUSH1 0x40 MLOAD SWAP1 DUP2 MSTORE PUSH1 0x20 ADD PUSH2 0x153 JUMP JUMPDEST CALLVALUE DUP1 ISZERO PUSH2 0x18C JUMPI PUSH1 0x0 DUP1 REVERT JUMPDEST POP PUSH2 0x172 PUSH1 0xC SLOAD DUP2 JUMP JUMPDEST CALLVALUE DUP1 ISZERO PUSH2 0x1A2 JUMPI PUSH1 0x0 DUP1 REVERT JUMPDEST POP PUSH2 0x1B6 PUSH2 0x1B1 CALLDATASIZE PUSH1 0x4 PUSH2 0x1434 JUMP JUMPDEST PUSH2 0x6AF JUMP JUMPDEST PUSH1 0x40 MLOAD PUSH2 0x153 SWAP4 SWAP3 SWAP2 SWAP1 PUSH2 0x1632 JUMP JUMPDEST CALLVALUE DUP1 ISZERO PUSH2 0x1D1 JUMPI PUSH1 0x0 DUP1 REVERT JUMPDEST POP PUSH2 0x143 PUSH2 0x1E0 CALLDATASIZE PUSH1 0x4 PUSH2 0x1482 JUMP JUMPDEST PUSH2 0x85D JUMP JUMPDEST CALLVALUE DUP1 ISZERO PUSH2 0x1F1 JUMPI PUSH1 0x0 DUP1 REVERT JUMPDEST POP PUSH1 0x0 SLOAD PUSH2 0x205 SWAP1 PUSH1 0x1 PUSH1 0x1 PUSH1 0xA0 SHL SUB AND DUP2 JUMP JUMPDEST PUSH1 0x40 MLOAD PUSH1 0x1 PUSH1 0x1 PUSH1 0xA0 SHL SUB SWAP1 SWAP2 AND DUP2 MSTORE PUSH1 0x20 ADD PUSH2 0x153 JUMP JUMPDEST CALLVALUE DUP1 ISZERO PUSH2 0x229 JUMPI PUSH1 0x0 DUP1 REVERT JUMPDEST POP PUSH2 0x23D PUSH2 0x238 CALLDATASIZE PUSH1 0x4 PUSH2 0x144D JUMP JUMPDEST PUSH2 0xB7C JUMP JUMPDEST STOP JUMPDEST CALLVALUE DUP1 ISZERO PUSH2 0x24B JUMPI PUSH1 0x0 DUP1 REVERT JUMPDEST POP PUSH2 0x254 PUSH2 0xBC3 JUMP JUMPDEST PUSH1 0x40 MLOAD PUSH2 0x153 SWAP2 SWAP1 PUSH2 0x1675 JUMP JUMPDEST CALLVALUE DUP1 ISZERO PUSH2 0x26D JUMPI PUSH1 0x0 DUP1 REVERT JUMPDEST POP PUSH2 0x254 PUSH2 0xC51 JUMP JUMPDEST CALLVALUE DUP1 ISZERO PUSH2 0x282 JUMPI PUSH1 0x0 DUP1 REVERT JUMPDEST POP PUSH1 0x1 SLOAD PUSH2 0x172 JUMP JUMPDEST CALLVALUE DUP1 ISZERO PUSH2 0x297 JUMPI PUSH1 0x0 DUP1 REVERT JUMPDEST POP PUSH2 0x2AB PUSH2 0x2A6 CALLDATASIZE PUSH1 0x4 PUSH2 0x1434 JUMP JUMPDEST PUSH2 0xC5E JUMP JUMPDEST PUSH1 0x40 MLOAD PUSH2 0x153 SWAP8 SWAP7 SWAP6 SWAP5 SWAP4 SWAP3 SWAP2 SWAP1 PUSH2 0x168F JUMP JUMPDEST CALLVALUE DUP1 ISZERO PUSH2 0x2CA JUMPI PUSH1 0x0 DUP1 REVERT JUMPDEST POP PUSH2 0x205 PUSH2 0x2D9 CALLDATASIZE PUSH1 0x4 PUSH2 0x1434 JUMP JUMPDEST PUSH2 0xD31 JUMP JUMPDEST CALLVALUE DUP1 ISZERO PUSH2 0x2EA JUMPI PUSH1 0x0 DUP1 REVERT JUMPDEST POP PUSH2 0x172 PUSH1 0x4 SLOAD DUP2 JUMP JUMPDEST CALLVALUE DUP1 ISZERO PUSH2 0x300 JUMPI PUSH1 0x0 DUP1 REVERT JUMPDEST POP PUSH2 0x23D PUSH2 0x30F CALLDATASIZE PUSH1 0x4 PUSH2 0x13CD JUMP JUMPDEST PUSH2 0xD5B JUMP JUMPDEST CALLVALUE DUP1 ISZERO PUSH2 0x320 JUMPI PUSH1 0x0 DUP1 REVERT JUMPDEST POP PUSH2 0x172 PUSH1 0x1 SLOAD DUP2 JUMP JUMPDEST CALLVALUE DUP1 ISZERO PUSH2 0x336 JUMPI PUSH1 0x0 DUP1 REVERT JUMPDEST POP PUSH2 0x254 PUSH2 0x345 CALLDATASIZE PUSH1 0x4 PUSH2 0x1434 JUMP JUMPDEST PUSH2 0xDFA JUMP JUMPDEST CALLVALUE DUP1 ISZERO PUSH2 0x356 JUMPI PUSH1 0x0 DUP1 REVERT JUMPDEST POP PUSH2 0x172 PUSH2 0x365 CALLDATASIZE PUSH1 0x4 PUSH2 0x1434 JUMP JUMPDEST PUSH2 0xE25 JUMP JUMPDEST CALLVALUE DUP1 ISZERO PUSH2 0x376 JUMPI PUSH1 0x0 DUP1 REVERT JUMPDEST POP PUSH2 0x1B6 PUSH2 0xE46 JUMP JUMPDEST CALLVALUE DUP1 ISZERO PUSH2 0x38B JUMPI PUSH1 0x0 DUP1 REVERT JUMPDEST POP PUSH2 0x394 PUSH2 0xFDD JUMP JUMPDEST PUSH1 0x40 MLOAD PUSH2 0x153 SWAP8 SWAP7 SWAP6 SWAP5 SWAP4 SWAP3 SWAP2 SWAP1 PUSH2 0x16DC JUMP JUMPDEST PUSH2 0x23D PUSH2 0x3B5 CALLDATASIZE PUSH1 0x4 PUSH2 0x1434 JUMP JUMPDEST PUSH2 0x113C JUMP JUMPDEST PUSH1 0x0 DUP4 DUP2 MSTORE PUSH1 0x2 PUSH1 0x20 SWAP1 DUP2 MSTORE PUSH1 0x40 DUP1 DUP4 KECCAK256 CALLER DUP5 MSTORE PUSH1 0x9 DUP2 ADD SWAP1 SWAP3 MSTORE DUP3 KECCAK256 SLOAD PUSH1 0x60 SWAP2 DUP3 SWAP2 DUP3 SWAP2 SWAP1 PUSH1 0xFF AND PUSH2 0x3EC JUMPI PUSH1 0x0 DUP1 REVERT JUMPDEST CALLER PUSH1 0x0 SWAP1 DUP2 MSTORE PUSH1 0xA DUP3 ADD PUSH1 0x20 MSTORE PUSH1 0x40 SWAP1 KECCAK256 SLOAD PUSH1 0xFF AND ISZERO PUSH2 0x40B JUMPI PUSH1 0x0 DUP1 REVERT JUMPDEST PUSH1 0x5 DUP8 GT ISZERO DUP1 ISZERO PUSH2 0x41C JUMPI POP PUSH1 0x0 DUP8 GT JUMPDEST DUP1 ISZERO PUSH2 0x430 JUMPI POP PUSH2 0x42E PUSH1 0x1 DUP9 PUSH2 0x1837 JUMP JUMPDEST ISZERO JUMPDEST PUSH2 0x439 JUMPI PUSH1 0x0 DUP1 REVERT JUMPDEST CALLER PUSH1 0x0 SWAP1 DUP2 MSTORE PUSH1 0xA DUP3 ADD PUSH1 0x20 MSTORE PUSH1 0x40 DUP2 KECCAK256 DUP1 SLOAD PUSH1 0xFF NOT AND PUSH1 0x1 OR SWAP1 SSTORE PUSH1 0x4 DUP3 ADD DUP1 SLOAD SWAP2 PUSH2 0x465 DUP4 PUSH2 0x181C JUMP JUMPDEST SWAP1 SWAP2 SSTORE POP POP PUSH1 0x4 DUP2 ADD SLOAD PUSH2 0x47A SWAP1 PUSH1 0x1 PUSH2 0x177F JUMP JUMPDEST DUP8 DUP3 PUSH1 0x4 ADD SLOAD DUP4 PUSH1 0x3 ADD SLOAD PUSH2 0x48F SWAP2 SWAP1 PUSH2 0x17AB JUMP JUMPDEST PUSH2 0x499 SWAP2 SWAP1 PUSH2 0x177F JUMP JUMPDEST PUSH2 0x4A3 SWAP2 SWAP1 PUSH2 0x1797 JUMP JUMPDEST PUSH1 0x3 DUP3 ADD SSTORE PUSH1 0x5 DUP2 ADD DUP1 SLOAD PUSH1 0x1 DUP2 ADD DUP3 SSTORE PUSH1 0x0 SWAP2 DUP3 MSTORE PUSH1 0x20 SWAP2 DUP3 SWAP1 KECCAK256 DUP9 MLOAD PUSH2 0x4D3 SWAP4 SWAP2 SWAP1 SWAP3 ADD SWAP2 SWAP1 DUP10 ADD SWAP1 PUSH2 0x122C JUMP JUMPDEST POP PUSH1 0x6 DUP2 ADD DUP1 SLOAD PUSH1 0x1 DUP2 DUP2 ADD DUP4 SSTORE PUSH1 0x0 DUP4 DUP2 MSTORE PUSH1 0x20 DUP1 DUP3 KECCAK256 SWAP1 SWAP4 ADD DUP1 SLOAD PUSH1 0x1 PUSH1 0x1 PUSH1 0xA0 SHL SUB NOT AND CALLER OR SWAP1 SSTORE PUSH1 0x7 DUP6 ADD DUP1 SLOAD SWAP3 DUP4 ADD DUP2 SSTORE DUP1 DUP3 MSTORE DUP4 DUP3 KECCAK256 SWAP1 SWAP3 ADD DUP12 SWAP1 SSTORE PUSH1 0x3 DUP6 ADD SLOAD PUSH1 0x5 DUP7 ADD DUP1 SLOAD PUSH1 0x40 DUP1 MLOAD DUP3 DUP9 MUL DUP2 ADD DUP9 ADD SWAP1 SWAP2 MSTORE DUP2 DUP2 MSTORE SWAP3 SWAP7 SWAP2 SWAP6 SWAP2 SWAP5 SWAP4 DUP7 SWAP3 DUP5 ADD JUMPDEST DUP3 DUP3 LT ISZERO PUSH2 0x5E9 JUMPI DUP4 DUP3 SWAP1 PUSH1 0x0 MSTORE PUSH1 0x20 PUSH1 0x0 KECCAK256 ADD DUP1 SLOAD PUSH2 0x55C SWAP1 PUSH2 0x17E1 JUMP JUMPDEST DUP1 PUSH1 0x1F ADD PUSH1 0x20 DUP1 SWAP2 DIV MUL PUSH1 0x20 ADD PUSH1 0x40 MLOAD SWAP1 DUP2 ADD PUSH1 0x40 MSTORE DUP1 SWAP3 SWAP2 SWAP1 DUP2 DUP2 MSTORE PUSH1 0x20 ADD DUP3 DUP1 SLOAD PUSH2 0x588 SWAP1 PUSH2 0x17E1 JUMP JUMPDEST DUP1 ISZERO PUSH2 0x5D5 JUMPI DUP1 PUSH1 0x1F LT PUSH2 0x5AA JUMPI PUSH2 0x100 DUP1 DUP4 SLOAD DIV MUL DUP4 MSTORE SWAP2 PUSH1 0x20 ADD SWAP2 PUSH2 0x5D5 JUMP JUMPDEST DUP3 ADD SWAP2 SWAP1 PUSH1 0x0 MSTORE PUSH1 0x20 PUSH1 0x0 KECCAK256 SWAP1 JUMPDEST DUP2 SLOAD DUP2 MSTORE SWAP1 PUSH1 0x1 ADD SWAP1 PUSH1 0x20 ADD DUP1 DUP4 GT PUSH2 0x5B8 JUMPI DUP3 SWAP1 SUB PUSH1 0x1F AND DUP3 ADD SWAP2 JUMPDEST POP POP POP POP POP DUP2 MSTORE PUSH1 0x20 ADD SWAP1 PUSH1 0x1 ADD SWAP1 PUSH2 0x53D JUMP JUMPDEST POP POP POP POP SWAP3 POP DUP2 DUP1 SLOAD DUP1 PUSH1 0x20 MUL PUSH1 0x20 ADD PUSH1 0x40 MLOAD SWAP1 DUP2 ADD PUSH1 0x40 MSTORE DUP1 SWAP3 SWAP2 SWAP1 DUP2 DUP2 MSTORE PUSH1 0x20 ADD DUP3 DUP1 SLOAD DUP1 ISZERO PUSH2 0x644 JUMPI PUSH1 0x20 MUL DUP3 ADD SWAP2 SWAP1 PUSH1 0x0 MSTORE PUSH1 0x20 PUSH1 0x0 KECCAK256 SWAP1 JUMPDEST DUP2 SLOAD PUSH1 0x1 PUSH1 0x1 PUSH1 0xA0 SHL SUB AND DUP2 MSTORE PUSH1 0x1 SWAP1 SWAP2 ADD SWAP1 PUSH1 0x20 ADD DUP1 DUP4 GT PUSH2 0x626 JUMPI JUMPDEST POP POP POP POP POP SWAP2 POP DUP1 DUP1 SLOAD DUP1 PUSH1 0x20 MUL PUSH1 0x20 ADD PUSH1 0x40 MLOAD SWAP1 DUP2 ADD PUSH1 0x40 MSTORE DUP1 SWAP3 SWAP2 SWAP1 DUP2 DUP2 MSTORE PUSH1 0x20 ADD DUP3 DUP1 SLOAD DUP1 ISZERO PUSH2 0x696 JUMPI PUSH1 0x20 MUL DUP3 ADD SWAP2 SWAP1 PUSH1 0x0 MSTORE PUSH1 0x20 PUSH1 0x0 KECCAK256 SWAP1 JUMPDEST DUP2 SLOAD DUP2 MSTORE PUSH1 0x20 ADD SWAP1 PUSH1 0x1 ADD SWAP1 DUP1 DUP4 GT PUSH2 0x682 JUMPI JUMPDEST POP POP POP POP POP SWAP1 POP SWAP5 POP SWAP5 POP SWAP5 POP SWAP5 POP POP SWAP4 POP SWAP4 POP SWAP4 POP SWAP4 JUMP JUMPDEST PUSH1 0x0 DUP2 DUP2 MSTORE PUSH1 0x2 PUSH1 0x20 SWAP1 DUP2 MSTORE PUSH1 0x40 DUP1 DUP4 KECCAK256 PUSH1 0x5 DUP2 ADD DUP1 SLOAD DUP4 MLOAD DUP2 DUP7 MUL DUP2 ADD DUP7 ADD SWAP1 SWAP5 MSTORE DUP1 DUP5 MSTORE PUSH1 0x60 SWAP6 DUP7 SWAP6 DUP7 SWAP6 SWAP4 SWAP5 PUSH1 0x6 DUP2 ADD SWAP5 PUSH1 0x7 SWAP1 SWAP2 ADD SWAP4 SWAP1 SWAP3 DUP7 SWAP3 DUP5 ADD JUMPDEST DUP3 DUP3 LT ISZERO PUSH2 0x79C JUMPI DUP4 DUP3 SWAP1 PUSH1 0x0 MSTORE PUSH1 0x20 PUSH1 0x0 KECCAK256 ADD DUP1 SLOAD PUSH2 0x70F SWAP1 PUSH2 0x17E1 JUMP JUMPDEST DUP1 PUSH1 0x1F ADD PUSH1 0x20 DUP1 SWAP2 DIV MUL PUSH1 0x20 ADD PUSH1 0x40 MLOAD SWAP1 DUP2 ADD PUSH1 0x40 MSTORE DUP1 SWAP3 SWAP2 SWAP1 DUP2 DUP2 MSTORE PUSH1 0x20 ADD DUP3 DUP1 SLOAD PUSH2 0x73B SWAP1 PUSH2 0x17E1 JUMP JUMPDEST DUP1 ISZERO PUSH2 0x788 JUMPI DUP1 PUSH1 0x1F LT PUSH2 0x75D JUMPI PUSH2 0x100 DUP1 DUP4 SLOAD DIV MUL DUP4 MSTORE SWAP2 PUSH1 0x20 ADD SWAP2 PUSH2 0x788 JUMP JUMPDEST DUP3 ADD SWAP2 SWAP1 PUSH1 0x0 MSTORE PUSH1 0x20 PUSH1 0x0 KECCAK256 SWAP1 JUMPDEST DUP2 SLOAD DUP2 MSTORE SWAP1 PUSH1 0x1 ADD SWAP1 PUSH1 0x20 ADD DUP1 DUP4 GT PUSH2 0x76B JUMPI DUP3 SWAP1 SUB PUSH1 0x1F AND DUP3 ADD SWAP2 JUMPDEST POP POP POP POP POP DUP2 MSTORE PUSH1 0x20 ADD SWAP1 PUSH1 0x1 ADD SWAP1 PUSH2 0x6F0 JUMP JUMPDEST POP POP POP POP SWAP3 POP DUP2 DUP1 SLOAD DUP1 PUSH1 0x20 MUL PUSH1 0x20 ADD PUSH1 0x40 MLOAD SWAP1 DUP2 ADD PUSH1 0x40 MSTORE DUP1 SWAP3 SWAP2 SWAP1 DUP2 DUP2 MSTORE PUSH1 0x20 ADD DUP3 DUP1 SLOAD DUP1 ISZERO PUSH2 0x7F7 JUMPI PUSH1 0x20 MUL DUP3 ADD SWAP2 SWAP1 PUSH1 0x0 MSTORE PUSH1 0x20 PUSH1 0x0 KECCAK256 SWAP1 JUMPDEST DUP2 SLOAD PUSH1 0x1 PUSH1 0x1 PUSH1 0xA0 SHL SUB AND DUP2 MSTORE PUSH1 0x1 SWAP1 SWAP2 ADD SWAP1 PUSH1 0x20 ADD DUP1 DUP4 GT PUSH2 0x7D9 JUMPI JUMPDEST POP POP POP POP POP SWAP2 POP DUP1 DUP1 SLOAD DUP1 PUSH1 0x20 MUL PUSH1 0x20 ADD PUSH1 0x40 MLOAD SWAP1 DUP2 ADD PUSH1 0x40 MSTORE DUP1 SWAP3 SWAP2 SWAP1 DUP2 DUP2 MSTORE PUSH1 0x20 ADD DUP3 DUP1 SLOAD DUP1 ISZERO PUSH2 0x849 JUMPI PUSH1 0x20 MUL DUP3 ADD SWAP2 SWAP1 PUSH1 0x0 MSTORE PUSH1 0x20 PUSH1 0x0 KECCAK256 SWAP1 JUMPDEST DUP2 SLOAD DUP2 MSTORE PUSH1 0x20 ADD SWAP1 PUSH1 0x1 ADD SWAP1 DUP1 DUP4 GT PUSH2 0x835 JUMPI JUMPDEST POP POP POP POP POP SWAP1 POP SWAP3 POP SWAP3 POP SWAP3 POP SWAP2 SWAP4 SWAP1 SWAP3 POP JUMP JUMPDEST CALLER PUSH1 0x0 SWAP1 DUP2 MSTORE PUSH1 0x9 PUSH1 0x20 MSTORE PUSH1 0x40 DUP2 KECCAK256 SLOAD PUSH1 0x60 SWAP1 DUP2 SWAP1 DUP2 SWAP1 PUSH1 0xFF AND PUSH2 0x880 JUMPI PUSH1 0x0 DUP1 REVERT JUMPDEST CALLER PUSH1 0x0 SWAP1 DUP2 MSTORE PUSH1 0xA PUSH1 0x20 MSTORE PUSH1 0x40 SWAP1 KECCAK256 SLOAD PUSH1 0xFF AND ISZERO PUSH2 0x89D JUMPI PUSH1 0x0 DUP1 REVERT JUMPDEST PUSH1 0x5 DUP7 GT ISZERO DUP1 ISZERO PUSH2 0x8AE JUMPI POP PUSH1 0x0 DUP7 GT JUMPDEST DUP1 ISZERO PUSH2 0x8C2 JUMPI POP PUSH2 0x8C0 PUSH1 0x1 DUP8 PUSH2 0x1837 JUMP JUMPDEST ISZERO JUMPDEST PUSH2 0x8CB JUMPI PUSH1 0x0 DUP1 REVERT JUMPDEST CALLER PUSH1 0x0 SWAP1 DUP2 MSTORE PUSH1 0xA PUSH1 0x20 MSTORE PUSH1 0x40 DUP2 KECCAK256 DUP1 SLOAD PUSH1 0xFF NOT AND PUSH1 0x1 OR SWAP1 SSTORE PUSH1 0x5 DUP1 SLOAD SWAP2 PUSH2 0x8F3 DUP4 PUSH2 0x181C JUMP JUMPDEST SWAP1 SWAP2 SSTORE POP POP PUSH1 0x5 SLOAD DUP7 PUSH2 0x907 PUSH1 0x1 DUP4 PUSH2 0x17CA JUMP JUMPDEST PUSH1 0x4 SLOAD PUSH2 0x914 SWAP2 SWAP1 PUSH2 0x17AB JUMP JUMPDEST PUSH2 0x91E SWAP2 SWAP1 PUSH2 0x177F JUMP JUMPDEST PUSH2 0x928 SWAP2 SWAP1 PUSH2 0x1797 JUMP JUMPDEST PUSH1 0x4 SSTORE PUSH1 0x6 DUP1 SLOAD PUSH1 0x1 DUP2 ADD DUP3 SSTORE PUSH1 0x0 SWAP2 SWAP1 SWAP2 MSTORE DUP6 MLOAD PUSH2 0x96E SWAP2 PUSH32 0xF652222313E28459528D920B65115C16C04F3EFC82AAEDC97BE59F3F377C0D3F ADD SWAP1 PUSH1 0x20 DUP9 ADD SWAP1 PUSH2 0x122C JUMP JUMPDEST POP PUSH1 0x7 DUP1 SLOAD PUSH1 0x1 DUP2 DUP2 ADD DUP4 SSTORE PUSH32 0xA66CC928B5EDB82AF9BD49922954155AB7B0942694BEA4CE44661D9A8736C688 SWAP1 SWAP2 ADD DUP1 SLOAD PUSH1 0x1 PUSH1 0x1 PUSH1 0xA0 SHL SUB NOT AND CALLER OR SWAP1 SSTORE PUSH1 0x8 DUP1 SLOAD SWAP2 DUP3 ADD DUP2 SSTORE PUSH1 0x0 DUP2 DUP2 MSTORE PUSH32 0xF3F7A9FE364FAAB93B216DA50A3214154F22A0A2B415B23A84C8169E8B636EE3 SWAP1 SWAP3 ADD DUP10 SWAP1 SSTORE PUSH1 0x4 SLOAD PUSH1 0x6 DUP1 SLOAD PUSH1 0x40 DUP1 MLOAD PUSH1 0x20 DUP4 DUP2 MUL DUP3 ADD DUP2 ADD SWAP1 SWAP3 MSTORE DUP3 DUP2 MSTORE SWAP4 SWAP7 SWAP3 SWAP6 SWAP3 SWAP5 SWAP4 SWAP3 DUP7 SWAP3 SWAP2 DUP5 ADD JUMPDEST DUP3 DUP3 LT ISZERO PUSH2 0xAB7 JUMPI DUP4 DUP3 SWAP1 PUSH1 0x0 MSTORE PUSH1 0x20 PUSH1 0x0 KECCAK256 ADD DUP1 SLOAD PUSH2 0xA2A SWAP1 PUSH2 0x17E1 JUMP JUMPDEST DUP1 PUSH1 0x1F ADD PUSH1 0x20 DUP1 SWAP2 DIV MUL PUSH1 0x20 ADD PUSH1 0x40 MLOAD SWAP1 DUP2 ADD PUSH1 0x40 MSTORE DUP1 SWAP3 SWAP2 SWAP1 DUP2 DUP2 MSTORE PUSH1 0x20 ADD DUP3 DUP1 SLOAD PUSH2 0xA56 SWAP1 PUSH2 0x17E1 JUMP JUMPDEST DUP1 ISZERO PUSH2 0xAA3 JUMPI DUP1 PUSH1 0x1F LT PUSH2 0xA78 JUMPI PUSH2 0x100 DUP1 DUP4 SLOAD DIV MUL DUP4 MSTORE SWAP2 PUSH1 0x20 ADD SWAP2 PUSH2 0xAA3 JUMP JUMPDEST DUP3 ADD SWAP2 SWAP1 PUSH1 0x0 MSTORE PUSH1 0x20 PUSH1 0x0 KECCAK256 SWAP1 JUMPDEST DUP2 SLOAD DUP2 MSTORE SWAP1 PUSH1 0x1 ADD SWAP1 PUSH1 0x20 ADD DUP1 DUP4 GT PUSH2 0xA86 JUMPI DUP3 SWAP1 SUB PUSH1 0x1F AND DUP3 ADD SWAP2 JUMPDEST POP POP POP POP POP DUP2 MSTORE PUSH1 0x20 ADD SWAP1 PUSH1 0x1 ADD SWAP1 PUSH2 0xA0B JUMP JUMPDEST POP POP POP POP SWAP3 POP DUP2 DUP1 SLOAD DUP1 PUSH1 0x20 MUL PUSH1 0x20 ADD PUSH1 0x40 MLOAD SWAP1 DUP2 ADD PUSH1 0x40 MSTORE DUP1 SWAP3 SWAP2 SWAP1 DUP2 DUP2 MSTORE PUSH1 0x20 ADD DUP3 DUP1 SLOAD DUP1 ISZERO PUSH2 0xB12 JUMPI PUSH1 0x20 MUL DUP3 ADD SWAP2 SWAP1 PUSH1 0x0 MSTORE PUSH1 0x20 PUSH1 0x0 KECCAK256 SWAP1 JUMPDEST DUP2 SLOAD PUSH1 0x1 PUSH1 0x1 PUSH1 0xA0 SHL SUB AND DUP2 MSTORE PUSH1 0x1 SWAP1 SWAP2 ADD SWAP1 PUSH1 0x20 ADD DUP1 DUP4 GT PUSH2 0xAF4 JUMPI JUMPDEST POP POP POP POP POP SWAP2 POP DUP1 DUP1 SLOAD DUP1 PUSH1 0x20 MUL PUSH1 0x20 ADD PUSH1 0x40 MLOAD SWAP1 DUP2 ADD PUSH1 0x40 MSTORE DUP1 SWAP3 SWAP2 SWAP1 DUP2 DUP2 MSTORE PUSH1 0x20 ADD DUP3 DUP1 SLOAD DUP1 ISZERO PUSH2 0xB64 JUMPI PUSH1 0x20 MUL DUP3 ADD SWAP2 SWAP1 PUSH1 0x0 MSTORE PUSH1 0x20 PUSH1 0x0 KECCAK256 SWAP1 JUMPDEST DUP2 SLOAD DUP2 MSTORE PUSH1 0x20 ADD SWAP1 PUSH1 0x1 ADD SWAP1 DUP1 DUP4 GT PUSH2 0xB50 JUMPI JUMPDEST POP POP POP POP POP SWAP1 POP SWAP4 POP SWAP4 POP SWAP4 POP SWAP4 POP SWAP3 SWAP6 SWAP2 SWAP5 POP SWAP3 POP JUMP JUMPDEST PUSH1 0x0 SLOAD PUSH1 0x1 PUSH1 0x1 PUSH1 0xA0 SHL SUB AND CALLER EQ PUSH2 0xB93 JUMPI PUSH1 0x0 DUP1 REVERT JUMPDEST PUSH1 0x0 SWAP2 DUP3 MSTORE PUSH1 0x2 PUSH1 0x20 DUP2 SWAP1 MSTORE PUSH1 0x40 SWAP1 SWAP3 KECCAK256 SWAP1 SWAP2 ADD DUP1 SLOAD SWAP2 ISZERO ISZERO PUSH1 0x1 PUSH1 0xA0 SHL MUL PUSH1 0xFF PUSH1 0xA0 SHL NOT SWAP1 SWAP3 AND SWAP2 SWAP1 SWAP2 OR SWAP1 SSTORE JUMP JUMPDEST PUSH1 0xB DUP1 SLOAD PUSH2 0xBD0 SWAP1 PUSH2 0x17E1 JUMP JUMPDEST DUP1 PUSH1 0x1F ADD PUSH1 0x20 DUP1 SWAP2 DIV MUL PUSH1 0x20 ADD PUSH1 0x40 MLOAD SWAP1 DUP2 ADD PUSH1 0x40 MSTORE DUP1 SWAP3 SWAP2 SWAP1 DUP2 DUP2 MSTORE PUSH1 0x20 ADD DUP3 DUP1 SLOAD PUSH2 0xBFC SWAP1 PUSH2 0x17E1 JUMP JUMPDEST DUP1 ISZERO PUSH2 0xC49 JUMPI DUP1 PUSH1 0x1F LT PUSH2 0xC1E JUMPI PUSH2 0x100 DUP1 DUP4 SLOAD DIV MUL DUP4 MSTORE SWAP2 PUSH1 0x20 ADD SWAP2 PUSH2 0xC49 JUMP JUMPDEST DUP3 ADD SWAP2 SWAP1 PUSH1 0x0 MSTORE PUSH1 0x20 PUSH1 0x0 KECCAK256 SWAP1 JUMPDEST DUP2 SLOAD DUP2 MSTORE SWAP1 PUSH1 0x1 ADD SWAP1 PUSH1 0x20 ADD DUP1 DUP4 GT PUSH2 0xC2C JUMPI DUP3 SWAP1 SUB PUSH1 0x1F AND DUP3 ADD SWAP2 JUMPDEST POP POP POP POP POP DUP2 JUMP JUMPDEST PUSH1 0x3 DUP1 SLOAD PUSH2 0xBD0 SWAP1 PUSH2 0x17E1 JUMP JUMPDEST PUSH1 0x2 PUSH1 0x20 MSTORE PUSH1 0x0 SWAP1 DUP2 MSTORE PUSH1 0x40 SWAP1 KECCAK256 DUP1 SLOAD DUP2 SWAP1 PUSH2 0xC79 SWAP1 PUSH2 0x17E1 JUMP JUMPDEST DUP1 PUSH1 0x1F ADD PUSH1 0x20 DUP1 SWAP2 DIV MUL PUSH1 0x20 ADD PUSH1 0x40 MLOAD SWAP1 DUP2 ADD PUSH1 0x40 MSTORE DUP1 SWAP3 SWAP2 SWAP1 DUP2 DUP2 MSTORE PUSH1 0x20 ADD DUP3 DUP1 SLOAD PUSH2 0xCA5 SWAP1 PUSH2 0x17E1 JUMP JUMPDEST DUP1 ISZERO PUSH2 0xCF2 JUMPI DUP1 PUSH1 0x1F LT PUSH2 0xCC7 JUMPI PUSH2 0x100 DUP1 DUP4 SLOAD DIV MUL DUP4 MSTORE SWAP2 PUSH1 0x20 ADD SWAP2 PUSH2 0xCF2 JUMP JUMPDEST DUP3 ADD SWAP2 SWAP1 PUSH1 0x0 MSTORE PUSH1 0x20 PUSH1 0x0 KECCAK256 SWAP1 JUMPDEST DUP2 SLOAD DUP2 MSTORE SWAP1 PUSH1 0x1 ADD SWAP1 PUSH1 0x20 ADD DUP1 DUP4 GT PUSH2 0xCD5 JUMPI DUP3 SWAP1 SUB PUSH1 0x1F AND DUP3 ADD SWAP2 JUMPDEST POP POP POP POP PUSH1 0x1 DUP4 ADD SLOAD PUSH1 0x2 DUP5 ADD SLOAD PUSH1 0x3 DUP6 ADD SLOAD PUSH1 0x4 DUP7 ADD SLOAD PUSH1 0x8 SWAP1 SWAP7 ADD SLOAD SWAP5 SWAP6 SWAP3 SWAP5 PUSH1 0x1 PUSH1 0x1 PUSH1 0xA0 SHL SUB DUP4 AND SWAP5 POP PUSH1 0x1 PUSH1 0xA0 SHL SWAP1 SWAP3 DIV PUSH1 0xFF AND SWAP3 SWAP1 SWAP2 DUP8 JUMP JUMPDEST PUSH1 0x7 DUP2 DUP2 SLOAD DUP2 LT PUSH2 0xD41 JUMPI PUSH1 0x0 DUP1 REVERT JUMPDEST PUSH1 0x0 SWAP2 DUP3 MSTORE PUSH1 0x20 SWAP1 SWAP2 KECCAK256 ADD SLOAD PUSH1 0x1 PUSH1 0x1 PUSH1 0xA0 SHL SUB AND SWAP1 POP DUP2 JUMP JUMPDEST PUSH1 0x0 SLOAD PUSH1 0x1 PUSH1 0x1 PUSH1 0xA0 SHL SUB AND CALLER EQ PUSH2 0xD72 JUMPI PUSH1 0x0 DUP1 REVERT JUMPDEST PUSH1 0x1 DUP1 SLOAD PUSH1 0x0 SWAP2 PUSH1 0x2 SWAP2 DUP4 SWAP2 DUP3 PUSH2 0xD88 DUP4 PUSH2 0x181C JUMP JUMPDEST SWAP1 SWAP2 SSTORE POP DUP2 MSTORE PUSH1 0x20 DUP1 DUP3 ADD SWAP3 SWAP1 SWAP3 MSTORE PUSH1 0x40 ADD PUSH1 0x0 KECCAK256 DUP6 MLOAD SWAP1 SWAP3 POP PUSH2 0xDB1 SWAP2 DUP4 SWAP2 SWAP1 DUP8 ADD SWAP1 PUSH2 0x122C JUMP JUMPDEST POP PUSH1 0x1 DUP2 ADD SWAP3 SWAP1 SWAP3 SSTORE PUSH1 0x2 DUP3 ADD DUP1 SLOAD PUSH1 0x1 PUSH1 0x1 PUSH1 0xA8 SHL SUB NOT AND PUSH1 0x1 PUSH1 0x1 PUSH1 0xA0 SHL SUB SWAP1 SWAP3 AND SWAP2 SWAP1 SWAP2 OR PUSH1 0x1 PUSH1 0xA0 SHL OR SWAP1 SSTORE PUSH1 0x5 PUSH1 0x3 DUP3 ADD SSTORE PUSH1 0x0 PUSH1 0x4 DUP3 ADD DUP2 SWAP1 SSTORE PUSH1 0x8 SWAP1 SWAP2 ADD SSTORE POP JUMP JUMPDEST PUSH1 0x6 DUP2 DUP2 SLOAD DUP2 LT PUSH2 0xE0A JUMPI PUSH1 0x0 DUP1 REVERT JUMPDEST SWAP1 PUSH1 0x0 MSTORE PUSH1 0x20 PUSH1 0x0 KECCAK256 ADD PUSH1 0x0 SWAP2 POP SWAP1 POP DUP1 SLOAD PUSH2 0xBD0 SWAP1 PUSH2 0x17E1 JUMP JUMPDEST PUSH1 0x8 DUP2 DUP2 SLOAD DUP2 LT PUSH2 0xE35 JUMPI PUSH1 0x0 DUP1 REVERT JUMPDEST PUSH1 0x0 SWAP2 DUP3 MSTORE PUSH1 0x20 SWAP1 SWAP2 KECCAK256 ADD SLOAD SWAP1 POP DUP2 JUMP JUMPDEST PUSH1 0x60 DUP1 PUSH1 0x60 PUSH1 0x6 PUSH1 0x7 PUSH1 0x8 DUP3 DUP1 SLOAD DUP1 PUSH1 0x20 MUL PUSH1 0x20 ADD PUSH1 0x40 MLOAD SWAP1 DUP2 ADD PUSH1 0x40 MSTORE DUP1 SWAP3 SWAP2 SWAP1 DUP2 DUP2 MSTORE PUSH1 0x20 ADD PUSH1 0x0 SWAP1 JUMPDEST DUP3 DUP3 LT ISZERO PUSH2 0xF1E JUMPI DUP4 DUP3 SWAP1 PUSH1 0x0 MSTORE PUSH1 0x20 PUSH1 0x0 KECCAK256 ADD DUP1 SLOAD PUSH2 0xE91 SWAP1 PUSH2 0x17E1 JUMP JUMPDEST DUP1 PUSH1 0x1F ADD PUSH1 0x20 DUP1 SWAP2 DIV MUL PUSH1 0x20 ADD PUSH1 0x40 MLOAD SWAP1 DUP2 ADD PUSH1 0x40 MSTORE DUP1 SWAP3 SWAP2 SWAP1 DUP2 DUP2 MSTORE PUSH1 0x20 ADD DUP3 DUP1 SLOAD PUSH2 0xEBD SWAP1 PUSH2 0x17E1 JUMP JUMPDEST DUP1 ISZERO PUSH2 0xF0A JUMPI DUP1 PUSH1 0x1F LT PUSH2 0xEDF JUMPI PUSH2 0x100 DUP1 DUP4 SLOAD DIV MUL DUP4 MSTORE SWAP2 PUSH1 0x20 ADD SWAP2 PUSH2 0xF0A JUMP JUMPDEST DUP3 ADD SWAP2 SWAP1 PUSH1 0x0 MSTORE PUSH1 0x20 PUSH1 0x0 KECCAK256 SWAP1 JUMPDEST DUP2 SLOAD DUP2 MSTORE SWAP1 PUSH1 0x1 ADD SWAP1 PUSH1 0x20 ADD DUP1 DUP4 GT PUSH2 0xEED JUMPI DUP3 SWAP1 SUB PUSH1 0x1F AND DUP3 ADD SWAP2 JUMPDEST POP POP POP POP POP DUP2 MSTORE PUSH1 0x20 ADD SWAP1 PUSH1 0x1 ADD SWAP1 PUSH2 0xE72 JUMP JUMPDEST POP POP POP POP SWAP3 POP DUP2 DUP1 SLOAD DUP1 PUSH1 0x20 MUL PUSH1 0x20 ADD PUSH1 0x40 MLOAD SWAP1 DUP2 ADD PUSH1 0x40 MSTORE DUP1 SWAP3 SWAP2 SWAP1 DUP2 DUP2 MSTORE PUSH1 0x20 ADD DUP3 DUP1 SLOAD DUP1 ISZERO PUSH2 0xF79 JUMPI PUSH1 0x20 MUL DUP3 ADD SWAP2 SWAP1 PUSH1 0x0 MSTORE PUSH1 0x20 PUSH1 0x0 KECCAK256 SWAP1 JUMPDEST DUP2 SLOAD PUSH1 0x1 PUSH1 0x1 PUSH1 0xA0 SHL SUB AND DUP2 MSTORE PUSH1 0x1 SWAP1 SWAP2 ADD SWAP1 PUSH1 0x20 ADD DUP1 DUP4 GT PUSH2 0xF5B JUMPI JUMPDEST POP POP POP POP POP SWAP2 POP DUP1 DUP1 SLOAD DUP1 PUSH1 0x20 MUL PUSH1 0x20 ADD PUSH1 0x40 MLOAD SWAP1 DUP2 ADD PUSH1 0x40 MSTORE DUP1 SWAP3 SWAP2 SWAP1 DUP2 DUP2 MSTORE PUSH1 0x20 ADD DUP3 DUP1 SLOAD DUP1 ISZERO PUSH2 0xFCB JUMPI PUSH1 0x20 MUL DUP3 ADD SWAP2 SWAP1 PUSH1 0x0 MSTORE PUSH1 0x20 PUSH1 0x0 KECCAK256 SWAP1 JUMPDEST DUP2 SLOAD DUP2 MSTORE PUSH1 0x20 ADD SWAP1 PUSH1 0x1 ADD SWAP1 DUP1 DUP4 GT PUSH2 0xFB7 JUMPI JUMPDEST POP POP POP POP POP SWAP1 POP SWAP3 POP SWAP3 POP SWAP3 POP SWAP1 SWAP2 SWAP3 JUMP JUMPDEST PUSH1 0x0 DUP1 PUSH1 0x60 PUSH1 0x0 PUSH1 0x60 PUSH1 0x0 DUP1 PUSH1 0x1 SLOAD PUSH1 0x0 DUP1 SLOAD SWAP1 PUSH2 0x100 EXP SWAP1 DIV PUSH1 0x1 PUSH1 0x1 PUSH1 0xA0 SHL SUB AND PUSH1 0xB PUSH1 0xC SLOAD PUSH1 0x3 PUSH1 0x4 SLOAD PUSH1 0x5 SLOAD DUP5 DUP1 SLOAD PUSH2 0x1019 SWAP1 PUSH2 0x17E1 JUMP JUMPDEST DUP1 PUSH1 0x1F ADD PUSH1 0x20 DUP1 SWAP2 DIV MUL PUSH1 0x20 ADD PUSH1 0x40 MLOAD SWAP1 DUP2 ADD PUSH1 0x40 MSTORE DUP1 SWAP3 SWAP2 SWAP1 DUP2 DUP2 MSTORE PUSH1 0x20 ADD DUP3 DUP1 SLOAD PUSH2 0x1045 SWAP1 PUSH2 0x17E1 JUMP JUMPDEST DUP1 ISZERO PUSH2 0x1092 JUMPI DUP1 PUSH1 0x1F LT PUSH2 0x1067 JUMPI PUSH2 0x100 DUP1 DUP4 SLOAD DIV MUL DUP4 MSTORE SWAP2 PUSH1 0x20 ADD SWAP2 PUSH2 0x1092 JUMP JUMPDEST DUP3 ADD SWAP2 SWAP1 PUSH1 0x0 MSTORE PUSH1 0x20 PUSH1 0x0 KECCAK256 SWAP1 JUMPDEST DUP2 SLOAD DUP2 MSTORE SWAP1 PUSH1 0x1 ADD SWAP1 PUSH1 0x20 ADD DUP1 DUP4 GT PUSH2 0x1075 JUMPI DUP3 SWAP1 SUB PUSH1 0x1F AND DUP3 ADD SWAP2 JUMPDEST POP POP POP POP POP SWAP5 POP DUP3 DUP1 SLOAD PUSH2 0x10A5 SWAP1 PUSH2 0x17E1 JUMP JUMPDEST DUP1 PUSH1 0x1F ADD PUSH1 0x20 DUP1 SWAP2 DIV MUL PUSH1 0x20 ADD PUSH1 0x40 MLOAD SWAP1 DUP2 ADD PUSH1 0x40 MSTORE DUP1 SWAP3 SWAP2 SWAP1 DUP2 DUP2 MSTORE PUSH1 0x20 ADD DUP3 DUP1 SLOAD PUSH2 0x10D1 SWAP1 PUSH2 0x17E1 JUMP JUMPDEST DUP1 ISZERO PUSH2 0x111E JUMPI DUP1 PUSH1 0x1F LT PUSH2 0x10F3 JUMPI PUSH2 0x100 DUP1 DUP4 SLOAD DIV MUL DUP4 MSTORE SWAP2 PUSH1 0x20 ADD SWAP2 PUSH2 0x111E JUMP JUMPDEST DUP3 ADD SWAP2 SWAP1 PUSH1 0x0 MSTORE PUSH1 0x20 PUSH1 0x0 KECCAK256 SWAP1 JUMPDEST DUP2 SLOAD DUP2 MSTORE SWAP1 PUSH1 0x1 ADD SWAP1 PUSH1 0x20 ADD DUP1 DUP4 GT PUSH2 0x1101 JUMPI DUP3 SWAP1 SUB PUSH1 0x1F AND DUP3 ADD SWAP2 JUMPDEST POP POP POP POP POP SWAP3 POP SWAP7 POP SWAP7 POP SWAP7 POP SWAP7 POP SWAP7 POP SWAP7 POP SWAP7 POP SWAP1 SWAP2 SWAP3 SWAP4 SWAP5 SWAP6 SWAP7 JUMP JUMPDEST PUSH1 0x0 DUP2 DUP2 MSTORE PUSH1 0x2 PUSH1 0x20 MSTORE PUSH1 0x40 SWAP1 KECCAK256 PUSH1 0x1 DUP2 ADD SLOAD CALLVALUE EQ PUSH2 0x115A JUMPI PUSH1 0x0 DUP1 REVERT JUMPDEST PUSH1 0x2 DUP2 ADD SLOAD PUSH1 0x1 PUSH1 0xA0 SHL SWAP1 DIV PUSH1 0xFF AND PUSH2 0x1172 JUMPI PUSH1 0x0 DUP1 REVERT JUMPDEST PUSH1 0x2 DUP2 ADD SLOAD PUSH1 0x40 MLOAD PUSH1 0x1 PUSH1 0x1 PUSH1 0xA0 SHL SUB SWAP1 SWAP2 AND SWAP1 CALLVALUE DUP1 ISZERO PUSH2 0x8FC MUL SWAP2 PUSH1 0x0 DUP2 DUP2 DUP2 DUP6 DUP9 DUP9 CALL SWAP4 POP POP POP POP ISZERO DUP1 ISZERO PUSH2 0x11AD JUMPI RETURNDATASIZE PUSH1 0x0 DUP1 RETURNDATACOPY RETURNDATASIZE PUSH1 0x0 REVERT JUMPDEST POP CALLER PUSH1 0x0 SWAP1 DUP2 MSTORE PUSH1 0x9 DUP3 DUP2 ADD PUSH1 0x20 SWAP1 DUP2 MSTORE PUSH1 0x40 DUP1 DUP5 KECCAK256 DUP1 SLOAD PUSH1 0x1 PUSH1 0xFF NOT SWAP2 DUP3 AND DUP2 OR SWAP1 SWAP3 SSTORE SWAP4 SWAP1 SWAP3 MSTORE DUP4 KECCAK256 DUP1 SLOAD SWAP1 SWAP3 AND OR SWAP1 SSTORE PUSH1 0x8 DUP3 ADD DUP1 SLOAD SWAP2 PUSH2 0x11F0 DUP4 PUSH2 0x181C JUMP JUMPDEST SWAP2 SWAP1 POP SSTORE POP PUSH1 0xC SLOAD DUP2 PUSH1 0x8 ADD SLOAD GT ISZERO PUSH2 0x1228 JUMPI DUP1 SLOAD PUSH1 0xB SWAP1 DUP3 SWAP1 PUSH2 0x1213 SWAP1 PUSH2 0x17E1 JUMP JUMPDEST PUSH2 0x121E SWAP3 SWAP2 SWAP1 PUSH2 0x12B0 JUMP JUMPDEST POP PUSH1 0x8 DUP2 ADD SLOAD PUSH1 0xC SSTORE JUMPDEST POP POP JUMP JUMPDEST DUP3 DUP1 SLOAD PUSH2 0x1238 SWAP1 PUSH2 0x17E1 JUMP JUMPDEST SWAP1 PUSH1 0x0 MSTORE PUSH1 0x20 PUSH1 0x0 KECCAK256 SWAP1 PUSH1 0x1F ADD PUSH1 0x20 SWAP1 DIV DUP2 ADD SWAP3 DUP3 PUSH2 0x125A JUMPI PUSH1 0x0 DUP6 SSTORE PUSH2 0x12A0 JUMP JUMPDEST DUP3 PUSH1 0x1F LT PUSH2 0x1273 JUMPI DUP1 MLOAD PUSH1 0xFF NOT AND DUP4 DUP1 ADD OR DUP6 SSTORE PUSH2 0x12A0 JUMP JUMPDEST DUP3 DUP1 ADD PUSH1 0x1 ADD DUP6 SSTORE DUP3 ISZERO PUSH2 0x12A0 JUMPI SWAP2 DUP3 ADD JUMPDEST DUP3 DUP2 GT ISZERO PUSH2 0x12A0 JUMPI DUP3 MLOAD DUP3 SSTORE SWAP2 PUSH1 0x20 ADD SWAP2 SWAP1 PUSH1 0x1 ADD SWAP1 PUSH2 0x1285 JUMP JUMPDEST POP PUSH2 0x12AC SWAP3 SWAP2 POP PUSH2 0x132B JUMP JUMPDEST POP SWAP1 JUMP JUMPDEST DUP3 DUP1 SLOAD PUSH2 0x12BC SWAP1 PUSH2 0x17E1 JUMP JUMPDEST SWAP1 PUSH1 0x0 MSTORE PUSH1 0x20 PUSH1 0x0 KECCAK256 SWAP1 PUSH1 0x1F ADD PUSH1 0x20 SWAP1 DIV DUP2 ADD SWAP3 DUP3 PUSH2 0x12DE JUMPI PUSH1 0x0 DUP6 SSTORE PUSH2 0x12A0 JUMP JUMPDEST DUP3 PUSH1 0x1F LT PUSH2 0x12EF JUMPI DUP1 SLOAD DUP6 SSTORE PUSH2 0x12A0 JUMP JUMPDEST DUP3 DUP1 ADD PUSH1 0x1 ADD DUP6 SSTORE DUP3 ISZERO PUSH2 0x12A0 JUMPI PUSH1 0x0 MSTORE PUSH1 0x20 PUSH1 0x0 KECCAK256 SWAP2 PUSH1 0x1F ADD PUSH1 0x20 SWAP1 DIV DUP3 ADD JUMPDEST DUP3 DUP2 GT ISZERO PUSH2 0x12A0 JUMPI DUP3 SLOAD DUP3 SSTORE SWAP2 PUSH1 0x1 ADD SWAP2 SWAP1 PUSH1 0x1 ADD SWAP1 PUSH2 0x1310 JUMP JUMPDEST JUMPDEST DUP1 DUP3 GT ISZERO PUSH2 0x12AC JUMPI PUSH1 0x0 DUP2 SSTORE PUSH1 0x1 ADD PUSH2 0x132C JUMP JUMPDEST PUSH1 0x0 DUP3 PUSH1 0x1F DUP4 ADD SLT PUSH2 0x1351 JUMPI PUSH1 0x0 DUP1 REVERT JUMPDEST DUP2 CALLDATALOAD PUSH8 0xFFFFFFFFFFFFFFFF DUP1 DUP3 GT ISZERO PUSH2 0x136C JUMPI PUSH2 0x136C PUSH2 0x1877 JUMP JUMPDEST PUSH1 0x40 MLOAD PUSH1 0x1F DUP4 ADD PUSH1 0x1F NOT SWAP1 DUP2 AND PUSH1 0x3F ADD AND DUP2 ADD SWAP1 DUP3 DUP3 GT DUP2 DUP4 LT OR ISZERO PUSH2 0x1394 JUMPI PUSH2 0x1394 PUSH2 0x1877 JUMP JUMPDEST DUP2 PUSH1 0x40 MSTORE DUP4 DUP2 MSTORE DUP7 PUSH1 0x20 DUP6 DUP9 ADD ADD GT ISZERO PUSH2 0x13AD JUMPI PUSH1 0x0 DUP1 REVERT JUMPDEST DUP4 PUSH1 0x20 DUP8 ADD PUSH1 0x20 DUP4 ADD CALLDATACOPY PUSH1 0x0 PUSH1 0x20 DUP6 DUP4 ADD ADD MSTORE DUP1 SWAP5 POP POP POP POP POP SWAP3 SWAP2 POP POP JUMP JUMPDEST PUSH1 0x0 DUP1 PUSH1 0x0 PUSH1 0x60 DUP5 DUP7 SUB SLT ISZERO PUSH2 0x13E2 JUMPI PUSH1 0x0 DUP1 REVERT JUMPDEST DUP4 CALLDATALOAD PUSH8 0xFFFFFFFFFFFFFFFF DUP2 GT ISZERO PUSH2 0x13F9 JUMPI PUSH1 0x0 DUP1 REVERT JUMPDEST PUSH2 0x1405 DUP7 DUP3 DUP8 ADD PUSH2 0x1340 JUMP JUMPDEST SWAP4 POP POP PUSH1 0x20 DUP5 ADD CALLDATALOAD SWAP2 POP PUSH1 0x40 DUP5 ADD CALLDATALOAD PUSH1 0x1 PUSH1 0x1 PUSH1 0xA0 SHL SUB DUP2 AND DUP2 EQ PUSH2 0x1429 JUMPI PUSH1 0x0 DUP1 REVERT JUMPDEST DUP1 SWAP2 POP POP SWAP3 POP SWAP3 POP SWAP3 JUMP JUMPDEST PUSH1 0x0 PUSH1 0x20 DUP3 DUP5 SUB SLT ISZERO PUSH2 0x1446 JUMPI PUSH1 0x0 DUP1 REVERT JUMPDEST POP CALLDATALOAD SWAP2 SWAP1 POP JUMP JUMPDEST PUSH1 0x0 DUP1 PUSH1 0x40 DUP4 DUP6 SUB SLT ISZERO PUSH2 0x1460 JUMPI PUSH1 0x0 DUP1 REVERT JUMPDEST DUP3 CALLDATALOAD SWAP2 POP PUSH1 0x20 DUP4 ADD CALLDATALOAD DUP1 ISZERO ISZERO DUP2 EQ PUSH2 0x1477 JUMPI PUSH1 0x0 DUP1 REVERT JUMPDEST DUP1 SWAP2 POP POP SWAP3 POP SWAP3 SWAP1 POP JUMP JUMPDEST PUSH1 0x0 DUP1 PUSH1 0x40 DUP4 DUP6 SUB SLT ISZERO PUSH2 0x1495 JUMPI PUSH1 0x0 DUP1 REVERT JUMPDEST DUP3 CALLDATALOAD SWAP2 POP PUSH1 0x20 DUP4 ADD CALLDATALOAD PUSH8 0xFFFFFFFFFFFFFFFF DUP2 GT ISZERO PUSH2 0x14B3 JUMPI PUSH1 0x0 DUP1 REVERT JUMPDEST PUSH2 0x14BF DUP6 DUP3 DUP7 ADD PUSH2 0x1340 JUMP JUMPDEST SWAP2 POP POP SWAP3 POP SWAP3 SWAP1 POP JUMP JUMPDEST PUSH1 0x0 DUP1 PUSH1 0x0 PUSH1 0x60 DUP5 DUP7 SUB SLT ISZERO PUSH2 0x14DE JUMPI PUSH1 0x0 DUP1 REVERT JUMPDEST DUP4 CALLDATALOAD SWAP3 POP PUSH1 0x20 DUP5 ADD CALLDATALOAD SWAP2 POP PUSH1 0x40 DUP5 ADD CALLDATALOAD PUSH8 0xFFFFFFFFFFFFFFFF DUP2 GT ISZERO PUSH2 0x1503 JUMPI PUSH1 0x0 DUP1 REVERT JUMPDEST PUSH2 0x150F DUP7 DUP3 DUP8 ADD PUSH2 0x1340 JUMP JUMPDEST SWAP2 POP POP SWAP3 POP SWAP3 POP SWAP3 JUMP JUMPDEST PUSH1 0x0 DUP2 MLOAD DUP1 DUP5 MSTORE PUSH1 0x20 DUP1 DUP6 ADD SWAP5 POP DUP1 DUP5 ADD PUSH1 0x0 JUMPDEST DUP4 DUP2 LT ISZERO PUSH2 0x1552 JUMPI DUP2 MLOAD PUSH1 0x1 PUSH1 0x1 PUSH1 0xA0 SHL SUB AND DUP8 MSTORE SWAP6 DUP3 ADD SWAP6 SWAP1 DUP3 ADD SWAP1 PUSH1 0x1 ADD PUSH2 0x152D JUMP JUMPDEST POP SWAP5 SWAP6 SWAP5 POP POP POP POP POP JUMP JUMPDEST PUSH1 0x0 DUP3 DUP3 MLOAD DUP1 DUP6 MSTORE PUSH1 0x20 DUP1 DUP7 ADD SWAP6 POP DUP1 DUP3 PUSH1 0x5 SHL DUP5 ADD ADD DUP2 DUP7 ADD PUSH1 0x0 JUMPDEST DUP5 DUP2 LT ISZERO PUSH2 0x15A8 JUMPI PUSH1 0x1F NOT DUP7 DUP5 SUB ADD DUP10 MSTORE PUSH2 0x1596 DUP4 DUP4 MLOAD PUSH2 0x15E5 JUMP JUMPDEST SWAP9 DUP5 ADD SWAP9 SWAP3 POP SWAP1 DUP4 ADD SWAP1 PUSH1 0x1 ADD PUSH2 0x157A JUMP JUMPDEST POP SWAP1 SWAP8 SWAP7 POP POP POP POP POP POP POP JUMP JUMPDEST PUSH1 0x0 DUP2 MLOAD DUP1 DUP5 MSTORE PUSH1 0x20 DUP1 DUP6 ADD SWAP5 POP DUP1 DUP5 ADD PUSH1 0x0 JUMPDEST DUP4 DUP2 LT ISZERO PUSH2 0x1552 JUMPI DUP2 MLOAD DUP8 MSTORE SWAP6 DUP3 ADD SWAP6 SWAP1 DUP3 ADD SWAP1 PUSH1 0x1 ADD PUSH2 0x15C9 JUMP JUMPDEST PUSH1 0x0 DUP2 MLOAD DUP1 DUP5 MSTORE PUSH1 0x0 JUMPDEST DUP2 DUP2 LT ISZERO PUSH2 0x160B JUMPI PUSH1 0x20 DUP2 DUP6 ADD DUP2 ADD MLOAD DUP7 DUP4 ADD DUP3 ADD MSTORE ADD PUSH2 0x15EF JUMP JUMPDEST DUP2 DUP2 GT ISZERO PUSH2 0x161D JUMPI PUSH1 0x0 PUSH1 0x20 DUP4 DUP8 ADD ADD MSTORE JUMPDEST POP PUSH1 0x1F ADD PUSH1 0x1F NOT AND SWAP3 SWAP1 SWAP3 ADD PUSH1 0x20 ADD SWAP3 SWAP2 POP POP JUMP JUMPDEST PUSH1 0x60 DUP2 MSTORE PUSH1 0x0 PUSH2 0x1645 PUSH1 0x60 DUP4 ADD DUP7 PUSH2 0x155D JUMP JUMPDEST DUP3 DUP2 SUB PUSH1 0x20 DUP5 ADD MSTORE PUSH2 0x1657 DUP2 DUP7 PUSH2 0x1519 JUMP JUMPDEST SWAP1 POP DUP3 DUP2 SUB PUSH1 0x40 DUP5 ADD MSTORE PUSH2 0x166B DUP2 DUP6 PUSH2 0x15B5 JUMP JUMPDEST SWAP7 SWAP6 POP POP POP POP POP POP JUMP JUMPDEST PUSH1 0x20 DUP2 MSTORE PUSH1 0x0 PUSH2 0x1688 PUSH1 0x20 DUP4 ADD DUP5 PUSH2 0x15E5 JUMP JUMPDEST SWAP4 SWAP3 POP POP POP JUMP JUMPDEST PUSH1 0xE0 DUP2 MSTORE PUSH1 0x0 PUSH2 0x16A2 PUSH1 0xE0 DUP4 ADD DUP11 PUSH2 0x15E5 JUMP JUMPDEST PUSH1 0x20 DUP4 ADD SWAP9 SWAP1 SWAP9 MSTORE POP PUSH1 0x1 PUSH1 0x1 PUSH1 0xA0 SHL SUB SWAP6 SWAP1 SWAP6 AND PUSH1 0x40 DUP7 ADD MSTORE SWAP3 ISZERO ISZERO PUSH1 0x60 DUP6 ADD MSTORE PUSH1 0x80 DUP5 ADD SWAP2 SWAP1 SWAP2 MSTORE PUSH1 0xA0 DUP4 ADD MSTORE PUSH1 0xC0 SWAP1 SWAP2 ADD MSTORE SWAP2 SWAP1 POP JUMP JUMPDEST DUP8 DUP2 MSTORE PUSH1 0x1 PUSH1 0x1 PUSH1 0xA0 SHL SUB DUP8 AND PUSH1 0x20 DUP3 ADD MSTORE PUSH1 0xE0 PUSH1 0x40 DUP3 ADD DUP2 SWAP1 MSTORE PUSH1 0x0 SWAP1 PUSH2 0x1706 SWAP1 DUP4 ADD DUP9 PUSH2 0x15E5 JUMP JUMPDEST DUP7 PUSH1 0x60 DUP5 ADD MSTORE DUP3 DUP2 SUB PUSH1 0x80 DUP5 ADD MSTORE PUSH2 0x171E DUP2 DUP8 PUSH2 0x15E5 JUMP JUMPDEST PUSH1 0xA0 DUP5 ADD SWAP6 SWAP1 SWAP6 MSTORE POP POP PUSH1 0xC0 ADD MSTORE SWAP6 SWAP5 POP POP POP POP POP JUMP JUMPDEST DUP5 DUP2 MSTORE PUSH1 0x80 PUSH1 0x20 DUP3 ADD MSTORE PUSH1 0x0 PUSH2 0x174E PUSH1 0x80 DUP4 ADD DUP7 PUSH2 0x155D JUMP JUMPDEST DUP3 DUP2 SUB PUSH1 0x40 DUP5 ADD MSTORE PUSH2 0x1760 DUP2 DUP7 PUSH2 0x1519 JUMP JUMPDEST SWAP1 POP DUP3 DUP2 SUB PUSH1 0x60 DUP5 ADD MSTORE PUSH2 0x1774 DUP2 DUP6 PUSH2 0x15B5 JUMP JUMPDEST SWAP8 SWAP7 POP POP POP POP POP POP POP JUMP JUMPDEST PUSH1 0x0 DUP3 NOT DUP3 GT ISZERO PUSH2 0x1792 JUMPI PUSH2 0x1792 PUSH2 0x184B JUMP JUMPDEST POP ADD SWAP1 JUMP JUMPDEST PUSH1 0x0 DUP3 PUSH2 0x17A6 JUMPI PUSH2 0x17A6 PUSH2 0x1861 JUMP JUMPDEST POP DIV SWAP1 JUMP JUMPDEST PUSH1 0x0 DUP2 PUSH1 0x0 NOT DIV DUP4 GT DUP3 ISZERO ISZERO AND ISZERO PUSH2 0x17C5 JUMPI PUSH2 0x17C5 PUSH2 0x184B JUMP JUMPDEST POP MUL SWAP1 JUMP JUMPDEST PUSH1 0x0 DUP3 DUP3 LT ISZERO PUSH2 0x17DC JUMPI PUSH2 0x17DC PUSH2 0x184B JUMP JUMPDEST POP SUB SWAP1 JUMP JUMPDEST PUSH1 0x1 DUP2 DUP2 SHR SWAP1 DUP3 AND DUP1 PUSH2 0x17F5 JUMPI PUSH1 0x7F DUP3 AND SWAP2 POP JUMPDEST PUSH1 0x20 DUP3 LT DUP2 EQ ISZERO PUSH2 0x1816 JUMPI PUSH4 0x4E487B71 PUSH1 0xE0 SHL PUSH1 0x0 MSTORE PUSH1 0x22 PUSH1 0x4 MSTORE PUSH1 0x24 PUSH1 0x0 REVERT JUMPDEST POP SWAP2 SWAP1 POP JUMP JUMPDEST PUSH1 0x0 PUSH1 0x0 NOT DUP3 EQ ISZERO PUSH2 0x1830 JUMPI PUSH2 0x1830 PUSH2 0x184B JUMP JUMPDEST POP PUSH1 0x1 ADD SWAP1 JUMP JUMPDEST PUSH1 0x0 DUP3 PUSH2 0x1846 JUMPI PUSH2 0x1846 PUSH2 0x1861 JUMP JUMPDEST POP MOD SWAP1 JUMP JUMPDEST PUSH4 0x4E487B71 PUSH1 0xE0 SHL PUSH1 0x0 MSTORE PUSH1 0x11 PUSH1 0x4 MSTORE PUSH1 0x24 PUSH1 0x0 REVERT JUMPDEST PUSH4 0x4E487B71 PUSH1 0xE0 SHL PUSH1 0x0 MSTORE PUSH1 0x12 PUSH1 0x4 MSTORE PUSH1 0x24 PUSH1 0x0 REVERT JUMPDEST PUSH4 0x4E487B71 PUSH1 0xE0 SHL PUSH1 0x0 MSTORE PUSH1 0x41 PUSH1 0x4 MSTORE PUSH1 0x24 PUSH1 0x0 REVERT INVALID LOG2 PUSH5 0x6970667358 0x22 SLT KECCAK256 PUSH3 0x91E075 NOT REVERT 0xD6 0xC7 PUSH19 0x66C203589EE584F1F3693DCF29F2D0401A93E9 LOG0 DUP3 0x1E CALLCODE PUSH5 0x736F6C6343 STOP ADDMOD SMOD STOP CALLER LOG2 PUSH5 0x6970667358 0x22 SLT KECCAK256 0xD1 CALL LOG2 0xE0 0xD7 0xF6 0xE3 0xDB EXTCODEHASH SWAP5 SWAP13 0xF8 0xBE PUSH10 0xA45623EFF3780E0DA53E 0x2B 0xD 0xC0 RETURNDATACOPY PUSH8 0x2C6A8864736F6C63 NUMBER STOP ADDMOD SMOD STOP CALLER "},"gasEstimates":{"creation":{"codeDepositCost":"1578800","executionCost":"1652","totalCost":"1580452"},"external":{"createStore(string)":"infinite","deployedStores(uint256)":"4581","getDeployedStores()":"infinite"}},"methodIdentifiers":{"createStore(string)":"d0e04fe3","deployedStores(uint256)":"2d9fd7ae","getDeployedStores()":"d9c509e6"}},"storageLayout":{"storage":[{"astId":4,"contract":"Store.sol:StoreFactory","label":"deployedStores","offset":0,"slot":"0","type":"t_array(t_address)dyn_storage"}],"types":{"t_address":{"encoding":"inplace","label":"address","numberOfBytes":"20"},"t_array(t_address)dyn_storage":{"base":"t_address","encoding":"dynamic_array","label":"address[]","numberOfBytes":"32"}}},"userdoc":{"kind":"user","methods":{},"version":1}}