{"abi":[{"inputs":[{"internalType":"string","name":"name","type":"string"},{"internalType":"address","name":"creator","type":"address"}],"stateMutability":"nonpayable","type":"constructor"},{"inputs":[{"internalType":"address","name":"newManager","type":"address"}],"name":"addManager","outputs":[],"stateMutability":"nonpayable","type":"function"},{"inputs":[],"name":"bestSeller","outputs":[{"internalType":"string","name":"","type":"string"}],"stateMutability":"view","type":"function"},{"inputs":[],"name":"bestSellerQuantity","outputs":[{"internalType":"uint256","name":"","type":"uint256"}],"stateMutability":"view","type":"function"},{"inputs":[{"internalType":"uint256","name":"index","type":"uint256"}],"name":"buy","outputs":[],"stateMutability":"payable","type":"function"},{"inputs":[{"internalType":"string","name":"newName","type":"string"}],"name":"changeStoreName","outputs":[],"stateMutability":"nonpayable","type":"function"},{"inputs":[{"internalType":"string","name":"description","type":"string"},{"internalType":"uint256","name":"price","type":"uint256"},{"internalType":"address","name":"seller","type":"address"},{"internalType":"uint256","name":"inventory","type":"uint256"}],"name":"createProduct","outputs":[],"stateMutability":"nonpayable","type":"function"},{"inputs":[{"internalType":"address","name":"revokedManager","type":"address"}],"name":"deleteManager","outputs":[],"stateMutability":"nonpayable","type":"function"},{"inputs":[],"name":"getProductsCount","outputs":[{"internalType":"uint256","name":"","type":"uint256"}],"stateMutability":"view","type":"function"},{"inputs":[{"internalType":"uint256","name":"index","type":"uint256"}],"name":"getProductsReviews","outputs":[{"internalType":"string[]","name":"","type":"string[]"},{"internalType":"address[]","name":"","type":"address[]"},{"internalType":"uint256[]","name":"","type":"uint256[]"}],"stateMutability":"view","type":"function"},{"inputs":[],"name":"getStoreReviews","outputs":[{"internalType":"string[]","name":"","type":"string[]"},{"internalType":"address[]","name":"","type":"address[]"},{"internalType":"uint256[]","name":"","type":"uint256[]"}],"stateMutability":"view","type":"function"},{"inputs":[],"name":"getStoreSummary","outputs":[{"internalType":"uint256","name":"","type":"uint256"},{"internalType":"string","name":"","type":"string"},{"internalType":"uint256","name":"","type":"uint256"},{"internalType":"string","name":"","type":"string"},{"internalType":"uint256","name":"","type":"uint256"},{"internalType":"uint256","name":"","type":"uint256"}],"stateMutability":"view","type":"function"},{"inputs":[{"internalType":"address","name":"","type":"address"}],"name":"managers","outputs":[{"internalType":"bool","name":"","type":"bool"}],"stateMutability":"view","type":"function"},{"inputs":[],"name":"numProducts","outputs":[{"internalType":"uint256","name":"","type":"uint256"}],"stateMutability":"view","type":"function"},{"inputs":[],"name":"numStoreReviews","outputs":[{"internalType":"uint256","name":"","type":"uint256"}],"stateMutability":"view","type":"function"},{"inputs":[{"internalType":"uint256","name":"index","type":"uint256"},{"internalType":"bool","name":"available","type":"bool"}],"name":"productAvailable","outputs":[],"stateMutability":"nonpayable","type":"function"},{"inputs":[{"internalType":"uint256","name":"","type":"uint256"}],"name":"products","outputs":[{"internalType":"string","name":"description","type":"string"},{"internalType":"uint256","name":"price","type":"uint256"},{"internalType":"address","name":"seller","type":"address"},{"internalType":"bool","name":"available","type":"bool"},{"internalType":"uint256","name":"reviewScore","type":"uint256"},{"internalType":"uint256","name":"totalReviews","type":"uint256"},{"internalType":"uint256","name":"numSoldProduct","type":"uint256"},{"internalType":"uint256","name":"availableInventory","type":"uint256"}],"stateMutability":"view","type":"function"},{"inputs":[{"internalType":"uint256","name":"index","type":"uint256"},{"internalType":"uint256","name":"review","type":"uint256"},{"internalType":"string","name":"opinion","type":"string"}],"name":"reviewProduct","outputs":[{"internalType":"uint256","name":"","type":"uint256"},{"internalType":"string[]","name":"","type":"string[]"},{"internalType":"address[]","name":"","type":"address[]"},{"internalType":"uint256[]","name":"","type":"uint256[]"}],"stateMutability":"nonpayable","type":"function"},{"inputs":[{"internalType":"uint256","name":"review","type":"uint256"},{"internalType":"string","name":"opinion","type":"string"}],"name":"reviewStore","outputs":[{"internalType":"uint256","name":"","type":"uint256"},{"internalType":"string[]","name":"","type":"string[]"},{"internalType":"address[]","name":"","type":"address[]"},{"internalType":"uint256[]","name":"","type":"uint256[]"}],"stateMutability":"nonpayable","type":"function"},{"inputs":[],"name":"storeName","outputs":[{"internalType":"string","name":"","type":"string"}],"stateMutability":"view","type":"function"},{"inputs":[],"name":"storeOwner","outputs":[{"internalType":"address","name":"","type":"address"}],"stateMutability":"view","type":"function"},{"inputs":[{"internalType":"uint256","name":"","type":"uint256"}],"name":"storeRatings","outputs":[{"internalType":"uint256","name":"","type":"uint256"}],"stateMutability":"view","type":"function"},{"inputs":[{"internalType":"uint256","name":"","type":"uint256"}],"name":"storeReviewers","outputs":[{"internalType":"address","name":"","type":"address"}],"stateMutability":"view","type":"function"},{"inputs":[],"name":"storeScore","outputs":[{"internalType":"uint256","name":"","type":"uint256"}],"stateMutability":"view","type":"function"},{"inputs":[{"internalType":"uint256","name":"","type":"uint256"}],"name":"storeWrittenReviews","outputs":[{"internalType":"string","name":"","type":"string"}],"stateMutability":"view","type":"function"},{"inputs":[{"internalType":"uint256","name":"index","type":"uint256"},{"internalType":"uint256","name":"inventory","type":"uint256"}],"name":"updateInventory","outputs":[],"stateMutability":"nonpayable","type":"function"},{"inputs":[{"internalType":"uint256","name":"index","type":"uint256"},{"internalType":"string","name":"newProductName","type":"string"},{"internalType":"address","name":"newSeller","type":"address"},{"internalType":"uint256","name":"newPrice","type":"uint256"},{"internalType":"uint256","name":"inventory","type":"uint256"}],"name":"updateProduct","outputs":[],"stateMutability":"nonpayable","type":"function"},{"inputs":[{"internalType":"uint256","name":"index","type":"uint256"},{"internalType":"string","name":"newProductName","type":"string"}],"name":"updateProductName","outputs":[],"stateMutability":"nonpayable","type":"function"},{"inputs":[{"internalType":"uint256","name":"index","type":"uint256"},{"internalType":"uint256","name":"newPrice","type":"uint256"}],"name":"updateProductPrice","outputs":[],"stateMutability":"nonpayable","type":"function"},{"inputs":[{"internalType":"uint256","name":"index","type":"uint256"},{"internalType":"address","name":"newSeller","type":"address"}],"name":"updateProductSeller","outputs":[],"stateMutability":"nonpayable","type":"function"}],"devdoc":{"kind":"dev","methods":{},"version":1},"evm":{"assembly":"    /* \"Store.sol\":439:7068  contract Store {... */\n  mstore(0x40, 0x80)\n    /* \"Store.sol\":1511:1657  constructor(string memory name, address creator) {... */\n  callvalue\n  dup1\n  iszero\n  tag_1\n  jumpi\n  0x00\n  dup1\n  revert\ntag_1:\n  pop\n  mload(0x40)\n  sub(codesize, bytecodeSize)\n  dup1\n  bytecodeSize\n  dup4\n  codecopy\n  dup2\n  add\n  0x40\n  dup2\n  swap1\n  mstore\n  tag_2\n  swap2\n  tag_3\n  jump\t// in\ntag_2:\n    /* \"Store.sol\":1570:1586  storeName = name */\n  dup2\n  mload\n  tag_6\n  swap1\n    /* \"Store.sol\":1570:1579  storeName */\n  0x04\n  swap1\n    /* \"Store.sol\":1570:1586  storeName = name */\n  0x20\n  dup6\n  add\n  swap1\n  tag_7\n  jump\t// in\ntag_6:\n  pop\n  sub(shl(0xa0, 0x01), 0x01)\n    /* \"Store.sol\":1596:1613  managers[creator] */\n  and\n    /* \"Store.sol\":1596:1604  managers */\n  0x00\n    /* \"Store.sol\":1596:1613  managers[creator] */\n  dup2\n  dup2\n  mstore\n  0x20\n  dup2\n  swap1\n  mstore\n  0x40\n  swap1\n  keccak256\n    /* \"Store.sol\":1596:1620  managers[creator] = true */\n  dup1\n  sload\n  not(0xff)\n  and\n  0x01\n  swap1\n  dup2\n  or\n  swap1\n  swap2\n  sstore\n    /* \"Store.sol\":1630:1650  storeOwner = creator */\n  dup1\n  sload\n  not(sub(shl(0xa0, 0x01), 0x01))\n  and\n  swap1\n  swap2\n  or\n  swap1\n  sstore\n  pop\n    /* \"Store.sol\":439:7068  contract Store {... */\n  jump(tag_20)\ntag_7:\n  dup3\n  dup1\n  sload\n  tag_9\n  swap1\n  tag_10\n  jump\t// in\ntag_9:\n  swap1\n  0x00\n  mstore\n  keccak256(0x00, 0x20)\n  swap1\n  0x1f\n  add\n  0x20\n  swap1\n  div\n  dup2\n  add\n  swap3\n  dup3\n  tag_12\n  jumpi\n  0x00\n  dup6\n  sstore\n  jump(tag_15)\ntag_12:\n  dup3\n  0x1f\n  lt\n  tag_13\n  jumpi\n  dup1\n  mload\n  not(0xff)\n  and\n  dup4\n  dup1\n  add\n  or\n  dup6\n  sstore\n  jump(tag_15)\ntag_13:\n  dup3\n  dup1\n  add\n  0x01\n  add\n  dup6\n  sstore\n  dup3\n  iszero\n  tag_15\n  jumpi\n  swap2\n  dup3\n  add\ntag_14:\n  dup3\n  dup2\n  gt\n  iszero\n  tag_15\n  jumpi\n  dup3\n  mload\n  dup3\n  sstore\n  swap2\n  0x20\n  add\n  swap2\n  swap1\n  0x01\n  add\n  swap1\n  jump(tag_14)\ntag_15:\n  pop\n  tag_16\n  swap3\n  swap2\n  pop\n  tag_17\n  jump\t// in\ntag_16:\n  pop\n  swap1\n  jump\t// out\ntag_17:\ntag_18:\n  dup1\n  dup3\n  gt\n  iszero\n  tag_16\n  jumpi\n  0x00\n  dup2\n  sstore\n  0x01\n  add\n  jump(tag_18)\n    /* \"#utility.yul\":14:191   */\ntag_21:\n    /* \"#utility.yul\":93:106   */\n  dup1\n  mload\n  sub(shl(0xa0, 0x01), 0x01)\n    /* \"#utility.yul\":135:166   */\n  dup2\n  and\n    /* \"#utility.yul\":125:167   */\n  dup2\n  eq\n    /* \"#utility.yul\":115:185   */\n  tag_23\n  jumpi\n    /* \"#utility.yul\":181:182   */\n  0x00\n    /* \"#utility.yul\":178:179   */\n  dup1\n    /* \"#utility.yul\":171:183   */\n  revert\n    /* \"#utility.yul\":115:185   */\ntag_23:\n    /* \"#utility.yul\":14:191   */\n  swap2\n  swap1\n  pop\n  jump\t// out\n    /* \"#utility.yul\":196:1370   */\ntag_3:\n    /* \"#utility.yul\":285:291   */\n  0x00\n    /* \"#utility.yul\":293:299   */\n  dup1\n    /* \"#utility.yul\":346:348   */\n  0x40\n    /* \"#utility.yul\":334:343   */\n  dup4\n    /* \"#utility.yul\":325:332   */\n  dup6\n    /* \"#utility.yul\":321:344   */\n  sub\n    /* \"#utility.yul\":317:349   */\n  slt\n    /* \"#utility.yul\":314:366   */\n  iszero\n  tag_25\n  jumpi\n    /* \"#utility.yul\":362:363   */\n  0x00\n    /* \"#utility.yul\":359:360   */\n  dup1\n    /* \"#utility.yul\":352:364   */\n  revert\n    /* \"#utility.yul\":314:366   */\ntag_25:\n    /* \"#utility.yul\":389:405   */\n  dup3\n  mload\n  0xffffffffffffffff\n    /* \"#utility.yul\":454:468   */\n  dup1\n  dup3\n  gt\n    /* \"#utility.yul\":451:485   */\n  iszero\n  tag_26\n  jumpi\n    /* \"#utility.yul\":481:482   */\n  0x00\n    /* \"#utility.yul\":478:479   */\n  dup1\n    /* \"#utility.yul\":471:483   */\n  revert\n    /* \"#utility.yul\":451:485   */\ntag_26:\n    /* \"#utility.yul\":519:525   */\n  dup2\n    /* \"#utility.yul\":508:517   */\n  dup6\n    /* \"#utility.yul\":504:526   */\n  add\n    /* \"#utility.yul\":494:526   */\n  swap2\n  pop\n    /* \"#utility.yul\":564:571   */\n  dup6\n    /* \"#utility.yul\":557:561   */\n  0x1f\n    /* \"#utility.yul\":553:555   */\n  dup4\n    /* \"#utility.yul\":549:562   */\n  add\n    /* \"#utility.yul\":545:572   */\n  slt\n    /* \"#utility.yul\":535:590   */\n  tag_27\n  jumpi\n    /* \"#utility.yul\":586:587   */\n  0x00\n    /* \"#utility.yul\":583:584   */\n  dup1\n    /* \"#utility.yul\":576:588   */\n  revert\n    /* \"#utility.yul\":535:590   */\ntag_27:\n    /* \"#utility.yul\":615:617   */\n  dup2\n    /* \"#utility.yul\":609:618   */\n  mload\n    /* \"#utility.yul\":637:639   */\n  dup2\n    /* \"#utility.yul\":633:635   */\n  dup2\n    /* \"#utility.yul\":630:640   */\n  gt\n    /* \"#utility.yul\":627:663   */\n  iszero\n  tag_29\n  jumpi\n    /* \"#utility.yul\":643:661   */\n  tag_29\n  tag_30\n  jump\t// in\ntag_29:\n    /* \"#utility.yul\":718:720   */\n  0x40\n    /* \"#utility.yul\":712:721   */\n  mload\n    /* \"#utility.yul\":686:688   */\n  0x1f\n    /* \"#utility.yul\":772:785   */\n  dup3\n  add\n  not(0x1f)\n    /* \"#utility.yul\":768:790   */\n  swap1\n  dup2\n  and\n    /* \"#utility.yul\":792:794   */\n  0x3f\n    /* \"#utility.yul\":764:795   */\n  add\n    /* \"#utility.yul\":760:800   */\n  and\n    /* \"#utility.yul\":748:801   */\n  dup2\n  add\n  swap1\n    /* \"#utility.yul\":816:834   */\n  dup4\n  dup3\n  gt\n    /* \"#utility.yul\":836:858   */\n  dup2\n  dup4\n  lt\n    /* \"#utility.yul\":813:859   */\n  or\n    /* \"#utility.yul\":810:882   */\n  iszero\n  tag_32\n  jumpi\n    /* \"#utility.yul\":862:880   */\n  tag_32\n  tag_30\n  jump\t// in\ntag_32:\n    /* \"#utility.yul\":902:912   */\n  dup2\n    /* \"#utility.yul\":898:900   */\n  0x40\n    /* \"#utility.yul\":891:913   */\n  mstore\n    /* \"#utility.yul\":937:939   */\n  dup3\n    /* \"#utility.yul\":929:935   */\n  dup2\n    /* \"#utility.yul\":922:940   */\n  mstore\n    /* \"#utility.yul\":959:963   */\n  0x20\n    /* \"#utility.yul\":949:963   */\n  swap4\n  pop\n    /* \"#utility.yul\":1000:1007   */\n  dup9\n    /* \"#utility.yul\":995:997   */\n  dup5\n    /* \"#utility.yul\":990:992   */\n  dup5\n    /* \"#utility.yul\":986:988   */\n  dup8\n    /* \"#utility.yul\":982:993   */\n  add\n    /* \"#utility.yul\":978:998   */\n  add\n    /* \"#utility.yul\":975:1008   */\n  gt\n    /* \"#utility.yul\":972:1025   */\n  iszero\n  tag_33\n  jumpi\n    /* \"#utility.yul\":1021:1022   */\n  0x00\n    /* \"#utility.yul\":1018:1019   */\n  dup1\n    /* \"#utility.yul\":1011:1023   */\n  revert\n    /* \"#utility.yul\":972:1025   */\ntag_33:\n    /* \"#utility.yul\":1043:1044   */\n  0x00\n    /* \"#utility.yul\":1034:1044   */\n  swap2\n  pop\n    /* \"#utility.yul\":1053:1182   */\ntag_34:\n    /* \"#utility.yul\":1067:1069   */\n  dup3\n    /* \"#utility.yul\":1064:1065   */\n  dup3\n    /* \"#utility.yul\":1061:1070   */\n  lt\n    /* \"#utility.yul\":1053:1182   */\n  iszero\n  tag_36\n  jumpi\n    /* \"#utility.yul\":1155:1165   */\n  dup5\n  dup3\n  add\n    /* \"#utility.yul\":1151:1170   */\n  dup5\n  add\n    /* \"#utility.yul\":1145:1171   */\n  mload\n    /* \"#utility.yul\":1124:1138   */\n  dup2\n  dup4\n  add\n    /* \"#utility.yul\":1120:1143   */\n  dup6\n  add\n    /* \"#utility.yul\":1113:1172   */\n  mstore\n    /* \"#utility.yul\":1078:1088   */\n  swap1\n  dup4\n  add\n  swap1\n    /* \"#utility.yul\":1053:1182   */\n  jump(tag_34)\ntag_36:\n    /* \"#utility.yul\":1200:1202   */\n  dup3\n    /* \"#utility.yul\":1197:1198   */\n  dup3\n    /* \"#utility.yul\":1194:1203   */\n  gt\n    /* \"#utility.yul\":1191:1271   */\n  iszero\n  tag_37\n  jumpi\n    /* \"#utility.yul\":1259:1260   */\n  0x00\n    /* \"#utility.yul\":1254:1256   */\n  dup5\n    /* \"#utility.yul\":1249:1251   */\n  dup5\n    /* \"#utility.yul\":1241:1247   */\n  dup4\n    /* \"#utility.yul\":1237:1252   */\n  add\n    /* \"#utility.yul\":1233:1257   */\n  add\n    /* \"#utility.yul\":1226:1261   */\n  mstore\n    /* \"#utility.yul\":1191:1271   */\ntag_37:\n    /* \"#utility.yul\":1290:1296   */\n  swap6\n  pop\n    /* \"#utility.yul\":1315:1364   */\n  tag_38\n  swap2\n  pop\n  pop\n    /* \"#utility.yul\":1345:1363   */\n  dup6\n  dup3\n  add\n    /* \"#utility.yul\":1315:1364   */\n  tag_21\n  jump\t// in\ntag_38:\n    /* \"#utility.yul\":1305:1364   */\n  swap3\n  pop\n  pop\n  pop\n    /* \"#utility.yul\":196:1370   */\n  swap3\n  pop\n  swap3\n  swap1\n  pop\n  jump\t// out\n    /* \"#utility.yul\":1375:1755   */\ntag_10:\n    /* \"#utility.yul\":1454:1455   */\n  0x01\n    /* \"#utility.yul\":1450:1462   */\n  dup2\n  dup2\n  shr\n  swap1\n    /* \"#utility.yul\":1497:1509   */\n  dup3\n  and\n  dup1\n    /* \"#utility.yul\":1518:1579   */\n  tag_40\n  jumpi\n    /* \"#utility.yul\":1572:1576   */\n  0x7f\n    /* \"#utility.yul\":1564:1570   */\n  dup3\n    /* \"#utility.yul\":1560:1577   */\n  and\n    /* \"#utility.yul\":1550:1577   */\n  swap2\n  pop\n    /* \"#utility.yul\":1518:1579   */\ntag_40:\n    /* \"#utility.yul\":1625:1627   */\n  0x20\n    /* \"#utility.yul\":1617:1623   */\n  dup3\n    /* \"#utility.yul\":1614:1628   */\n  lt\n    /* \"#utility.yul\":1594:1612   */\n  dup2\n    /* \"#utility.yul\":1591:1629   */\n  eq\n    /* \"#utility.yul\":1588:1749   */\n  iszero\n  tag_41\n  jumpi\n    /* \"#utility.yul\":1671:1681   */\n  0x4e487b71\n    /* \"#utility.yul\":1666:1669   */\n  0xe0\n    /* \"#utility.yul\":1662:1682   */\n  shl\n    /* \"#utility.yul\":1659:1660   */\n  0x00\n    /* \"#utility.yul\":1652:1683   */\n  mstore\n    /* \"#utility.yul\":1706:1710   */\n  0x22\n    /* \"#utility.yul\":1703:1704   */\n  0x04\n    /* \"#utility.yul\":1696:1711   */\n  mstore\n    /* \"#utility.yul\":1734:1738   */\n  0x24\n    /* \"#utility.yul\":1731:1732   */\n  0x00\n    /* \"#utility.yul\":1724:1739   */\n  revert\n    /* \"#utility.yul\":1588:1749   */\ntag_41:\n  pop\n    /* \"#utility.yul\":1375:1755   */\n  swap2\n  swap1\n  pop\n  jump\t// out\n    /* \"#utility.yul\":1760:1887   */\ntag_30:\n    /* \"#utility.yul\":1821:1831   */\n  0x4e487b71\n    /* \"#utility.yul\":1816:1819   */\n  0xe0\n    /* \"#utility.yul\":1812:1832   */\n  shl\n    /* \"#utility.yul\":1809:1810   */\n  0x00\n    /* \"#utility.yul\":1802:1833   */\n  mstore\n    /* \"#utility.yul\":1852:1856   */\n  0x41\n    /* \"#utility.yul\":1849:1850   */\n  0x04\n    /* \"#utility.yul\":1842:1857   */\n  mstore\n    /* \"#utility.yul\":1876:1880   */\n  0x24\n    /* \"#utility.yul\":1873:1874   */\n  0x00\n    /* \"#utility.yul\":1866:1881   */\n  revert\n    /* \"#utility.yul\":1760:1887   */\ntag_20:\n    /* \"Store.sol\":439:7068  contract Store {... */\n  dataSize(sub_0)\n  dup1\n  dataOffset(sub_0)\n  0x00\n  codecopy\n  0x00\n  return\nstop\n\nsub_0: assembly {\n        /* \"Store.sol\":439:7068  contract Store {... */\n      mstore(0x40, 0x80)\n      jumpi(tag_1, lt(calldatasize, 0x04))\n      shr(0xe0, calldataload(0x00))\n      dup1\n      0x818fb3e0\n      gt\n      tag_31\n      jumpi\n      dup1\n      0xb365221d\n      gt\n      tag_32\n      jumpi\n      dup1\n      0xd793a0e6\n      gt\n      tag_33\n      jumpi\n      dup1\n      0xd793a0e6\n      eq\n      tag_27\n      jumpi\n      dup1\n      0xd96a094a\n      eq\n      tag_28\n      jumpi\n      dup1\n      0xe2090271\n      eq\n      tag_29\n      jumpi\n      dup1\n      0xfdff9b4d\n      eq\n      tag_30\n      jumpi\n      0x00\n      dup1\n      revert\n    tag_33:\n      dup1\n      0xb365221d\n      eq\n      tag_23\n      jumpi\n      dup1\n      0xc577d23c\n      eq\n      tag_24\n      jumpi\n      dup1\n      0xc6211a56\n      eq\n      tag_25\n      jumpi\n      dup1\n      0xd69d5094\n      eq\n      tag_26\n      jumpi\n      0x00\n      dup1\n      revert\n    tag_32:\n      dup1\n      0x96799760\n      gt\n      tag_34\n      jumpi\n      dup1\n      0x96799760\n      eq\n      tag_19\n      jumpi\n      dup1\n      0x9c3bddb2\n      eq\n      tag_20\n      jumpi\n      dup1\n      0xac964f21\n      eq\n      tag_21\n      jumpi\n      dup1\n      0xb1b53c38\n      eq\n      tag_22\n      jumpi\n      0x00\n      dup1\n      revert\n    tag_34:\n      dup1\n      0x818fb3e0\n      eq\n      tag_16\n      jumpi\n      dup1\n      0x8af213e2\n      eq\n      tag_17\n      jumpi\n      dup1\n      0x8d8ef2f0\n      eq\n      tag_18\n      jumpi\n      0x00\n      dup1\n      revert\n    tag_31:\n      dup1\n      0x2d06177a\n      gt\n      tag_35\n      jumpi\n      dup1\n      0x521936e6\n      gt\n      tag_36\n      jumpi\n      dup1\n      0x521936e6\n      eq\n      tag_12\n      jumpi\n      dup1\n      0x522547a8\n      eq\n      tag_13\n      jumpi\n      dup1\n      0x5786fd40\n      eq\n      tag_14\n      jumpi\n      dup1\n      0x7acc0b20\n      eq\n      tag_15\n      jumpi\n      0x00\n      dup1\n      revert\n    tag_36:\n      dup1\n      0x2d06177a\n      eq\n      tag_9\n      jumpi\n      dup1\n      0x4a02990c\n      eq\n      tag_10\n      jumpi\n      dup1\n      0x4a64090b\n      eq\n      tag_11\n      jumpi\n      0x00\n      dup1\n      revert\n    tag_35:\n      dup1\n      0x0a366cc8\n      gt\n      tag_37\n      jumpi\n      dup1\n      0x0a366cc8\n      eq\n      tag_5\n      jumpi\n      dup1\n      0x20023f30\n      eq\n      tag_6\n      jumpi\n      dup1\n      0x26af03e2\n      eq\n      tag_7\n      jumpi\n      dup1\n      0x2c0d259d\n      eq\n      tag_8\n      jumpi\n      0x00\n      dup1\n      revert\n    tag_37:\n      dup1\n      0xf73d4c\n      eq\n      tag_2\n      jumpi\n      dup1\n      0x06acdcfe\n      eq\n      tag_3\n      jumpi\n      dup1\n      0x07aa0bc4\n      eq\n      tag_4\n      jumpi\n    tag_1:\n      0x00\n      dup1\n      revert\n        /* \"Store.sol\":3101:4011  function reviewProduct(uint index, uint review, string memory opinion) public returns (uint, string[] memory, address[] memory, uint[] memory) {... */\n    tag_2:\n      callvalue\n      dup1\n      iszero\n      tag_38\n      jumpi\n      0x00\n      dup1\n      revert\n    tag_38:\n      pop\n      tag_39\n      tag_40\n      calldatasize\n      0x04\n      tag_41\n      jump\t// in\n    tag_40:\n      tag_42\n      jump\t// in\n    tag_39:\n      mload(0x40)\n      tag_43\n      swap5\n      swap4\n      swap3\n      swap2\n      swap1\n      tag_44\n      jump\t// in\n    tag_43:\n      mload(0x40)\n      dup1\n      swap2\n      sub\n      swap1\n      return\n        /* \"Store.sol\":1117:1144  uint public numStoreReviews */\n    tag_3:\n      callvalue\n      dup1\n      iszero\n      tag_45\n      jumpi\n      0x00\n      dup1\n      revert\n    tag_45:\n      pop\n      tag_46\n      sload(0x06)\n      dup2\n      jump\n    tag_46:\n      mload(0x40)\n        /* \"#utility.yul\":8708:8733   */\n      swap1\n      dup2\n      mstore\n        /* \"#utility.yul\":8696:8698   */\n      0x20\n        /* \"#utility.yul\":8681:8699   */\n      add\n        /* \"Store.sol\":1117:1144  uint public numStoreReviews */\n      tag_43\n        /* \"#utility.yul\":8562:8739   */\n      jump\n        /* \"Store.sol\":1376:1406  uint public bestSellerQuantity */\n    tag_4:\n      callvalue\n      dup1\n      iszero\n      tag_50\n      jumpi\n      0x00\n      dup1\n      revert\n    tag_50:\n      pop\n      tag_46\n      sload(0x0d)\n      dup2\n      jump\n        /* \"Store.sol\":6567:6786  function getProductsReviews(uint index) public view returns (string[] memory, address[] memory, uint[] memory) {... */\n    tag_5:\n      callvalue\n      dup1\n      iszero\n      tag_54\n      jumpi\n      0x00\n      dup1\n      revert\n    tag_54:\n      pop\n      tag_55\n      tag_56\n      calldatasize\n      0x04\n      tag_57\n      jump\t// in\n    tag_56:\n      tag_58\n      jump\t// in\n    tag_55:\n      mload(0x40)\n      tag_43\n      swap4\n      swap3\n      swap2\n      swap1\n      tag_60\n      jump\t// in\n        /* \"Store.sol\":5874:6210  function updateProduct(uint index, string memory newProductName, address newSeller, uint newPrice, uint inventory) public restricted {... */\n    tag_6:\n      callvalue\n      dup1\n      iszero\n      tag_61\n      jumpi\n      0x00\n      dup1\n      revert\n    tag_61:\n      pop\n      tag_62\n      tag_63\n      calldatasize\n      0x04\n      tag_64\n      jump\t// in\n    tag_63:\n      tag_65\n      jump\t// in\n    tag_62:\n      stop\n        /* \"Store.sol\":5453:5601  function updateProductName(uint index, string memory newProductName) public restricted {... */\n    tag_7:\n      callvalue\n      dup1\n      iszero\n      tag_66\n      jumpi\n      0x00\n      dup1\n      revert\n    tag_66:\n      pop\n      tag_62\n      tag_68\n      calldatasize\n      0x04\n      tag_69\n      jump\t// in\n    tag_68:\n      tag_70\n      jump\t// in\n        /* \"Store.sol\":4021:4790  function reviewStore(uint review, string memory opinion) public returns (uint, string[] memory, address[] memory, uint[] memory) {... */\n    tag_8:\n      callvalue\n      dup1\n      iszero\n      tag_71\n      jumpi\n      0x00\n      dup1\n      revert\n    tag_71:\n      pop\n      tag_39\n      tag_73\n      calldatasize\n      0x04\n      tag_69\n      jump\t// in\n    tag_73:\n      tag_74\n      jump\t// in\n        /* \"Store.sol\":4800:4902  function addManager(address newManager) public restricted {... */\n    tag_9:\n      callvalue\n      dup1\n      iszero\n      tag_76\n      jumpi\n      0x00\n      dup1\n      revert\n    tag_76:\n      pop\n      tag_62\n      tag_78\n      calldatasize\n      0x04\n      tag_79\n      jump\t// in\n    tag_78:\n      tag_80\n      jump\t// in\n        /* \"Store.sol\":5079:5299  function productAvailable(uint index, bool available) public restricted {... */\n    tag_10:\n      callvalue\n      dup1\n      iszero\n      tag_81\n      jumpi\n      0x00\n      dup1\n      revert\n    tag_81:\n      pop\n      tag_62\n      tag_83\n      calldatasize\n      0x04\n      tag_84\n      jump\t// in\n    tag_83:\n      tag_85\n      jump\t// in\n        /* \"Store.sol\":1346:1370  string public bestSeller */\n    tag_11:\n      callvalue\n      dup1\n      iszero\n      tag_86\n      jumpi\n      0x00\n      dup1\n      revert\n    tag_86:\n      pop\n      tag_87\n      tag_88\n      jump\t// in\n    tag_87:\n      mload(0x40)\n      tag_43\n      swap2\n      swap1\n      tag_90\n      jump\t// in\n        /* \"Store.sol\":1059:1082  string public storeName */\n    tag_12:\n      callvalue\n      dup1\n      iszero\n      tag_91\n      jumpi\n      0x00\n      dup1\n      revert\n    tag_91:\n      pop\n      tag_87\n      tag_93\n      jump\t// in\n        /* \"Store.sol\":5309:5443  function updateInventory(uint index, uint inventory) public restricted {... */\n    tag_13:\n      callvalue\n      dup1\n      iszero\n      tag_95\n      jumpi\n      0x00\n      dup1\n      revert\n    tag_95:\n      pop\n      tag_62\n      tag_97\n      calldatasize\n      0x04\n      tag_98\n      jump\t// in\n    tag_97:\n      tag_99\n      jump\t// in\n        /* \"Store.sol\":6975:7066  function getProductsCount()  public view returns (uint) {... */\n    tag_14:\n      callvalue\n      dup1\n      iszero\n      tag_100\n      jumpi\n      0x00\n      dup1\n      revert\n    tag_100:\n      pop\n        /* \"Store.sol\":7048:7059  numProducts */\n      sload(0x02)\n        /* \"Store.sol\":6975:7066  function getProductsCount()  public view returns (uint) {... */\n      jump(tag_46)\n        /* \"Store.sol\":1012:1053  mapping (uint => Product) public products */\n    tag_15:\n      callvalue\n      dup1\n      iszero\n      tag_104\n      jumpi\n      0x00\n      dup1\n      revert\n    tag_104:\n      pop\n      tag_105\n      tag_106\n      calldatasize\n      0x04\n      tag_57\n      jump\t// in\n    tag_106:\n      tag_107\n      jump\t// in\n    tag_105:\n      mload(0x40)\n      tag_43\n      swap9\n      swap8\n      swap7\n      swap6\n      swap5\n      swap4\n      swap3\n      swap2\n      swap1\n      tag_109\n      jump\t// in\n        /* \"Store.sol\":952:977  address public storeOwner */\n    tag_16:\n      callvalue\n      dup1\n      iszero\n      tag_110\n      jumpi\n      0x00\n      dup1\n      revert\n    tag_110:\n      pop\n      sload(0x01)\n      tag_111\n      swap1\n      sub(shl(0xa0, 0x01), 0x01)\n      and\n      dup2\n      jump\n    tag_111:\n      mload(0x40)\n      sub(shl(0xa0, 0x01), 0x01)\n        /* \"#utility.yul\":6624:6656   */\n      swap2\n      swap1\n      swap2\n      and\n        /* \"#utility.yul\":6606:6657   */\n      dup2\n      mstore\n        /* \"#utility.yul\":6594:6596   */\n      0x20\n        /* \"#utility.yul\":6579:6597   */\n      add\n        /* \"Store.sol\":952:977  address public storeOwner */\n      tag_43\n        /* \"#utility.yul\":6460:6663   */\n      jump\n        /* \"Store.sol\":1191:1222  address[] public storeReviewers */\n    tag_17:\n      callvalue\n      dup1\n      iszero\n      tag_115\n      jumpi\n      0x00\n      dup1\n      revert\n    tag_115:\n      pop\n      tag_111\n      tag_117\n      calldatasize\n      0x04\n      tag_57\n      jump\t// in\n    tag_117:\n      tag_118\n      jump\t// in\n        /* \"Store.sol\":1088:1111  uint public  storeScore */\n    tag_18:\n      callvalue\n      dup1\n      iszero\n      tag_120\n      jumpi\n      0x00\n      dup1\n      revert\n    tag_120:\n      pop\n      tag_46\n      sload(0x05)\n      dup2\n      jump\n        /* \"Store.sol\":4908:5069  function deleteManager(address revokedManager) public restricted {... */\n    tag_19:\n      callvalue\n      dup1\n      iszero\n      tag_124\n      jumpi\n      0x00\n      dup1\n      revert\n    tag_124:\n      pop\n      tag_62\n      tag_126\n      calldatasize\n      0x04\n      tag_79\n      jump\t// in\n    tag_126:\n      tag_127\n      jump\t// in\n        /* \"Store.sol\":5746:5868  function updateProductPrice(uint index, uint newPrice) public restricted {... */\n    tag_20:\n      callvalue\n      dup1\n      iszero\n      tag_128\n      jumpi\n      0x00\n      dup1\n      revert\n    tag_128:\n      pop\n      tag_62\n      tag_130\n      calldatasize\n      0x04\n      tag_98\n      jump\t// in\n    tag_130:\n      tag_131\n      jump\t// in\n        /* \"Store.sol\":983:1006  uint public numProducts */\n    tag_21:\n      callvalue\n      dup1\n      iszero\n      tag_132\n      jumpi\n      0x00\n      dup1\n      revert\n    tag_132:\n      pop\n      tag_46\n      sload(0x02)\n      dup2\n      jump\n        /* \"Store.sol\":1150:1185  string[] public storeWrittenReviews */\n    tag_22:\n      callvalue\n      dup1\n      iszero\n      tag_136\n      jumpi\n      0x00\n      dup1\n      revert\n    tag_136:\n      pop\n      tag_87\n      tag_138\n      calldatasize\n      0x04\n      tag_57\n      jump\t// in\n    tag_138:\n      tag_139\n      jump\t// in\n        /* \"Store.sol\":1228:1254  uint[] public storeRatings */\n    tag_23:\n      callvalue\n      dup1\n      iszero\n      tag_141\n      jumpi\n      0x00\n      dup1\n      revert\n    tag_141:\n      pop\n      tag_46\n      tag_143\n      calldatasize\n      0x04\n      tag_57\n      jump\t// in\n    tag_143:\n      tag_144\n      jump\t// in\n        /* \"Store.sol\":6796:6969  function getStoreReviews() public view returns (string[] memory, address[] memory, uint[] memory) {... */\n    tag_24:\n      callvalue\n      dup1\n      iszero\n      tag_146\n      jumpi\n      0x00\n      dup1\n      revert\n    tag_146:\n      pop\n      tag_55\n      tag_148\n      jump\t// in\n        /* \"Store.sol\":6216:6318  function changeStoreName(string memory newName) public restricted {... */\n    tag_25:\n      callvalue\n      dup1\n      iszero\n      tag_150\n      jumpi\n      0x00\n      dup1\n      revert\n    tag_150:\n      pop\n      tag_62\n      tag_152\n      calldatasize\n      0x04\n      tag_153\n      jump\t// in\n    tag_152:\n      tag_154\n      jump\t// in\n        /* \"Store.sol\":6328:6557  function getStoreSummary() public view returns (... */\n    tag_26:\n      callvalue\n      dup1\n      iszero\n      tag_155\n      jumpi\n      0x00\n      dup1\n      revert\n    tag_155:\n      pop\n      tag_156\n      tag_157\n      jump\t// in\n    tag_156:\n      mload(0x40)\n      tag_43\n      swap7\n      swap6\n      swap5\n      swap4\n      swap3\n      swap2\n      swap1\n      tag_159\n      jump\t// in\n        /* \"Store.sol\":2300:3091  function createProduct(string memory description, uint price, address seller, uint inventory) public restricted {... */\n    tag_27:\n      callvalue\n      dup1\n      iszero\n      tag_160\n      jumpi\n      0x00\n      dup1\n      revert\n    tag_160:\n      pop\n      tag_62\n      tag_162\n      calldatasize\n      0x04\n      tag_163\n      jump\t// in\n    tag_162:\n      tag_164\n      jump\t// in\n        /* \"Store.sol\":1667:2290  function buy(uint index) public payable {... */\n    tag_28:\n      tag_62\n      tag_166\n      calldatasize\n      0x04\n      tag_57\n      jump\t// in\n    tag_166:\n      tag_167\n      jump\t// in\n        /* \"Store.sol\":5611:5740  function updateProductSeller(uint index, address newSeller) public restricted {... */\n    tag_29:\n      callvalue\n      dup1\n      iszero\n      tag_168\n      jumpi\n      0x00\n      dup1\n      revert\n    tag_168:\n      pop\n      tag_62\n      tag_170\n      calldatasize\n      0x04\n      tag_171\n      jump\t// in\n    tag_170:\n      tag_172\n      jump\t// in\n        /* \"Store.sol\":905:946  mapping (address => bool) public managers */\n    tag_30:\n      callvalue\n      dup1\n      iszero\n      tag_173\n      jumpi\n      0x00\n      dup1\n      revert\n    tag_173:\n      pop\n      tag_174\n      tag_175\n      calldatasize\n      0x04\n      tag_79\n      jump\t// in\n    tag_175:\n      0x00\n      0x20\n      dup2\n      swap1\n      mstore\n      swap1\n      dup2\n      mstore\n      0x40\n      swap1\n      keccak256\n      sload\n      0xff\n      and\n      dup2\n      jump\n    tag_174:\n      mload(0x40)\n        /* \"#utility.yul\":7526:7540   */\n      swap1\n      iszero\n        /* \"#utility.yul\":7519:7541   */\n      iszero\n        /* \"#utility.yul\":7501:7542   */\n      dup2\n      mstore\n        /* \"#utility.yul\":7489:7491   */\n      0x20\n        /* \"#utility.yul\":7474:7492   */\n      add\n        /* \"Store.sol\":905:946  mapping (address => bool) public managers */\n      tag_43\n        /* \"#utility.yul\":7361:7548   */\n      jump\n        /* \"Store.sol\":3101:4011  function reviewProduct(uint index, uint review, string memory opinion) public returns (uint, string[] memory, address[] memory, uint[] memory) {... */\n    tag_42:\n        /* \"Store.sol\":3188:3192  uint */\n      0x00\n        /* \"Store.sol\":3280:3295  products[index] */\n      dup4\n      dup2\n      mstore\n        /* \"Store.sol\":3280:3288  products */\n      0x03\n        /* \"Store.sol\":3280:3295  products[index] */\n      0x20\n      swap1\n      dup2\n      mstore\n      0x40\n      dup1\n      dup4\n      keccak256\n        /* \"Store.sol\":3337:3347  msg.sender */\n      caller\n        /* \"Store.sol\":3322:3348  product.buyers[msg.sender] */\n      dup5\n      mstore\n        /* \"Store.sol\":3322:3336  product.buyers */\n      0x0a\n      dup2\n      add\n        /* \"Store.sol\":3322:3348  product.buyers[msg.sender] */\n      swap1\n      swap3\n      mstore\n      dup3\n      keccak256\n      sload\n        /* \"Store.sol\":3194:3209  string[] memory */\n      0x60\n      swap2\n      dup3\n      swap2\n      dup3\n      swap2\n        /* \"Store.sol\":3280:3295  products[index] */\n      swap1\n        /* \"Store.sol\":3322:3348  product.buyers[msg.sender] */\n      0xff\n      and\n        /* \"Store.sol\":3314:3349  require(product.buyers[msg.sender]) */\n      tag_180\n      jumpi\n      0x00\n      dup1\n      revert\n    tag_180:\n        /* \"Store.sol\":3422:3432  msg.sender */\n      caller\n        /* \"Store.sol\":3406:3433  product.reviews[msg.sender] */\n      0x00\n      swap1\n      dup2\n      mstore\n        /* \"Store.sol\":3406:3421  product.reviews */\n      0x0b\n      dup3\n      add\n        /* \"Store.sol\":3406:3433  product.reviews[msg.sender] */\n      0x20\n      mstore\n      0x40\n      swap1\n      keccak256\n      sload\n      0xff\n      and\n        /* \"Store.sol\":3405:3433  !product.reviews[msg.sender] */\n      iszero\n        /* \"Store.sol\":3397:3434  require(!product.reviews[msg.sender]) */\n      tag_181\n      jumpi\n      0x00\n      dup1\n      revert\n    tag_181:\n        /* \"Store.sol\":3514:3515  5 */\n      0x05\n        /* \"Store.sol\":3505:3511  review */\n      dup8\n        /* \"Store.sol\":3505:3515  review <=5 */\n      gt\n      iszero\n        /* \"Store.sol\":3505:3529  review <=5 && review > 0 */\n      dup1\n      iszero\n      tag_182\n      jumpi\n      pop\n        /* \"Store.sol\":3528:3529  0 */\n      0x00\n        /* \"Store.sol\":3519:3525  review */\n      dup8\n        /* \"Store.sol\":3519:3529  review > 0 */\n      gt\n        /* \"Store.sol\":3505:3529  review <=5 && review > 0 */\n    tag_182:\n        /* \"Store.sol\":3505:3550  review <=5 && review > 0 && (review % 1 == 0) */\n      dup1\n      iszero\n      tag_183\n      jumpi\n      pop\n        /* \"Store.sol\":3534:3544  review % 1 */\n      tag_184\n        /* \"Store.sol\":3543:3544  1 */\n      0x01\n        /* \"Store.sol\":3534:3540  review */\n      dup9\n        /* \"Store.sol\":3534:3544  review % 1 */\n      tag_185\n      jump\t// in\n    tag_184:\n        /* \"Store.sol\":3534:3549  review % 1 == 0 */\n      iszero\n        /* \"Store.sol\":3505:3550  review <=5 && review > 0 && (review % 1 == 0) */\n    tag_183:\n        /* \"Store.sol\":3497:3551  require(review <=5 && review > 0 && (review % 1 == 0)) */\n      tag_186\n      jumpi\n      0x00\n      dup1\n      revert\n    tag_186:\n        /* \"Store.sol\":3577:3587  msg.sender */\n      caller\n        /* \"Store.sol\":3561:3588  product.reviews[msg.sender] */\n      0x00\n      swap1\n      dup2\n      mstore\n        /* \"Store.sol\":3561:3576  product.reviews */\n      0x0b\n      dup3\n      add\n        /* \"Store.sol\":3561:3588  product.reviews[msg.sender] */\n      0x20\n      mstore\n      0x40\n      dup2\n      keccak256\n        /* \"Store.sol\":3561:3595  product.reviews[msg.sender] = true */\n      dup1\n      sload\n      not(0xff)\n      and\n        /* \"Store.sol\":3591:3595  true */\n      0x01\n        /* \"Store.sol\":3561:3595  product.reviews[msg.sender] = true */\n      or\n      swap1\n      sstore\n        /* \"Store.sol\":3644:3664  product.totalReviews */\n      0x04\n      dup3\n      add\n        /* \"Store.sol\":3644:3666  product.totalReviews++ */\n      dup1\n      sload\n      swap2\n      tag_187\n      dup4\n      tag_188\n      jump\t// in\n    tag_187:\n      swap1\n      swap2\n      sstore\n      pop\n      pop\n        /* \"Store.sol\":3753:3773  product.totalReviews */\n      0x04\n      dup2\n      add\n      sload\n        /* \"Store.sol\":3753:3777  product.totalReviews + 1 */\n      tag_189\n      swap1\n        /* \"Store.sol\":3776:3777  1 */\n      0x01\n        /* \"Store.sol\":3753:3777  product.totalReviews + 1 */\n      tag_190\n      jump\t// in\n    tag_189:\n        /* \"Store.sol\":3742:3748  review */\n      dup8\n        /* \"Store.sol\":3719:3726  product */\n      dup3\n        /* \"Store.sol\":3719:3739  product.totalReviews */\n      0x04\n      add\n      sload\n        /* \"Store.sol\":3699:3706  product */\n      dup4\n        /* \"Store.sol\":3699:3718  product.reviewScore */\n      0x03\n      add\n      sload\n        /* \"Store.sol\":3699:3739  product.reviewScore*product.totalReviews */\n      tag_191\n      swap2\n      swap1\n      tag_192\n      jump\t// in\n    tag_191:\n        /* \"Store.sol\":3699:3748  product.reviewScore*product.totalReviews + review */\n      tag_193\n      swap2\n      swap1\n      tag_190\n      jump\t// in\n    tag_193:\n        /* \"Store.sol\":3698:3778  (product.reviewScore*product.totalReviews + review) / (product.totalReviews + 1) */\n      tag_194\n      swap2\n      swap1\n      tag_195\n      jump\t// in\n    tag_194:\n        /* \"Store.sol\":3676:3695  product.reviewScore */\n      0x03\n      dup3\n      add\n        /* \"Store.sol\":3676:3778  product.reviewScore = (product.reviewScore*product.totalReviews + review) / (product.totalReviews + 1) */\n      sstore\n        /* \"Store.sol\":3788:3810  product.writtenReviews */\n      0x05\n      dup2\n      add\n        /* \"Store.sol\":3788:3824  product.writtenReviews.push(opinion) */\n      dup1\n      sload\n      0x01\n      dup2\n      add\n      dup3\n      sstore\n      0x00\n      swap2\n      dup3\n      mstore\n      0x20\n      swap2\n      dup3\n      swap1\n      keccak256\n      dup9\n      mload\n      tag_197\n      swap4\n      swap2\n      swap1\n      swap3\n      add\n      swap2\n      swap1\n      dup10\n      add\n      swap1\n      tag_198\n      jump\t// in\n    tag_197:\n      pop\n        /* \"Store.sol\":3834:3851  product.reviewers */\n      0x06\n      dup2\n      add\n        /* \"Store.sol\":3834:3868  product.reviewers.push(msg.sender) */\n      dup1\n      sload\n      0x01\n      dup1\n      dup3\n      add\n      dup4\n      sstore\n      0x00\n      dup4\n      dup2\n      mstore\n      0x20\n      dup1\n      dup3\n      keccak256\n      swap1\n      swap4\n      add\n      dup1\n      sload\n      not(sub(shl(0xa0, 0x01), 0x01))\n      and\n        /* \"Store.sol\":3857:3867  msg.sender */\n      caller\n        /* \"Store.sol\":3834:3868  product.reviewers.push(msg.sender) */\n      or\n      swap1\n      sstore\n        /* \"Store.sol\":3878:3893  product.ratings */\n      0x07\n      dup6\n      add\n        /* \"Store.sol\":3878:3906  product.ratings.push(review) */\n      dup1\n      sload\n      swap3\n      dup4\n      add\n      dup2\n      sstore\n      dup1\n      dup3\n      mstore\n      dup4\n      dup3\n      keccak256\n      swap1\n      swap3\n      add\n      dup12\n      swap1\n      sstore\n        /* \"Store.sol\":3924:3943  product.reviewScore */\n      0x03\n      dup6\n      add\n      sload\n        /* \"Store.sol\":3945:3967  product.writtenReviews */\n      0x05\n      dup7\n      add\n        /* \"Store.sol\":3916:4004  return (product.reviewScore, product.writtenReviews, product.reviewers, product.ratings) */\n      dup1\n      sload\n      0x40\n      dup1\n      mload\n      dup3\n      dup9\n      mul\n      dup2\n      add\n      dup9\n      add\n      swap1\n      swap2\n      mstore\n      dup2\n      dup2\n      mstore\n        /* \"Store.sol\":3924:3943  product.reviewScore */\n      swap3\n      swap7\n        /* \"Store.sol\":3945:3967  product.writtenReviews */\n      swap2\n      swap6\n        /* \"Store.sol\":3834:3851  product.reviewers */\n      swap2\n      swap5\n        /* \"Store.sol\":3878:3893  product.ratings */\n      swap4\n        /* \"Store.sol\":3945:3967  product.writtenReviews */\n      dup7\n      swap3\n        /* \"Store.sol\":3916:4004  return (product.reviewScore, product.writtenReviews, product.reviewers, product.ratings) */\n      dup5\n      add\n    tag_201:\n      dup3\n      dup3\n      lt\n      iszero\n      tag_202\n      jumpi\n      dup4\n      dup3\n      swap1\n      0x00\n      mstore\n      keccak256(0x00, 0x20)\n      add\n      dup1\n      sload\n      tag_204\n      swap1\n      tag_205\n      jump\t// in\n    tag_204:\n      dup1\n      0x1f\n      add\n      0x20\n      dup1\n      swap2\n      div\n      mul\n      0x20\n      add\n      mload(0x40)\n      swap1\n      dup2\n      add\n      0x40\n      mstore\n      dup1\n      swap3\n      swap2\n      swap1\n      dup2\n      dup2\n      mstore\n      0x20\n      add\n      dup3\n      dup1\n      sload\n      tag_206\n      swap1\n      tag_205\n      jump\t// in\n    tag_206:\n      dup1\n      iszero\n      tag_207\n      jumpi\n      dup1\n      0x1f\n      lt\n      tag_208\n      jumpi\n      0x0100\n      dup1\n      dup4\n      sload\n      div\n      mul\n      dup4\n      mstore\n      swap2\n      0x20\n      add\n      swap2\n      jump(tag_207)\n    tag_208:\n      dup3\n      add\n      swap2\n      swap1\n      0x00\n      mstore\n      keccak256(0x00, 0x20)\n      swap1\n    tag_209:\n      dup2\n      sload\n      dup2\n      mstore\n      swap1\n      0x01\n      add\n      swap1\n      0x20\n      add\n      dup1\n      dup4\n      gt\n      tag_209\n      jumpi\n      dup3\n      swap1\n      sub\n      0x1f\n      and\n      dup3\n      add\n      swap2\n    tag_207:\n      pop\n      pop\n      pop\n      pop\n      pop\n      dup2\n      mstore\n      0x20\n      add\n      swap1\n      0x01\n      add\n      swap1\n      jump(tag_201)\n    tag_202:\n      pop\n      pop\n      pop\n      pop\n      swap3\n      pop\n      dup2\n      dup1\n      sload\n      dup1\n      0x20\n      mul\n      0x20\n      add\n      mload(0x40)\n      swap1\n      dup2\n      add\n      0x40\n      mstore\n      dup1\n      swap3\n      swap2\n      swap1\n      dup2\n      dup2\n      mstore\n      0x20\n      add\n      dup3\n      dup1\n      sload\n      dup1\n      iszero\n      tag_210\n      jumpi\n      0x20\n      mul\n      dup3\n      add\n      swap2\n      swap1\n      0x00\n      mstore\n      keccak256(0x00, 0x20)\n      swap1\n    tag_211:\n      dup2\n      sload\n      sub(shl(0xa0, 0x01), 0x01)\n      and\n      dup2\n      mstore\n      0x01\n      swap1\n      swap2\n      add\n      swap1\n      0x20\n      add\n      dup1\n      dup4\n      gt\n      tag_211\n      jumpi\n    tag_210:\n      pop\n      pop\n      pop\n      pop\n      pop\n      swap2\n      pop\n      dup1\n      dup1\n      sload\n      dup1\n      0x20\n      mul\n      0x20\n      add\n      mload(0x40)\n      swap1\n      dup2\n      add\n      0x40\n      mstore\n      dup1\n      swap3\n      swap2\n      swap1\n      dup2\n      dup2\n      mstore\n      0x20\n      add\n      dup3\n      dup1\n      sload\n      dup1\n      iszero\n      tag_212\n      jumpi\n      0x20\n      mul\n      dup3\n      add\n      swap2\n      swap1\n      0x00\n      mstore\n      keccak256(0x00, 0x20)\n      swap1\n    tag_213:\n      dup2\n      sload\n      dup2\n      mstore\n      0x20\n      add\n      swap1\n      0x01\n      add\n      swap1\n      dup1\n      dup4\n      gt\n      tag_213\n      jumpi\n    tag_212:\n      pop\n      pop\n      pop\n      pop\n      pop\n      swap1\n      pop\n      swap5\n      pop\n      swap5\n      pop\n      swap5\n      pop\n      swap5\n      pop\n      pop\n        /* \"Store.sol\":3101:4011  function reviewProduct(uint index, uint review, string memory opinion) public returns (uint, string[] memory, address[] memory, uint[] memory) {... */\n      swap4\n      pop\n      swap4\n      pop\n      swap4\n      pop\n      swap4\n      jump\t// out\n        /* \"Store.sol\":6567:6786  function getProductsReviews(uint index) public view returns (string[] memory, address[] memory, uint[] memory) {... */\n    tag_58:\n        /* \"Store.sol\":6696:6711  products[index] */\n      0x00\n      dup2\n      dup2\n      mstore\n        /* \"Store.sol\":6696:6704  products */\n      0x03\n        /* \"Store.sol\":6696:6711  products[index] */\n      0x20\n      swap1\n      dup2\n      mstore\n      0x40\n      dup1\n      dup4\n      keccak256\n        /* \"Store.sol\":6696:6726  products[index].writtenReviews */\n      0x05\n      dup2\n      add\n        /* \"Store.sol\":6688:6779  return (products[index].writtenReviews, products[index].reviewers, products[index].ratings) */\n      dup1\n      sload\n      dup4\n      mload\n      dup2\n      dup7\n      mul\n      dup2\n      add\n      dup7\n      add\n      swap1\n      swap5\n      mstore\n      dup1\n      dup5\n      mstore\n        /* \"Store.sol\":6628:6643  string[] memory */\n      0x60\n      swap6\n      dup7\n      swap6\n      dup7\n      swap6\n        /* \"Store.sol\":6696:6726  products[index].writtenReviews */\n      swap4\n      swap5\n        /* \"Store.sol\":6728:6753  products[index].reviewers */\n      0x06\n      dup2\n      add\n      swap5\n        /* \"Store.sol\":6755:6778  products[index].ratings */\n      0x07\n      swap1\n      swap2\n      add\n      swap4\n        /* \"Store.sol\":6688:6779  return (products[index].writtenReviews, products[index].reviewers, products[index].ratings) */\n      swap1\n      swap3\n        /* \"Store.sol\":6696:6726  products[index].writtenReviews */\n      dup7\n      swap3\n        /* \"Store.sol\":6688:6779  return (products[index].writtenReviews, products[index].reviewers, products[index].ratings) */\n      dup5\n      add\n    tag_215:\n      dup3\n      dup3\n      lt\n      iszero\n      tag_216\n      jumpi\n      dup4\n      dup3\n      swap1\n      0x00\n      mstore\n      keccak256(0x00, 0x20)\n      add\n      dup1\n      sload\n      tag_218\n      swap1\n      tag_205\n      jump\t// in\n    tag_218:\n      dup1\n      0x1f\n      add\n      0x20\n      dup1\n      swap2\n      div\n      mul\n      0x20\n      add\n      mload(0x40)\n      swap1\n      dup2\n      add\n      0x40\n      mstore\n      dup1\n      swap3\n      swap2\n      swap1\n      dup2\n      dup2\n      mstore\n      0x20\n      add\n      dup3\n      dup1\n      sload\n      tag_219\n      swap1\n      tag_205\n      jump\t// in\n    tag_219:\n      dup1\n      iszero\n      tag_220\n      jumpi\n      dup1\n      0x1f\n      lt\n      tag_221\n      jumpi\n      0x0100\n      dup1\n      dup4\n      sload\n      div\n      mul\n      dup4\n      mstore\n      swap2\n      0x20\n      add\n      swap2\n      jump(tag_220)\n    tag_221:\n      dup3\n      add\n      swap2\n      swap1\n      0x00\n      mstore\n      keccak256(0x00, 0x20)\n      swap1\n    tag_222:\n      dup2\n      sload\n      dup2\n      mstore\n      swap1\n      0x01\n      add\n      swap1\n      0x20\n      add\n      dup1\n      dup4\n      gt\n      tag_222\n      jumpi\n      dup3\n      swap1\n      sub\n      0x1f\n      and\n      dup3\n      add\n      swap2\n    tag_220:\n      pop\n      pop\n      pop\n      pop\n      pop\n      dup2\n      mstore\n      0x20\n      add\n      swap1\n      0x01\n      add\n      swap1\n      jump(tag_215)\n    tag_216:\n      pop\n      pop\n      pop\n      pop\n      swap3\n      pop\n      dup2\n      dup1\n      sload\n      dup1\n      0x20\n      mul\n      0x20\n      add\n      mload(0x40)\n      swap1\n      dup2\n      add\n      0x40\n      mstore\n      dup1\n      swap3\n      swap2\n      swap1\n      dup2\n      dup2\n      mstore\n      0x20\n      add\n      dup3\n      dup1\n      sload\n      dup1\n      iszero\n      tag_223\n      jumpi\n      0x20\n      mul\n      dup3\n      add\n      swap2\n      swap1\n      0x00\n      mstore\n      keccak256(0x00, 0x20)\n      swap1\n    tag_224:\n      dup2\n      sload\n      sub(shl(0xa0, 0x01), 0x01)\n      and\n      dup2\n      mstore\n      0x01\n      swap1\n      swap2\n      add\n      swap1\n      0x20\n      add\n      dup1\n      dup4\n      gt\n      tag_224\n      jumpi\n    tag_223:\n      pop\n      pop\n      pop\n      pop\n      pop\n      swap2\n      pop\n      dup1\n      dup1\n      sload\n      dup1\n      0x20\n      mul\n      0x20\n      add\n      mload(0x40)\n      swap1\n      dup2\n      add\n      0x40\n      mstore\n      dup1\n      swap3\n      swap2\n      swap1\n      dup2\n      dup2\n      mstore\n      0x20\n      add\n      dup3\n      dup1\n      sload\n      dup1\n      iszero\n      tag_225\n      jumpi\n      0x20\n      mul\n      dup3\n      add\n      swap2\n      swap1\n      0x00\n      mstore\n      keccak256(0x00, 0x20)\n      swap1\n    tag_226:\n      dup2\n      sload\n      dup2\n      mstore\n      0x20\n      add\n      swap1\n      0x01\n      add\n      swap1\n      dup1\n      dup4\n      gt\n      tag_226\n      jumpi\n    tag_225:\n      pop\n      pop\n      pop\n      pop\n      pop\n      swap1\n      pop\n      swap3\n      pop\n      swap3\n      pop\n      swap3\n      pop\n        /* \"Store.sol\":6567:6786  function getProductsReviews(uint index) public view returns (string[] memory, address[] memory, uint[] memory) {... */\n      swap2\n      swap4\n      swap1\n      swap3\n      pop\n      jump\t// out\n        /* \"Store.sol\":5874:6210  function updateProduct(uint index, string memory newProductName, address newSeller, uint newPrice, uint inventory) public restricted {... */\n    tag_65:\n        /* \"Store.sol\":1471:1481  msg.sender */\n      caller\n        /* \"Store.sol\":1462:1470  managers */\n      0x00\n        /* \"Store.sol\":1462:1482  managers[msg.sender] */\n      swap1\n      dup2\n      mstore\n      0x20\n      dup2\n      swap1\n      mstore\n      0x40\n      swap1\n      keccak256\n      sload\n      0xff\n      and\n        /* \"Store.sol\":1454:1483  require(managers[msg.sender]) */\n      tag_228\n      jumpi\n      0x00\n      dup1\n      revert\n    tag_228:\n        /* \"Store.sol\":6017:6032  products[index] */\n      0x00\n      dup6\n      dup2\n      mstore\n        /* \"Store.sol\":6017:6025  products */\n      0x03\n        /* \"Store.sol\":6017:6032  products[index] */\n      0x20\n      swap1\n      dup2\n      mstore\n      0x40\n      swap1\n      swap2\n      keccak256\n        /* \"Store.sol\":6017:6061  products[index].description = newProductName */\n      dup6\n      mload\n      tag_230\n      swap3\n      dup8\n      add\n      swap1\n      tag_198\n      jump\t// in\n    tag_230:\n      pop\n        /* \"Store.sol\":6071:6086  products[index] */\n      0x00\n      swap5\n      dup6\n      mstore\n        /* \"Store.sol\":6071:6079  products */\n      0x03\n        /* \"Store.sol\":6071:6086  products[index] */\n      0x20\n      mstore\n      0x40\n      swap1\n      swap5\n      keccak256\n        /* \"Store.sol\":6071:6093  products[index].seller */\n      0x02\n      dup2\n      add\n        /* \"Store.sol\":6071:6105  products[index].seller = newSeller */\n      dup1\n      sload\n      not(sub(shl(0xa0, 0x01), 0x01))\n      and\n      sub(shl(0xa0, 0x01), 0x01)\n      swap5\n      swap1\n      swap5\n      and\n      swap4\n      swap1\n      swap4\n      or\n      swap1\n      swap3\n      sstore\n      0x01\n        /* \"Store.sol\":6115:6136  products[index].price */\n      dup3\n      add\n        /* \"Store.sol\":6115:6147  products[index].price = newPrice */\n      sstore\n        /* \"Store.sol\":6157:6191  products[index].availableInventory */\n      0x09\n      add\n        /* \"Store.sol\":6157:6203  products[index].availableInventory = inventory */\n      swap2\n      swap1\n      swap2\n      sstore\n      pop\n        /* \"Store.sol\":5874:6210  function updateProduct(uint index, string memory newProductName, address newSeller, uint newPrice, uint inventory) public restricted {... */\n      jump\t// out\n        /* \"Store.sol\":5453:5601  function updateProductName(uint index, string memory newProductName) public restricted {... */\n    tag_70:\n        /* \"Store.sol\":1471:1481  msg.sender */\n      caller\n        /* \"Store.sol\":1462:1470  managers */\n      0x00\n        /* \"Store.sol\":1462:1482  managers[msg.sender] */\n      swap1\n      dup2\n      mstore\n      0x20\n      dup2\n      swap1\n      mstore\n      0x40\n      swap1\n      keccak256\n      sload\n      0xff\n      and\n        /* \"Store.sol\":1454:1483  require(managers[msg.sender]) */\n      tag_232\n      jumpi\n      0x00\n      dup1\n      revert\n    tag_232:\n        /* \"Store.sol\":5550:5565  products[index] */\n      0x00\n      dup3\n      dup2\n      mstore\n        /* \"Store.sol\":5550:5558  products */\n      0x03\n        /* \"Store.sol\":5550:5565  products[index] */\n      0x20\n      swap1\n      dup2\n      mstore\n      0x40\n      swap1\n      swap2\n      keccak256\n        /* \"Store.sol\":5550:5594  products[index].description = newProductName */\n      dup3\n      mload\n      tag_234\n      swap3\n      dup5\n      add\n      swap1\n      tag_198\n      jump\t// in\n    tag_234:\n      pop\n        /* \"Store.sol\":5453:5601  function updateProductName(uint index, string memory newProductName) public restricted {... */\n      pop\n      pop\n      jump\t// out\n        /* \"Store.sol\":4021:4790  function reviewStore(uint review, string memory opinion) public returns (uint, string[] memory, address[] memory, uint[] memory) {... */\n    tag_74:\n        /* \"Store.sol\":4181:4191  msg.sender */\n      caller\n        /* \"Store.sol\":4094:4098  uint */\n      0x00\n        /* \"Store.sol\":4168:4192  storeShopper[msg.sender] */\n      swap1\n      dup2\n      mstore\n        /* \"Store.sol\":4168:4180  storeShopper */\n      0x0a\n        /* \"Store.sol\":4168:4192  storeShopper[msg.sender] */\n      0x20\n      mstore\n      0x40\n      dup2\n      keccak256\n      sload\n        /* \"Store.sol\":4100:4115  string[] memory */\n      0x60\n      swap1\n      dup2\n      swap1\n      dup2\n      swap1\n        /* \"Store.sol\":4168:4192  storeShopper[msg.sender] */\n      0xff\n      and\n        /* \"Store.sol\":4160:4193  require(storeShopper[msg.sender]) */\n      tag_236\n      jumpi\n      0x00\n      dup1\n      revert\n    tag_236:\n        /* \"Store.sol\":4263:4273  msg.sender */\n      caller\n        /* \"Store.sol\":4250:4274  storeReviews[msg.sender] */\n      0x00\n      swap1\n      dup2\n      mstore\n        /* \"Store.sol\":4250:4262  storeReviews */\n      0x0b\n        /* \"Store.sol\":4250:4274  storeReviews[msg.sender] */\n      0x20\n      mstore\n      0x40\n      swap1\n      keccak256\n      sload\n      0xff\n      and\n        /* \"Store.sol\":4249:4274  !storeReviews[msg.sender] */\n      iszero\n        /* \"Store.sol\":4241:4275  require(!storeReviews[msg.sender]) */\n      tag_237\n      jumpi\n      0x00\n      dup1\n      revert\n    tag_237:\n        /* \"Store.sol\":4355:4356  5 */\n      0x05\n        /* \"Store.sol\":4346:4352  review */\n      dup7\n        /* \"Store.sol\":4346:4356  review <=5 */\n      gt\n      iszero\n        /* \"Store.sol\":4346:4370  review <=5 && review > 0 */\n      dup1\n      iszero\n      tag_238\n      jumpi\n      pop\n        /* \"Store.sol\":4369:4370  0 */\n      0x00\n        /* \"Store.sol\":4360:4366  review */\n      dup7\n        /* \"Store.sol\":4360:4370  review > 0 */\n      gt\n        /* \"Store.sol\":4346:4370  review <=5 && review > 0 */\n    tag_238:\n        /* \"Store.sol\":4346:4391  review <=5 && review > 0 && (review % 1 == 0) */\n      dup1\n      iszero\n      tag_239\n      jumpi\n      pop\n        /* \"Store.sol\":4375:4385  review % 1 */\n      tag_240\n        /* \"Store.sol\":4384:4385  1 */\n      0x01\n        /* \"Store.sol\":4375:4381  review */\n      dup8\n        /* \"Store.sol\":4375:4385  review % 1 */\n      tag_185\n      jump\t// in\n    tag_240:\n        /* \"Store.sol\":4375:4390  review % 1 == 0 */\n      iszero\n        /* \"Store.sol\":4346:4391  review <=5 && review > 0 && (review % 1 == 0) */\n    tag_239:\n        /* \"Store.sol\":4338:4392  require(review <=5 && review > 0 && (review % 1 == 0)) */\n      tag_241\n      jumpi\n      0x00\n      dup1\n      revert\n    tag_241:\n        /* \"Store.sol\":4415:4425  msg.sender */\n      caller\n        /* \"Store.sol\":4402:4426  storeReviews[msg.sender] */\n      0x00\n      swap1\n      dup2\n      mstore\n        /* \"Store.sol\":4402:4414  storeReviews */\n      0x0b\n        /* \"Store.sol\":4402:4426  storeReviews[msg.sender] */\n      0x20\n      mstore\n      0x40\n      dup2\n      keccak256\n        /* \"Store.sol\":4402:4433  storeReviews[msg.sender] = true */\n      dup1\n      sload\n      not(0xff)\n      and\n        /* \"Store.sol\":4429:4433  true */\n      0x01\n        /* \"Store.sol\":4402:4433  storeReviews[msg.sender] = true */\n      or\n      swap1\n      sstore\n        /* \"Store.sol\":4482:4497  numStoreReviews */\n      0x06\n        /* \"Store.sol\":4482:4499  numStoreReviews++ */\n      dup1\n      sload\n      swap2\n      tag_242\n      dup4\n      tag_188\n      jump\t// in\n    tag_242:\n      swap1\n      swap2\n      sstore\n      pop\n      pop\n        /* \"Store.sol\":4568:4583  numStoreReviews */\n      sload(0x06)\n        /* \"Store.sol\":4557:4563  review */\n      dup7\n        /* \"Store.sol\":4535:4553  numStoreReviews -1 */\n      tag_243\n        /* \"Store.sol\":4552:4553  1 */\n      0x01\n        /* \"Store.sol\":4568:4583  numStoreReviews */\n      dup4\n        /* \"Store.sol\":4535:4553  numStoreReviews -1 */\n      tag_244\n      jump\t// in\n    tag_243:\n        /* \"Store.sol\":4523:4533  storeScore */\n      sload(0x05)\n        /* \"Store.sol\":4523:4554  storeScore*(numStoreReviews -1) */\n      tag_245\n      swap2\n      swap1\n      tag_192\n      jump\t// in\n    tag_245:\n        /* \"Store.sol\":4523:4563  storeScore*(numStoreReviews -1) + review */\n      tag_246\n      swap2\n      swap1\n      tag_190\n      jump\t// in\n    tag_246:\n        /* \"Store.sol\":4522:4584  (storeScore*(numStoreReviews -1) + review) / (numStoreReviews) */\n      tag_247\n      swap2\n      swap1\n      tag_195\n      jump\t// in\n    tag_247:\n        /* \"Store.sol\":4509:4519  storeScore */\n      0x05\n        /* \"Store.sol\":4509:4584  storeScore = (storeScore*(numStoreReviews -1) + review) / (numStoreReviews) */\n      sstore\n        /* \"Store.sol\":4594:4613  storeWrittenReviews */\n      0x07\n        /* \"Store.sol\":4594:4627  storeWrittenReviews.push(opinion) */\n      dup1\n      sload\n      0x01\n      dup2\n      add\n      dup3\n      sstore\n      0x00\n      swap2\n      swap1\n      swap2\n      mstore\n      dup6\n      mload\n      tag_249\n      swap2\n      0xa66cc928b5edb82af9bd49922954155ab7b0942694bea4ce44661d9a8736c688\n      add\n      swap1\n      0x20\n      dup9\n      add\n      swap1\n      tag_198\n      jump\t// in\n    tag_249:\n      pop\n        /* \"Store.sol\":4637:4651  storeReviewers */\n      0x08\n        /* \"Store.sol\":4637:4668  storeReviewers.push(msg.sender) */\n      dup1\n      sload\n      0x01\n      dup1\n      dup3\n      add\n      dup4\n      sstore\n      0xf3f7a9fe364faab93b216da50a3214154f22a0a2b415b23a84c8169e8b636ee3\n      swap1\n      swap2\n      add\n      dup1\n      sload\n      not(sub(shl(0xa0, 0x01), 0x01))\n      and\n        /* \"Store.sol\":4657:4667  msg.sender */\n      caller\n        /* \"Store.sol\":4637:4668  storeReviewers.push(msg.sender) */\n      or\n      swap1\n      sstore\n        /* \"Store.sol\":4678:4690  storeRatings */\n      0x09\n        /* \"Store.sol\":4678:4703  storeRatings.push(review) */\n      dup1\n      sload\n      swap2\n      dup3\n      add\n      dup2\n      sstore\n      0x00\n      dup2\n      dup2\n      mstore\n      0x6e1540171b6c0c960b71a7020d9f60077f6af931a8bbf590da0223dacf75c7af\n      swap1\n      swap3\n      add\n      dup10\n      swap1\n      sstore\n        /* \"Store.sol\":4721:4731  storeScore */\n      sload(0x05)\n        /* \"Store.sol\":4733:4752  storeWrittenReviews */\n      0x07\n        /* \"Store.sol\":4713:4783  return (storeScore, storeWrittenReviews, storeReviewers, storeRatings) */\n      dup1\n      sload\n      0x40\n      dup1\n      mload\n        /* \"Store.sol\":4637:4668  storeReviewers.push(msg.sender) */\n      0x20\n        /* \"Store.sol\":4713:4783  return (storeScore, storeWrittenReviews, storeReviewers, storeRatings) */\n      dup1\n      dup5\n      mul\n      dup3\n      add\n      dup2\n      add\n      swap1\n      swap3\n      mstore\n      dup3\n      dup2\n      mstore\n        /* \"Store.sol\":4721:4731  storeScore */\n      swap4\n      swap7\n        /* \"Store.sol\":4733:4752  storeWrittenReviews */\n      swap3\n      swap6\n        /* \"Store.sol\":4637:4651  storeReviewers */\n      swap3\n      swap5\n        /* \"Store.sol\":4678:4690  storeRatings */\n      swap4\n        /* \"Store.sol\":4713:4783  return (storeScore, storeWrittenReviews, storeReviewers, storeRatings) */\n      swap3\n        /* \"Store.sol\":4733:4752  storeWrittenReviews */\n      dup7\n      swap3\n        /* \"Store.sol\":4713:4783  return (storeScore, storeWrittenReviews, storeReviewers, storeRatings) */\n      swap2\n      dup5\n      add\n    tag_252:\n      dup3\n      dup3\n      lt\n      iszero\n      tag_253\n      jumpi\n      dup4\n      dup3\n      swap1\n      0x00\n      mstore\n      keccak256(0x00, 0x20)\n      add\n      dup1\n      sload\n      tag_255\n      swap1\n      tag_205\n      jump\t// in\n    tag_255:\n      dup1\n      0x1f\n      add\n      0x20\n      dup1\n      swap2\n      div\n      mul\n      0x20\n      add\n      mload(0x40)\n      swap1\n      dup2\n      add\n      0x40\n      mstore\n      dup1\n      swap3\n      swap2\n      swap1\n      dup2\n      dup2\n      mstore\n      0x20\n      add\n      dup3\n      dup1\n      sload\n      tag_256\n      swap1\n      tag_205\n      jump\t// in\n    tag_256:\n      dup1\n      iszero\n      tag_257\n      jumpi\n      dup1\n      0x1f\n      lt\n      tag_258\n      jumpi\n      0x0100\n      dup1\n      dup4\n      sload\n      div\n      mul\n      dup4\n      mstore\n      swap2\n      0x20\n      add\n      swap2\n      jump(tag_257)\n    tag_258:\n      dup3\n      add\n      swap2\n      swap1\n      0x00\n      mstore\n      keccak256(0x00, 0x20)\n      swap1\n    tag_259:\n      dup2\n      sload\n      dup2\n      mstore\n      swap1\n      0x01\n      add\n      swap1\n      0x20\n      add\n      dup1\n      dup4\n      gt\n      tag_259\n      jumpi\n      dup3\n      swap1\n      sub\n      0x1f\n      and\n      dup3\n      add\n      swap2\n    tag_257:\n      pop\n      pop\n      pop\n      pop\n      pop\n      dup2\n      mstore\n      0x20\n      add\n      swap1\n      0x01\n      add\n      swap1\n      jump(tag_252)\n    tag_253:\n      pop\n      pop\n      pop\n      pop\n      swap3\n      pop\n      dup2\n      dup1\n      sload\n      dup1\n      0x20\n      mul\n      0x20\n      add\n      mload(0x40)\n      swap1\n      dup2\n      add\n      0x40\n      mstore\n      dup1\n      swap3\n      swap2\n      swap1\n      dup2\n      dup2\n      mstore\n      0x20\n      add\n      dup3\n      dup1\n      sload\n      dup1\n      iszero\n      tag_260\n      jumpi\n      0x20\n      mul\n      dup3\n      add\n      swap2\n      swap1\n      0x00\n      mstore\n      keccak256(0x00, 0x20)\n      swap1\n    tag_261:\n      dup2\n      sload\n      sub(shl(0xa0, 0x01), 0x01)\n      and\n      dup2\n      mstore\n      0x01\n      swap1\n      swap2\n      add\n      swap1\n      0x20\n      add\n      dup1\n      dup4\n      gt\n      tag_261\n      jumpi\n    tag_260:\n      pop\n      pop\n      pop\n      pop\n      pop\n      swap2\n      pop\n      dup1\n      dup1\n      sload\n      dup1\n      0x20\n      mul\n      0x20\n      add\n      mload(0x40)\n      swap1\n      dup2\n      add\n      0x40\n      mstore\n      dup1\n      swap3\n      swap2\n      swap1\n      dup2\n      dup2\n      mstore\n      0x20\n      add\n      dup3\n      dup1\n      sload\n      dup1\n      iszero\n      tag_262\n      jumpi\n      0x20\n      mul\n      dup3\n      add\n      swap2\n      swap1\n      0x00\n      mstore\n      keccak256(0x00, 0x20)\n      swap1\n    tag_263:\n      dup2\n      sload\n      dup2\n      mstore\n      0x20\n      add\n      swap1\n      0x01\n      add\n      swap1\n      dup1\n      dup4\n      gt\n      tag_263\n      jumpi\n    tag_262:\n      pop\n      pop\n      pop\n      pop\n      pop\n      swap1\n      pop\n      swap4\n      pop\n      swap4\n      pop\n      swap4\n      pop\n      swap4\n      pop\n        /* \"Store.sol\":4021:4790  function reviewStore(uint review, string memory opinion) public returns (uint, string[] memory, address[] memory, uint[] memory) {... */\n      swap3\n      swap6\n      swap2\n      swap5\n      pop\n      swap3\n      pop\n      jump\t// out\n        /* \"Store.sol\":4800:4902  function addManager(address newManager) public restricted {... */\n    tag_80:\n        /* \"Store.sol\":1471:1481  msg.sender */\n      caller\n        /* \"Store.sol\":1462:1470  managers */\n      0x00\n        /* \"Store.sol\":1462:1482  managers[msg.sender] */\n      swap1\n      dup2\n      mstore\n      0x20\n      dup2\n      swap1\n      mstore\n      0x40\n      swap1\n      keccak256\n      sload\n      0xff\n      and\n        /* \"Store.sol\":1454:1483  require(managers[msg.sender]) */\n      tag_265\n      jumpi\n      0x00\n      dup1\n      revert\n    tag_265:\n      sub(shl(0xa0, 0x01), 0x01)\n        /* \"Store.sol\":4868:4888  managers[newManager] */\n      and\n        /* \"Store.sol\":4868:4876  managers */\n      0x00\n        /* \"Store.sol\":4868:4888  managers[newManager] */\n      swap1\n      dup2\n      mstore\n      0x20\n      dup2\n      swap1\n      mstore\n      0x40\n      swap1\n      keccak256\n        /* \"Store.sol\":4868:4895  managers[newManager] = true */\n      dup1\n      sload\n      not(0xff)\n      and\n      0x01\n      or\n      swap1\n      sstore\n        /* \"Store.sol\":4800:4902  function addManager(address newManager) public restricted {... */\n      jump\t// out\n        /* \"Store.sol\":5079:5299  function productAvailable(uint index, bool available) public restricted {... */\n    tag_85:\n        /* \"Store.sol\":1471:1481  msg.sender */\n      caller\n        /* \"Store.sol\":1462:1470  managers */\n      0x00\n        /* \"Store.sol\":1462:1482  managers[msg.sender] */\n      swap1\n      dup2\n      mstore\n      0x20\n      dup2\n      swap1\n      mstore\n      0x40\n      swap1\n      keccak256\n      sload\n      0xff\n      and\n        /* \"Store.sol\":1454:1483  require(managers[msg.sender]) */\n      tag_268\n      jumpi\n      0x00\n      dup1\n      revert\n    tag_268:\n        /* \"Store.sol\":5161:5176  products[index] */\n      0x00\n      dup3\n      dup2\n      mstore\n        /* \"Store.sol\":5161:5169  products */\n      0x03\n        /* \"Store.sol\":5161:5176  products[index] */\n      0x20\n      mstore\n      0x40\n      swap1\n      keccak256\n        /* \"Store.sol\":5161:5186  products[index].available */\n      0x02\n      add\n        /* \"Store.sol\":5161:5198  products[index].available = available */\n      dup1\n      sload\n      not(shl(0xa0, 0xff))\n      and\n      shl(0xa0, 0x01)\n      dup4\n      iszero\n      iszero\n      swap1\n      dup2\n      mul\n      swap2\n      swap1\n      swap2\n      or\n      swap1\n      swap2\n      sstore\n        /* \"Store.sol\":5208:5293  if(available == false){... */\n      tag_270\n      jumpi\n        /* \"Store.sol\":5281:5282  0 */\n      0x00\n        /* \"Store.sol\":5244:5259  products[index] */\n      dup3\n      dup2\n      mstore\n        /* \"Store.sol\":5244:5252  products */\n      0x03\n        /* \"Store.sol\":5244:5259  products[index] */\n      0x20\n      mstore\n      0x40\n      dup2\n      keccak256\n        /* \"Store.sol\":5244:5278  products[index].availableInventory */\n      0x09\n      add\n        /* \"Store.sol\":5244:5282  products[index].availableInventory = 0 */\n      sstore\n        /* \"Store.sol\":5208:5293  if(available == false){... */\n    tag_270:\n        /* \"Store.sol\":5079:5299  function productAvailable(uint index, bool available) public restricted {... */\n      pop\n      pop\n      jump\t// out\n        /* \"Store.sol\":1346:1370  string public bestSeller */\n    tag_88:\n      0x0c\n      dup1\n      sload\n      tag_271\n      swap1\n      tag_205\n      jump\t// in\n    tag_271:\n      dup1\n      0x1f\n      add\n      0x20\n      dup1\n      swap2\n      div\n      mul\n      0x20\n      add\n      mload(0x40)\n      swap1\n      dup2\n      add\n      0x40\n      mstore\n      dup1\n      swap3\n      swap2\n      swap1\n      dup2\n      dup2\n      mstore\n      0x20\n      add\n      dup3\n      dup1\n      sload\n      tag_272\n      swap1\n      tag_205\n      jump\t// in\n    tag_272:\n      dup1\n      iszero\n      tag_273\n      jumpi\n      dup1\n      0x1f\n      lt\n      tag_274\n      jumpi\n      0x0100\n      dup1\n      dup4\n      sload\n      div\n      mul\n      dup4\n      mstore\n      swap2\n      0x20\n      add\n      swap2\n      jump(tag_273)\n    tag_274:\n      dup3\n      add\n      swap2\n      swap1\n      0x00\n      mstore\n      keccak256(0x00, 0x20)\n      swap1\n    tag_275:\n      dup2\n      sload\n      dup2\n      mstore\n      swap1\n      0x01\n      add\n      swap1\n      0x20\n      add\n      dup1\n      dup4\n      gt\n      tag_275\n      jumpi\n      dup3\n      swap1\n      sub\n      0x1f\n      and\n      dup3\n      add\n      swap2\n    tag_273:\n      pop\n      pop\n      pop\n      pop\n      pop\n      dup2\n      jump\t// out\n        /* \"Store.sol\":1059:1082  string public storeName */\n    tag_93:\n      0x04\n      dup1\n      sload\n      tag_271\n      swap1\n      tag_205\n      jump\t// in\n        /* \"Store.sol\":5309:5443  function updateInventory(uint index, uint inventory) public restricted {... */\n    tag_99:\n        /* \"Store.sol\":1471:1481  msg.sender */\n      caller\n        /* \"Store.sol\":1462:1470  managers */\n      0x00\n        /* \"Store.sol\":1462:1482  managers[msg.sender] */\n      swap1\n      dup2\n      mstore\n      0x20\n      dup2\n      swap1\n      mstore\n      0x40\n      swap1\n      keccak256\n      sload\n      0xff\n      and\n        /* \"Store.sol\":1454:1483  require(managers[msg.sender]) */\n      tag_282\n      jumpi\n      0x00\n      dup1\n      revert\n    tag_282:\n        /* \"Store.sol\":5390:5405  products[index] */\n      0x00\n      swap2\n      dup3\n      mstore\n        /* \"Store.sol\":5390:5398  products */\n      0x03\n        /* \"Store.sol\":5390:5405  products[index] */\n      0x20\n      mstore\n      0x40\n      swap1\n      swap2\n      keccak256\n        /* \"Store.sol\":5390:5424  products[index].availableInventory */\n      0x09\n      add\n        /* \"Store.sol\":5390:5436  products[index].availableInventory = inventory */\n      sstore\n        /* \"Store.sol\":5309:5443  function updateInventory(uint index, uint inventory) public restricted {... */\n      jump\t// out\n        /* \"Store.sol\":1012:1053  mapping (uint => Product) public products */\n    tag_107:\n      mstore(0x20, 0x03)\n      0x00\n      swap1\n      dup2\n      mstore\n      0x40\n      swap1\n      keccak256\n      dup1\n      sload\n      dup2\n      swap1\n      tag_285\n      swap1\n      tag_205\n      jump\t// in\n    tag_285:\n      dup1\n      0x1f\n      add\n      0x20\n      dup1\n      swap2\n      div\n      mul\n      0x20\n      add\n      mload(0x40)\n      swap1\n      dup2\n      add\n      0x40\n      mstore\n      dup1\n      swap3\n      swap2\n      swap1\n      dup2\n      dup2\n      mstore\n      0x20\n      add\n      dup3\n      dup1\n      sload\n      tag_286\n      swap1\n      tag_205\n      jump\t// in\n    tag_286:\n      dup1\n      iszero\n      tag_287\n      jumpi\n      dup1\n      0x1f\n      lt\n      tag_288\n      jumpi\n      0x0100\n      dup1\n      dup4\n      sload\n      div\n      mul\n      dup4\n      mstore\n      swap2\n      0x20\n      add\n      swap2\n      jump(tag_287)\n    tag_288:\n      dup3\n      add\n      swap2\n      swap1\n      0x00\n      mstore\n      keccak256(0x00, 0x20)\n      swap1\n    tag_289:\n      dup2\n      sload\n      dup2\n      mstore\n      swap1\n      0x01\n      add\n      swap1\n      0x20\n      add\n      dup1\n      dup4\n      gt\n      tag_289\n      jumpi\n      dup3\n      swap1\n      sub\n      0x1f\n      and\n      dup3\n      add\n      swap2\n    tag_287:\n      pop\n      pop\n      pop\n      pop\n      0x01\n      dup4\n      add\n      sload\n      0x02\n      dup5\n      add\n      sload\n      0x03\n      dup6\n      add\n      sload\n      0x04\n      dup7\n      add\n      sload\n      0x08\n      dup8\n      add\n      sload\n      0x09\n      swap1\n      swap8\n      add\n      sload\n      swap6\n      swap7\n      swap4\n      swap6\n      sub(shl(0xa0, 0x01), 0x01)\n      dup5\n      and\n      swap6\n      pop\n      shl(0xa0, 0x01)\n      swap1\n      swap4\n      div\n      0xff\n      and\n      swap4\n      swap2\n      swap3\n      swap1\n      swap2\n      swap1\n      dup9\n      jump\t// out\n        /* \"Store.sol\":1191:1222  address[] public storeReviewers */\n    tag_118:\n      0x08\n      dup2\n      dup2\n      sload\n      dup2\n      lt\n      tag_290\n      jumpi\n      0x00\n      dup1\n      revert\n    tag_290:\n      0x00\n      swap2\n      dup3\n      mstore\n      0x20\n      swap1\n      swap2\n      keccak256\n      add\n      sload\n      sub(shl(0xa0, 0x01), 0x01)\n      and\n      swap1\n      pop\n      dup2\n      jump\t// out\n        /* \"Store.sol\":4908:5069  function deleteManager(address revokedManager) public restricted {... */\n    tag_127:\n        /* \"Store.sol\":1471:1481  msg.sender */\n      caller\n        /* \"Store.sol\":1462:1470  managers */\n      0x00\n        /* \"Store.sol\":1462:1482  managers[msg.sender] */\n      swap1\n      dup2\n      mstore\n      0x20\n      dup2\n      swap1\n      mstore\n      0x40\n      swap1\n      keccak256\n      sload\n      0xff\n      and\n        /* \"Store.sol\":1454:1483  require(managers[msg.sender]) */\n      tag_293\n      jumpi\n      0x00\n      dup1\n      revert\n    tag_293:\n        /* \"Store.sol\":5009:5019  storeOwner */\n      sload(0x01)\n      sub(shl(0xa0, 0x01), 0x01)\n        /* \"Store.sol\":4991:5019  revokedManager != storeOwner */\n      dup3\n      dup2\n      and\n        /* \"Store.sol\":5009:5019  storeOwner */\n      swap2\n      and\n        /* \"Store.sol\":4991:5019  revokedManager != storeOwner */\n      eq\n      iszero\n        /* \"Store.sol\":4983:5020  require(revokedManager != storeOwner) */\n      tag_295\n      jumpi\n      0x00\n      dup1\n      revert\n    tag_295:\n      sub(shl(0xa0, 0x01), 0x01)\n        /* \"Store.sol\":5030:5054  managers[revokedManager] */\n      and\n        /* \"Store.sol\":5057:5062  false */\n      0x00\n        /* \"Store.sol\":5030:5054  managers[revokedManager] */\n      swap1\n      dup2\n      mstore\n      0x20\n      dup2\n      swap1\n      mstore\n      0x40\n      swap1\n      keccak256\n        /* \"Store.sol\":5030:5062  managers[revokedManager] = false */\n      dup1\n      sload\n      not(0xff)\n      and\n      swap1\n      sstore\n        /* \"Store.sol\":4908:5069  function deleteManager(address revokedManager) public restricted {... */\n      jump\t// out\n        /* \"Store.sol\":5746:5868  function updateProductPrice(uint index, uint newPrice) public restricted {... */\n    tag_131:\n        /* \"Store.sol\":1471:1481  msg.sender */\n      caller\n        /* \"Store.sol\":1462:1470  managers */\n      0x00\n        /* \"Store.sol\":1462:1482  managers[msg.sender] */\n      swap1\n      dup2\n      mstore\n      0x20\n      dup2\n      swap1\n      mstore\n      0x40\n      swap1\n      keccak256\n      sload\n      0xff\n      and\n        /* \"Store.sol\":1454:1483  require(managers[msg.sender]) */\n      tag_297\n      jumpi\n      0x00\n      dup1\n      revert\n    tag_297:\n        /* \"Store.sol\":5829:5844  products[index] */\n      0x00\n      swap2\n      dup3\n      mstore\n        /* \"Store.sol\":5829:5837  products */\n      0x03\n        /* \"Store.sol\":5829:5844  products[index] */\n      0x20\n      mstore\n      0x40\n      swap1\n      swap2\n      keccak256\n        /* \"Store.sol\":5829:5850  products[index].price */\n      0x01\n      add\n        /* \"Store.sol\":5829:5861  products[index].price = newPrice */\n      sstore\n        /* \"Store.sol\":5746:5868  function updateProductPrice(uint index, uint newPrice) public restricted {... */\n      jump\t// out\n        /* \"Store.sol\":1150:1185  string[] public storeWrittenReviews */\n    tag_139:\n      0x07\n      dup2\n      dup2\n      sload\n      dup2\n      lt\n      tag_299\n      jumpi\n      0x00\n      dup1\n      revert\n    tag_299:\n      swap1\n      0x00\n      mstore\n      keccak256(0x00, 0x20)\n      add\n      0x00\n      swap2\n      pop\n      swap1\n      pop\n      dup1\n      sload\n      tag_271\n      swap1\n      tag_205\n      jump\t// in\n        /* \"Store.sol\":1228:1254  uint[] public storeRatings */\n    tag_144:\n      0x09\n      dup2\n      dup2\n      sload\n      dup2\n      lt\n      tag_306\n      jumpi\n      0x00\n      dup1\n      revert\n    tag_306:\n      0x00\n      swap2\n      dup3\n      mstore\n      0x20\n      swap1\n      swap2\n      keccak256\n      add\n      sload\n      swap1\n      pop\n      dup2\n      jump\t// out\n        /* \"Store.sol\":6796:6969  function getStoreReviews() public view returns (string[] memory, address[] memory, uint[] memory) {... */\n    tag_148:\n        /* \"Store.sol\":6844:6859  string[] memory */\n      0x60\n        /* \"Store.sol\":6861:6877  address[] memory */\n      dup1\n        /* \"Store.sol\":6879:6892  uint[] memory */\n      0x60\n        /* \"Store.sol\":6912:6931  storeWrittenReviews */\n      0x07\n        /* \"Store.sol\":6933:6947  storeReviewers */\n      0x08\n        /* \"Store.sol\":6949:6961  storeRatings */\n      0x09\n        /* \"Store.sol\":6904:6962  return (storeWrittenReviews, storeReviewers, storeRatings) */\n      dup3\n      dup1\n      sload\n      dup1\n      0x20\n      mul\n      0x20\n      add\n      mload(0x40)\n      swap1\n      dup2\n      add\n      0x40\n      mstore\n      dup1\n      swap3\n      swap2\n      swap1\n      dup2\n      dup2\n      mstore\n      0x20\n      add\n      0x00\n      swap1\n    tag_309:\n      dup3\n      dup3\n      lt\n      iszero\n      tag_310\n      jumpi\n      dup4\n      dup3\n      swap1\n      0x00\n      mstore\n      keccak256(0x00, 0x20)\n      add\n      dup1\n      sload\n      tag_312\n      swap1\n      tag_205\n      jump\t// in\n    tag_312:\n      dup1\n      0x1f\n      add\n      0x20\n      dup1\n      swap2\n      div\n      mul\n      0x20\n      add\n      mload(0x40)\n      swap1\n      dup2\n      add\n      0x40\n      mstore\n      dup1\n      swap3\n      swap2\n      swap1\n      dup2\n      dup2\n      mstore\n      0x20\n      add\n      dup3\n      dup1\n      sload\n      tag_313\n      swap1\n      tag_205\n      jump\t// in\n    tag_313:\n      dup1\n      iszero\n      tag_314\n      jumpi\n      dup1\n      0x1f\n      lt\n      tag_315\n      jumpi\n      0x0100\n      dup1\n      dup4\n      sload\n      div\n      mul\n      dup4\n      mstore\n      swap2\n      0x20\n      add\n      swap2\n      jump(tag_314)\n    tag_315:\n      dup3\n      add\n      swap2\n      swap1\n      0x00\n      mstore\n      keccak256(0x00, 0x20)\n      swap1\n    tag_316:\n      dup2\n      sload\n      dup2\n      mstore\n      swap1\n      0x01\n      add\n      swap1\n      0x20\n      add\n      dup1\n      dup4\n      gt\n      tag_316\n      jumpi\n      dup3\n      swap1\n      sub\n      0x1f\n      and\n      dup3\n      add\n      swap2\n    tag_314:\n      pop\n      pop\n      pop\n      pop\n      pop\n      dup2\n      mstore\n      0x20\n      add\n      swap1\n      0x01\n      add\n      swap1\n      jump(tag_309)\n    tag_310:\n      pop\n      pop\n      pop\n      pop\n      swap3\n      pop\n      dup2\n      dup1\n      sload\n      dup1\n      0x20\n      mul\n      0x20\n      add\n      mload(0x40)\n      swap1\n      dup2\n      add\n      0x40\n      mstore\n      dup1\n      swap3\n      swap2\n      swap1\n      dup2\n      dup2\n      mstore\n      0x20\n      add\n      dup3\n      dup1\n      sload\n      dup1\n      iszero\n      tag_317\n      jumpi\n      0x20\n      mul\n      dup3\n      add\n      swap2\n      swap1\n      0x00\n      mstore\n      keccak256(0x00, 0x20)\n      swap1\n    tag_318:\n      dup2\n      sload\n      sub(shl(0xa0, 0x01), 0x01)\n      and\n      dup2\n      mstore\n      0x01\n      swap1\n      swap2\n      add\n      swap1\n      0x20\n      add\n      dup1\n      dup4\n      gt\n      tag_318\n      jumpi\n    tag_317:\n      pop\n      pop\n      pop\n      pop\n      pop\n      swap2\n      pop\n      dup1\n      dup1\n      sload\n      dup1\n      0x20\n      mul\n      0x20\n      add\n      mload(0x40)\n      swap1\n      dup2\n      add\n      0x40\n      mstore\n      dup1\n      swap3\n      swap2\n      swap1\n      dup2\n      dup2\n      mstore\n      0x20\n      add\n      dup3\n      dup1\n      sload\n      dup1\n      iszero\n      tag_319\n      jumpi\n      0x20\n      mul\n      dup3\n      add\n      swap2\n      swap1\n      0x00\n      mstore\n      keccak256(0x00, 0x20)\n      swap1\n    tag_320:\n      dup2\n      sload\n      dup2\n      mstore\n      0x20\n      add\n      swap1\n      0x01\n      add\n      swap1\n      dup1\n      dup4\n      gt\n      tag_320\n      jumpi\n    tag_319:\n      pop\n      pop\n      pop\n      pop\n      pop\n      swap1\n      pop\n      swap3\n      pop\n      swap3\n      pop\n      swap3\n      pop\n        /* \"Store.sol\":6796:6969  function getStoreReviews() public view returns (string[] memory, address[] memory, uint[] memory) {... */\n      swap1\n      swap2\n      swap3\n      jump\t// out\n        /* \"Store.sol\":6216:6318  function changeStoreName(string memory newName) public restricted {... */\n    tag_154:\n        /* \"Store.sol\":1471:1481  msg.sender */\n      caller\n        /* \"Store.sol\":1462:1470  managers */\n      0x00\n        /* \"Store.sol\":1462:1482  managers[msg.sender] */\n      swap1\n      dup2\n      mstore\n      0x20\n      dup2\n      swap1\n      mstore\n      0x40\n      swap1\n      keccak256\n      sload\n      0xff\n      and\n        /* \"Store.sol\":1454:1483  require(managers[msg.sender]) */\n      tag_322\n      jumpi\n      0x00\n      dup1\n      revert\n    tag_322:\n        /* \"Store.sol\":6292:6311  storeName = newName */\n      dup1\n      mload\n      tag_270\n      swap1\n        /* \"Store.sol\":6292:6301  storeName */\n      0x04\n      swap1\n        /* \"Store.sol\":6292:6311  storeName = newName */\n      0x20\n      dup5\n      add\n      swap1\n      tag_198\n      jump\t// in\n        /* \"Store.sol\":6328:6557  function getStoreSummary() public view returns (... */\n    tag_157:\n        /* \"Store.sol\":6385:6389  uint */\n      0x00\n        /* \"Store.sol\":6391:6404  string memory */\n      0x60\n        /* \"Store.sol\":6406:6410  uint */\n      0x00\n        /* \"Store.sol\":6412:6425  string memory */\n      0x60\n        /* \"Store.sol\":6427:6431  uint */\n      0x00\n        /* \"Store.sol\":6433:6437  uint */\n      dup1\n        /* \"Store.sol\":6466:6477  numProducts */\n      sload(0x02)\n        /* \"Store.sol\":6479:6489  bestSeller */\n      0x0c\n        /* \"Store.sol\":6491:6509  bestSellerQuantity */\n      sload(0x0d)\n        /* \"Store.sol\":6511:6520  storeName */\n      0x04\n        /* \"Store.sol\":6522:6532  storeScore */\n      sload(0x05)\n        /* \"Store.sol\":6534:6549  numStoreReviews */\n      sload(0x06)\n        /* \"Store.sol\":6458:6550  return (numProducts, bestSeller, bestSellerQuantity, storeName, storeScore, numStoreReviews) */\n      dup5\n      dup1\n      sload\n      tag_326\n      swap1\n      tag_205\n      jump\t// in\n    tag_326:\n      dup1\n      0x1f\n      add\n      0x20\n      dup1\n      swap2\n      div\n      mul\n      0x20\n      add\n      mload(0x40)\n      swap1\n      dup2\n      add\n      0x40\n      mstore\n      dup1\n      swap3\n      swap2\n      swap1\n      dup2\n      dup2\n      mstore\n      0x20\n      add\n      dup3\n      dup1\n      sload\n      tag_327\n      swap1\n      tag_205\n      jump\t// in\n    tag_327:\n      dup1\n      iszero\n      tag_328\n      jumpi\n      dup1\n      0x1f\n      lt\n      tag_329\n      jumpi\n      0x0100\n      dup1\n      dup4\n      sload\n      div\n      mul\n      dup4\n      mstore\n      swap2\n      0x20\n      add\n      swap2\n      jump(tag_328)\n    tag_329:\n      dup3\n      add\n      swap2\n      swap1\n      0x00\n      mstore\n      keccak256(0x00, 0x20)\n      swap1\n    tag_330:\n      dup2\n      sload\n      dup2\n      mstore\n      swap1\n      0x01\n      add\n      swap1\n      0x20\n      add\n      dup1\n      dup4\n      gt\n      tag_330\n      jumpi\n      dup3\n      swap1\n      sub\n      0x1f\n      and\n      dup3\n      add\n      swap2\n    tag_328:\n      pop\n      pop\n      pop\n      pop\n      pop\n      swap5\n      pop\n      dup3\n      dup1\n      sload\n      tag_331\n      swap1\n      tag_205\n      jump\t// in\n    tag_331:\n      dup1\n      0x1f\n      add\n      0x20\n      dup1\n      swap2\n      div\n      mul\n      0x20\n      add\n      mload(0x40)\n      swap1\n      dup2\n      add\n      0x40\n      mstore\n      dup1\n      swap3\n      swap2\n      swap1\n      dup2\n      dup2\n      mstore\n      0x20\n      add\n      dup3\n      dup1\n      sload\n      tag_332\n      swap1\n      tag_205\n      jump\t// in\n    tag_332:\n      dup1\n      iszero\n      tag_333\n      jumpi\n      dup1\n      0x1f\n      lt\n      tag_334\n      jumpi\n      0x0100\n      dup1\n      dup4\n      sload\n      div\n      mul\n      dup4\n      mstore\n      swap2\n      0x20\n      add\n      swap2\n      jump(tag_333)\n    tag_334:\n      dup3\n      add\n      swap2\n      swap1\n      0x00\n      mstore\n      keccak256(0x00, 0x20)\n      swap1\n    tag_335:\n      dup2\n      sload\n      dup2\n      mstore\n      swap1\n      0x01\n      add\n      swap1\n      0x20\n      add\n      dup1\n      dup4\n      gt\n      tag_335\n      jumpi\n      dup3\n      swap1\n      sub\n      0x1f\n      and\n      dup3\n      add\n      swap2\n    tag_333:\n      pop\n      pop\n      pop\n      pop\n      pop\n      swap3\n      pop\n      swap6\n      pop\n      swap6\n      pop\n      swap6\n      pop\n      swap6\n      pop\n      swap6\n      pop\n      swap6\n      pop\n        /* \"Store.sol\":6328:6557  function getStoreSummary() public view returns (... */\n      swap1\n      swap2\n      swap3\n      swap4\n      swap5\n      swap6\n      jump\t// out\n        /* \"Store.sol\":2300:3091  function createProduct(string memory description, uint price, address seller, uint inventory) public restricted {... */\n    tag_164:\n        /* \"Store.sol\":1471:1481  msg.sender */\n      caller\n        /* \"Store.sol\":1462:1470  managers */\n      0x00\n        /* \"Store.sol\":1462:1482  managers[msg.sender] */\n      swap1\n      dup2\n      mstore\n      0x20\n      dup2\n      swap1\n      mstore\n      0x40\n      swap1\n      keccak256\n      sload\n      0xff\n      and\n        /* \"Store.sol\":1454:1483  require(managers[msg.sender]) */\n      tag_337\n      jumpi\n      0x00\n      dup1\n      revert\n    tag_337:\n        /* \"Store.sol\":2717:2728  numProducts */\n      0x02\n        /* \"Store.sol\":2717:2730  numProducts++ */\n      dup1\n      sload\n        /* \"Store.sol\":2679:2705  Product storage newProduct */\n      0x00\n      swap2\n        /* \"Store.sol\":2708:2716  products */\n      0x03\n      swap2\n        /* \"Store.sol\":2679:2705  Product storage newProduct */\n      dup4\n      swap2\n      dup3\n        /* \"Store.sol\":2717:2730  numProducts++ */\n      tag_339\n      dup4\n      tag_188\n      jump\t// in\n    tag_339:\n      swap1\n      swap2\n      sstore\n      pop\n        /* \"Store.sol\":2708:2731  products[numProducts++] */\n      dup2\n      mstore\n      0x20\n      dup1\n      dup3\n      add\n      swap3\n      swap1\n      swap3\n      mstore\n      0x40\n      add\n      0x00\n      keccak256\n        /* \"Store.sol\":2741:2777  newProduct.description = description */\n      dup7\n      mload\n        /* \"Store.sol\":2708:2731  products[numProducts++] */\n      swap1\n      swap3\n      pop\n        /* \"Store.sol\":2741:2777  newProduct.description = description */\n      tag_340\n      swap2\n        /* \"Store.sol\":2708:2731  products[numProducts++] */\n      dup4\n      swap2\n        /* \"Store.sol\":2741:2777  newProduct.description = description */\n      swap1\n      dup9\n      add\n      swap1\n      tag_198\n      jump\t// in\n    tag_340:\n      pop\n        /* \"Store.sol\":2787:2803  newProduct.price */\n      0x01\n      dup2\n      add\n        /* \"Store.sol\":2787:2811  newProduct.price = price */\n      swap4\n      swap1\n      swap4\n      sstore\n        /* \"Store.sol\":2821:2838  newProduct.seller */\n      0x02\n      dup4\n      add\n        /* \"Store.sol\":2821:2847  newProduct.seller = seller */\n      dup1\n      sload\n      sub(shl(0xa0, 0x01), 0x01)\n      swap4\n      swap1\n      swap4\n      and\n      not(sub(shl(0xa8, 0x01), 0x01))\n        /* \"Store.sol\":2857:2884  newProduct.available = true */\n      swap1\n      swap4\n      and\n      swap3\n      swap1\n      swap3\n      or\n      shl(0xa0, 0x01)\n      or\n      swap1\n      swap2\n      sstore\n        /* \"Store.sol\":2919:2920  5 */\n      0x05\n        /* \"Store.sol\":2894:2916  newProduct.reviewScore */\n      0x03\n      dup4\n      add\n        /* \"Store.sol\":2894:2920  newProduct.reviewScore = 5 */\n      sstore\n      0x00\n        /* \"Store.sol\":2930:2953  newProduct.totalReviews */\n      0x04\n      dup4\n      add\n        /* \"Store.sol\":2930:2957  newProduct.totalReviews = 0 */\n      dup2\n      swap1\n      sstore\n        /* \"Store.sol\":2967:2992  newProduct.numSoldProduct */\n      0x08\n      dup4\n      add\n        /* \"Store.sol\":2967:2996  newProduct.numSoldProduct = 0 */\n      sstore\n        /* \"Store.sol\":3006:3035  newProduct.availableInventory */\n      0x09\n      swap1\n      swap2\n      add\n        /* \"Store.sol\":3006:3047  newProduct.availableInventory = inventory */\n      sstore\n      pop\n        /* \"Store.sol\":2300:3091  function createProduct(string memory description, uint price, address seller, uint inventory) public restricted {... */\n      jump\t// out\n        /* \"Store.sol\":1667:2290  function buy(uint index) public payable {... */\n    tag_167:\n        /* \"Store.sol\":1717:1740  Product storage product */\n      0x00\n        /* \"Store.sol\":1743:1758  products[index] */\n      dup2\n      dup2\n      mstore\n        /* \"Store.sol\":1743:1751  products */\n      0x03\n        /* \"Store.sol\":1743:1758  products[index] */\n      0x20\n      mstore\n      0x40\n      swap1\n      keccak256\n        /* \"Store.sol\":1798:1811  product.price */\n      0x01\n      dup2\n      add\n      sload\n        /* \"Store.sol\":1785:1794  msg.value */\n      callvalue\n        /* \"Store.sol\":1785:1811  msg.value == product.price */\n      eq\n        /* \"Store.sol\":1777:1812  require(msg.value == product.price) */\n      tag_342\n      jumpi\n      0x00\n      dup1\n      revert\n    tag_342:\n        /* \"Store.sol\":1830:1847  product.available */\n      0x02\n      dup2\n      add\n      sload\n      shl(0xa0, 0x01)\n      swap1\n      div\n      0xff\n      and\n        /* \"Store.sol\":1822:1848  require(product.available) */\n      tag_343\n      jumpi\n      0x00\n      dup1\n      revert\n    tag_343:\n        /* \"Store.sol\":1895:1896  0 */\n      0x00\n        /* \"Store.sol\":1866:1873  product */\n      dup2\n        /* \"Store.sol\":1866:1892  product.availableInventory */\n      0x09\n      add\n      sload\n        /* \"Store.sol\":1866:1896  product.availableInventory > 0 */\n      gt\n        /* \"Store.sol\":1858:1897  require(product.availableInventory > 0) */\n      tag_344\n      jumpi\n      0x00\n      dup1\n      revert\n    tag_344:\n        /* \"Store.sol\":1924:1938  product.seller */\n      0x02\n      dup2\n      add\n      sload\n        /* \"Store.sol\":1916:1959  payable(product.seller).transfer(msg.value) */\n      mload(0x40)\n      sub(shl(0xa0, 0x01), 0x01)\n        /* \"Store.sol\":1924:1938  product.seller */\n      swap1\n      swap2\n      and\n      swap1\n        /* \"Store.sol\":1949:1958  msg.value */\n      callvalue\n        /* \"Store.sol\":1916:1959  payable(product.seller).transfer(msg.value) */\n      dup1\n      iszero\n      0x08fc\n      mul\n      swap2\n        /* \"Store.sol\":1924:1938  product.seller */\n      0x00\n        /* \"Store.sol\":1916:1959  payable(product.seller).transfer(msg.value) */\n      dup2\n        /* \"Store.sol\":1924:1938  product.seller */\n      dup2\n        /* \"Store.sol\":1916:1959  payable(product.seller).transfer(msg.value) */\n      dup2\n        /* \"Store.sol\":1949:1958  msg.value */\n      dup6\n        /* \"Store.sol\":1924:1938  product.seller */\n      dup9\n        /* \"Store.sol\":1916:1959  payable(product.seller).transfer(msg.value) */\n      dup9\n      call\n      swap4\n      pop\n      pop\n      pop\n      pop\n      iszero\n      dup1\n      iszero\n      tag_346\n      jumpi\n      returndatasize\n      0x00\n      dup1\n      returndatacopy\n      revert(0x00, returndatasize)\n    tag_346:\n      pop\n        /* \"Store.sol\":1984:1994  msg.sender */\n      caller\n        /* \"Store.sol\":1969:1995  product.buyers[msg.sender] */\n      0x00\n      swap1\n      dup2\n      mstore\n        /* \"Store.sol\":1969:1983  product.buyers */\n      0x0a\n      dup3\n      dup2\n      add\n        /* \"Store.sol\":1969:1995  product.buyers[msg.sender] */\n      0x20\n      swap1\n      dup2\n      mstore\n      0x40\n      dup1\n      dup5\n      keccak256\n        /* \"Store.sol\":1969:2002  product.buyers[msg.sender] = true */\n      dup1\n      sload\n        /* \"Store.sol\":1998:2002  true */\n      0x01\n      not(0xff)\n        /* \"Store.sol\":1969:2002  product.buyers[msg.sender] = true */\n      swap2\n      dup3\n      and\n      dup2\n      or\n      swap1\n      swap3\n      sstore\n        /* \"Store.sol\":2012:2036  storeShopper[msg.sender] */\n      swap4\n      swap1\n      swap3\n      mstore\n      dup4\n      keccak256\n        /* \"Store.sol\":2012:2043  storeShopper[msg.sender] = true */\n      dup1\n      sload\n      swap1\n      swap3\n      and\n      or\n      swap1\n      sstore\n        /* \"Store.sol\":2053:2075  product.numSoldProduct */\n      0x08\n      dup3\n      add\n        /* \"Store.sol\":2053:2077  product.numSoldProduct++ */\n      dup1\n      sload\n      swap2\n      tag_347\n      dup4\n      tag_188\n      jump\t// in\n    tag_347:\n      swap1\n      swap2\n      sstore\n      pop\n      pop\n        /* \"Store.sol\":2087:2113  product.availableInventory */\n      0x09\n      dup2\n      add\n        /* \"Store.sol\":2087:2115  product.availableInventory-- */\n      dup1\n      sload\n      swap1\n        /* \"Store.sol\":2087:2113  product.availableInventory */\n      0x00\n        /* \"Store.sol\":2087:2115  product.availableInventory-- */\n      tag_348\n      dup4\n      tag_349\n      jump\t// in\n    tag_348:\n      swap2\n      swap1\n      pop\n      sstore\n      pop\n        /* \"Store.sol\":2151:2169  bestSellerQuantity */\n      sload(0x0d)\n        /* \"Store.sol\":2128:2135  product */\n      dup2\n        /* \"Store.sol\":2128:2150  product.numSoldProduct */\n      0x08\n      add\n      sload\n        /* \"Store.sol\":2128:2169  product.numSoldProduct>bestSellerQuantity */\n      gt\n        /* \"Store.sol\":2125:2284  if(product.numSoldProduct>bestSellerQuantity){... */\n      iszero\n      tag_270\n      jumpi\n        /* \"Store.sol\":2184:2216  bestSeller = product.description */\n      dup1\n      sload\n        /* \"Store.sol\":2184:2194  bestSeller */\n      0x0c\n      swap1\n        /* \"Store.sol\":2197:2204  product */\n      dup3\n      swap1\n        /* \"Store.sol\":2184:2216  bestSeller = product.description */\n      tag_351\n      swap1\n      tag_205\n      jump\t// in\n    tag_351:\n      tag_352\n      swap3\n      swap2\n      swap1\n      tag_353\n      jump\t// in\n    tag_352:\n      pop\n        /* \"Store.sol\":2251:2273  product.numSoldProduct */\n      0x08\n      add\n      sload\n        /* \"Store.sol\":2230:2248  bestSellerQuantity */\n      0x0d\n        /* \"Store.sol\":2230:2273  bestSellerQuantity = product.numSoldProduct */\n      sstore\n      pop\n        /* \"Store.sol\":1667:2290  function buy(uint index) public payable {... */\n      jump\t// out\n        /* \"Store.sol\":5611:5740  function updateProductSeller(uint index, address newSeller) public restricted {... */\n    tag_172:\n        /* \"Store.sol\":1471:1481  msg.sender */\n      caller\n        /* \"Store.sol\":1462:1470  managers */\n      0x00\n        /* \"Store.sol\":1462:1482  managers[msg.sender] */\n      swap1\n      dup2\n      mstore\n      0x20\n      dup2\n      swap1\n      mstore\n      0x40\n      swap1\n      keccak256\n      sload\n      0xff\n      and\n        /* \"Store.sol\":1454:1483  require(managers[msg.sender]) */\n      tag_355\n      jumpi\n      0x00\n      dup1\n      revert\n    tag_355:\n        /* \"Store.sol\":5699:5714  products[index] */\n      0x00\n      swap2\n      dup3\n      mstore\n        /* \"Store.sol\":5699:5707  products */\n      0x03\n        /* \"Store.sol\":5699:5714  products[index] */\n      0x20\n      mstore\n      0x40\n      swap1\n      swap2\n      keccak256\n        /* \"Store.sol\":5699:5721  products[index].seller */\n      0x02\n      add\n        /* \"Store.sol\":5699:5733  products[index].seller = newSeller */\n      dup1\n      sload\n      not(sub(shl(0xa0, 0x01), 0x01))\n      and\n      sub(shl(0xa0, 0x01), 0x01)\n      swap1\n      swap3\n      and\n      swap2\n      swap1\n      swap2\n      or\n      swap1\n      sstore\n        /* \"Store.sol\":5611:5740  function updateProductSeller(uint index, address newSeller) public restricted {... */\n      jump\t// out\n    tag_198:\n      dup3\n      dup1\n      sload\n      tag_357\n      swap1\n      tag_205\n      jump\t// in\n    tag_357:\n      swap1\n      0x00\n      mstore\n      keccak256(0x00, 0x20)\n      swap1\n      0x1f\n      add\n      0x20\n      swap1\n      div\n      dup2\n      add\n      swap3\n      dup3\n      tag_359\n      jumpi\n      0x00\n      dup6\n      sstore\n      jump(tag_362)\n    tag_359:\n      dup3\n      0x1f\n      lt\n      tag_360\n      jumpi\n      dup1\n      mload\n      not(0xff)\n      and\n      dup4\n      dup1\n      add\n      or\n      dup6\n      sstore\n      jump(tag_362)\n    tag_360:\n      dup3\n      dup1\n      add\n      0x01\n      add\n      dup6\n      sstore\n      dup3\n      iszero\n      tag_362\n      jumpi\n      swap2\n      dup3\n      add\n    tag_361:\n      dup3\n      dup2\n      gt\n      iszero\n      tag_362\n      jumpi\n      dup3\n      mload\n      dup3\n      sstore\n      swap2\n      0x20\n      add\n      swap2\n      swap1\n      0x01\n      add\n      swap1\n      jump(tag_361)\n    tag_362:\n      pop\n      tag_363\n      swap3\n      swap2\n      pop\n      tag_364\n      jump\t// in\n    tag_363:\n      pop\n      swap1\n      jump\t// out\n    tag_353:\n      dup3\n      dup1\n      sload\n      tag_365\n      swap1\n      tag_205\n      jump\t// in\n    tag_365:\n      swap1\n      0x00\n      mstore\n      keccak256(0x00, 0x20)\n      swap1\n      0x1f\n      add\n      0x20\n      swap1\n      div\n      dup2\n      add\n      swap3\n      dup3\n      tag_367\n      jumpi\n      0x00\n      dup6\n      sstore\n      jump(tag_362)\n    tag_367:\n      dup3\n      0x1f\n      lt\n      tag_368\n      jumpi\n      dup1\n      sload\n      dup6\n      sstore\n      jump(tag_362)\n    tag_368:\n      dup3\n      dup1\n      add\n      0x01\n      add\n      dup6\n      sstore\n      dup3\n      iszero\n      tag_362\n      jumpi\n      0x00\n      mstore\n      keccak256(0x00, 0x20)\n      swap2\n      0x1f\n      add\n      0x20\n      swap1\n      div\n      dup3\n      add\n    tag_369:\n      dup3\n      dup2\n      gt\n      iszero\n      tag_362\n      jumpi\n      dup3\n      sload\n      dup3\n      sstore\n      swap2\n      0x01\n      add\n      swap2\n      swap1\n      0x01\n      add\n      swap1\n      jump(tag_369)\n    tag_364:\n    tag_372:\n      dup1\n      dup3\n      gt\n      iszero\n      tag_363\n      jumpi\n      0x00\n      dup2\n      sstore\n      0x01\n      add\n      jump(tag_372)\n        /* \"#utility.yul\":14:187   */\n    tag_375:\n        /* \"#utility.yul\":82:102   */\n      dup1\n      calldataload\n      sub(shl(0xa0, 0x01), 0x01)\n        /* \"#utility.yul\":131:162   */\n      dup2\n      and\n        /* \"#utility.yul\":121:163   */\n      dup2\n      eq\n        /* \"#utility.yul\":111:181   */\n      tag_377\n      jumpi\n        /* \"#utility.yul\":177:178   */\n      0x00\n        /* \"#utility.yul\":174:175   */\n      dup1\n        /* \"#utility.yul\":167:179   */\n      revert\n        /* \"#utility.yul\":111:181   */\n    tag_377:\n        /* \"#utility.yul\":14:187   */\n      swap2\n      swap1\n      pop\n      jump\t// out\n        /* \"#utility.yul\":192:911   */\n    tag_378:\n        /* \"#utility.yul\":235:240   */\n      0x00\n        /* \"#utility.yul\":288:291   */\n      dup3\n        /* \"#utility.yul\":281:285   */\n      0x1f\n        /* \"#utility.yul\":273:279   */\n      dup4\n        /* \"#utility.yul\":269:286   */\n      add\n        /* \"#utility.yul\":265:292   */\n      slt\n        /* \"#utility.yul\":255:310   */\n      tag_380\n      jumpi\n        /* \"#utility.yul\":306:307   */\n      0x00\n        /* \"#utility.yul\":303:304   */\n      dup1\n        /* \"#utility.yul\":296:308   */\n      revert\n        /* \"#utility.yul\":255:310   */\n    tag_380:\n        /* \"#utility.yul\":342:348   */\n      dup2\n        /* \"#utility.yul\":329:349   */\n      calldataload\n        /* \"#utility.yul\":368:386   */\n      0xffffffffffffffff\n        /* \"#utility.yul\":405:407   */\n      dup1\n        /* \"#utility.yul\":401:403   */\n      dup3\n        /* \"#utility.yul\":398:408   */\n      gt\n        /* \"#utility.yul\":395:431   */\n      iszero\n      tag_382\n      jumpi\n        /* \"#utility.yul\":411:429   */\n      tag_382\n      tag_383\n      jump\t// in\n    tag_382:\n        /* \"#utility.yul\":486:488   */\n      0x40\n        /* \"#utility.yul\":480:489   */\n      mload\n        /* \"#utility.yul\":454:456   */\n      0x1f\n        /* \"#utility.yul\":540:553   */\n      dup4\n      add\n      not(0x1f)\n        /* \"#utility.yul\":536:558   */\n      swap1\n      dup2\n      and\n        /* \"#utility.yul\":560:562   */\n      0x3f\n        /* \"#utility.yul\":532:563   */\n      add\n        /* \"#utility.yul\":528:568   */\n      and\n        /* \"#utility.yul\":516:569   */\n      dup2\n      add\n      swap1\n        /* \"#utility.yul\":584:602   */\n      dup3\n      dup3\n      gt\n        /* \"#utility.yul\":604:626   */\n      dup2\n      dup4\n      lt\n        /* \"#utility.yul\":581:627   */\n      or\n        /* \"#utility.yul\":578:650   */\n      iszero\n      tag_385\n      jumpi\n        /* \"#utility.yul\":630:648   */\n      tag_385\n      tag_383\n      jump\t// in\n    tag_385:\n        /* \"#utility.yul\":670:680   */\n      dup2\n        /* \"#utility.yul\":666:668   */\n      0x40\n        /* \"#utility.yul\":659:681   */\n      mstore\n        /* \"#utility.yul\":705:707   */\n      dup4\n        /* \"#utility.yul\":697:703   */\n      dup2\n        /* \"#utility.yul\":690:708   */\n      mstore\n        /* \"#utility.yul\":751:754   */\n      dup7\n        /* \"#utility.yul\":744:748   */\n      0x20\n        /* \"#utility.yul\":739:741   */\n      dup6\n        /* \"#utility.yul\":731:737   */\n      dup9\n        /* \"#utility.yul\":727:742   */\n      add\n        /* \"#utility.yul\":723:749   */\n      add\n        /* \"#utility.yul\":720:755   */\n      gt\n        /* \"#utility.yul\":717:772   */\n      iszero\n      tag_386\n      jumpi\n        /* \"#utility.yul\":768:769   */\n      0x00\n        /* \"#utility.yul\":765:766   */\n      dup1\n        /* \"#utility.yul\":758:770   */\n      revert\n        /* \"#utility.yul\":717:772   */\n    tag_386:\n        /* \"#utility.yul\":832:834   */\n      dup4\n        /* \"#utility.yul\":825:829   */\n      0x20\n        /* \"#utility.yul\":817:823   */\n      dup8\n        /* \"#utility.yul\":813:830   */\n      add\n        /* \"#utility.yul\":806:810   */\n      0x20\n        /* \"#utility.yul\":798:804   */\n      dup4\n        /* \"#utility.yul\":794:811   */\n      add\n        /* \"#utility.yul\":781:835   */\n      calldatacopy\n        /* \"#utility.yul\":879:880   */\n      0x00\n        /* \"#utility.yul\":872:876   */\n      0x20\n        /* \"#utility.yul\":867:869   */\n      dup6\n        /* \"#utility.yul\":859:865   */\n      dup4\n        /* \"#utility.yul\":855:870   */\n      add\n        /* \"#utility.yul\":851:877   */\n      add\n        /* \"#utility.yul\":844:881   */\n      mstore\n        /* \"#utility.yul\":899:905   */\n      dup1\n        /* \"#utility.yul\":890:905   */\n      swap5\n      pop\n      pop\n      pop\n      pop\n      pop\n        /* \"#utility.yul\":192:911   */\n      swap3\n      swap2\n      pop\n      pop\n      jump\t// out\n        /* \"#utility.yul\":916:1102   */\n    tag_79:\n        /* \"#utility.yul\":975:981   */\n      0x00\n        /* \"#utility.yul\":1028:1030   */\n      0x20\n        /* \"#utility.yul\":1016:1025   */\n      dup3\n        /* \"#utility.yul\":1007:1014   */\n      dup5\n        /* \"#utility.yul\":1003:1026   */\n      sub\n        /* \"#utility.yul\":999:1031   */\n      slt\n        /* \"#utility.yul\":996:1048   */\n      iszero\n      tag_388\n      jumpi\n        /* \"#utility.yul\":1044:1045   */\n      0x00\n        /* \"#utility.yul\":1041:1042   */\n      dup1\n        /* \"#utility.yul\":1034:1046   */\n      revert\n        /* \"#utility.yul\":996:1048   */\n    tag_388:\n        /* \"#utility.yul\":1067:1096   */\n      tag_389\n        /* \"#utility.yul\":1086:1095   */\n      dup3\n        /* \"#utility.yul\":1067:1096   */\n      tag_375\n      jump\t// in\n    tag_389:\n        /* \"#utility.yul\":1057:1096   */\n      swap4\n        /* \"#utility.yul\":916:1102   */\n      swap3\n      pop\n      pop\n      pop\n      jump\t// out\n        /* \"#utility.yul\":1107:1429   */\n    tag_153:\n        /* \"#utility.yul\":1176:1182   */\n      0x00\n        /* \"#utility.yul\":1229:1231   */\n      0x20\n        /* \"#utility.yul\":1217:1226   */\n      dup3\n        /* \"#utility.yul\":1208:1215   */\n      dup5\n        /* \"#utility.yul\":1204:1227   */\n      sub\n        /* \"#utility.yul\":1200:1232   */\n      slt\n        /* \"#utility.yul\":1197:1249   */\n      iszero\n      tag_391\n      jumpi\n        /* \"#utility.yul\":1245:1246   */\n      0x00\n        /* \"#utility.yul\":1242:1243   */\n      dup1\n        /* \"#utility.yul\":1235:1247   */\n      revert\n        /* \"#utility.yul\":1197:1249   */\n    tag_391:\n        /* \"#utility.yul\":1285:1294   */\n      dup2\n        /* \"#utility.yul\":1272:1295   */\n      calldataload\n        /* \"#utility.yul\":1318:1336   */\n      0xffffffffffffffff\n        /* \"#utility.yul\":1310:1316   */\n      dup2\n        /* \"#utility.yul\":1307:1337   */\n      gt\n        /* \"#utility.yul\":1304:1354   */\n      iszero\n      tag_392\n      jumpi\n        /* \"#utility.yul\":1350:1351   */\n      0x00\n        /* \"#utility.yul\":1347:1348   */\n      dup1\n        /* \"#utility.yul\":1340:1352   */\n      revert\n        /* \"#utility.yul\":1304:1354   */\n    tag_392:\n        /* \"#utility.yul\":1373:1423   */\n      tag_393\n        /* \"#utility.yul\":1415:1422   */\n      dup5\n        /* \"#utility.yul\":1406:1412   */\n      dup3\n        /* \"#utility.yul\":1395:1404   */\n      dup6\n        /* \"#utility.yul\":1391:1413   */\n      add\n        /* \"#utility.yul\":1373:1423   */\n      tag_378\n      jump\t// in\n    tag_393:\n        /* \"#utility.yul\":1363:1423   */\n      swap5\n        /* \"#utility.yul\":1107:1429   */\n      swap4\n      pop\n      pop\n      pop\n      pop\n      jump\t// out\n        /* \"#utility.yul\":1434:1967   */\n    tag_163:\n        /* \"#utility.yul\":1530:1536   */\n      0x00\n        /* \"#utility.yul\":1538:1544   */\n      dup1\n        /* \"#utility.yul\":1546:1552   */\n      0x00\n        /* \"#utility.yul\":1554:1560   */\n      dup1\n        /* \"#utility.yul\":1607:1610   */\n      0x80\n        /* \"#utility.yul\":1595:1604   */\n      dup6\n        /* \"#utility.yul\":1586:1593   */\n      dup8\n        /* \"#utility.yul\":1582:1605   */\n      sub\n        /* \"#utility.yul\":1578:1611   */\n      slt\n        /* \"#utility.yul\":1575:1628   */\n      iszero\n      tag_395\n      jumpi\n        /* \"#utility.yul\":1624:1625   */\n      0x00\n        /* \"#utility.yul\":1621:1622   */\n      dup1\n        /* \"#utility.yul\":1614:1626   */\n      revert\n        /* \"#utility.yul\":1575:1628   */\n    tag_395:\n        /* \"#utility.yul\":1664:1673   */\n      dup5\n        /* \"#utility.yul\":1651:1674   */\n      calldataload\n        /* \"#utility.yul\":1697:1715   */\n      0xffffffffffffffff\n        /* \"#utility.yul\":1689:1695   */\n      dup2\n        /* \"#utility.yul\":1686:1716   */\n      gt\n        /* \"#utility.yul\":1683:1733   */\n      iszero\n      tag_396\n      jumpi\n        /* \"#utility.yul\":1729:1730   */\n      0x00\n        /* \"#utility.yul\":1726:1727   */\n      dup1\n        /* \"#utility.yul\":1719:1731   */\n      revert\n        /* \"#utility.yul\":1683:1733   */\n    tag_396:\n        /* \"#utility.yul\":1752:1802   */\n      tag_397\n        /* \"#utility.yul\":1794:1801   */\n      dup8\n        /* \"#utility.yul\":1785:1791   */\n      dup3\n        /* \"#utility.yul\":1774:1783   */\n      dup9\n        /* \"#utility.yul\":1770:1792   */\n      add\n        /* \"#utility.yul\":1752:1802   */\n      tag_378\n      jump\t// in\n    tag_397:\n        /* \"#utility.yul\":1742:1802   */\n      swap5\n      pop\n      pop\n        /* \"#utility.yul\":1849:1851   */\n      0x20\n        /* \"#utility.yul\":1838:1847   */\n      dup6\n        /* \"#utility.yul\":1834:1852   */\n      add\n        /* \"#utility.yul\":1821:1853   */\n      calldataload\n        /* \"#utility.yul\":1811:1853   */\n      swap3\n      pop\n        /* \"#utility.yul\":1872:1910   */\n      tag_398\n        /* \"#utility.yul\":1906:1908   */\n      0x40\n        /* \"#utility.yul\":1895:1904   */\n      dup7\n        /* \"#utility.yul\":1891:1909   */\n      add\n        /* \"#utility.yul\":1872:1910   */\n      tag_375\n      jump\t// in\n    tag_398:\n        /* \"#utility.yul\":1434:1967   */\n      swap4\n      swap7\n      swap3\n      swap6\n      pop\n        /* \"#utility.yul\":1862:1910   */\n      swap3\n      swap4\n        /* \"#utility.yul\":1957:1959   */\n      0x60\n        /* \"#utility.yul\":1942:1960   */\n      add\n        /* \"#utility.yul\":1929:1961   */\n      calldataload\n      swap3\n      pop\n      pop\n        /* \"#utility.yul\":1434:1967   */\n      jump\t// out\n        /* \"#utility.yul\":1972:2152   */\n    tag_57:\n        /* \"#utility.yul\":2031:2037   */\n      0x00\n        /* \"#utility.yul\":2084:2086   */\n      0x20\n        /* \"#utility.yul\":2072:2081   */\n      dup3\n        /* \"#utility.yul\":2063:2070   */\n      dup5\n        /* \"#utility.yul\":2059:2082   */\n      sub\n        /* \"#utility.yul\":2055:2087   */\n      slt\n        /* \"#utility.yul\":2052:2104   */\n      iszero\n      tag_400\n      jumpi\n        /* \"#utility.yul\":2100:2101   */\n      0x00\n        /* \"#utility.yul\":2097:2098   */\n      dup1\n        /* \"#utility.yul\":2090:2102   */\n      revert\n        /* \"#utility.yul\":2052:2104   */\n    tag_400:\n      pop\n        /* \"#utility.yul\":2123:2146   */\n      calldataload\n      swap2\n        /* \"#utility.yul\":1972:2152   */\n      swap1\n      pop\n      jump\t// out\n        /* \"#utility.yul\":2157:2411   */\n    tag_171:\n        /* \"#utility.yul\":2225:2231   */\n      0x00\n        /* \"#utility.yul\":2233:2239   */\n      dup1\n        /* \"#utility.yul\":2286:2288   */\n      0x40\n        /* \"#utility.yul\":2274:2283   */\n      dup4\n        /* \"#utility.yul\":2265:2272   */\n      dup6\n        /* \"#utility.yul\":2261:2284   */\n      sub\n        /* \"#utility.yul\":2257:2289   */\n      slt\n        /* \"#utility.yul\":2254:2306   */\n      iszero\n      tag_402\n      jumpi\n        /* \"#utility.yul\":2302:2303   */\n      0x00\n        /* \"#utility.yul\":2299:2300   */\n      dup1\n        /* \"#utility.yul\":2292:2304   */\n      revert\n        /* \"#utility.yul\":2254:2306   */\n    tag_402:\n        /* \"#utility.yul\":2338:2347   */\n      dup3\n        /* \"#utility.yul\":2325:2348   */\n      calldataload\n        /* \"#utility.yul\":2315:2348   */\n      swap2\n      pop\n        /* \"#utility.yul\":2367:2405   */\n      tag_403\n        /* \"#utility.yul\":2401:2403   */\n      0x20\n        /* \"#utility.yul\":2390:2399   */\n      dup5\n        /* \"#utility.yul\":2386:2404   */\n      add\n        /* \"#utility.yul\":2367:2405   */\n      tag_375\n      jump\t// in\n    tag_403:\n        /* \"#utility.yul\":2357:2405   */\n      swap1\n      pop\n        /* \"#utility.yul\":2157:2411   */\n      swap3\n      pop\n      swap3\n      swap1\n      pop\n      jump\t// out\n        /* \"#utility.yul\":2416:2757   */\n    tag_84:\n        /* \"#utility.yul\":2481:2487   */\n      0x00\n        /* \"#utility.yul\":2489:2495   */\n      dup1\n        /* \"#utility.yul\":2542:2544   */\n      0x40\n        /* \"#utility.yul\":2530:2539   */\n      dup4\n        /* \"#utility.yul\":2521:2528   */\n      dup6\n        /* \"#utility.yul\":2517:2540   */\n      sub\n        /* \"#utility.yul\":2513:2545   */\n      slt\n        /* \"#utility.yul\":2510:2562   */\n      iszero\n      tag_405\n      jumpi\n        /* \"#utility.yul\":2558:2559   */\n      0x00\n        /* \"#utility.yul\":2555:2556   */\n      dup1\n        /* \"#utility.yul\":2548:2560   */\n      revert\n        /* \"#utility.yul\":2510:2562   */\n    tag_405:\n        /* \"#utility.yul\":2594:2603   */\n      dup3\n        /* \"#utility.yul\":2581:2604   */\n      calldataload\n        /* \"#utility.yul\":2571:2604   */\n      swap2\n      pop\n        /* \"#utility.yul\":2654:2656   */\n      0x20\n        /* \"#utility.yul\":2643:2652   */\n      dup4\n        /* \"#utility.yul\":2639:2657   */\n      add\n        /* \"#utility.yul\":2626:2658   */\n      calldataload\n        /* \"#utility.yul\":2701:2706   */\n      dup1\n        /* \"#utility.yul\":2694:2707   */\n      iszero\n        /* \"#utility.yul\":2687:2708   */\n      iszero\n        /* \"#utility.yul\":2680:2685   */\n      dup2\n        /* \"#utility.yul\":2677:2709   */\n      eq\n        /* \"#utility.yul\":2667:2727   */\n      tag_406\n      jumpi\n        /* \"#utility.yul\":2723:2724   */\n      0x00\n        /* \"#utility.yul\":2720:2721   */\n      dup1\n        /* \"#utility.yul\":2713:2725   */\n      revert\n        /* \"#utility.yul\":2667:2727   */\n    tag_406:\n        /* \"#utility.yul\":2746:2751   */\n      dup1\n        /* \"#utility.yul\":2736:2751   */\n      swap2\n      pop\n      pop\n        /* \"#utility.yul\":2416:2757   */\n      swap3\n      pop\n      swap3\n      swap1\n      pop\n      jump\t// out\n        /* \"#utility.yul\":2762:3152   */\n    tag_69:\n        /* \"#utility.yul\":2840:2846   */\n      0x00\n        /* \"#utility.yul\":2848:2854   */\n      dup1\n        /* \"#utility.yul\":2901:2903   */\n      0x40\n        /* \"#utility.yul\":2889:2898   */\n      dup4\n        /* \"#utility.yul\":2880:2887   */\n      dup6\n        /* \"#utility.yul\":2876:2899   */\n      sub\n        /* \"#utility.yul\":2872:2904   */\n      slt\n        /* \"#utility.yul\":2869:2921   */\n      iszero\n      tag_408\n      jumpi\n        /* \"#utility.yul\":2917:2918   */\n      0x00\n        /* \"#utility.yul\":2914:2915   */\n      dup1\n        /* \"#utility.yul\":2907:2919   */\n      revert\n        /* \"#utility.yul\":2869:2921   */\n    tag_408:\n        /* \"#utility.yul\":2953:2962   */\n      dup3\n        /* \"#utility.yul\":2940:2963   */\n      calldataload\n        /* \"#utility.yul\":2930:2963   */\n      swap2\n      pop\n        /* \"#utility.yul\":3014:3016   */\n      0x20\n        /* \"#utility.yul\":3003:3012   */\n      dup4\n        /* \"#utility.yul\":2999:3017   */\n      add\n        /* \"#utility.yul\":2986:3018   */\n      calldataload\n        /* \"#utility.yul\":3041:3059   */\n      0xffffffffffffffff\n        /* \"#utility.yul\":3033:3039   */\n      dup2\n        /* \"#utility.yul\":3030:3060   */\n      gt\n        /* \"#utility.yul\":3027:3077   */\n      iszero\n      tag_409\n      jumpi\n        /* \"#utility.yul\":3073:3074   */\n      0x00\n        /* \"#utility.yul\":3070:3071   */\n      dup1\n        /* \"#utility.yul\":3063:3075   */\n      revert\n        /* \"#utility.yul\":3027:3077   */\n    tag_409:\n        /* \"#utility.yul\":3096:3146   */\n      tag_410\n        /* \"#utility.yul\":3138:3145   */\n      dup6\n        /* \"#utility.yul\":3129:3135   */\n      dup3\n        /* \"#utility.yul\":3118:3127   */\n      dup7\n        /* \"#utility.yul\":3114:3136   */\n      add\n        /* \"#utility.yul\":3096:3146   */\n      tag_378\n      jump\t// in\n    tag_410:\n        /* \"#utility.yul\":3086:3146   */\n      swap2\n      pop\n      pop\n        /* \"#utility.yul\":2762:3152   */\n      swap3\n      pop\n      swap3\n      swap1\n      pop\n      jump\t// out\n        /* \"#utility.yul\":3157:3759   */\n    tag_64:\n        /* \"#utility.yul\":3262:3268   */\n      0x00\n        /* \"#utility.yul\":3270:3276   */\n      dup1\n        /* \"#utility.yul\":3278:3284   */\n      0x00\n        /* \"#utility.yul\":3286:3292   */\n      dup1\n        /* \"#utility.yul\":3294:3300   */\n      0x00\n        /* \"#utility.yul\":3347:3350   */\n      0xa0\n        /* \"#utility.yul\":3335:3344   */\n      dup7\n        /* \"#utility.yul\":3326:3333   */\n      dup9\n        /* \"#utility.yul\":3322:3345   */\n      sub\n        /* \"#utility.yul\":3318:3351   */\n      slt\n        /* \"#utility.yul\":3315:3368   */\n      iszero\n      tag_412\n      jumpi\n        /* \"#utility.yul\":3364:3365   */\n      0x00\n        /* \"#utility.yul\":3361:3362   */\n      dup1\n        /* \"#utility.yul\":3354:3366   */\n      revert\n        /* \"#utility.yul\":3315:3368   */\n    tag_412:\n        /* \"#utility.yul\":3400:3409   */\n      dup6\n        /* \"#utility.yul\":3387:3410   */\n      calldataload\n        /* \"#utility.yul\":3377:3410   */\n      swap5\n      pop\n        /* \"#utility.yul\":3461:3463   */\n      0x20\n        /* \"#utility.yul\":3450:3459   */\n      dup7\n        /* \"#utility.yul\":3446:3464   */\n      add\n        /* \"#utility.yul\":3433:3465   */\n      calldataload\n        /* \"#utility.yul\":3488:3506   */\n      0xffffffffffffffff\n        /* \"#utility.yul\":3480:3486   */\n      dup2\n        /* \"#utility.yul\":3477:3507   */\n      gt\n        /* \"#utility.yul\":3474:3524   */\n      iszero\n      tag_413\n      jumpi\n        /* \"#utility.yul\":3520:3521   */\n      0x00\n        /* \"#utility.yul\":3517:3518   */\n      dup1\n        /* \"#utility.yul\":3510:3522   */\n      revert\n        /* \"#utility.yul\":3474:3524   */\n    tag_413:\n        /* \"#utility.yul\":3543:3593   */\n      tag_414\n        /* \"#utility.yul\":3585:3592   */\n      dup9\n        /* \"#utility.yul\":3576:3582   */\n      dup3\n        /* \"#utility.yul\":3565:3574   */\n      dup10\n        /* \"#utility.yul\":3561:3583   */\n      add\n        /* \"#utility.yul\":3543:3593   */\n      tag_378\n      jump\t// in\n    tag_414:\n        /* \"#utility.yul\":3533:3593   */\n      swap5\n      pop\n      pop\n        /* \"#utility.yul\":3612:3650   */\n      tag_415\n        /* \"#utility.yul\":3646:3648   */\n      0x40\n        /* \"#utility.yul\":3635:3644   */\n      dup8\n        /* \"#utility.yul\":3631:3649   */\n      add\n        /* \"#utility.yul\":3612:3650   */\n      tag_375\n      jump\t// in\n    tag_415:\n        /* \"#utility.yul\":3157:3759   */\n      swap5\n      swap8\n      swap4\n      swap7\n      pop\n        /* \"#utility.yul\":3602:3650   */\n      swap4\n      swap5\n        /* \"#utility.yul\":3697:3699   */\n      0x60\n        /* \"#utility.yul\":3682:3700   */\n      dup2\n      add\n        /* \"#utility.yul\":3669:3701   */\n      calldataload\n      swap5\n      pop\n        /* \"#utility.yul\":3748:3751   */\n      0x80\n        /* \"#utility.yul\":3733:3752   */\n      add\n        /* \"#utility.yul\":3720:3753   */\n      calldataload\n      swap3\n        /* \"#utility.yul\":3157:3759   */\n      swap2\n      pop\n      pop\n      jump\t// out\n        /* \"#utility.yul\":3764:4012   */\n    tag_98:\n        /* \"#utility.yul\":3832:3838   */\n      0x00\n        /* \"#utility.yul\":3840:3846   */\n      dup1\n        /* \"#utility.yul\":3893:3895   */\n      0x40\n        /* \"#utility.yul\":3881:3890   */\n      dup4\n        /* \"#utility.yul\":3872:3879   */\n      dup6\n        /* \"#utility.yul\":3868:3891   */\n      sub\n        /* \"#utility.yul\":3864:3896   */\n      slt\n        /* \"#utility.yul\":3861:3913   */\n      iszero\n      tag_417\n      jumpi\n        /* \"#utility.yul\":3909:3910   */\n      0x00\n        /* \"#utility.yul\":3906:3907   */\n      dup1\n        /* \"#utility.yul\":3899:3911   */\n      revert\n        /* \"#utility.yul\":3861:3913   */\n    tag_417:\n      pop\n      pop\n        /* \"#utility.yul\":3932:3955   */\n      dup1\n      calldataload\n      swap3\n        /* \"#utility.yul\":4002:4004   */\n      0x20\n        /* \"#utility.yul\":3987:4005   */\n      swap1\n      swap2\n      add\n        /* \"#utility.yul\":3974:4006   */\n      calldataload\n      swap2\n      pop\n        /* \"#utility.yul\":3764:4012   */\n      jump\t// out\n        /* \"#utility.yul\":4017:4475   */\n    tag_41:\n        /* \"#utility.yul\":4104:4110   */\n      0x00\n        /* \"#utility.yul\":4112:4118   */\n      dup1\n        /* \"#utility.yul\":4120:4126   */\n      0x00\n        /* \"#utility.yul\":4173:4175   */\n      0x60\n        /* \"#utility.yul\":4161:4170   */\n      dup5\n        /* \"#utility.yul\":4152:4159   */\n      dup7\n        /* \"#utility.yul\":4148:4171   */\n      sub\n        /* \"#utility.yul\":4144:4176   */\n      slt\n        /* \"#utility.yul\":4141:4193   */\n      iszero\n      tag_419\n      jumpi\n        /* \"#utility.yul\":4189:4190   */\n      0x00\n        /* \"#utility.yul\":4186:4187   */\n      dup1\n        /* \"#utility.yul\":4179:4191   */\n      revert\n        /* \"#utility.yul\":4141:4193   */\n    tag_419:\n        /* \"#utility.yul\":4225:4234   */\n      dup4\n        /* \"#utility.yul\":4212:4235   */\n      calldataload\n        /* \"#utility.yul\":4202:4235   */\n      swap3\n      pop\n        /* \"#utility.yul\":4282:4284   */\n      0x20\n        /* \"#utility.yul\":4271:4280   */\n      dup5\n        /* \"#utility.yul\":4267:4285   */\n      add\n        /* \"#utility.yul\":4254:4286   */\n      calldataload\n        /* \"#utility.yul\":4244:4286   */\n      swap2\n      pop\n        /* \"#utility.yul\":4337:4339   */\n      0x40\n        /* \"#utility.yul\":4326:4335   */\n      dup5\n        /* \"#utility.yul\":4322:4340   */\n      add\n        /* \"#utility.yul\":4309:4341   */\n      calldataload\n        /* \"#utility.yul\":4364:4382   */\n      0xffffffffffffffff\n        /* \"#utility.yul\":4356:4362   */\n      dup2\n        /* \"#utility.yul\":4353:4383   */\n      gt\n        /* \"#utility.yul\":4350:4400   */\n      iszero\n      tag_420\n      jumpi\n        /* \"#utility.yul\":4396:4397   */\n      0x00\n        /* \"#utility.yul\":4393:4394   */\n      dup1\n        /* \"#utility.yul\":4386:4398   */\n      revert\n        /* \"#utility.yul\":4350:4400   */\n    tag_420:\n        /* \"#utility.yul\":4419:4469   */\n      tag_421\n        /* \"#utility.yul\":4461:4468   */\n      dup7\n        /* \"#utility.yul\":4452:4458   */\n      dup3\n        /* \"#utility.yul\":4441:4450   */\n      dup8\n        /* \"#utility.yul\":4437:4459   */\n      add\n        /* \"#utility.yul\":4419:4469   */\n      tag_378\n      jump\t// in\n    tag_421:\n        /* \"#utility.yul\":4409:4469   */\n      swap2\n      pop\n      pop\n        /* \"#utility.yul\":4017:4475   */\n      swap3\n      pop\n      swap3\n      pop\n      swap3\n      jump\t// out\n        /* \"#utility.yul\":4480:4941   */\n    tag_422:\n        /* \"#utility.yul\":4533:4536   */\n      0x00\n        /* \"#utility.yul\":4571:4576   */\n      dup2\n        /* \"#utility.yul\":4565:4577   */\n      mload\n        /* \"#utility.yul\":4598:4604   */\n      dup1\n        /* \"#utility.yul\":4593:4596   */\n      dup5\n        /* \"#utility.yul\":4586:4605   */\n      mstore\n        /* \"#utility.yul\":4624:4628   */\n      0x20\n        /* \"#utility.yul\":4653:4655   */\n      dup1\n        /* \"#utility.yul\":4648:4651   */\n      dup6\n        /* \"#utility.yul\":4644:4656   */\n      add\n        /* \"#utility.yul\":4637:4656   */\n      swap5\n      pop\n        /* \"#utility.yul\":4690:4692   */\n      dup1\n        /* \"#utility.yul\":4683:4688   */\n      dup5\n        /* \"#utility.yul\":4679:4693   */\n      add\n        /* \"#utility.yul\":4711:4712   */\n      0x00\n        /* \"#utility.yul\":4721:4916   */\n    tag_424:\n        /* \"#utility.yul\":4735:4741   */\n      dup4\n        /* \"#utility.yul\":4732:4733   */\n      dup2\n        /* \"#utility.yul\":4729:4742   */\n      lt\n        /* \"#utility.yul\":4721:4916   */\n      iszero\n      tag_426\n      jumpi\n        /* \"#utility.yul\":4800:4813   */\n      dup2\n      mload\n      sub(shl(0xa0, 0x01), 0x01)\n        /* \"#utility.yul\":4796:4835   */\n      and\n        /* \"#utility.yul\":4784:4836   */\n      dup8\n      mstore\n        /* \"#utility.yul\":4856:4868   */\n      swap6\n      dup3\n      add\n      swap6\n        /* \"#utility.yul\":4891:4906   */\n      swap1\n      dup3\n      add\n      swap1\n      0x01\n        /* \"#utility.yul\":4750:4759   */\n      add\n        /* \"#utility.yul\":4721:4916   */\n      jump(tag_424)\n    tag_426:\n      pop\n        /* \"#utility.yul\":4932:4935   */\n      swap5\n      swap6\n        /* \"#utility.yul\":4480:4941   */\n      swap5\n      pop\n      pop\n      pop\n      pop\n      pop\n      jump\t// out\n        /* \"#utility.yul\":4946:5538   */\n    tag_427:\n        /* \"#utility.yul\":4998:5001   */\n      0x00\n        /* \"#utility.yul\":5029:5032   */\n      dup3\n        /* \"#utility.yul\":5061:5066   */\n      dup3\n        /* \"#utility.yul\":5055:5067   */\n      mload\n        /* \"#utility.yul\":5088:5094   */\n      dup1\n        /* \"#utility.yul\":5083:5086   */\n      dup6\n        /* \"#utility.yul\":5076:5095   */\n      mstore\n        /* \"#utility.yul\":5114:5118   */\n      0x20\n        /* \"#utility.yul\":5143:5145   */\n      dup1\n        /* \"#utility.yul\":5138:5141   */\n      dup7\n        /* \"#utility.yul\":5134:5146   */\n      add\n        /* \"#utility.yul\":5127:5146   */\n      swap6\n      pop\n        /* \"#utility.yul\":5199:5201   */\n      dup1\n        /* \"#utility.yul\":5189:5195   */\n      dup3\n        /* \"#utility.yul\":5186:5187   */\n      0x05\n        /* \"#utility.yul\":5182:5196   */\n      shl\n        /* \"#utility.yul\":5175:5180   */\n      dup5\n        /* \"#utility.yul\":5171:5197   */\n      add\n        /* \"#utility.yul\":5167:5202   */\n      add\n        /* \"#utility.yul\":5236:5238   */\n      dup2\n        /* \"#utility.yul\":5229:5234   */\n      dup7\n        /* \"#utility.yul\":5225:5239   */\n      add\n        /* \"#utility.yul\":5257:5258   */\n      0x00\n        /* \"#utility.yul\":5267:5512   */\n    tag_429:\n        /* \"#utility.yul\":5281:5287   */\n      dup5\n        /* \"#utility.yul\":5278:5279   */\n      dup2\n        /* \"#utility.yul\":5275:5288   */\n      lt\n        /* \"#utility.yul\":5267:5512   */\n      iszero\n      tag_431\n      jumpi\n        /* \"#utility.yul\":5368:5370   */\n      0x1f\n        /* \"#utility.yul\":5364:5371   */\n      not\n        /* \"#utility.yul\":5356:5361   */\n      dup7\n        /* \"#utility.yul\":5350:5354   */\n      dup5\n        /* \"#utility.yul\":5346:5362   */\n      sub\n        /* \"#utility.yul\":5342:5372   */\n      add\n        /* \"#utility.yul\":5337:5340   */\n      dup10\n        /* \"#utility.yul\":5330:5373   */\n      mstore\n        /* \"#utility.yul\":5394:5432   */\n      tag_432\n        /* \"#utility.yul\":5427:5431   */\n      dup4\n        /* \"#utility.yul\":5418:5424   */\n      dup4\n        /* \"#utility.yul\":5412:5425   */\n      mload\n        /* \"#utility.yul\":5394:5432   */\n      tag_433\n      jump\t// in\n    tag_432:\n        /* \"#utility.yul\":5490:5502   */\n      swap9\n      dup5\n      add\n      swap9\n        /* \"#utility.yul\":5386:5432   */\n      swap3\n      pop\n        /* \"#utility.yul\":5455:5470   */\n      swap1\n      dup4\n      add\n      swap1\n        /* \"#utility.yul\":5303:5304   */\n      0x01\n        /* \"#utility.yul\":5296:5305   */\n      add\n        /* \"#utility.yul\":5267:5512   */\n      jump(tag_429)\n    tag_431:\n      pop\n        /* \"#utility.yul\":5528:5532   */\n      swap1\n      swap8\n        /* \"#utility.yul\":4946:5538   */\n      swap7\n      pop\n      pop\n      pop\n      pop\n      pop\n      pop\n      pop\n      jump\t// out\n        /* \"#utility.yul\":5543:5978   */\n    tag_434:\n        /* \"#utility.yul\":5596:5599   */\n      0x00\n        /* \"#utility.yul\":5634:5639   */\n      dup2\n        /* \"#utility.yul\":5628:5640   */\n      mload\n        /* \"#utility.yul\":5661:5667   */\n      dup1\n        /* \"#utility.yul\":5656:5659   */\n      dup5\n        /* \"#utility.yul\":5649:5668   */\n      mstore\n        /* \"#utility.yul\":5687:5691   */\n      0x20\n        /* \"#utility.yul\":5716:5718   */\n      dup1\n        /* \"#utility.yul\":5711:5714   */\n      dup6\n        /* \"#utility.yul\":5707:5719   */\n      add\n        /* \"#utility.yul\":5700:5719   */\n      swap5\n      pop\n        /* \"#utility.yul\":5753:5755   */\n      dup1\n        /* \"#utility.yul\":5746:5751   */\n      dup5\n        /* \"#utility.yul\":5742:5756   */\n      add\n        /* \"#utility.yul\":5774:5775   */\n      0x00\n        /* \"#utility.yul\":5784:5953   */\n    tag_436:\n        /* \"#utility.yul\":5798:5804   */\n      dup4\n        /* \"#utility.yul\":5795:5796   */\n      dup2\n        /* \"#utility.yul\":5792:5805   */\n      lt\n        /* \"#utility.yul\":5784:5953   */\n      iszero\n      tag_426\n      jumpi\n        /* \"#utility.yul\":5859:5872   */\n      dup2\n      mload\n        /* \"#utility.yul\":5847:5873   */\n      dup8\n      mstore\n        /* \"#utility.yul\":5893:5905   */\n      swap6\n      dup3\n      add\n      swap6\n        /* \"#utility.yul\":5928:5943   */\n      swap1\n      dup3\n      add\n      swap1\n        /* \"#utility.yul\":5820:5821   */\n      0x01\n        /* \"#utility.yul\":5813:5822   */\n      add\n        /* \"#utility.yul\":5784:5953   */\n      jump(tag_436)\n        /* \"#utility.yul\":5983:6455   */\n    tag_433:\n        /* \"#utility.yul\":6025:6028   */\n      0x00\n        /* \"#utility.yul\":6063:6068   */\n      dup2\n        /* \"#utility.yul\":6057:6069   */\n      mload\n        /* \"#utility.yul\":6090:6096   */\n      dup1\n        /* \"#utility.yul\":6085:6088   */\n      dup5\n        /* \"#utility.yul\":6078:6097   */\n      mstore\n        /* \"#utility.yul\":6115:6116   */\n      0x00\n        /* \"#utility.yul\":6125:6287   */\n    tag_440:\n        /* \"#utility.yul\":6139:6145   */\n      dup2\n        /* \"#utility.yul\":6136:6137   */\n      dup2\n        /* \"#utility.yul\":6133:6146   */\n      lt\n        /* \"#utility.yul\":6125:6287   */\n      iszero\n      tag_442\n      jumpi\n        /* \"#utility.yul\":6201:6205   */\n      0x20\n        /* \"#utility.yul\":6257:6270   */\n      dup2\n      dup6\n      add\n        /* \"#utility.yul\":6253:6275   */\n      dup2\n      add\n        /* \"#utility.yul\":6247:6276   */\n      mload\n        /* \"#utility.yul\":6229:6240   */\n      dup7\n      dup4\n      add\n        /* \"#utility.yul\":6225:6245   */\n      dup3\n      add\n        /* \"#utility.yul\":6218:6277   */\n      mstore\n        /* \"#utility.yul\":6154:6166   */\n      add\n        /* \"#utility.yul\":6125:6287   */\n      jump(tag_440)\n    tag_442:\n        /* \"#utility.yul\":6305:6311   */\n      dup2\n        /* \"#utility.yul\":6302:6303   */\n      dup2\n        /* \"#utility.yul\":6299:6312   */\n      gt\n        /* \"#utility.yul\":6296:6383   */\n      iszero\n      tag_443\n      jumpi\n        /* \"#utility.yul\":6371:6372   */\n      0x00\n        /* \"#utility.yul\":6364:6368   */\n      0x20\n        /* \"#utility.yul\":6355:6361   */\n      dup4\n        /* \"#utility.yul\":6350:6353   */\n      dup8\n        /* \"#utility.yul\":6346:6362   */\n      add\n        /* \"#utility.yul\":6342:6369   */\n      add\n        /* \"#utility.yul\":6335:6373   */\n      mstore\n        /* \"#utility.yul\":6296:6383   */\n    tag_443:\n      pop\n        /* \"#utility.yul\":6437:6439   */\n      0x1f\n        /* \"#utility.yul\":6416:6431   */\n      add\n      not(0x1f)\n        /* \"#utility.yul\":6412:6441   */\n      and\n        /* \"#utility.yul\":6403:6442   */\n      swap3\n      swap1\n      swap3\n      add\n        /* \"#utility.yul\":6444:6448   */\n      0x20\n        /* \"#utility.yul\":6399:6449   */\n      add\n      swap3\n        /* \"#utility.yul\":5983:6455   */\n      swap2\n      pop\n      pop\n      jump\t// out\n        /* \"#utility.yul\":6668:7356   */\n    tag_60:\n        /* \"#utility.yul\":7023:7025   */\n      0x60\n        /* \"#utility.yul\":7012:7021   */\n      dup2\n        /* \"#utility.yul\":7005:7026   */\n      mstore\n        /* \"#utility.yul\":6986:6990   */\n      0x00\n        /* \"#utility.yul\":7049:7104   */\n      tag_446\n        /* \"#utility.yul\":7100:7102   */\n      0x60\n        /* \"#utility.yul\":7089:7098   */\n      dup4\n        /* \"#utility.yul\":7085:7103   */\n      add\n        /* \"#utility.yul\":7077:7083   */\n      dup7\n        /* \"#utility.yul\":7049:7104   */\n      tag_427\n      jump\t// in\n    tag_446:\n        /* \"#utility.yul\":7152:7161   */\n      dup3\n        /* \"#utility.yul\":7144:7150   */\n      dup2\n        /* \"#utility.yul\":7140:7162   */\n      sub\n        /* \"#utility.yul\":7135:7137   */\n      0x20\n        /* \"#utility.yul\":7124:7133   */\n      dup5\n        /* \"#utility.yul\":7120:7138   */\n      add\n        /* \"#utility.yul\":7113:7163   */\n      mstore\n        /* \"#utility.yul\":7186:7230   */\n      tag_447\n        /* \"#utility.yul\":7223:7229   */\n      dup2\n        /* \"#utility.yul\":7215:7221   */\n      dup7\n        /* \"#utility.yul\":7186:7230   */\n      tag_422\n      jump\t// in\n    tag_447:\n        /* \"#utility.yul\":7172:7230   */\n      swap1\n      pop\n        /* \"#utility.yul\":7278:7287   */\n      dup3\n        /* \"#utility.yul\":7270:7276   */\n      dup2\n        /* \"#utility.yul\":7266:7288   */\n      sub\n        /* \"#utility.yul\":7261:7263   */\n      0x40\n        /* \"#utility.yul\":7250:7259   */\n      dup5\n        /* \"#utility.yul\":7246:7264   */\n      add\n        /* \"#utility.yul\":7239:7289   */\n      mstore\n        /* \"#utility.yul\":7306:7350   */\n      tag_448\n        /* \"#utility.yul\":7343:7349   */\n      dup2\n        /* \"#utility.yul\":7335:7341   */\n      dup6\n        /* \"#utility.yul\":7306:7350   */\n      tag_434\n      jump\t// in\n    tag_448:\n        /* \"#utility.yul\":7298:7350   */\n      swap7\n        /* \"#utility.yul\":6668:7356   */\n      swap6\n      pop\n      pop\n      pop\n      pop\n      pop\n      pop\n      jump\t// out\n        /* \"#utility.yul\":7553:7773   */\n    tag_90:\n        /* \"#utility.yul\":7702:7704   */\n      0x20\n        /* \"#utility.yul\":7691:7700   */\n      dup2\n        /* \"#utility.yul\":7684:7705   */\n      mstore\n        /* \"#utility.yul\":7665:7669   */\n      0x00\n        /* \"#utility.yul\":7722:7767   */\n      tag_389\n        /* \"#utility.yul\":7763:7765   */\n      0x20\n        /* \"#utility.yul\":7752:7761   */\n      dup4\n        /* \"#utility.yul\":7748:7766   */\n      add\n        /* \"#utility.yul\":7740:7746   */\n      dup5\n        /* \"#utility.yul\":7722:7767   */\n      tag_433\n      jump\t// in\n        /* \"#utility.yul\":7778:8557   */\n    tag_109:\n        /* \"#utility.yul\":8080:8084   */\n      0x00\n        /* \"#utility.yul\":8109:8112   */\n      0x0100\n        /* \"#utility.yul\":8139:8141   */\n      dup1\n        /* \"#utility.yul\":8128:8137   */\n      dup4\n        /* \"#utility.yul\":8121:8142   */\n      mstore\n        /* \"#utility.yul\":8159:8204   */\n      tag_453\n        /* \"#utility.yul\":8200:8202   */\n      dup2\n        /* \"#utility.yul\":8189:8198   */\n      dup5\n        /* \"#utility.yul\":8185:8203   */\n      add\n        /* \"#utility.yul\":8177:8183   */\n      dup13\n        /* \"#utility.yul\":8159:8204   */\n      tag_433\n      jump\t// in\n    tag_453:\n        /* \"#utility.yul\":8235:8237   */\n      0x20\n        /* \"#utility.yul\":8220:8238   */\n      dup5\n      add\n        /* \"#utility.yul\":8213:8247   */\n      swap11\n      swap1\n      swap11\n      mstore\n      pop\n      pop\n      sub(shl(0xa0, 0x01), 0x01)\n        /* \"#utility.yul\":8283:8315   */\n      swap7\n      swap1\n      swap7\n      and\n        /* \"#utility.yul\":8278:8280   */\n      0x40\n        /* \"#utility.yul\":8263:8281   */\n      dup8\n      add\n        /* \"#utility.yul\":8256:8316   */\n      mstore\n        /* \"#utility.yul\":8359:8373   */\n      swap4\n      iszero\n        /* \"#utility.yul\":8352:8374   */\n      iszero\n        /* \"#utility.yul\":8347:8349   */\n      0x60\n        /* \"#utility.yul\":8332:8350   */\n      dup7\n      add\n        /* \"#utility.yul\":8325:8375   */\n      mstore\n        /* \"#utility.yul\":8406:8409   */\n      0x80\n        /* \"#utility.yul\":8391:8410   */\n      dup6\n      add\n        /* \"#utility.yul\":8384:8419   */\n      swap3\n      swap1\n      swap3\n      mstore\n      0xa0\n        /* \"#utility.yul\":8435:8454   */\n      dup5\n      add\n        /* \"#utility.yul\":8428:8463   */\n      mstore\n        /* \"#utility.yul\":8494:8497   */\n      0xc0\n        /* \"#utility.yul\":8479:8498   */\n      dup4\n      add\n        /* \"#utility.yul\":8472:8507   */\n      mstore\n        /* \"#utility.yul\":8538:8541   */\n      0xe0\n        /* \"#utility.yul\":8523:8542   */\n      swap1\n      swap2\n      add\n        /* \"#utility.yul\":8516:8551   */\n      mstore\n        /* \"#utility.yul\":8213:8247   */\n      swap2\n        /* \"#utility.yul\":8151:8204   */\n      swap1\n      pop\n        /* \"#utility.yul\":7778:8557   */\n      jump\t// out\n        /* \"#utility.yul\":8744:9505   */\n    tag_44:\n        /* \"#utility.yul\":9127:9133   */\n      dup5\n        /* \"#utility.yul\":9116:9125   */\n      dup2\n        /* \"#utility.yul\":9109:9134   */\n      mstore\n        /* \"#utility.yul\":9170:9173   */\n      0x80\n        /* \"#utility.yul\":9165:9167   */\n      0x20\n        /* \"#utility.yul\":9154:9163   */\n      dup3\n        /* \"#utility.yul\":9150:9168   */\n      add\n        /* \"#utility.yul\":9143:9174   */\n      mstore\n        /* \"#utility.yul\":9090:9094   */\n      0x00\n        /* \"#utility.yul\":9197:9253   */\n      tag_456\n        /* \"#utility.yul\":9248:9251   */\n      0x80\n        /* \"#utility.yul\":9237:9246   */\n      dup4\n        /* \"#utility.yul\":9233:9252   */\n      add\n        /* \"#utility.yul\":9225:9231   */\n      dup7\n        /* \"#utility.yul\":9197:9253   */\n      tag_427\n      jump\t// in\n    tag_456:\n        /* \"#utility.yul\":9301:9310   */\n      dup3\n        /* \"#utility.yul\":9293:9299   */\n      dup2\n        /* \"#utility.yul\":9289:9311   */\n      sub\n        /* \"#utility.yul\":9284:9286   */\n      0x40\n        /* \"#utility.yul\":9273:9282   */\n      dup5\n        /* \"#utility.yul\":9269:9287   */\n      add\n        /* \"#utility.yul\":9262:9312   */\n      mstore\n        /* \"#utility.yul\":9335:9379   */\n      tag_457\n        /* \"#utility.yul\":9372:9378   */\n      dup2\n        /* \"#utility.yul\":9364:9370   */\n      dup7\n        /* \"#utility.yul\":9335:9379   */\n      tag_422\n      jump\t// in\n    tag_457:\n        /* \"#utility.yul\":9321:9379   */\n      swap1\n      pop\n        /* \"#utility.yul\":9427:9436   */\n      dup3\n        /* \"#utility.yul\":9419:9425   */\n      dup2\n        /* \"#utility.yul\":9415:9437   */\n      sub\n        /* \"#utility.yul\":9410:9412   */\n      0x60\n        /* \"#utility.yul\":9399:9408   */\n      dup5\n        /* \"#utility.yul\":9395:9413   */\n      add\n        /* \"#utility.yul\":9388:9438   */\n      mstore\n        /* \"#utility.yul\":9455:9499   */\n      tag_458\n        /* \"#utility.yul\":9492:9498   */\n      dup2\n        /* \"#utility.yul\":9484:9490   */\n      dup6\n        /* \"#utility.yul\":9455:9499   */\n      tag_434\n      jump\t// in\n    tag_458:\n        /* \"#utility.yul\":9447:9499   */\n      swap8\n        /* \"#utility.yul\":8744:9505   */\n      swap7\n      pop\n      pop\n      pop\n      pop\n      pop\n      pop\n      pop\n      jump\t// out\n        /* \"#utility.yul\":9510:10181   */\n    tag_159:\n        /* \"#utility.yul\":9819:9825   */\n      dup7\n        /* \"#utility.yul\":9808:9817   */\n      dup2\n        /* \"#utility.yul\":9801:9826   */\n      mstore\n        /* \"#utility.yul\":9862:9865   */\n      0xc0\n        /* \"#utility.yul\":9857:9859   */\n      0x20\n        /* \"#utility.yul\":9846:9855   */\n      dup3\n        /* \"#utility.yul\":9842:9860   */\n      add\n        /* \"#utility.yul\":9835:9866   */\n      mstore\n        /* \"#utility.yul\":9782:9786   */\n      0x00\n        /* \"#utility.yul\":9889:9935   */\n      tag_460\n        /* \"#utility.yul\":9930:9933   */\n      0xc0\n        /* \"#utility.yul\":9919:9928   */\n      dup4\n        /* \"#utility.yul\":9915:9934   */\n      add\n        /* \"#utility.yul\":9907:9913   */\n      dup9\n        /* \"#utility.yul\":9889:9935   */\n      tag_433\n      jump\t// in\n    tag_460:\n        /* \"#utility.yul\":9971:9977   */\n      dup7\n        /* \"#utility.yul\":9966:9968   */\n      0x40\n        /* \"#utility.yul\":9955:9964   */\n      dup5\n        /* \"#utility.yul\":9951:9969   */\n      add\n        /* \"#utility.yul\":9944:9978   */\n      mstore\n        /* \"#utility.yul\":10026:10035   */\n      dup3\n        /* \"#utility.yul\":10018:10024   */\n      dup2\n        /* \"#utility.yul\":10014:10036   */\n      sub\n        /* \"#utility.yul\":10009:10011   */\n      0x60\n        /* \"#utility.yul\":9998:10007   */\n      dup5\n        /* \"#utility.yul\":9994:10012   */\n      add\n        /* \"#utility.yul\":9987:10037   */\n      mstore\n        /* \"#utility.yul\":10054:10087   */\n      tag_461\n        /* \"#utility.yul\":10080:10086   */\n      dup2\n        /* \"#utility.yul\":10072:10078   */\n      dup8\n        /* \"#utility.yul\":10054:10087   */\n      tag_433\n      jump\t// in\n    tag_461:\n        /* \"#utility.yul\":10118:10121   */\n      0x80\n        /* \"#utility.yul\":10103:10122   */\n      dup5\n      add\n        /* \"#utility.yul\":10096:10131   */\n      swap6\n      swap1\n      swap6\n      mstore\n      pop\n      pop\n        /* \"#utility.yul\":10162:10165   */\n      0xa0\n        /* \"#utility.yul\":10147:10166   */\n      add\n        /* \"#utility.yul\":10140:10175   */\n      mstore\n        /* \"#utility.yul\":10046:10087   */\n      swap5\n        /* \"#utility.yul\":9510:10181   */\n      swap4\n      pop\n      pop\n      pop\n      pop\n      jump\t// out\n        /* \"#utility.yul\":10186:10314   */\n    tag_190:\n        /* \"#utility.yul\":10226:10229   */\n      0x00\n        /* \"#utility.yul\":10257:10258   */\n      dup3\n        /* \"#utility.yul\":10253:10259   */\n      not\n        /* \"#utility.yul\":10250:10251   */\n      dup3\n        /* \"#utility.yul\":10247:10260   */\n      gt\n        /* \"#utility.yul\":10244:10283   */\n      iszero\n      tag_464\n      jumpi\n        /* \"#utility.yul\":10263:10281   */\n      tag_464\n      tag_465\n      jump\t// in\n    tag_464:\n      pop\n        /* \"#utility.yul\":10299:10308   */\n      add\n      swap1\n        /* \"#utility.yul\":10186:10314   */\n      jump\t// out\n        /* \"#utility.yul\":10319:10439   */\n    tag_195:\n        /* \"#utility.yul\":10359:10360   */\n      0x00\n        /* \"#utility.yul\":10385:10386   */\n      dup3\n        /* \"#utility.yul\":10375:10410   */\n      tag_468\n      jumpi\n        /* \"#utility.yul\":10390:10408   */\n      tag_468\n      tag_469\n      jump\t// in\n    tag_468:\n      pop\n        /* \"#utility.yul\":10424:10433   */\n      div\n      swap1\n        /* \"#utility.yul\":10319:10439   */\n      jump\t// out\n        /* \"#utility.yul\":10444:10612   */\n    tag_192:\n        /* \"#utility.yul\":10484:10491   */\n      0x00\n        /* \"#utility.yul\":10550:10551   */\n      dup2\n        /* \"#utility.yul\":10546:10547   */\n      0x00\n        /* \"#utility.yul\":10542:10548   */\n      not\n        /* \"#utility.yul\":10538:10552   */\n      div\n        /* \"#utility.yul\":10535:10536   */\n      dup4\n        /* \"#utility.yul\":10532:10553   */\n      gt\n        /* \"#utility.yul\":10527:10528   */\n      dup3\n        /* \"#utility.yul\":10520:10529   */\n      iszero\n        /* \"#utility.yul\":10513:10530   */\n      iszero\n        /* \"#utility.yul\":10509:10554   */\n      and\n        /* \"#utility.yul\":10506:10577   */\n      iszero\n      tag_472\n      jumpi\n        /* \"#utility.yul\":10557:10575   */\n      tag_472\n      tag_465\n      jump\t// in\n    tag_472:\n      pop\n        /* \"#utility.yul\":10597:10606   */\n      mul\n      swap1\n        /* \"#utility.yul\":10444:10612   */\n      jump\t// out\n        /* \"#utility.yul\":10617:10742   */\n    tag_244:\n        /* \"#utility.yul\":10657:10661   */\n      0x00\n        /* \"#utility.yul\":10685:10686   */\n      dup3\n        /* \"#utility.yul\":10682:10683   */\n      dup3\n        /* \"#utility.yul\":10679:10687   */\n      lt\n        /* \"#utility.yul\":10676:10710   */\n      iszero\n      tag_475\n      jumpi\n        /* \"#utility.yul\":10690:10708   */\n      tag_475\n      tag_465\n      jump\t// in\n    tag_475:\n      pop\n        /* \"#utility.yul\":10727:10736   */\n      sub\n      swap1\n        /* \"#utility.yul\":10617:10742   */\n      jump\t// out\n        /* \"#utility.yul\":10747:10883   */\n    tag_349:\n        /* \"#utility.yul\":10786:10789   */\n      0x00\n        /* \"#utility.yul\":10814:10819   */\n      dup2\n        /* \"#utility.yul\":10804:10843   */\n      tag_478\n      jumpi\n        /* \"#utility.yul\":10823:10841   */\n      tag_478\n      tag_465\n      jump\t// in\n    tag_478:\n      pop\n      not(0x00)\n        /* \"#utility.yul\":10859:10877   */\n      add\n      swap1\n        /* \"#utility.yul\":10747:10883   */\n      jump\t// out\n        /* \"#utility.yul\":10888:11268   */\n    tag_205:\n        /* \"#utility.yul\":10967:10968   */\n      0x01\n        /* \"#utility.yul\":10963:10975   */\n      dup2\n      dup2\n      shr\n      swap1\n        /* \"#utility.yul\":11010:11022   */\n      dup3\n      and\n      dup1\n        /* \"#utility.yul\":11031:11092   */\n      tag_480\n      jumpi\n        /* \"#utility.yul\":11085:11089   */\n      0x7f\n        /* \"#utility.yul\":11077:11083   */\n      dup3\n        /* \"#utility.yul\":11073:11090   */\n      and\n        /* \"#utility.yul\":11063:11090   */\n      swap2\n      pop\n        /* \"#utility.yul\":11031:11092   */\n    tag_480:\n        /* \"#utility.yul\":11138:11140   */\n      0x20\n        /* \"#utility.yul\":11130:11136   */\n      dup3\n        /* \"#utility.yul\":11127:11141   */\n      lt\n        /* \"#utility.yul\":11107:11125   */\n      dup2\n        /* \"#utility.yul\":11104:11142   */\n      eq\n        /* \"#utility.yul\":11101:11262   */\n      iszero\n      tag_481\n      jumpi\n        /* \"#utility.yul\":11184:11194   */\n      0x4e487b71\n        /* \"#utility.yul\":11179:11182   */\n      0xe0\n        /* \"#utility.yul\":11175:11195   */\n      shl\n        /* \"#utility.yul\":11172:11173   */\n      0x00\n        /* \"#utility.yul\":11165:11196   */\n      mstore\n        /* \"#utility.yul\":11219:11223   */\n      0x22\n        /* \"#utility.yul\":11216:11217   */\n      0x04\n        /* \"#utility.yul\":11209:11224   */\n      mstore\n        /* \"#utility.yul\":11247:11251   */\n      0x24\n        /* \"#utility.yul\":11244:11245   */\n      0x00\n        /* \"#utility.yul\":11237:11252   */\n      revert\n        /* \"#utility.yul\":11101:11262   */\n    tag_481:\n      pop\n        /* \"#utility.yul\":10888:11268   */\n      swap2\n      swap1\n      pop\n      jump\t// out\n        /* \"#utility.yul\":11273:11408   */\n    tag_188:\n        /* \"#utility.yul\":11312:11315   */\n      0x00\n      not(0x00)\n        /* \"#utility.yul\":11333:11350   */\n      dup3\n      eq\n        /* \"#utility.yul\":11330:11373   */\n      iszero\n      tag_484\n      jumpi\n        /* \"#utility.yul\":11353:11371   */\n      tag_484\n      tag_465\n      jump\t// in\n    tag_484:\n      pop\n        /* \"#utility.yul\":11400:11401   */\n      0x01\n        /* \"#utility.yul\":11389:11402   */\n      add\n      swap1\n        /* \"#utility.yul\":11273:11408   */\n      jump\t// out\n        /* \"#utility.yul\":11413:11525   */\n    tag_185:\n        /* \"#utility.yul\":11445:11446   */\n      0x00\n        /* \"#utility.yul\":11471:11472   */\n      dup3\n        /* \"#utility.yul\":11461:11496   */\n      tag_487\n      jumpi\n        /* \"#utility.yul\":11476:11494   */\n      tag_487\n      tag_469\n      jump\t// in\n    tag_487:\n      pop\n        /* \"#utility.yul\":11510:11519   */\n      mod\n      swap1\n        /* \"#utility.yul\":11413:11525   */\n      jump\t// out\n        /* \"#utility.yul\":11530:11657   */\n    tag_465:\n        /* \"#utility.yul\":11591:11601   */\n      0x4e487b71\n        /* \"#utility.yul\":11586:11589   */\n      0xe0\n        /* \"#utility.yul\":11582:11602   */\n      shl\n        /* \"#utility.yul\":11579:11580   */\n      0x00\n        /* \"#utility.yul\":11572:11603   */\n      mstore\n        /* \"#utility.yul\":11622:11626   */\n      0x11\n        /* \"#utility.yul\":11619:11620   */\n      0x04\n        /* \"#utility.yul\":11612:11627   */\n      mstore\n        /* \"#utility.yul\":11646:11650   */\n      0x24\n        /* \"#utility.yul\":11643:11644   */\n      0x00\n        /* \"#utility.yul\":11636:11651   */\n      revert\n        /* \"#utility.yul\":11662:11789   */\n    tag_469:\n        /* \"#utility.yul\":11723:11733   */\n      0x4e487b71\n        /* \"#utility.yul\":11718:11721   */\n      0xe0\n        /* \"#utility.yul\":11714:11734   */\n      shl\n        /* \"#utility.yul\":11711:11712   */\n      0x00\n        /* \"#utility.yul\":11704:11735   */\n      mstore\n        /* \"#utility.yul\":11754:11758   */\n      0x12\n        /* \"#utility.yul\":11751:11752   */\n      0x04\n        /* \"#utility.yul\":11744:11759   */\n      mstore\n        /* \"#utility.yul\":11778:11782   */\n      0x24\n        /* \"#utility.yul\":11775:11776   */\n      0x00\n        /* \"#utility.yul\":11768:11783   */\n      revert\n        /* \"#utility.yul\":11794:11921   */\n    tag_383:\n        /* \"#utility.yul\":11855:11865   */\n      0x4e487b71\n        /* \"#utility.yul\":11850:11853   */\n      0xe0\n        /* \"#utility.yul\":11846:11866   */\n      shl\n        /* \"#utility.yul\":11843:11844   */\n      0x00\n        /* \"#utility.yul\":11836:11867   */\n      mstore\n        /* \"#utility.yul\":11886:11890   */\n      0x41\n        /* \"#utility.yul\":11883:11884   */\n      0x04\n        /* \"#utility.yul\":11876:11891   */\n      mstore\n        /* \"#utility.yul\":11910:11914   */\n      0x24\n        /* \"#utility.yul\":11907:11908   */\n      0x00\n        /* \"#utility.yul\":11900:11915   */\n      revert\n\n    auxdata: 0xa26469706673582212205e19a8a17fefa6474454171a80d1d03393e40b396f1eaa7c2cc00615b8894f1464736f6c63430008070033\n}\n","bytecode":{"linkReferences":{},"object":"60806040523480156200001157600080fd5b50604051620020e2380380620020e283398101604081905262000034916200014a565b81516200004990600490602085019062000087565b506001600160a01b03166000818152602081905260409020805460ff1916600190811790915580546001600160a01b0319169091179055506200028e565b82805462000095906200023b565b90600052602060002090601f016020900481019282620000b9576000855562000104565b82601f10620000d457805160ff191683800117855562000104565b8280016001018555821562000104579182015b8281111562000104578251825591602001919060010190620000e7565b506200011292915062000116565b5090565b5b8082111562000112576000815560010162000117565b80516001600160a01b03811681146200014557600080fd5b919050565b600080604083850312156200015e57600080fd5b82516001600160401b03808211156200017657600080fd5b818501915085601f8301126200018b57600080fd5b815181811115620001a057620001a062000278565b604051601f8201601f19908116603f01168101908382118183101715620001cb57620001cb62000278565b81604052828152602093508884848701011115620001e857600080fd5b600091505b828210156200020c5784820184015181830185015290830190620001ed565b828211156200021e5760008484830101525b9550620002309150508582016200012d565b925050509250929050565b600181811c908216806200025057607f821691505b602082108114156200027257634e487b7160e01b600052602260045260246000fd5b50919050565b634e487b7160e01b600052604160045260246000fd5b611e44806200029e6000396000f3fe6080604052600436106101c15760003560e01c8063818fb3e0116100f7578063b365221d11610095578063d793a0e611610064578063d793a0e61461050a578063d96a094a1461052a578063e20902711461053d578063fdff9b4d1461055d57600080fd5b8063b365221d1461048e578063c577d23c146104ae578063c6211a56146104c3578063d69d5094146104e357600080fd5b806396799760116100d157806396799760146104185780639c3bddb214610438578063ac964f2114610458578063b1b53c381461046e57600080fd5b8063818fb3e0146103aa5780638af213e2146103e25780638d8ef2f01461040257600080fd5b80632d06177a11610164578063521936e61161013e578063521936e61461032c578063522547a8146103415780635786fd40146103615780637acc0b201461037657600080fd5b80632d06177a146102ca5780634a02990c146102ea5780634a64090b1461030a57600080fd5b80630a366cc8116101a05780630a366cc81461023957806320023f301461026857806326af03e21461028a5780632c0d259d146102aa57600080fd5b8062f73d4c146101c657806306acdcfe146101ff57806307aa0bc414610223575b600080fd5b3480156101d257600080fd5b506101e66101e1366004611a45565b61059d565b6040516101f69493929190611c58565b60405180910390f35b34801561020b57600080fd5b5061021560065481565b6040519081526020016101f6565b34801561022f57600080fd5b50610215600d5481565b34801561024557600080fd5b506102596102543660046118f9565b610892565b6040516101f693929190611bae565b34801561027457600080fd5b506102886102833660046119ba565b610a40565b005b34801561029657600080fd5b506102886102a5366004611973565b610abd565b3480156102b657600080fd5b506101e66102c5366004611973565b610afd565b3480156102d657600080fd5b506102886102e536600461183b565b610e1c565b3480156102f657600080fd5b5061028861030536600461193e565b610e5c565b34801561031657600080fd5b5061031f610ebf565b6040516101f69190611bf1565b34801561033857600080fd5b5061031f610f4d565b34801561034d57600080fd5b5061028861035c366004611a23565b610f5a565b34801561036d57600080fd5b50600254610215565b34801561038257600080fd5b506103966103913660046118f9565b610f8b565b6040516101f6989796959493929190611c04565b3480156103b657600080fd5b506001546103ca906001600160a01b031681565b6040516001600160a01b0390911681526020016101f6565b3480156103ee57600080fd5b506103ca6103fd3660046118f9565b611066565b34801561040e57600080fd5b5061021560055481565b34801561042457600080fd5b5061028861043336600461183b565b611090565b34801561044457600080fd5b50610288610453366004611a23565b6110e8565b34801561046457600080fd5b5061021560025481565b34801561047a57600080fd5b5061031f6104893660046118f9565b611119565b34801561049a57600080fd5b506102156104a93660046118f9565b611144565b3480156104ba57600080fd5b50610259611165565b3480156104cf57600080fd5b506102886104de36600461185d565b6112fc565b3480156104ef57600080fd5b506104f861132b565b6040516101f696959493929190611ca2565b34801561051657600080fd5b5061028861052536600461189a565b611472565b6102886105383660046118f9565b61151c565b34801561054957600080fd5b50610288610558366004611912565b611631565b34801561056957600080fd5b5061058d61057836600461183b565b60006020819052908152604090205460ff1681565b60405190151581526020016101f6565b6000838152600360209081526040808320338452600a8101909252822054606091829182919060ff166105cf57600080fd5b336000908152600b8201602052604090205460ff16156105ee57600080fd5b600587111580156105ff5750600087115b80156106135750610611600188611db8565b155b61061c57600080fd5b336000908152600b820160205260408120805460ff191660011790556004820180549161064883611d9d565b9091555050600481015461065d906001611ce9565b87826004015483600301546106729190611d15565b61067c9190611ce9565b6106869190611d01565b6003820155600581018054600181018255600091825260209182902088516106b69391909201919089019061167e565b50600681018054600181810183556000838152602080822090930180546001600160a01b0319163317905560078501805492830181558082528382209092018b90556003850154600586018054604080518288028101880190915281815292969195919493869284015b828210156107cc57838290600052602060002001805461073f90611d62565b80601f016020809104026020016040519081016040528092919081815260200182805461076b90611d62565b80156107b85780601f1061078d576101008083540402835291602001916107b8565b820191906000526020600020905b81548152906001019060200180831161079b57829003601f168201915b505050505081526020019060010190610720565b5050505092508180548060200260200160405190810160405280929190818152602001828054801561082757602002820191906000526020600020905b81546001600160a01b03168152600190910190602001808311610809575b505050505091508080548060200260200160405190810160405280929190818152602001828054801561087957602002820191906000526020600020905b815481526020019060010190808311610865575b5050505050905094509450945094505093509350935093565b600081815260036020908152604080832060058101805483518186028101860190945280845260609586958695939460068101946007909101939092869284015b8282101561097f5783829060005260206000200180546108f290611d62565b80601f016020809104026020016040519081016040528092919081815260200182805461091e90611d62565b801561096b5780601f106109405761010080835404028352916020019161096b565b820191906000526020600020905b81548152906001019060200180831161094e57829003601f168201915b5050505050815260200190600101906108d3565b505050509250818054806020026020016040519081016040528092919081815260200182805480156109da57602002820191906000526020600020905b81546001600160a01b031681526001909101906020018083116109bc575b5050505050915080805480602002602001604051908101604052809291908181526020018280548015610a2c57602002820191906000526020600020905b815481526020019060010190808311610a18575b505050505090509250925092509193909250565b3360009081526020819052604090205460ff16610a5c57600080fd5b60008581526003602090815260409091208551610a7b9287019061167e565b506000948552600360205260409094206002810180546001600160a01b0319166001600160a01b03949094169390931790925560018201556009019190915550565b3360009081526020819052604090205460ff16610ad957600080fd5b60008281526003602090815260409091208251610af89284019061167e565b505050565b336000908152600a60205260408120546060908190819060ff16610b2057600080fd5b336000908152600b602052604090205460ff1615610b3d57600080fd5b60058611158015610b4e5750600086115b8015610b625750610b60600187611db8565b155b610b6b57600080fd5b336000908152600b60205260408120805460ff191660011790556006805491610b9383611d9d565b909155505060065486610ba7600183611d34565b600554610bb49190611d15565b610bbe9190611ce9565b610bc89190611d01565b600555600780546001810182556000919091528551610c0e917fa66cc928b5edb82af9bd49922954155ab7b0942694bea4ce44661d9a8736c6880190602088019061167e565b5060088054600181810183557ff3f7a9fe364faab93b216da50a3214154f22a0a2b415b23a84c8169e8b636ee390910180546001600160a01b0319163317905560098054918201815560008181527f6e1540171b6c0c960b71a7020d9f60077f6af931a8bbf590da0223dacf75c7af9092018990556005546007805460408051602083810282018101909252828152939692959294939286929184015b82821015610d57578382906000526020600020018054610cca90611d62565b80601f0160208091040260200160405190810160405280929190818152602001828054610cf690611d62565b8015610d435780601f10610d1857610100808354040283529160200191610d43565b820191906000526020600020905b815481529060010190602001808311610d2657829003601f168201915b505050505081526020019060010190610cab565b50505050925081805480602002602001604051908101604052809291908181526020018280548015610db257602002820191906000526020600020905b81546001600160a01b03168152600190910190602001808311610d94575b5050505050915080805480602002602001604051908101604052809291908181526020018280548015610e0457602002820191906000526020600020905b815481526020019060010190808311610df0575b50505050509050935093509350935092959194509250565b3360009081526020819052604090205460ff16610e3857600080fd5b6001600160a01b03166000908152602081905260409020805460ff19166001179055565b3360009081526020819052604090205460ff16610e7857600080fd5b6000828152600360205260409020600201805460ff60a01b1916600160a01b83151590810291909117909155610ebb576000828152600360205260408120600901555b5050565b600c8054610ecc90611d62565b80601f0160208091040260200160405190810160405280929190818152602001828054610ef890611d62565b8015610f455780601f10610f1a57610100808354040283529160200191610f45565b820191906000526020600020905b815481529060010190602001808311610f2857829003601f168201915b505050505081565b60048054610ecc90611d62565b3360009081526020819052604090205460ff16610f7657600080fd5b60009182526003602052604090912060090155565b600360205260009081526040902080548190610fa690611d62565b80601f0160208091040260200160405190810160405280929190818152602001828054610fd290611d62565b801561101f5780601f10610ff45761010080835404028352916020019161101f565b820191906000526020600020905b81548152906001019060200180831161100257829003601f168201915b5050505060018301546002840154600385015460048601546008870154600990970154959693956001600160a01b0384169550600160a01b90930460ff1693919290919088565b6008818154811061107657600080fd5b6000918252602090912001546001600160a01b0316905081565b3360009081526020819052604090205460ff166110ac57600080fd5b6001546001600160a01b03828116911614156110c757600080fd5b6001600160a01b03166000908152602081905260409020805460ff19169055565b3360009081526020819052604090205460ff1661110457600080fd5b60009182526003602052604090912060010155565b6007818154811061112957600080fd5b906000526020600020016000915090508054610ecc90611d62565b6009818154811061115457600080fd5b600091825260209091200154905081565b606080606060076008600982805480602002602001604051908101604052809291908181526020016000905b8282101561123d5783829060005260206000200180546111b090611d62565b80601f01602080910402602001604051908101604052809291908181526020018280546111dc90611d62565b80156112295780601f106111fe57610100808354040283529160200191611229565b820191906000526020600020905b81548152906001019060200180831161120c57829003601f168201915b505050505081526020019060010190611191565b5050505092508180548060200260200160405190810160405280929190818152602001828054801561129857602002820191906000526020600020905b81546001600160a01b0316815260019091019060200180831161127a575b50505050509150808054806020026020016040519081016040528092919081815260200182805480156112ea57602002820191906000526020600020905b8154815260200190600101908083116112d6575b50505050509050925092509250909192565b3360009081526020819052604090205460ff1661131857600080fd5b8051610ebb90600490602084019061167e565b6000606060006060600080600254600c600d54600460055460065484805461135290611d62565b80601f016020809104026020016040519081016040528092919081815260200182805461137e90611d62565b80156113cb5780601f106113a0576101008083540402835291602001916113cb565b820191906000526020600020905b8154815290600101906020018083116113ae57829003601f168201915b505050505094508280546113de90611d62565b80601f016020809104026020016040519081016040528092919081815260200182805461140a90611d62565b80156114575780601f1061142c57610100808354040283529160200191611457565b820191906000526020600020905b81548152906001019060200180831161143a57829003601f168201915b50505050509250955095509550955095509550909192939495565b3360009081526020819052604090205460ff1661148e57600080fd5b600280546000916003918391826114a483611d9d565b90915550815260208082019290925260400160002086519092506114cd9183919088019061167e565b5060018101939093556002830180546001600160a81b0319166001600160a01b0390931692909217600160a01b1790915560056003830155600060048301819055600883015560099091015550565b60008181526003602052604090206001810154341461153a57600080fd5b6002810154600160a01b900460ff1661155257600080fd5b600081600901541161156357600080fd5b60028101546040516001600160a01b03909116903480156108fc02916000818181858888f1935050505015801561159e573d6000803e3d6000fd5b50336000908152600a828101602090815260408084208054600160ff1991821681179092559390925283208054909216179055600882018054916115e183611d9d565b90915550506009810180549060006115f883611d4b565b9190505550600d5481600801541115610ebb578054600c90829061161b90611d62565b611626929190611702565b5060080154600d5550565b3360009081526020819052604090205460ff1661164d57600080fd5b60009182526003602052604090912060020180546001600160a01b0319166001600160a01b03909216919091179055565b82805461168a90611d62565b90600052602060002090601f0160209004810192826116ac57600085556116f2565b82601f106116c557805160ff19168380011785556116f2565b828001600101855582156116f2579182015b828111156116f25782518255916020019190600101906116d7565b506116fe92915061177d565b5090565b82805461170e90611d62565b90600052602060002090601f01602090048101928261173057600085556116f2565b82601f1061174157805485556116f2565b828001600101855582156116f257600052602060002091601f016020900482015b828111156116f2578254825591600101919060010190611762565b5b808211156116fe576000815560010161177e565b80356001600160a01b03811681146117a957600080fd5b919050565b600082601f8301126117bf57600080fd5b813567ffffffffffffffff808211156117da576117da611df8565b604051601f8301601f19908116603f0116810190828211818310171561180257611802611df8565b8160405283815286602085880101111561181b57600080fd5b836020870160208301376000602085830101528094505050505092915050565b60006020828403121561184d57600080fd5b61185682611792565b9392505050565b60006020828403121561186f57600080fd5b813567ffffffffffffffff81111561188657600080fd5b611892848285016117ae565b949350505050565b600080600080608085870312156118b057600080fd5b843567ffffffffffffffff8111156118c757600080fd5b6118d3878288016117ae565b945050602085013592506118e960408601611792565b9396929550929360600135925050565b60006020828403121561190b57600080fd5b5035919050565b6000806040838503121561192557600080fd5b8235915061193560208401611792565b90509250929050565b6000806040838503121561195157600080fd5b823591506020830135801515811461196857600080fd5b809150509250929050565b6000806040838503121561198657600080fd5b82359150602083013567ffffffffffffffff8111156119a457600080fd5b6119b0858286016117ae565b9150509250929050565b600080600080600060a086880312156119d257600080fd5b85359450602086013567ffffffffffffffff8111156119f057600080fd5b6119fc888289016117ae565b945050611a0b60408701611792565b94979396509394606081013594506080013592915050565b60008060408385031215611a3657600080fd5b50508035926020909101359150565b600080600060608486031215611a5a57600080fd5b8335925060208401359150604084013567ffffffffffffffff811115611a7f57600080fd5b611a8b868287016117ae565b9150509250925092565b600081518084526020808501945080840160005b83811015611ace5781516001600160a01b031687529582019590820190600101611aa9565b509495945050505050565b600082825180855260208086019550808260051b84010181860160005b84811015611b2457601f19868403018952611b12838351611b61565b98840198925090830190600101611af6565b5090979650505050505050565b600081518084526020808501945080840160005b83811015611ace57815187529582019590820190600101611b45565b6000815180845260005b81811015611b8757602081850181015186830182015201611b6b565b81811115611b99576000602083870101525b50601f01601f19169290920160200192915050565b606081526000611bc16060830186611ad9565b8281036020840152611bd38186611a95565b90508281036040840152611be78185611b31565b9695505050505050565b6020815260006118566020830184611b61565b6000610100808352611c188184018c611b61565b602084019a909a5250506001600160a01b039690961660408701529315156060860152608085019290925260a084015260c083015260e090910152919050565b848152608060208201526000611c716080830186611ad9565b8281036040840152611c838186611a95565b90508281036060840152611c978185611b31565b979650505050505050565b86815260c060208201526000611cbb60c0830188611b61565b8660408401528281036060840152611cd38187611b61565b6080840195909552505060a00152949350505050565b60008219821115611cfc57611cfc611dcc565b500190565b600082611d1057611d10611de2565b500490565b6000816000190483118215151615611d2f57611d2f611dcc565b500290565b600082821015611d4657611d46611dcc565b500390565b600081611d5a57611d5a611dcc565b506000190190565b600181811c90821680611d7657607f821691505b60208210811415611d9757634e487b7160e01b600052602260045260246000fd5b50919050565b6000600019821415611db157611db1611dcc565b5060010190565b600082611dc757611dc7611de2565b500690565b634e487b7160e01b600052601160045260246000fd5b634e487b7160e01b600052601260045260246000fd5b634e487b7160e01b600052604160045260246000fdfea26469706673582212205e19a8a17fefa6474454171a80d1d03393e40b396f1eaa7c2cc00615b8894f1464736f6c63430008070033","opcodes":"PUSH1 0x80 PUSH1 0x40 MSTORE CALLVALUE DUP1 ISZERO PUSH3 0x11 JUMPI PUSH1 0x0 DUP1 REVERT JUMPDEST POP PUSH1 0x40 MLOAD PUSH3 0x20E2 CODESIZE SUB DUP1 PUSH3 0x20E2 DUP4 CODECOPY DUP2 ADD PUSH1 0x40 DUP2 SWAP1 MSTORE PUSH3 0x34 SWAP2 PUSH3 0x14A JUMP JUMPDEST DUP2 MLOAD PUSH3 0x49 SWAP1 PUSH1 0x4 SWAP1 PUSH1 0x20 DUP6 ADD SWAP1 PUSH3 0x87 JUMP JUMPDEST POP PUSH1 0x1 PUSH1 0x1 PUSH1 0xA0 SHL SUB AND PUSH1 0x0 DUP2 DUP2 MSTORE PUSH1 0x20 DUP2 SWAP1 MSTORE PUSH1 0x40 SWAP1 KECCAK256 DUP1 SLOAD PUSH1 0xFF NOT AND PUSH1 0x1 SWAP1 DUP2 OR SWAP1 SWAP2 SSTORE DUP1 SLOAD PUSH1 0x1 PUSH1 0x1 PUSH1 0xA0 SHL SUB NOT AND SWAP1 SWAP2 OR SWAP1 SSTORE POP PUSH3 0x28E JUMP JUMPDEST DUP3 DUP1 SLOAD PUSH3 0x95 SWAP1 PUSH3 0x23B JUMP JUMPDEST SWAP1 PUSH1 0x0 MSTORE PUSH1 0x20 PUSH1 0x0 KECCAK256 SWAP1 PUSH1 0x1F ADD PUSH1 0x20 SWAP1 DIV DUP2 ADD SWAP3 DUP3 PUSH3 0xB9 JUMPI PUSH1 0x0 DUP6 SSTORE PUSH3 0x104 JUMP JUMPDEST DUP3 PUSH1 0x1F LT PUSH3 0xD4 JUMPI DUP1 MLOAD PUSH1 0xFF NOT AND DUP4 DUP1 ADD OR DUP6 SSTORE PUSH3 0x104 JUMP JUMPDEST DUP3 DUP1 ADD PUSH1 0x1 ADD DUP6 SSTORE DUP3 ISZERO PUSH3 0x104 JUMPI SWAP2 DUP3 ADD JUMPDEST DUP3 DUP2 GT ISZERO PUSH3 0x104 JUMPI DUP3 MLOAD DUP3 SSTORE SWAP2 PUSH1 0x20 ADD SWAP2 SWAP1 PUSH1 0x1 ADD SWAP1 PUSH3 0xE7 JUMP JUMPDEST POP PUSH3 0x112 SWAP3 SWAP2 POP PUSH3 0x116 JUMP JUMPDEST POP SWAP1 JUMP JUMPDEST JUMPDEST DUP1 DUP3 GT ISZERO PUSH3 0x112 JUMPI PUSH1 0x0 DUP2 SSTORE PUSH1 0x1 ADD PUSH3 0x117 JUMP JUMPDEST DUP1 MLOAD PUSH1 0x1 PUSH1 0x1 PUSH1 0xA0 SHL SUB DUP2 AND DUP2 EQ PUSH3 0x145 JUMPI PUSH1 0x0 DUP1 REVERT JUMPDEST SWAP2 SWAP1 POP JUMP JUMPDEST PUSH1 0x0 DUP1 PUSH1 0x40 DUP4 DUP6 SUB SLT ISZERO PUSH3 0x15E JUMPI PUSH1 0x0 DUP1 REVERT JUMPDEST DUP3 MLOAD PUSH1 0x1 PUSH1 0x1 PUSH1 0x40 SHL SUB DUP1 DUP3 GT ISZERO PUSH3 0x176 JUMPI PUSH1 0x0 DUP1 REVERT JUMPDEST DUP2 DUP6 ADD SWAP2 POP DUP6 PUSH1 0x1F DUP4 ADD SLT PUSH3 0x18B JUMPI PUSH1 0x0 DUP1 REVERT JUMPDEST DUP2 MLOAD DUP2 DUP2 GT ISZERO PUSH3 0x1A0 JUMPI PUSH3 0x1A0 PUSH3 0x278 JUMP JUMPDEST PUSH1 0x40 MLOAD PUSH1 0x1F DUP3 ADD PUSH1 0x1F NOT SWAP1 DUP2 AND PUSH1 0x3F ADD AND DUP2 ADD SWAP1 DUP4 DUP3 GT DUP2 DUP4 LT OR ISZERO PUSH3 0x1CB JUMPI PUSH3 0x1CB PUSH3 0x278 JUMP JUMPDEST DUP2 PUSH1 0x40 MSTORE DUP3 DUP2 MSTORE PUSH1 0x20 SWAP4 POP DUP9 DUP5 DUP5 DUP8 ADD ADD GT ISZERO PUSH3 0x1E8 JUMPI PUSH1 0x0 DUP1 REVERT JUMPDEST PUSH1 0x0 SWAP2 POP JUMPDEST DUP3 DUP3 LT ISZERO PUSH3 0x20C JUMPI DUP5 DUP3 ADD DUP5 ADD MLOAD DUP2 DUP4 ADD DUP6 ADD MSTORE SWAP1 DUP4 ADD SWAP1 PUSH3 0x1ED JUMP JUMPDEST DUP3 DUP3 GT ISZERO PUSH3 0x21E JUMPI PUSH1 0x0 DUP5 DUP5 DUP4 ADD ADD MSTORE JUMPDEST SWAP6 POP PUSH3 0x230 SWAP2 POP POP DUP6 DUP3 ADD PUSH3 0x12D JUMP JUMPDEST SWAP3 POP POP POP SWAP3 POP SWAP3 SWAP1 POP JUMP JUMPDEST PUSH1 0x1 DUP2 DUP2 SHR SWAP1 DUP3 AND DUP1 PUSH3 0x250 JUMPI PUSH1 0x7F DUP3 AND SWAP2 POP JUMPDEST PUSH1 0x20 DUP3 LT DUP2 EQ ISZERO PUSH3 0x272 JUMPI PUSH4 0x4E487B71 PUSH1 0xE0 SHL PUSH1 0x0 MSTORE PUSH1 0x22 PUSH1 0x4 MSTORE PUSH1 0x24 PUSH1 0x0 REVERT JUMPDEST POP SWAP2 SWAP1 POP JUMP JUMPDEST PUSH4 0x4E487B71 PUSH1 0xE0 SHL PUSH1 0x0 MSTORE PUSH1 0x41 PUSH1 0x4 MSTORE PUSH1 0x24 PUSH1 0x0 REVERT JUMPDEST PUSH2 0x1E44 DUP1 PUSH3 0x29E PUSH1 0x0 CODECOPY PUSH1 0x0 RETURN INVALID PUSH1 0x80 PUSH1 0x40 MSTORE PUSH1 0x4 CALLDATASIZE LT PUSH2 0x1C1 JUMPI PUSH1 0x0 CALLDATALOAD PUSH1 0xE0 SHR DUP1 PUSH4 0x818FB3E0 GT PUSH2 0xF7 JUMPI DUP1 PUSH4 0xB365221D GT PUSH2 0x95 JUMPI DUP1 PUSH4 0xD793A0E6 GT PUSH2 0x64 JUMPI DUP1 PUSH4 0xD793A0E6 EQ PUSH2 0x50A JUMPI DUP1 PUSH4 0xD96A094A EQ PUSH2 0x52A JUMPI DUP1 PUSH4 0xE2090271 EQ PUSH2 0x53D JUMPI DUP1 PUSH4 0xFDFF9B4D EQ PUSH2 0x55D JUMPI PUSH1 0x0 DUP1 REVERT JUMPDEST DUP1 PUSH4 0xB365221D EQ PUSH2 0x48E JUMPI DUP1 PUSH4 0xC577D23C EQ PUSH2 0x4AE JUMPI DUP1 PUSH4 0xC6211A56 EQ PUSH2 0x4C3 JUMPI DUP1 PUSH4 0xD69D5094 EQ PUSH2 0x4E3 JUMPI PUSH1 0x0 DUP1 REVERT JUMPDEST DUP1 PUSH4 0x96799760 GT PUSH2 0xD1 JUMPI DUP1 PUSH4 0x96799760 EQ PUSH2 0x418 JUMPI DUP1 PUSH4 0x9C3BDDB2 EQ PUSH2 0x438 JUMPI DUP1 PUSH4 0xAC964F21 EQ PUSH2 0x458 JUMPI DUP1 PUSH4 0xB1B53C38 EQ PUSH2 0x46E JUMPI PUSH1 0x0 DUP1 REVERT JUMPDEST DUP1 PUSH4 0x818FB3E0 EQ PUSH2 0x3AA JUMPI DUP1 PUSH4 0x8AF213E2 EQ PUSH2 0x3E2 JUMPI DUP1 PUSH4 0x8D8EF2F0 EQ PUSH2 0x402 JUMPI PUSH1 0x0 DUP1 REVERT JUMPDEST DUP1 PUSH4 0x2D06177A GT PUSH2 0x164 JUMPI DUP1 PUSH4 0x521936E6 GT PUSH2 0x13E JUMPI DUP1 PUSH4 0x521936E6 EQ PUSH2 0x32C JUMPI DUP1 PUSH4 0x522547A8 EQ PUSH2 0x341 JUMPI DUP1 PUSH4 0x5786FD40 EQ PUSH2 0x361 JUMPI DUP1 PUSH4 0x7ACC0B20 EQ PUSH2 0x376 JUMPI PUSH1 0x0 DUP1 REVERT JUMPDEST DUP1 PUSH4 0x2D06177A EQ PUSH2 0x2CA JUMPI DUP1 PUSH4 0x4A02990C EQ PUSH2 0x2EA JUMPI DUP1 PUSH4 0x4A64090B EQ PUSH2 0x30A JUMPI PUSH1 0x0 DUP1 REVERT JUMPDEST DUP1 PUSH4 0xA366CC8 GT PUSH2 0x1A0 JUMPI DUP1 PUSH4 0xA366CC8 EQ PUSH2 0x239 JUMPI DUP1 PUSH4 0x20023F30 EQ PUSH2 0x268 JUMPI DUP1 PUSH4 0x26AF03E2 EQ PUSH2 0x28A JUMPI DUP1 PUSH4 0x2C0D259D EQ PUSH2 0x2AA JUMPI PUSH1 0x0 DUP1 REVERT JUMPDEST DUP1 PUSH3 0xF73D4C EQ PUSH2 0x1C6 JUMPI DUP1 PUSH4 0x6ACDCFE EQ PUSH2 0x1FF JUMPI DUP1 PUSH4 0x7AA0BC4 EQ PUSH2 0x223 JUMPI JUMPDEST PUSH1 0x0 DUP1 REVERT JUMPDEST CALLVALUE DUP1 ISZERO PUSH2 0x1D2 JUMPI PUSH1 0x0 DUP1 REVERT JUMPDEST POP PUSH2 0x1E6 PUSH2 0x1E1 CALLDATASIZE PUSH1 0x4 PUSH2 0x1A45 JUMP JUMPDEST PUSH2 0x59D JUMP JUMPDEST PUSH1 0x40 MLOAD PUSH2 0x1F6 SWAP5 SWAP4 SWAP3 SWAP2 SWAP1 PUSH2 0x1C58 JUMP JUMPDEST PUSH1 0x40 MLOAD DUP1 SWAP2 SUB SWAP1 RETURN JUMPDEST CALLVALUE DUP1 ISZERO PUSH2 0x20B JUMPI PUSH1 0x0 DUP1 REVERT JUMPDEST POP PUSH2 0x215 PUSH1 0x6 SLOAD DUP2 JUMP JUMPDEST PUSH1 0x40 MLOAD SWAP1 DUP2 MSTORE PUSH1 0x20 ADD PUSH2 0x1F6 JUMP JUMPDEST CALLVALUE DUP1 ISZERO PUSH2 0x22F JUMPI PUSH1 0x0 DUP1 REVERT JUMPDEST POP PUSH2 0x215 PUSH1 0xD SLOAD DUP2 JUMP JUMPDEST CALLVALUE DUP1 ISZERO PUSH2 0x245 JUMPI PUSH1 0x0 DUP1 REVERT JUMPDEST POP PUSH2 0x259 PUSH2 0x254 CALLDATASIZE PUSH1 0x4 PUSH2 0x18F9 JUMP JUMPDEST PUSH2 0x892 JUMP JUMPDEST PUSH1 0x40 MLOAD PUSH2 0x1F6 SWAP4 SWAP3 SWAP2 SWAP1 PUSH2 0x1BAE JUMP JUMPDEST CALLVALUE DUP1 ISZERO PUSH2 0x274 JUMPI PUSH1 0x0 DUP1 REVERT JUMPDEST POP PUSH2 0x288 PUSH2 0x283 CALLDATASIZE PUSH1 0x4 PUSH2 0x19BA JUMP JUMPDEST PUSH2 0xA40 JUMP JUMPDEST STOP JUMPDEST CALLVALUE DUP1 ISZERO PUSH2 0x296 JUMPI PUSH1 0x0 DUP1 REVERT JUMPDEST POP PUSH2 0x288 PUSH2 0x2A5 CALLDATASIZE PUSH1 0x4 PUSH2 0x1973 JUMP JUMPDEST PUSH2 0xABD JUMP JUMPDEST CALLVALUE DUP1 ISZERO PUSH2 0x2B6 JUMPI PUSH1 0x0 DUP1 REVERT JUMPDEST POP PUSH2 0x1E6 PUSH2 0x2C5 CALLDATASIZE PUSH1 0x4 PUSH2 0x1973 JUMP JUMPDEST PUSH2 0xAFD JUMP JUMPDEST CALLVALUE DUP1 ISZERO PUSH2 0x2D6 JUMPI PUSH1 0x0 DUP1 REVERT JUMPDEST POP PUSH2 0x288 PUSH2 0x2E5 CALLDATASIZE PUSH1 0x4 PUSH2 0x183B JUMP JUMPDEST PUSH2 0xE1C JUMP JUMPDEST CALLVALUE DUP1 ISZERO PUSH2 0x2F6 JUMPI PUSH1 0x0 DUP1 REVERT JUMPDEST POP PUSH2 0x288 PUSH2 0x305 CALLDATASIZE PUSH1 0x4 PUSH2 0x193E JUMP JUMPDEST PUSH2 0xE5C JUMP JUMPDEST CALLVALUE DUP1 ISZERO PUSH2 0x316 JUMPI PUSH1 0x0 DUP1 REVERT JUMPDEST POP PUSH2 0x31F PUSH2 0xEBF JUMP JUMPDEST PUSH1 0x40 MLOAD PUSH2 0x1F6 SWAP2 SWAP1 PUSH2 0x1BF1 JUMP JUMPDEST CALLVALUE DUP1 ISZERO PUSH2 0x338 JUMPI PUSH1 0x0 DUP1 REVERT JUMPDEST POP PUSH2 0x31F PUSH2 0xF4D JUMP JUMPDEST CALLVALUE DUP1 ISZERO PUSH2 0x34D JUMPI PUSH1 0x0 DUP1 REVERT JUMPDEST POP PUSH2 0x288 PUSH2 0x35C CALLDATASIZE PUSH1 0x4 PUSH2 0x1A23 JUMP JUMPDEST PUSH2 0xF5A JUMP JUMPDEST CALLVALUE DUP1 ISZERO PUSH2 0x36D JUMPI PUSH1 0x0 DUP1 REVERT JUMPDEST POP PUSH1 0x2 SLOAD PUSH2 0x215 JUMP JUMPDEST CALLVALUE DUP1 ISZERO PUSH2 0x382 JUMPI PUSH1 0x0 DUP1 REVERT JUMPDEST POP PUSH2 0x396 PUSH2 0x391 CALLDATASIZE PUSH1 0x4 PUSH2 0x18F9 JUMP JUMPDEST PUSH2 0xF8B JUMP JUMPDEST PUSH1 0x40 MLOAD PUSH2 0x1F6 SWAP9 SWAP8 SWAP7 SWAP6 SWAP5 SWAP4 SWAP3 SWAP2 SWAP1 PUSH2 0x1C04 JUMP JUMPDEST CALLVALUE DUP1 ISZERO PUSH2 0x3B6 JUMPI PUSH1 0x0 DUP1 REVERT JUMPDEST POP PUSH1 0x1 SLOAD PUSH2 0x3CA SWAP1 PUSH1 0x1 PUSH1 0x1 PUSH1 0xA0 SHL SUB AND DUP2 JUMP JUMPDEST PUSH1 0x40 MLOAD PUSH1 0x1 PUSH1 0x1 PUSH1 0xA0 SHL SUB SWAP1 SWAP2 AND DUP2 MSTORE PUSH1 0x20 ADD PUSH2 0x1F6 JUMP JUMPDEST CALLVALUE DUP1 ISZERO PUSH2 0x3EE JUMPI PUSH1 0x0 DUP1 REVERT JUMPDEST POP PUSH2 0x3CA PUSH2 0x3FD CALLDATASIZE PUSH1 0x4 PUSH2 0x18F9 JUMP JUMPDEST PUSH2 0x1066 JUMP JUMPDEST CALLVALUE DUP1 ISZERO PUSH2 0x40E JUMPI PUSH1 0x0 DUP1 REVERT JUMPDEST POP PUSH2 0x215 PUSH1 0x5 SLOAD DUP2 JUMP JUMPDEST CALLVALUE DUP1 ISZERO PUSH2 0x424 JUMPI PUSH1 0x0 DUP1 REVERT JUMPDEST POP PUSH2 0x288 PUSH2 0x433 CALLDATASIZE PUSH1 0x4 PUSH2 0x183B JUMP JUMPDEST PUSH2 0x1090 JUMP JUMPDEST CALLVALUE DUP1 ISZERO PUSH2 0x444 JUMPI PUSH1 0x0 DUP1 REVERT JUMPDEST POP PUSH2 0x288 PUSH2 0x453 CALLDATASIZE PUSH1 0x4 PUSH2 0x1A23 JUMP JUMPDEST PUSH2 0x10E8 JUMP JUMPDEST CALLVALUE DUP1 ISZERO PUSH2 0x464 JUMPI PUSH1 0x0 DUP1 REVERT JUMPDEST POP PUSH2 0x215 PUSH1 0x2 SLOAD DUP2 JUMP JUMPDEST CALLVALUE DUP1 ISZERO PUSH2 0x47A JUMPI PUSH1 0x0 DUP1 REVERT JUMPDEST POP PUSH2 0x31F PUSH2 0x489 CALLDATASIZE PUSH1 0x4 PUSH2 0x18F9 JUMP JUMPDEST PUSH2 0x1119 JUMP JUMPDEST CALLVALUE DUP1 ISZERO PUSH2 0x49A JUMPI PUSH1 0x0 DUP1 REVERT JUMPDEST POP PUSH2 0x215 PUSH2 0x4A9 CALLDATASIZE PUSH1 0x4 PUSH2 0x18F9 JUMP JUMPDEST PUSH2 0x1144 JUMP JUMPDEST CALLVALUE DUP1 ISZERO PUSH2 0x4BA JUMPI PUSH1 0x0 DUP1 REVERT JUMPDEST POP PUSH2 0x259 PUSH2 0x1165 JUMP JUMPDEST CALLVALUE DUP1 ISZERO PUSH2 0x4CF JUMPI PUSH1 0x0 DUP1 REVERT JUMPDEST POP PUSH2 0x288 PUSH2 0x4DE CALLDATASIZE PUSH1 0x4 PUSH2 0x185D JUMP JUMPDEST PUSH2 0x12FC JUMP JUMPDEST CALLVALUE DUP1 ISZERO PUSH2 0x4EF JUMPI PUSH1 0x0 DUP1 REVERT JUMPDEST POP PUSH2 0x4F8 PUSH2 0x132B JUMP JUMPDEST PUSH1 0x40 MLOAD PUSH2 0x1F6 SWAP7 SWAP6 SWAP5 SWAP4 SWAP3 SWAP2 SWAP1 PUSH2 0x1CA2 JUMP JUMPDEST CALLVALUE DUP1 ISZERO PUSH2 0x516 JUMPI PUSH1 0x0 DUP1 REVERT JUMPDEST POP PUSH2 0x288 PUSH2 0x525 CALLDATASIZE PUSH1 0x4 PUSH2 0x189A JUMP JUMPDEST PUSH2 0x1472 JUMP JUMPDEST PUSH2 0x288 PUSH2 0x538 CALLDATASIZE PUSH1 0x4 PUSH2 0x18F9 JUMP JUMPDEST PUSH2 0x151C JUMP JUMPDEST CALLVALUE DUP1 ISZERO PUSH2 0x549 JUMPI PUSH1 0x0 DUP1 REVERT JUMPDEST POP PUSH2 0x288 PUSH2 0x558 CALLDATASIZE PUSH1 0x4 PUSH2 0x1912 JUMP JUMPDEST PUSH2 0x1631 JUMP JUMPDEST CALLVALUE DUP1 ISZERO PUSH2 0x569 JUMPI PUSH1 0x0 DUP1 REVERT JUMPDEST POP PUSH2 0x58D PUSH2 0x578 CALLDATASIZE PUSH1 0x4 PUSH2 0x183B JUMP JUMPDEST PUSH1 0x0 PUSH1 0x20 DUP2 SWAP1 MSTORE SWAP1 DUP2 MSTORE PUSH1 0x40 SWAP1 KECCAK256 SLOAD PUSH1 0xFF AND DUP2 JUMP JUMPDEST PUSH1 0x40 MLOAD SWAP1 ISZERO ISZERO DUP2 MSTORE PUSH1 0x20 ADD PUSH2 0x1F6 JUMP JUMPDEST PUSH1 0x0 DUP4 DUP2 MSTORE PUSH1 0x3 PUSH1 0x20 SWAP1 DUP2 MSTORE PUSH1 0x40 DUP1 DUP4 KECCAK256 CALLER DUP5 MSTORE PUSH1 0xA DUP2 ADD SWAP1 SWAP3 MSTORE DUP3 KECCAK256 SLOAD PUSH1 0x60 SWAP2 DUP3 SWAP2 DUP3 SWAP2 SWAP1 PUSH1 0xFF AND PUSH2 0x5CF JUMPI PUSH1 0x0 DUP1 REVERT JUMPDEST CALLER PUSH1 0x0 SWAP1 DUP2 MSTORE PUSH1 0xB DUP3 ADD PUSH1 0x20 MSTORE PUSH1 0x40 SWAP1 KECCAK256 SLOAD PUSH1 0xFF AND ISZERO PUSH2 0x5EE JUMPI PUSH1 0x0 DUP1 REVERT JUMPDEST PUSH1 0x5 DUP8 GT ISZERO DUP1 ISZERO PUSH2 0x5FF JUMPI POP PUSH1 0x0 DUP8 GT JUMPDEST DUP1 ISZERO PUSH2 0x613 JUMPI POP PUSH2 0x611 PUSH1 0x1 DUP9 PUSH2 0x1DB8 JUMP JUMPDEST ISZERO JUMPDEST PUSH2 0x61C JUMPI PUSH1 0x0 DUP1 REVERT JUMPDEST CALLER PUSH1 0x0 SWAP1 DUP2 MSTORE PUSH1 0xB DUP3 ADD PUSH1 0x20 MSTORE PUSH1 0x40 DUP2 KECCAK256 DUP1 SLOAD PUSH1 0xFF NOT AND PUSH1 0x1 OR SWAP1 SSTORE PUSH1 0x4 DUP3 ADD DUP1 SLOAD SWAP2 PUSH2 0x648 DUP4 PUSH2 0x1D9D JUMP JUMPDEST SWAP1 SWAP2 SSTORE POP POP PUSH1 0x4 DUP2 ADD SLOAD PUSH2 0x65D SWAP1 PUSH1 0x1 PUSH2 0x1CE9 JUMP JUMPDEST DUP8 DUP3 PUSH1 0x4 ADD SLOAD DUP4 PUSH1 0x3 ADD SLOAD PUSH2 0x672 SWAP2 SWAP1 PUSH2 0x1D15 JUMP JUMPDEST PUSH2 0x67C SWAP2 SWAP1 PUSH2 0x1CE9 JUMP JUMPDEST PUSH2 0x686 SWAP2 SWAP1 PUSH2 0x1D01 JUMP JUMPDEST PUSH1 0x3 DUP3 ADD SSTORE PUSH1 0x5 DUP2 ADD DUP1 SLOAD PUSH1 0x1 DUP2 ADD DUP3 SSTORE PUSH1 0x0 SWAP2 DUP3 MSTORE PUSH1 0x20 SWAP2 DUP3 SWAP1 KECCAK256 DUP9 MLOAD PUSH2 0x6B6 SWAP4 SWAP2 SWAP1 SWAP3 ADD SWAP2 SWAP1 DUP10 ADD SWAP1 PUSH2 0x167E JUMP JUMPDEST POP PUSH1 0x6 DUP2 ADD DUP1 SLOAD PUSH1 0x1 DUP2 DUP2 ADD DUP4 SSTORE PUSH1 0x0 DUP4 DUP2 MSTORE PUSH1 0x20 DUP1 DUP3 KECCAK256 SWAP1 SWAP4 ADD DUP1 SLOAD PUSH1 0x1 PUSH1 0x1 PUSH1 0xA0 SHL SUB NOT AND CALLER OR SWAP1 SSTORE PUSH1 0x7 DUP6 ADD DUP1 SLOAD SWAP3 DUP4 ADD DUP2 SSTORE DUP1 DUP3 MSTORE DUP4 DUP3 KECCAK256 SWAP1 SWAP3 ADD DUP12 SWAP1 SSTORE PUSH1 0x3 DUP6 ADD SLOAD PUSH1 0x5 DUP7 ADD DUP1 SLOAD PUSH1 0x40 DUP1 MLOAD DUP3 DUP9 MUL DUP2 ADD DUP9 ADD SWAP1 SWAP2 MSTORE DUP2 DUP2 MSTORE SWAP3 SWAP7 SWAP2 SWAP6 SWAP2 SWAP5 SWAP4 DUP7 SWAP3 DUP5 ADD JUMPDEST DUP3 DUP3 LT ISZERO PUSH2 0x7CC JUMPI DUP4 DUP3 SWAP1 PUSH1 0x0 MSTORE PUSH1 0x20 PUSH1 0x0 KECCAK256 ADD DUP1 SLOAD PUSH2 0x73F SWAP1 PUSH2 0x1D62 JUMP JUMPDEST DUP1 PUSH1 0x1F ADD PUSH1 0x20 DUP1 SWAP2 DIV MUL PUSH1 0x20 ADD PUSH1 0x40 MLOAD SWAP1 DUP2 ADD PUSH1 0x40 MSTORE DUP1 SWAP3 SWAP2 SWAP1 DUP2 DUP2 MSTORE PUSH1 0x20 ADD DUP3 DUP1 SLOAD PUSH2 0x76B SWAP1 PUSH2 0x1D62 JUMP JUMPDEST DUP1 ISZERO PUSH2 0x7B8 JUMPI DUP1 PUSH1 0x1F LT PUSH2 0x78D JUMPI PUSH2 0x100 DUP1 DUP4 SLOAD DIV MUL DUP4 MSTORE SWAP2 PUSH1 0x20 ADD SWAP2 PUSH2 0x7B8 JUMP JUMPDEST DUP3 ADD SWAP2 SWAP1 PUSH1 0x0 MSTORE PUSH1 0x20 PUSH1 0x0 KECCAK256 SWAP1 JUMPDEST DUP2 SLOAD DUP2 MSTORE SWAP1 PUSH1 0x1 ADD SWAP1 PUSH1 0x20 ADD DUP1 DUP4 GT PUSH2 0x79B JUMPI DUP3 SWAP1 SUB PUSH1 0x1F AND DUP3 ADD SWAP2 JUMPDEST POP POP POP POP POP DUP2 MSTORE PUSH1 0x20 ADD SWAP1 PUSH1 0x1 ADD SWAP1 PUSH2 0x720 JUMP JUMPDEST POP POP POP POP SWAP3 POP DUP2 DUP1 SLOAD DUP1 PUSH1 0x20 MUL PUSH1 0x20 ADD PUSH1 0x40 MLOAD SWAP1 DUP2 ADD PUSH1 0x40 MSTORE DUP1 SWAP3 SWAP2 SWAP1 DUP2 DUP2 MSTORE PUSH1 0x20 ADD DUP3 DUP1 SLOAD DUP1 ISZERO PUSH2 0x827 JUMPI PUSH1 0x20 MUL DUP3 ADD SWAP2 SWAP1 PUSH1 0x0 MSTORE PUSH1 0x20 PUSH1 0x0 KECCAK256 SWAP1 JUMPDEST DUP2 SLOAD PUSH1 0x1 PUSH1 0x1 PUSH1 0xA0 SHL SUB AND DUP2 MSTORE PUSH1 0x1 SWAP1 SWAP2 ADD SWAP1 PUSH1 0x20 ADD DUP1 DUP4 GT PUSH2 0x809 JUMPI JUMPDEST POP POP POP POP POP SWAP2 POP DUP1 DUP1 SLOAD DUP1 PUSH1 0x20 MUL PUSH1 0x20 ADD PUSH1 0x40 MLOAD SWAP1 DUP2 ADD PUSH1 0x40 MSTORE DUP1 SWAP3 SWAP2 SWAP1 DUP2 DUP2 MSTORE PUSH1 0x20 ADD DUP3 DUP1 SLOAD DUP1 ISZERO PUSH2 0x879 JUMPI PUSH1 0x20 MUL DUP3 ADD SWAP2 SWAP1 PUSH1 0x0 MSTORE PUSH1 0x20 PUSH1 0x0 KECCAK256 SWAP1 JUMPDEST DUP2 SLOAD DUP2 MSTORE PUSH1 0x20 ADD SWAP1 PUSH1 0x1 ADD SWAP1 DUP1 DUP4 GT PUSH2 0x865 JUMPI JUMPDEST POP POP POP POP POP SWAP1 POP SWAP5 POP SWAP5 POP SWAP5 POP SWAP5 POP POP SWAP4 POP SWAP4 POP SWAP4 POP SWAP4 JUMP JUMPDEST PUSH1 0x0 DUP2 DUP2 MSTORE PUSH1 0x3 PUSH1 0x20 SWAP1 DUP2 MSTORE PUSH1 0x40 DUP1 DUP4 KECCAK256 PUSH1 0x5 DUP2 ADD DUP1 SLOAD DUP4 MLOAD DUP2 DUP7 MUL DUP2 ADD DUP7 ADD SWAP1 SWAP5 MSTORE DUP1 DUP5 MSTORE PUSH1 0x60 SWAP6 DUP7 SWAP6 DUP7 SWAP6 SWAP4 SWAP5 PUSH1 0x6 DUP2 ADD SWAP5 PUSH1 0x7 SWAP1 SWAP2 ADD SWAP4 SWAP1 SWAP3 DUP7 SWAP3 DUP5 ADD JUMPDEST DUP3 DUP3 LT ISZERO PUSH2 0x97F JUMPI DUP4 DUP3 SWAP1 PUSH1 0x0 MSTORE PUSH1 0x20 PUSH1 0x0 KECCAK256 ADD DUP1 SLOAD PUSH2 0x8F2 SWAP1 PUSH2 0x1D62 JUMP JUMPDEST DUP1 PUSH1 0x1F ADD PUSH1 0x20 DUP1 SWAP2 DIV MUL PUSH1 0x20 ADD PUSH1 0x40 MLOAD SWAP1 DUP2 ADD PUSH1 0x40 MSTORE DUP1 SWAP3 SWAP2 SWAP1 DUP2 DUP2 MSTORE PUSH1 0x20 ADD DUP3 DUP1 SLOAD PUSH2 0x91E SWAP1 PUSH2 0x1D62 JUMP JUMPDEST DUP1 ISZERO PUSH2 0x96B JUMPI DUP1 PUSH1 0x1F LT PUSH2 0x940 JUMPI PUSH2 0x100 DUP1 DUP4 SLOAD DIV MUL DUP4 MSTORE SWAP2 PUSH1 0x20 ADD SWAP2 PUSH2 0x96B JUMP JUMPDEST DUP3 ADD SWAP2 SWAP1 PUSH1 0x0 MSTORE PUSH1 0x20 PUSH1 0x0 KECCAK256 SWAP1 JUMPDEST DUP2 SLOAD DUP2 MSTORE SWAP1 PUSH1 0x1 ADD SWAP1 PUSH1 0x20 ADD DUP1 DUP4 GT PUSH2 0x94E JUMPI DUP3 SWAP1 SUB PUSH1 0x1F AND DUP3 ADD SWAP2 JUMPDEST POP POP POP POP POP DUP2 MSTORE PUSH1 0x20 ADD SWAP1 PUSH1 0x1 ADD SWAP1 PUSH2 0x8D3 JUMP JUMPDEST POP POP POP POP SWAP3 POP DUP2 DUP1 SLOAD DUP1 PUSH1 0x20 MUL PUSH1 0x20 ADD PUSH1 0x40 MLOAD SWAP1 DUP2 ADD PUSH1 0x40 MSTORE DUP1 SWAP3 SWAP2 SWAP1 DUP2 DUP2 MSTORE PUSH1 0x20 ADD DUP3 DUP1 SLOAD DUP1 ISZERO PUSH2 0x9DA JUMPI PUSH1 0x20 MUL DUP3 ADD SWAP2 SWAP1 PUSH1 0x0 MSTORE PUSH1 0x20 PUSH1 0x0 KECCAK256 SWAP1 JUMPDEST DUP2 SLOAD PUSH1 0x1 PUSH1 0x1 PUSH1 0xA0 SHL SUB AND DUP2 MSTORE PUSH1 0x1 SWAP1 SWAP2 ADD SWAP1 PUSH1 0x20 ADD DUP1 DUP4 GT PUSH2 0x9BC JUMPI JUMPDEST POP POP POP POP POP SWAP2 POP DUP1 DUP1 SLOAD DUP1 PUSH1 0x20 MUL PUSH1 0x20 ADD PUSH1 0x40 MLOAD SWAP1 DUP2 ADD PUSH1 0x40 MSTORE DUP1 SWAP3 SWAP2 SWAP1 DUP2 DUP2 MSTORE PUSH1 0x20 ADD DUP3 DUP1 SLOAD DUP1 ISZERO PUSH2 0xA2C JUMPI PUSH1 0x20 MUL DUP3 ADD SWAP2 SWAP1 PUSH1 0x0 MSTORE PUSH1 0x20 PUSH1 0x0 KECCAK256 SWAP1 JUMPDEST DUP2 SLOAD DUP2 MSTORE PUSH1 0x20 ADD SWAP1 PUSH1 0x1 ADD SWAP1 DUP1 DUP4 GT PUSH2 0xA18 JUMPI JUMPDEST POP POP POP POP POP SWAP1 POP SWAP3 POP SWAP3 POP SWAP3 POP SWAP2 SWAP4 SWAP1 SWAP3 POP JUMP JUMPDEST CALLER PUSH1 0x0 SWAP1 DUP2 MSTORE PUSH1 0x20 DUP2 SWAP1 MSTORE PUSH1 0x40 SWAP1 KECCAK256 SLOAD PUSH1 0xFF AND PUSH2 0xA5C JUMPI PUSH1 0x0 DUP1 REVERT JUMPDEST PUSH1 0x0 DUP6 DUP2 MSTORE PUSH1 0x3 PUSH1 0x20 SWAP1 DUP2 MSTORE PUSH1 0x40 SWAP1 SWAP2 KECCAK256 DUP6 MLOAD PUSH2 0xA7B SWAP3 DUP8 ADD SWAP1 PUSH2 0x167E JUMP JUMPDEST POP PUSH1 0x0 SWAP5 DUP6 MSTORE PUSH1 0x3 PUSH1 0x20 MSTORE PUSH1 0x40 SWAP1 SWAP5 KECCAK256 PUSH1 0x2 DUP2 ADD DUP1 SLOAD PUSH1 0x1 PUSH1 0x1 PUSH1 0xA0 SHL SUB NOT AND PUSH1 0x1 PUSH1 0x1 PUSH1 0xA0 SHL SUB SWAP5 SWAP1 SWAP5 AND SWAP4 SWAP1 SWAP4 OR SWAP1 SWAP3 SSTORE PUSH1 0x1 DUP3 ADD SSTORE PUSH1 0x9 ADD SWAP2 SWAP1 SWAP2 SSTORE POP JUMP JUMPDEST CALLER PUSH1 0x0 SWAP1 DUP2 MSTORE PUSH1 0x20 DUP2 SWAP1 MSTORE PUSH1 0x40 SWAP1 KECCAK256 SLOAD PUSH1 0xFF AND PUSH2 0xAD9 JUMPI PUSH1 0x0 DUP1 REVERT JUMPDEST PUSH1 0x0 DUP3 DUP2 MSTORE PUSH1 0x3 PUSH1 0x20 SWAP1 DUP2 MSTORE PUSH1 0x40 SWAP1 SWAP2 KECCAK256 DUP3 MLOAD PUSH2 0xAF8 SWAP3 DUP5 ADD SWAP1 PUSH2 0x167E JUMP JUMPDEST POP POP POP JUMP JUMPDEST CALLER PUSH1 0x0 SWAP1 DUP2 MSTORE PUSH1 0xA PUSH1 0x20 MSTORE PUSH1 0x40 DUP2 KECCAK256 SLOAD PUSH1 0x60 SWAP1 DUP2 SWAP1 DUP2 SWAP1 PUSH1 0xFF AND PUSH2 0xB20 JUMPI PUSH1 0x0 DUP1 REVERT JUMPDEST CALLER PUSH1 0x0 SWAP1 DUP2 MSTORE PUSH1 0xB PUSH1 0x20 MSTORE PUSH1 0x40 SWAP1 KECCAK256 SLOAD PUSH1 0xFF AND ISZERO PUSH2 0xB3D JUMPI PUSH1 0x0 DUP1 REVERT JUMPDEST PUSH1 0x5 DUP7 GT ISZERO DUP1 ISZERO PUSH2 0xB4E JUMPI POP PUSH1 0x0 DUP7 GT JUMPDEST DUP1 ISZERO PUSH2 0xB62 JUMPI POP PUSH2 0xB60 PUSH1 0x1 DUP8 PUSH2 0x1DB8 JUMP JUMPDEST ISZERO JUMPDEST PUSH2 0xB6B JUMPI PUSH1 0x0 DUP1 REVERT JUMPDEST CALLER PUSH1 0x0 SWAP1 DUP2 MSTORE PUSH1 0xB PUSH1 0x20 MSTORE PUSH1 0x40 DUP2 KECCAK256 DUP1 SLOAD PUSH1 0xFF NOT AND PUSH1 0x1 OR SWAP1 SSTORE PUSH1 0x6 DUP1 SLOAD SWAP2 PUSH2 0xB93 DUP4 PUSH2 0x1D9D JUMP JUMPDEST SWAP1 SWAP2 SSTORE POP POP PUSH1 0x6 SLOAD DUP7 PUSH2 0xBA7 PUSH1 0x1 DUP4 PUSH2 0x1D34 JUMP JUMPDEST PUSH1 0x5 SLOAD PUSH2 0xBB4 SWAP2 SWAP1 PUSH2 0x1D15 JUMP JUMPDEST PUSH2 0xBBE SWAP2 SWAP1 PUSH2 0x1CE9 JUMP JUMPDEST PUSH2 0xBC8 SWAP2 SWAP1 PUSH2 0x1D01 JUMP JUMPDEST PUSH1 0x5 SSTORE PUSH1 0x7 DUP1 SLOAD PUSH1 0x1 DUP2 ADD DUP3 SSTORE PUSH1 0x0 SWAP2 SWAP1 SWAP2 MSTORE DUP6 MLOAD PUSH2 0xC0E SWAP2 PUSH32 0xA66CC928B5EDB82AF9BD49922954155AB7B0942694BEA4CE44661D9A8736C688 ADD SWAP1 PUSH1 0x20 DUP9 ADD SWAP1 PUSH2 0x167E JUMP JUMPDEST POP PUSH1 0x8 DUP1 SLOAD PUSH1 0x1 DUP2 DUP2 ADD DUP4 SSTORE PUSH32 0xF3F7A9FE364FAAB93B216DA50A3214154F22A0A2B415B23A84C8169E8B636EE3 SWAP1 SWAP2 ADD DUP1 SLOAD PUSH1 0x1 PUSH1 0x1 PUSH1 0xA0 SHL SUB NOT AND CALLER OR SWAP1 SSTORE PUSH1 0x9 DUP1 SLOAD SWAP2 DUP3 ADD DUP2 SSTORE PUSH1 0x0 DUP2 DUP2 MSTORE PUSH32 0x6E1540171B6C0C960B71A7020D9F60077F6AF931A8BBF590DA0223DACF75C7AF SWAP1 SWAP3 ADD DUP10 SWAP1 SSTORE PUSH1 0x5 SLOAD PUSH1 0x7 DUP1 SLOAD PUSH1 0x40 DUP1 MLOAD PUSH1 0x20 DUP4 DUP2 MUL DUP3 ADD DUP2 ADD SWAP1 SWAP3 MSTORE DUP3 DUP2 MSTORE SWAP4 SWAP7 SWAP3 SWAP6 SWAP3 SWAP5 SWAP4 SWAP3 DUP7 SWAP3 SWAP2 DUP5 ADD JUMPDEST DUP3 DUP3 LT ISZERO PUSH2 0xD57 JUMPI DUP4 DUP3 SWAP1 PUSH1 0x0 MSTORE PUSH1 0x20 PUSH1 0x0 KECCAK256 ADD DUP1 SLOAD PUSH2 0xCCA SWAP1 PUSH2 0x1D62 JUMP JUMPDEST DUP1 PUSH1 0x1F ADD PUSH1 0x20 DUP1 SWAP2 DIV MUL PUSH1 0x20 ADD PUSH1 0x40 MLOAD SWAP1 DUP2 ADD PUSH1 0x40 MSTORE DUP1 SWAP3 SWAP2 SWAP1 DUP2 DUP2 MSTORE PUSH1 0x20 ADD DUP3 DUP1 SLOAD PUSH2 0xCF6 SWAP1 PUSH2 0x1D62 JUMP JUMPDEST DUP1 ISZERO PUSH2 0xD43 JUMPI DUP1 PUSH1 0x1F LT PUSH2 0xD18 JUMPI PUSH2 0x100 DUP1 DUP4 SLOAD DIV MUL DUP4 MSTORE SWAP2 PUSH1 0x20 ADD SWAP2 PUSH2 0xD43 JUMP JUMPDEST DUP3 ADD SWAP2 SWAP1 PUSH1 0x0 MSTORE PUSH1 0x20 PUSH1 0x0 KECCAK256 SWAP1 JUMPDEST DUP2 SLOAD DUP2 MSTORE SWAP1 PUSH1 0x1 ADD SWAP1 PUSH1 0x20 ADD DUP1 DUP4 GT PUSH2 0xD26 JUMPI DUP3 SWAP1 SUB PUSH1 0x1F AND DUP3 ADD SWAP2 JUMPDEST POP POP POP POP POP DUP2 MSTORE PUSH1 0x20 ADD SWAP1 PUSH1 0x1 ADD SWAP1 PUSH2 0xCAB JUMP JUMPDEST POP POP POP POP SWAP3 POP DUP2 DUP1 SLOAD DUP1 PUSH1 0x20 MUL PUSH1 0x20 ADD PUSH1 0x40 MLOAD SWAP1 DUP2 ADD PUSH1 0x40 MSTORE DUP1 SWAP3 SWAP2 SWAP1 DUP2 DUP2 MSTORE PUSH1 0x20 ADD DUP3 DUP1 SLOAD DUP1 ISZERO PUSH2 0xDB2 JUMPI PUSH1 0x20 MUL DUP3 ADD SWAP2 SWAP1 PUSH1 0x0 MSTORE PUSH1 0x20 PUSH1 0x0 KECCAK256 SWAP1 JUMPDEST DUP2 SLOAD PUSH1 0x1 PUSH1 0x1 PUSH1 0xA0 SHL SUB AND DUP2 MSTORE PUSH1 0x1 SWAP1 SWAP2 ADD SWAP1 PUSH1 0x20 ADD DUP1 DUP4 GT PUSH2 0xD94 JUMPI JUMPDEST POP POP POP POP POP SWAP2 POP DUP1 DUP1 SLOAD DUP1 PUSH1 0x20 MUL PUSH1 0x20 ADD PUSH1 0x40 MLOAD SWAP1 DUP2 ADD PUSH1 0x40 MSTORE DUP1 SWAP3 SWAP2 SWAP1 DUP2 DUP2 MSTORE PUSH1 0x20 ADD DUP3 DUP1 SLOAD DUP1 ISZERO PUSH2 0xE04 JUMPI PUSH1 0x20 MUL DUP3 ADD SWAP2 SWAP1 PUSH1 0x0 MSTORE PUSH1 0x20 PUSH1 0x0 KECCAK256 SWAP1 JUMPDEST DUP2 SLOAD DUP2 MSTORE PUSH1 0x20 ADD SWAP1 PUSH1 0x1 ADD SWAP1 DUP1 DUP4 GT PUSH2 0xDF0 JUMPI JUMPDEST POP POP POP POP POP SWAP1 POP SWAP4 POP SWAP4 POP SWAP4 POP SWAP4 POP SWAP3 SWAP6 SWAP2 SWAP5 POP SWAP3 POP JUMP JUMPDEST CALLER PUSH1 0x0 SWAP1 DUP2 MSTORE PUSH1 0x20 DUP2 SWAP1 MSTORE PUSH1 0x40 SWAP1 KECCAK256 SLOAD PUSH1 0xFF AND PUSH2 0xE38 JUMPI PUSH1 0x0 DUP1 REVERT JUMPDEST PUSH1 0x1 PUSH1 0x1 PUSH1 0xA0 SHL SUB AND PUSH1 0x0 SWAP1 DUP2 MSTORE PUSH1 0x20 DUP2 SWAP1 MSTORE PUSH1 0x40 SWAP1 KECCAK256 DUP1 SLOAD PUSH1 0xFF NOT AND PUSH1 0x1 OR SWAP1 SSTORE JUMP JUMPDEST CALLER PUSH1 0x0 SWAP1 DUP2 MSTORE PUSH1 0x20 DUP2 SWAP1 MSTORE PUSH1 0x40 SWAP1 KECCAK256 SLOAD PUSH1 0xFF AND PUSH2 0xE78 JUMPI PUSH1 0x0 DUP1 REVERT JUMPDEST PUSH1 0x0 DUP3 DUP2 MSTORE PUSH1 0x3 PUSH1 0x20 MSTORE PUSH1 0x40 SWAP1 KECCAK256 PUSH1 0x2 ADD DUP1 SLOAD PUSH1 0xFF PUSH1 0xA0 SHL NOT AND PUSH1 0x1 PUSH1 0xA0 SHL DUP4 ISZERO ISZERO SWAP1 DUP2 MUL SWAP2 SWAP1 SWAP2 OR SWAP1 SWAP2 SSTORE PUSH2 0xEBB JUMPI PUSH1 0x0 DUP3 DUP2 MSTORE PUSH1 0x3 PUSH1 0x20 MSTORE PUSH1 0x40 DUP2 KECCAK256 PUSH1 0x9 ADD SSTORE JUMPDEST POP POP JUMP JUMPDEST PUSH1 0xC DUP1 SLOAD PUSH2 0xECC SWAP1 PUSH2 0x1D62 JUMP JUMPDEST DUP1 PUSH1 0x1F ADD PUSH1 0x20 DUP1 SWAP2 DIV MUL PUSH1 0x20 ADD PUSH1 0x40 MLOAD SWAP1 DUP2 ADD PUSH1 0x40 MSTORE DUP1 SWAP3 SWAP2 SWAP1 DUP2 DUP2 MSTORE PUSH1 0x20 ADD DUP3 DUP1 SLOAD PUSH2 0xEF8 SWAP1 PUSH2 0x1D62 JUMP JUMPDEST DUP1 ISZERO PUSH2 0xF45 JUMPI DUP1 PUSH1 0x1F LT PUSH2 0xF1A JUMPI PUSH2 0x100 DUP1 DUP4 SLOAD DIV MUL DUP4 MSTORE SWAP2 PUSH1 0x20 ADD SWAP2 PUSH2 0xF45 JUMP JUMPDEST DUP3 ADD SWAP2 SWAP1 PUSH1 0x0 MSTORE PUSH1 0x20 PUSH1 0x0 KECCAK256 SWAP1 JUMPDEST DUP2 SLOAD DUP2 MSTORE SWAP1 PUSH1 0x1 ADD SWAP1 PUSH1 0x20 ADD DUP1 DUP4 GT PUSH2 0xF28 JUMPI DUP3 SWAP1 SUB PUSH1 0x1F AND DUP3 ADD SWAP2 JUMPDEST POP POP POP POP POP DUP2 JUMP JUMPDEST PUSH1 0x4 DUP1 SLOAD PUSH2 0xECC SWAP1 PUSH2 0x1D62 JUMP JUMPDEST CALLER PUSH1 0x0 SWAP1 DUP2 MSTORE PUSH1 0x20 DUP2 SWAP1 MSTORE PUSH1 0x40 SWAP1 KECCAK256 SLOAD PUSH1 0xFF AND PUSH2 0xF76 JUMPI PUSH1 0x0 DUP1 REVERT JUMPDEST PUSH1 0x0 SWAP2 DUP3 MSTORE PUSH1 0x3 PUSH1 0x20 MSTORE PUSH1 0x40 SWAP1 SWAP2 KECCAK256 PUSH1 0x9 ADD SSTORE JUMP JUMPDEST PUSH1 0x3 PUSH1 0x20 MSTORE PUSH1 0x0 SWAP1 DUP2 MSTORE PUSH1 0x40 SWAP1 KECCAK256 DUP1 SLOAD DUP2 SWAP1 PUSH2 0xFA6 SWAP1 PUSH2 0x1D62 JUMP JUMPDEST DUP1 PUSH1 0x1F ADD PUSH1 0x20 DUP1 SWAP2 DIV MUL PUSH1 0x20 ADD PUSH1 0x40 MLOAD SWAP1 DUP2 ADD PUSH1 0x40 MSTORE DUP1 SWAP3 SWAP2 SWAP1 DUP2 DUP2 MSTORE PUSH1 0x20 ADD DUP3 DUP1 SLOAD PUSH2 0xFD2 SWAP1 PUSH2 0x1D62 JUMP JUMPDEST DUP1 ISZERO PUSH2 0x101F JUMPI DUP1 PUSH1 0x1F LT PUSH2 0xFF4 JUMPI PUSH2 0x100 DUP1 DUP4 SLOAD DIV MUL DUP4 MSTORE SWAP2 PUSH1 0x20 ADD SWAP2 PUSH2 0x101F JUMP JUMPDEST DUP3 ADD SWAP2 SWAP1 PUSH1 0x0 MSTORE PUSH1 0x20 PUSH1 0x0 KECCAK256 SWAP1 JUMPDEST DUP2 SLOAD DUP2 MSTORE SWAP1 PUSH1 0x1 ADD SWAP1 PUSH1 0x20 ADD DUP1 DUP4 GT PUSH2 0x1002 JUMPI DUP3 SWAP1 SUB PUSH1 0x1F AND DUP3 ADD SWAP2 JUMPDEST POP POP POP POP PUSH1 0x1 DUP4 ADD SLOAD PUSH1 0x2 DUP5 ADD SLOAD PUSH1 0x3 DUP6 ADD SLOAD PUSH1 0x4 DUP7 ADD SLOAD PUSH1 0x8 DUP8 ADD SLOAD PUSH1 0x9 SWAP1 SWAP8 ADD SLOAD SWAP6 SWAP7 SWAP4 SWAP6 PUSH1 0x1 PUSH1 0x1 PUSH1 0xA0 SHL SUB DUP5 AND SWAP6 POP PUSH1 0x1 PUSH1 0xA0 SHL SWAP1 SWAP4 DIV PUSH1 0xFF AND SWAP4 SWAP2 SWAP3 SWAP1 SWAP2 SWAP1 DUP9 JUMP JUMPDEST PUSH1 0x8 DUP2 DUP2 SLOAD DUP2 LT PUSH2 0x1076 JUMPI PUSH1 0x0 DUP1 REVERT JUMPDEST PUSH1 0x0 SWAP2 DUP3 MSTORE PUSH1 0x20 SWAP1 SWAP2 KECCAK256 ADD SLOAD PUSH1 0x1 PUSH1 0x1 PUSH1 0xA0 SHL SUB AND SWAP1 POP DUP2 JUMP JUMPDEST CALLER PUSH1 0x0 SWAP1 DUP2 MSTORE PUSH1 0x20 DUP2 SWAP1 MSTORE PUSH1 0x40 SWAP1 KECCAK256 SLOAD PUSH1 0xFF AND PUSH2 0x10AC JUMPI PUSH1 0x0 DUP1 REVERT JUMPDEST PUSH1 0x1 SLOAD PUSH1 0x1 PUSH1 0x1 PUSH1 0xA0 SHL SUB DUP3 DUP2 AND SWAP2 AND EQ ISZERO PUSH2 0x10C7 JUMPI PUSH1 0x0 DUP1 REVERT JUMPDEST PUSH1 0x1 PUSH1 0x1 PUSH1 0xA0 SHL SUB AND PUSH1 0x0 SWAP1 DUP2 MSTORE PUSH1 0x20 DUP2 SWAP1 MSTORE PUSH1 0x40 SWAP1 KECCAK256 DUP1 SLOAD PUSH1 0xFF NOT AND SWAP1 SSTORE JUMP JUMPDEST CALLER PUSH1 0x0 SWAP1 DUP2 MSTORE PUSH1 0x20 DUP2 SWAP1 MSTORE PUSH1 0x40 SWAP1 KECCAK256 SLOAD PUSH1 0xFF AND PUSH2 0x1104 JUMPI PUSH1 0x0 DUP1 REVERT JUMPDEST PUSH1 0x0 SWAP2 DUP3 MSTORE PUSH1 0x3 PUSH1 0x20 MSTORE PUSH1 0x40 SWAP1 SWAP2 KECCAK256 PUSH1 0x1 ADD SSTORE JUMP JUMPDEST PUSH1 0x7 DUP2 DUP2 SLOAD DUP2 LT PUSH2 0x1129 JUMPI PUSH1 0x0 DUP1 REVERT JUMPDEST SWAP1 PUSH1 0x0 MSTORE PUSH1 0x20 PUSH1 0x0 KECCAK256 ADD PUSH1 0x0 SWAP2 POP SWAP1 POP DUP1 SLOAD PUSH2 0xECC SWAP1 PUSH2 0x1D62 JUMP JUMPDEST PUSH1 0x9 DUP2 DUP2 SLOAD DUP2 LT PUSH2 0x1154 JUMPI PUSH1 0x0 DUP1 REVERT JUMPDEST PUSH1 0x0 SWAP2 DUP3 MSTORE PUSH1 0x20 SWAP1 SWAP2 KECCAK256 ADD SLOAD SWAP1 POP DUP2 JUMP JUMPDEST PUSH1 0x60 DUP1 PUSH1 0x60 PUSH1 0x7 PUSH1 0x8 PUSH1 0x9 DUP3 DUP1 SLOAD DUP1 PUSH1 0x20 MUL PUSH1 0x20 ADD PUSH1 0x40 MLOAD SWAP1 DUP2 ADD PUSH1 0x40 MSTORE DUP1 SWAP3 SWAP2 SWAP1 DUP2 DUP2 MSTORE PUSH1 0x20 ADD PUSH1 0x0 SWAP1 JUMPDEST DUP3 DUP3 LT ISZERO PUSH2 0x123D JUMPI DUP4 DUP3 SWAP1 PUSH1 0x0 MSTORE PUSH1 0x20 PUSH1 0x0 KECCAK256 ADD DUP1 SLOAD PUSH2 0x11B0 SWAP1 PUSH2 0x1D62 JUMP JUMPDEST DUP1 PUSH1 0x1F ADD PUSH1 0x20 DUP1 SWAP2 DIV MUL PUSH1 0x20 ADD PUSH1 0x40 MLOAD SWAP1 DUP2 ADD PUSH1 0x40 MSTORE DUP1 SWAP3 SWAP2 SWAP1 DUP2 DUP2 MSTORE PUSH1 0x20 ADD DUP3 DUP1 SLOAD PUSH2 0x11DC SWAP1 PUSH2 0x1D62 JUMP JUMPDEST DUP1 ISZERO PUSH2 0x1229 JUMPI DUP1 PUSH1 0x1F LT PUSH2 0x11FE JUMPI PUSH2 0x100 DUP1 DUP4 SLOAD DIV MUL DUP4 MSTORE SWAP2 PUSH1 0x20 ADD SWAP2 PUSH2 0x1229 JUMP JUMPDEST DUP3 ADD SWAP2 SWAP1 PUSH1 0x0 MSTORE PUSH1 0x20 PUSH1 0x0 KECCAK256 SWAP1 JUMPDEST DUP2 SLOAD DUP2 MSTORE SWAP1 PUSH1 0x1 ADD SWAP1 PUSH1 0x20 ADD DUP1 DUP4 GT PUSH2 0x120C JUMPI DUP3 SWAP1 SUB PUSH1 0x1F AND DUP3 ADD SWAP2 JUMPDEST POP POP POP POP POP DUP2 MSTORE PUSH1 0x20 ADD SWAP1 PUSH1 0x1 ADD SWAP1 PUSH2 0x1191 JUMP JUMPDEST POP POP POP POP SWAP3 POP DUP2 DUP1 SLOAD DUP1 PUSH1 0x20 MUL PUSH1 0x20 ADD PUSH1 0x40 MLOAD SWAP1 DUP2 ADD PUSH1 0x40 MSTORE DUP1 SWAP3 SWAP2 SWAP1 DUP2 DUP2 MSTORE PUSH1 0x20 ADD DUP3 DUP1 SLOAD DUP1 ISZERO PUSH2 0x1298 JUMPI PUSH1 0x20 MUL DUP3 ADD SWAP2 SWAP1 PUSH1 0x0 MSTORE PUSH1 0x20 PUSH1 0x0 KECCAK256 SWAP1 JUMPDEST DUP2 SLOAD PUSH1 0x1 PUSH1 0x1 PUSH1 0xA0 SHL SUB AND DUP2 MSTORE PUSH1 0x1 SWAP1 SWAP2 ADD SWAP1 PUSH1 0x20 ADD DUP1 DUP4 GT PUSH2 0x127A JUMPI JUMPDEST POP POP POP POP POP SWAP2 POP DUP1 DUP1 SLOAD DUP1 PUSH1 0x20 MUL PUSH1 0x20 ADD PUSH1 0x40 MLOAD SWAP1 DUP2 ADD PUSH1 0x40 MSTORE DUP1 SWAP3 SWAP2 SWAP1 DUP2 DUP2 MSTORE PUSH1 0x20 ADD DUP3 DUP1 SLOAD DUP1 ISZERO PUSH2 0x12EA JUMPI PUSH1 0x20 MUL DUP3 ADD SWAP2 SWAP1 PUSH1 0x0 MSTORE PUSH1 0x20 PUSH1 0x0 KECCAK256 SWAP1 JUMPDEST DUP2 SLOAD DUP2 MSTORE PUSH1 0x20 ADD SWAP1 PUSH1 0x1 ADD SWAP1 DUP1 DUP4 GT PUSH2 0x12D6 JUMPI JUMPDEST POP POP POP POP POP SWAP1 POP SWAP3 POP SWAP3 POP SWAP3 POP SWAP1 SWAP2 SWAP3 JUMP JUMPDEST CALLER PUSH1 0x0 SWAP1 DUP2 MSTORE PUSH1 0x20 DUP2 SWAP1 MSTORE PUSH1 0x40 SWAP1 KECCAK256 SLOAD PUSH1 0xFF AND PUSH2 0x1318 JUMPI PUSH1 0x0 DUP1 REVERT JUMPDEST DUP1 MLOAD PUSH2 0xEBB SWAP1 PUSH1 0x4 SWAP1 PUSH1 0x20 DUP5 ADD SWAP1 PUSH2 0x167E JUMP JUMPDEST PUSH1 0x0 PUSH1 0x60 PUSH1 0x0 PUSH1 0x60 PUSH1 0x0 DUP1 PUSH1 0x2 SLOAD PUSH1 0xC PUSH1 0xD SLOAD PUSH1 0x4 PUSH1 0x5 SLOAD PUSH1 0x6 SLOAD DUP5 DUP1 SLOAD PUSH2 0x1352 SWAP1 PUSH2 0x1D62 JUMP JUMPDEST DUP1 PUSH1 0x1F ADD PUSH1 0x20 DUP1 SWAP2 DIV MUL PUSH1 0x20 ADD PUSH1 0x40 MLOAD SWAP1 DUP2 ADD PUSH1 0x40 MSTORE DUP1 SWAP3 SWAP2 SWAP1 DUP2 DUP2 MSTORE PUSH1 0x20 ADD DUP3 DUP1 SLOAD PUSH2 0x137E SWAP1 PUSH2 0x1D62 JUMP JUMPDEST DUP1 ISZERO PUSH2 0x13CB JUMPI DUP1 PUSH1 0x1F LT PUSH2 0x13A0 JUMPI PUSH2 0x100 DUP1 DUP4 SLOAD DIV MUL DUP4 MSTORE SWAP2 PUSH1 0x20 ADD SWAP2 PUSH2 0x13CB JUMP JUMPDEST DUP3 ADD SWAP2 SWAP1 PUSH1 0x0 MSTORE PUSH1 0x20 PUSH1 0x0 KECCAK256 SWAP1 JUMPDEST DUP2 SLOAD DUP2 MSTORE SWAP1 PUSH1 0x1 ADD SWAP1 PUSH1 0x20 ADD DUP1 DUP4 GT PUSH2 0x13AE JUMPI DUP3 SWAP1 SUB PUSH1 0x1F AND DUP3 ADD SWAP2 JUMPDEST POP POP POP POP POP SWAP5 POP DUP3 DUP1 SLOAD PUSH2 0x13DE SWAP1 PUSH2 0x1D62 JUMP JUMPDEST DUP1 PUSH1 0x1F ADD PUSH1 0x20 DUP1 SWAP2 DIV MUL PUSH1 0x20 ADD PUSH1 0x40 MLOAD SWAP1 DUP2 ADD PUSH1 0x40 MSTORE DUP1 SWAP3 SWAP2 SWAP1 DUP2 DUP2 MSTORE PUSH1 0x20 ADD DUP3 DUP1 SLOAD PUSH2 0x140A SWAP1 PUSH2 0x1D62 JUMP JUMPDEST DUP1 ISZERO PUSH2 0x1457 JUMPI DUP1 PUSH1 0x1F LT PUSH2 0x142C JUMPI PUSH2 0x100 DUP1 DUP4 SLOAD DIV MUL DUP4 MSTORE SWAP2 PUSH1 0x20 ADD SWAP2 PUSH2 0x1457 JUMP JUMPDEST DUP3 ADD SWAP2 SWAP1 PUSH1 0x0 MSTORE PUSH1 0x20 PUSH1 0x0 KECCAK256 SWAP1 JUMPDEST DUP2 SLOAD DUP2 MSTORE SWAP1 PUSH1 0x1 ADD SWAP1 PUSH1 0x20 ADD DUP1 DUP4 GT PUSH2 0x143A JUMPI DUP3 SWAP1 SUB PUSH1 0x1F AND DUP3 ADD SWAP2 JUMPDEST POP POP POP POP POP SWAP3 POP SWAP6 POP SWAP6 POP SWAP6 POP SWAP6 POP SWAP6 POP SWAP6 POP SWAP1 SWAP2 SWAP3 SWAP4 SWAP5 SWAP6 JUMP JUMPDEST CALLER PUSH1 0x0 SWAP1 DUP2 MSTORE PUSH1 0x20 DUP2 SWAP1 MSTORE PUSH1 0x40 SWAP1 KECCAK256 SLOAD PUSH1 0xFF AND PUSH2 0x148E JUMPI PUSH1 0x0 DUP1 REVERT JUMPDEST PUSH1 0x2 DUP1 SLOAD PUSH1 0x0 SWAP2 PUSH1 0x3 SWAP2 DUP4 SWAP2 DUP3 PUSH2 0x14A4 DUP4 PUSH2 0x1D9D JUMP JUMPDEST SWAP1 SWAP2 SSTORE POP DUP2 MSTORE PUSH1 0x20 DUP1 DUP3 ADD SWAP3 SWAP1 SWAP3 MSTORE PUSH1 0x40 ADD PUSH1 0x0 KECCAK256 DUP7 MLOAD SWAP1 SWAP3 POP PUSH2 0x14CD SWAP2 DUP4 SWAP2 SWAP1 DUP9 ADD SWAP1 PUSH2 0x167E JUMP JUMPDEST POP PUSH1 0x1 DUP2 ADD SWAP4 SWAP1 SWAP4 SSTORE PUSH1 0x2 DUP4 ADD DUP1 SLOAD PUSH1 0x1 PUSH1 0x1 PUSH1 0xA8 SHL SUB NOT AND PUSH1 0x1 PUSH1 0x1 PUSH1 0xA0 SHL SUB SWAP1 SWAP4 AND SWAP3 SWAP1 SWAP3 OR PUSH1 0x1 PUSH1 0xA0 SHL OR SWAP1 SWAP2 SSTORE PUSH1 0x5 PUSH1 0x3 DUP4 ADD SSTORE PUSH1 0x0 PUSH1 0x4 DUP4 ADD DUP2 SWAP1 SSTORE PUSH1 0x8 DUP4 ADD SSTORE PUSH1 0x9 SWAP1 SWAP2 ADD SSTORE POP JUMP JUMPDEST PUSH1 0x0 DUP2 DUP2 MSTORE PUSH1 0x3 PUSH1 0x20 MSTORE PUSH1 0x40 SWAP1 KECCAK256 PUSH1 0x1 DUP2 ADD SLOAD CALLVALUE EQ PUSH2 0x153A JUMPI PUSH1 0x0 DUP1 REVERT JUMPDEST PUSH1 0x2 DUP2 ADD SLOAD PUSH1 0x1 PUSH1 0xA0 SHL SWAP1 DIV PUSH1 0xFF AND PUSH2 0x1552 JUMPI PUSH1 0x0 DUP1 REVERT JUMPDEST PUSH1 0x0 DUP2 PUSH1 0x9 ADD SLOAD GT PUSH2 0x1563 JUMPI PUSH1 0x0 DUP1 REVERT JUMPDEST PUSH1 0x2 DUP2 ADD SLOAD PUSH1 0x40 MLOAD PUSH1 0x1 PUSH1 0x1 PUSH1 0xA0 SHL SUB SWAP1 SWAP2 AND SWAP1 CALLVALUE DUP1 ISZERO PUSH2 0x8FC MUL SWAP2 PUSH1 0x0 DUP2 DUP2 DUP2 DUP6 DUP9 DUP9 CALL SWAP4 POP POP POP POP ISZERO DUP1 ISZERO PUSH2 0x159E JUMPI RETURNDATASIZE PUSH1 0x0 DUP1 RETURNDATACOPY RETURNDATASIZE PUSH1 0x0 REVERT JUMPDEST POP CALLER PUSH1 0x0 SWAP1 DUP2 MSTORE PUSH1 0xA DUP3 DUP2 ADD PUSH1 0x20 SWAP1 DUP2 MSTORE PUSH1 0x40 DUP1 DUP5 KECCAK256 DUP1 SLOAD PUSH1 0x1 PUSH1 0xFF NOT SWAP2 DUP3 AND DUP2 OR SWAP1 SWAP3 SSTORE SWAP4 SWAP1 SWAP3 MSTORE DUP4 KECCAK256 DUP1 SLOAD SWAP1 SWAP3 AND OR SWAP1 SSTORE PUSH1 0x8 DUP3 ADD DUP1 SLOAD SWAP2 PUSH2 0x15E1 DUP4 PUSH2 0x1D9D JUMP JUMPDEST SWAP1 SWAP2 SSTORE POP POP PUSH1 0x9 DUP2 ADD DUP1 SLOAD SWAP1 PUSH1 0x0 PUSH2 0x15F8 DUP4 PUSH2 0x1D4B JUMP JUMPDEST SWAP2 SWAP1 POP SSTORE POP PUSH1 0xD SLOAD DUP2 PUSH1 0x8 ADD SLOAD GT ISZERO PUSH2 0xEBB JUMPI DUP1 SLOAD PUSH1 0xC SWAP1 DUP3 SWAP1 PUSH2 0x161B SWAP1 PUSH2 0x1D62 JUMP JUMPDEST PUSH2 0x1626 SWAP3 SWAP2 SWAP1 PUSH2 0x1702 JUMP JUMPDEST POP PUSH1 0x8 ADD SLOAD PUSH1 0xD SSTORE POP JUMP JUMPDEST CALLER PUSH1 0x0 SWAP1 DUP2 MSTORE PUSH1 0x20 DUP2 SWAP1 MSTORE PUSH1 0x40 SWAP1 KECCAK256 SLOAD PUSH1 0xFF AND PUSH2 0x164D JUMPI PUSH1 0x0 DUP1 REVERT JUMPDEST PUSH1 0x0 SWAP2 DUP3 MSTORE PUSH1 0x3 PUSH1 0x20 MSTORE PUSH1 0x40 SWAP1 SWAP2 KECCAK256 PUSH1 0x2 ADD DUP1 SLOAD PUSH1 0x1 PUSH1 0x1 PUSH1 0xA0 SHL SUB NOT AND PUSH1 0x1 PUSH1 0x1 PUSH1 0xA0 SHL SUB SWAP1 SWAP3 AND SWAP2 SWAP1 SWAP2 OR SWAP1 SSTORE JUMP JUMPDEST DUP3 DUP1 SLOAD PUSH2 0x168A SWAP1 PUSH2 0x1D62 JUMP JUMPDEST SWAP1 PUSH1 0x0 MSTORE PUSH1 0x20 PUSH1 0x0 KECCAK256 SWAP1 PUSH1 0x1F ADD PUSH1 0x20 SWAP1 DIV DUP2 ADD SWAP3 DUP3 PUSH2 0x16AC JUMPI PUSH1 0x0 DUP6 SSTORE PUSH2 0x16F2 JUMP JUMPDEST DUP3 PUSH1 0x1F LT PUSH2 0x16C5 JUMPI DUP1 MLOAD PUSH1 0xFF NOT AND DUP4 DUP1 ADD OR DUP6 SSTORE PUSH2 0x16F2 JUMP JUMPDEST DUP3 DUP1 ADD PUSH1 0x1 ADD DUP6 SSTORE DUP3 ISZERO PUSH2 0x16F2 JUMPI SWAP2 DUP3 ADD JUMPDEST DUP3 DUP2 GT ISZERO PUSH2 0x16F2 JUMPI DUP3 MLOAD DUP3 SSTORE SWAP2 PUSH1 0x20 ADD SWAP2 SWAP1 PUSH1 0x1 ADD SWAP1 PUSH2 0x16D7 JUMP JUMPDEST POP PUSH2 0x16FE SWAP3 SWAP2 POP PUSH2 0x177D JUMP JUMPDEST POP SWAP1 JUMP JUMPDEST DUP3 DUP1 SLOAD PUSH2 0x170E SWAP1 PUSH2 0x1D62 JUMP JUMPDEST SWAP1 PUSH1 0x0 MSTORE PUSH1 0x20 PUSH1 0x0 KECCAK256 SWAP1 PUSH1 0x1F ADD PUSH1 0x20 SWAP1 DIV DUP2 ADD SWAP3 DUP3 PUSH2 0x1730 JUMPI PUSH1 0x0 DUP6 SSTORE PUSH2 0x16F2 JUMP JUMPDEST DUP3 PUSH1 0x1F LT PUSH2 0x1741 JUMPI DUP1 SLOAD DUP6 SSTORE PUSH2 0x16F2 JUMP JUMPDEST DUP3 DUP1 ADD PUSH1 0x1 ADD DUP6 SSTORE DUP3 ISZERO PUSH2 0x16F2 JUMPI PUSH1 0x0 MSTORE PUSH1 0x20 PUSH1 0x0 KECCAK256 SWAP2 PUSH1 0x1F ADD PUSH1 0x20 SWAP1 DIV DUP3 ADD JUMPDEST DUP3 DUP2 GT ISZERO PUSH2 0x16F2 JUMPI DUP3 SLOAD DUP3 SSTORE SWAP2 PUSH1 0x1 ADD SWAP2 SWAP1 PUSH1 0x1 ADD SWAP1 PUSH2 0x1762 JUMP JUMPDEST JUMPDEST DUP1 DUP3 GT ISZERO PUSH2 0x16FE JUMPI PUSH1 0x0 DUP2 SSTORE PUSH1 0x1 ADD PUSH2 0x177E JUMP JUMPDEST DUP1 CALLDATALOAD PUSH1 0x1 PUSH1 0x1 PUSH1 0xA0 SHL SUB DUP2 AND DUP2 EQ PUSH2 0x17A9 JUMPI PUSH1 0x0 DUP1 REVERT JUMPDEST SWAP2 SWAP1 POP JUMP JUMPDEST PUSH1 0x0 DUP3 PUSH1 0x1F DUP4 ADD SLT PUSH2 0x17BF JUMPI PUSH1 0x0 DUP1 REVERT JUMPDEST DUP2 CALLDATALOAD PUSH8 0xFFFFFFFFFFFFFFFF DUP1 DUP3 GT ISZERO PUSH2 0x17DA JUMPI PUSH2 0x17DA PUSH2 0x1DF8 JUMP JUMPDEST PUSH1 0x40 MLOAD PUSH1 0x1F DUP4 ADD PUSH1 0x1F NOT SWAP1 DUP2 AND PUSH1 0x3F ADD AND DUP2 ADD SWAP1 DUP3 DUP3 GT DUP2 DUP4 LT OR ISZERO PUSH2 0x1802 JUMPI PUSH2 0x1802 PUSH2 0x1DF8 JUMP JUMPDEST DUP2 PUSH1 0x40 MSTORE DUP4 DUP2 MSTORE DUP7 PUSH1 0x20 DUP6 DUP9 ADD ADD GT ISZERO PUSH2 0x181B JUMPI PUSH1 0x0 DUP1 REVERT JUMPDEST DUP4 PUSH1 0x20 DUP8 ADD PUSH1 0x20 DUP4 ADD CALLDATACOPY PUSH1 0x0 PUSH1 0x20 DUP6 DUP4 ADD ADD MSTORE DUP1 SWAP5 POP POP POP POP POP SWAP3 SWAP2 POP POP JUMP JUMPDEST PUSH1 0x0 PUSH1 0x20 DUP3 DUP5 SUB SLT ISZERO PUSH2 0x184D JUMPI PUSH1 0x0 DUP1 REVERT JUMPDEST PUSH2 0x1856 DUP3 PUSH2 0x1792 JUMP JUMPDEST SWAP4 SWAP3 POP POP POP JUMP JUMPDEST PUSH1 0x0 PUSH1 0x20 DUP3 DUP5 SUB SLT ISZERO PUSH2 0x186F JUMPI PUSH1 0x0 DUP1 REVERT JUMPDEST DUP2 CALLDATALOAD PUSH8 0xFFFFFFFFFFFFFFFF DUP2 GT ISZERO PUSH2 0x1886 JUMPI PUSH1 0x0 DUP1 REVERT JUMPDEST PUSH2 0x1892 DUP5 DUP3 DUP6 ADD PUSH2 0x17AE JUMP JUMPDEST SWAP5 SWAP4 POP POP POP POP JUMP JUMPDEST PUSH1 0x0 DUP1 PUSH1 0x0 DUP1 PUSH1 0x80 DUP6 DUP8 SUB SLT ISZERO PUSH2 0x18B0 JUMPI PUSH1 0x0 DUP1 REVERT JUMPDEST DUP5 CALLDATALOAD PUSH8 0xFFFFFFFFFFFFFFFF DUP2 GT ISZERO PUSH2 0x18C7 JUMPI PUSH1 0x0 DUP1 REVERT JUMPDEST PUSH2 0x18D3 DUP8 DUP3 DUP9 ADD PUSH2 0x17AE JUMP JUMPDEST SWAP5 POP POP PUSH1 0x20 DUP6 ADD CALLDATALOAD SWAP3 POP PUSH2 0x18E9 PUSH1 0x40 DUP7 ADD PUSH2 0x1792 JUMP JUMPDEST SWAP4 SWAP7 SWAP3 SWAP6 POP SWAP3 SWAP4 PUSH1 0x60 ADD CALLDATALOAD SWAP3 POP POP JUMP JUMPDEST PUSH1 0x0 PUSH1 0x20 DUP3 DUP5 SUB SLT ISZERO PUSH2 0x190B JUMPI PUSH1 0x0 DUP1 REVERT JUMPDEST POP CALLDATALOAD SWAP2 SWAP1 POP JUMP JUMPDEST PUSH1 0x0 DUP1 PUSH1 0x40 DUP4 DUP6 SUB SLT ISZERO PUSH2 0x1925 JUMPI PUSH1 0x0 DUP1 REVERT JUMPDEST DUP3 CALLDATALOAD SWAP2 POP PUSH2 0x1935 PUSH1 0x20 DUP5 ADD PUSH2 0x1792 JUMP JUMPDEST SWAP1 POP SWAP3 POP SWAP3 SWAP1 POP JUMP JUMPDEST PUSH1 0x0 DUP1 PUSH1 0x40 DUP4 DUP6 SUB SLT ISZERO PUSH2 0x1951 JUMPI PUSH1 0x0 DUP1 REVERT JUMPDEST DUP3 CALLDATALOAD SWAP2 POP PUSH1 0x20 DUP4 ADD CALLDATALOAD DUP1 ISZERO ISZERO DUP2 EQ PUSH2 0x1968 JUMPI PUSH1 0x0 DUP1 REVERT JUMPDEST DUP1 SWAP2 POP POP SWAP3 POP SWAP3 SWAP1 POP JUMP JUMPDEST PUSH1 0x0 DUP1 PUSH1 0x40 DUP4 DUP6 SUB SLT ISZERO PUSH2 0x1986 JUMPI PUSH1 0x0 DUP1 REVERT JUMPDEST DUP3 CALLDATALOAD SWAP2 POP PUSH1 0x20 DUP4 ADD CALLDATALOAD PUSH8 0xFFFFFFFFFFFFFFFF DUP2 GT ISZERO PUSH2 0x19A4 JUMPI PUSH1 0x0 DUP1 REVERT JUMPDEST PUSH2 0x19B0 DUP6 DUP3 DUP7 ADD PUSH2 0x17AE JUMP JUMPDEST SWAP2 POP POP SWAP3 POP SWAP3 SWAP1 POP JUMP JUMPDEST PUSH1 0x0 DUP1 PUSH1 0x0 DUP1 PUSH1 0x0 PUSH1 0xA0 DUP7 DUP9 SUB SLT ISZERO PUSH2 0x19D2 JUMPI PUSH1 0x0 DUP1 REVERT JUMPDEST DUP6 CALLDATALOAD SWAP5 POP PUSH1 0x20 DUP7 ADD CALLDATALOAD PUSH8 0xFFFFFFFFFFFFFFFF DUP2 GT ISZERO PUSH2 0x19F0 JUMPI PUSH1 0x0 DUP1 REVERT JUMPDEST PUSH2 0x19FC DUP9 DUP3 DUP10 ADD PUSH2 0x17AE JUMP JUMPDEST SWAP5 POP POP PUSH2 0x1A0B PUSH1 0x40 DUP8 ADD PUSH2 0x1792 JUMP JUMPDEST SWAP5 SWAP8 SWAP4 SWAP7 POP SWAP4 SWAP5 PUSH1 0x60 DUP2 ADD CALLDATALOAD SWAP5 POP PUSH1 0x80 ADD CALLDATALOAD SWAP3 SWAP2 POP POP JUMP JUMPDEST PUSH1 0x0 DUP1 PUSH1 0x40 DUP4 DUP6 SUB SLT ISZERO PUSH2 0x1A36 JUMPI PUSH1 0x0 DUP1 REVERT JUMPDEST POP POP DUP1 CALLDATALOAD SWAP3 PUSH1 0x20 SWAP1 SWAP2 ADD CALLDATALOAD SWAP2 POP JUMP JUMPDEST PUSH1 0x0 DUP1 PUSH1 0x0 PUSH1 0x60 DUP5 DUP7 SUB SLT ISZERO PUSH2 0x1A5A JUMPI PUSH1 0x0 DUP1 REVERT JUMPDEST DUP4 CALLDATALOAD SWAP3 POP PUSH1 0x20 DUP5 ADD CALLDATALOAD SWAP2 POP PUSH1 0x40 DUP5 ADD CALLDATALOAD PUSH8 0xFFFFFFFFFFFFFFFF DUP2 GT ISZERO PUSH2 0x1A7F JUMPI PUSH1 0x0 DUP1 REVERT JUMPDEST PUSH2 0x1A8B DUP7 DUP3 DUP8 ADD PUSH2 0x17AE JUMP JUMPDEST SWAP2 POP POP SWAP3 POP SWAP3 POP SWAP3 JUMP JUMPDEST PUSH1 0x0 DUP2 MLOAD DUP1 DUP5 MSTORE PUSH1 0x20 DUP1 DUP6 ADD SWAP5 POP DUP1 DUP5 ADD PUSH1 0x0 JUMPDEST DUP4 DUP2 LT ISZERO PUSH2 0x1ACE JUMPI DUP2 MLOAD PUSH1 0x1 PUSH1 0x1 PUSH1 0xA0 SHL SUB AND DUP8 MSTORE SWAP6 DUP3 ADD SWAP6 SWAP1 DUP3 ADD SWAP1 PUSH1 0x1 ADD PUSH2 0x1AA9 JUMP JUMPDEST POP SWAP5 SWAP6 SWAP5 POP POP POP POP POP JUMP JUMPDEST PUSH1 0x0 DUP3 DUP3 MLOAD DUP1 DUP6 MSTORE PUSH1 0x20 DUP1 DUP7 ADD SWAP6 POP DUP1 DUP3 PUSH1 0x5 SHL DUP5 ADD ADD DUP2 DUP7 ADD PUSH1 0x0 JUMPDEST DUP5 DUP2 LT ISZERO PUSH2 0x1B24 JUMPI PUSH1 0x1F NOT DUP7 DUP5 SUB ADD DUP10 MSTORE PUSH2 0x1B12 DUP4 DUP4 MLOAD PUSH2 0x1B61 JUMP JUMPDEST SWAP9 DUP5 ADD SWAP9 SWAP3 POP SWAP1 DUP4 ADD SWAP1 PUSH1 0x1 ADD PUSH2 0x1AF6 JUMP JUMPDEST POP SWAP1 SWAP8 SWAP7 POP POP POP POP POP POP POP JUMP JUMPDEST PUSH1 0x0 DUP2 MLOAD DUP1 DUP5 MSTORE PUSH1 0x20 DUP1 DUP6 ADD SWAP5 POP DUP1 DUP5 ADD PUSH1 0x0 JUMPDEST DUP4 DUP2 LT ISZERO PUSH2 0x1ACE JUMPI DUP2 MLOAD DUP8 MSTORE SWAP6 DUP3 ADD SWAP6 SWAP1 DUP3 ADD SWAP1 PUSH1 0x1 ADD PUSH2 0x1B45 JUMP JUMPDEST PUSH1 0x0 DUP2 MLOAD DUP1 DUP5 MSTORE PUSH1 0x0 JUMPDEST DUP2 DUP2 LT ISZERO PUSH2 0x1B87 JUMPI PUSH1 0x20 DUP2 DUP6 ADD DUP2 ADD MLOAD DUP7 DUP4 ADD DUP3 ADD MSTORE ADD PUSH2 0x1B6B JUMP JUMPDEST DUP2 DUP2 GT ISZERO PUSH2 0x1B99 JUMPI PUSH1 0x0 PUSH1 0x20 DUP4 DUP8 ADD ADD MSTORE JUMPDEST POP PUSH1 0x1F ADD PUSH1 0x1F NOT AND SWAP3 SWAP1 SWAP3 ADD PUSH1 0x20 ADD SWAP3 SWAP2 POP POP JUMP JUMPDEST PUSH1 0x60 DUP2 MSTORE PUSH1 0x0 PUSH2 0x1BC1 PUSH1 0x60 DUP4 ADD DUP7 PUSH2 0x1AD9 JUMP JUMPDEST DUP3 DUP2 SUB PUSH1 0x20 DUP5 ADD MSTORE PUSH2 0x1BD3 DUP2 DUP7 PUSH2 0x1A95 JUMP JUMPDEST SWAP1 POP DUP3 DUP2 SUB PUSH1 0x40 DUP5 ADD MSTORE PUSH2 0x1BE7 DUP2 DUP6 PUSH2 0x1B31 JUMP JUMPDEST SWAP7 SWAP6 POP POP POP POP POP POP JUMP JUMPDEST PUSH1 0x20 DUP2 MSTORE PUSH1 0x0 PUSH2 0x1856 PUSH1 0x20 DUP4 ADD DUP5 PUSH2 0x1B61 JUMP JUMPDEST PUSH1 0x0 PUSH2 0x100 DUP1 DUP4 MSTORE PUSH2 0x1C18 DUP2 DUP5 ADD DUP13 PUSH2 0x1B61 JUMP JUMPDEST PUSH1 0x20 DUP5 ADD SWAP11 SWAP1 SWAP11 MSTORE POP POP PUSH1 0x1 PUSH1 0x1 PUSH1 0xA0 SHL SUB SWAP7 SWAP1 SWAP7 AND PUSH1 0x40 DUP8 ADD MSTORE SWAP4 ISZERO ISZERO PUSH1 0x60 DUP7 ADD MSTORE PUSH1 0x80 DUP6 ADD SWAP3 SWAP1 SWAP3 MSTORE PUSH1 0xA0 DUP5 ADD MSTORE PUSH1 0xC0 DUP4 ADD MSTORE PUSH1 0xE0 SWAP1 SWAP2 ADD MSTORE SWAP2 SWAP1 POP JUMP JUMPDEST DUP5 DUP2 MSTORE PUSH1 0x80 PUSH1 0x20 DUP3 ADD MSTORE PUSH1 0x0 PUSH2 0x1C71 PUSH1 0x80 DUP4 ADD DUP7 PUSH2 0x1AD9 JUMP JUMPDEST DUP3 DUP2 SUB PUSH1 0x40 DUP5 ADD MSTORE PUSH2 0x1C83 DUP2 DUP7 PUSH2 0x1A95 JUMP JUMPDEST SWAP1 POP DUP3 DUP2 SUB PUSH1 0x60 DUP5 ADD MSTORE PUSH2 0x1C97 DUP2 DUP6 PUSH2 0x1B31 JUMP JUMPDEST SWAP8 SWAP7 POP POP POP POP POP POP POP JUMP JUMPDEST DUP7 DUP2 MSTORE PUSH1 0xC0 PUSH1 0x20 DUP3 ADD MSTORE PUSH1 0x0 PUSH2 0x1CBB PUSH1 0xC0 DUP4 ADD DUP9 PUSH2 0x1B61 JUMP JUMPDEST DUP7 PUSH1 0x40 DUP5 ADD MSTORE DUP3 DUP2 SUB PUSH1 0x60 DUP5 ADD MSTORE PUSH2 0x1CD3 DUP2 DUP8 PUSH2 0x1B61 JUMP JUMPDEST PUSH1 0x80 DUP5 ADD SWAP6 SWAP1 SWAP6 MSTORE POP POP PUSH1 0xA0 ADD MSTORE SWAP5 SWAP4 POP POP POP POP JUMP JUMPDEST PUSH1 0x0 DUP3 NOT DUP3 GT ISZERO PUSH2 0x1CFC JUMPI PUSH2 0x1CFC PUSH2 0x1DCC JUMP JUMPDEST POP ADD SWAP1 JUMP JUMPDEST PUSH1 0x0 DUP3 PUSH2 0x1D10 JUMPI PUSH2 0x1D10 PUSH2 0x1DE2 JUMP JUMPDEST POP DIV SWAP1 JUMP JUMPDEST PUSH1 0x0 DUP2 PUSH1 0x0 NOT DIV DUP4 GT DUP3 ISZERO ISZERO AND ISZERO PUSH2 0x1D2F JUMPI PUSH2 0x1D2F PUSH2 0x1DCC JUMP JUMPDEST POP MUL SWAP1 JUMP JUMPDEST PUSH1 0x0 DUP3 DUP3 LT ISZERO PUSH2 0x1D46 JUMPI PUSH2 0x1D46 PUSH2 0x1DCC JUMP JUMPDEST POP SUB SWAP1 JUMP JUMPDEST PUSH1 0x0 DUP2 PUSH2 0x1D5A JUMPI PUSH2 0x1D5A PUSH2 0x1DCC JUMP JUMPDEST POP PUSH1 0x0 NOT ADD SWAP1 JUMP JUMPDEST PUSH1 0x1 DUP2 DUP2 SHR SWAP1 DUP3 AND DUP1 PUSH2 0x1D76 JUMPI PUSH1 0x7F DUP3 AND SWAP2 POP JUMPDEST PUSH1 0x20 DUP3 LT DUP2 EQ ISZERO PUSH2 0x1D97 JUMPI PUSH4 0x4E487B71 PUSH1 0xE0 SHL PUSH1 0x0 MSTORE PUSH1 0x22 PUSH1 0x4 MSTORE PUSH1 0x24 PUSH1 0x0 REVERT JUMPDEST POP SWAP2 SWAP1 POP JUMP JUMPDEST PUSH1 0x0 PUSH1 0x0 NOT DUP3 EQ ISZERO PUSH2 0x1DB1 JUMPI PUSH2 0x1DB1 PUSH2 0x1DCC JUMP JUMPDEST POP PUSH1 0x1 ADD SWAP1 JUMP JUMPDEST PUSH1 0x0 DUP3 PUSH2 0x1DC7 JUMPI PUSH2 0x1DC7 PUSH2 0x1DE2 JUMP JUMPDEST POP MOD SWAP1 JUMP JUMPDEST PUSH4 0x4E487B71 PUSH1 0xE0 SHL PUSH1 0x0 MSTORE PUSH1 0x11 PUSH1 0x4 MSTORE PUSH1 0x24 PUSH1 0x0 REVERT JUMPDEST PUSH4 0x4E487B71 PUSH1 0xE0 SHL PUSH1 0x0 MSTORE PUSH1 0x12 PUSH1 0x4 MSTORE PUSH1 0x24 PUSH1 0x0 REVERT JUMPDEST PUSH4 0x4E487B71 PUSH1 0xE0 SHL PUSH1 0x0 MSTORE PUSH1 0x41 PUSH1 0x4 MSTORE PUSH1 0x24 PUSH1 0x0 REVERT INVALID LOG2 PUSH5 0x6970667358 0x22 SLT KECCAK256 0x5E NOT 0xA8 LOG1 PUSH32 0xEFA6474454171A80D1D03393E40B396F1EAA7C2CC00615B8894F1464736F6C63 NUMBER STOP ADDMOD SMOD STOP CALLER "},"gasEstimates":{"creation":{"codeDepositCost":"1549600","executionCost":"infinite","totalCost":"infinite"},"external":{"addManager(address)":"26853","bestSeller()":"infinite","bestSellerQuantity()":"2386","buy(uint256)":"infinite","changeStoreName(string)":"infinite","createProduct(string,uint256,address,uint256)":"infinite","deleteManager(address)":"28999","getProductsCount()":"2381","getProductsReviews(uint256)":"infinite","getStoreReviews()":"infinite","getStoreSummary()":"infinite","managers(address)":"2644","numProducts()":"2384","numStoreReviews()":"2364","productAvailable(uint256,bool)":"31981","products(uint256)":"infinite","reviewProduct(uint256,uint256,string)":"infinite","reviewStore(uint256,string)":"infinite","storeName()":"infinite","storeOwner()":"2386","storeRatings(uint256)":"4620","storeReviewers(uint256)":"4685","storeScore()":"2385","storeWrittenReviews(uint256)":"infinite","updateInventory(uint256,uint256)":"24683","updateProduct(uint256,string,address,uint256,uint256)":"infinite","updateProductName(uint256,string)":"infinite","updateProductPrice(uint256,uint256)":"24683","updateProductSeller(uint256,address)":"26951"}},"methodIdentifiers":{"addManager(address)":"2d06177a","bestSeller()":"4a64090b","bestSellerQuantity()":"07aa0bc4","buy(uint256)":"d96a094a","changeStoreName(string)":"c6211a56","createProduct(string,uint256,address,uint256)":"d793a0e6","deleteManager(address)":"96799760","getProductsCount()":"5786fd40","getProductsReviews(uint256)":"0a366cc8","getStoreReviews()":"c577d23c","getStoreSummary()":"d69d5094","managers(address)":"fdff9b4d","numProducts()":"ac964f21","numStoreReviews()":"06acdcfe","productAvailable(uint256,bool)":"4a02990c","products(uint256)":"7acc0b20","reviewProduct(uint256,uint256,string)":"00f73d4c","reviewStore(uint256,string)":"2c0d259d","storeName()":"521936e6","storeOwner()":"818fb3e0","storeRatings(uint256)":"b365221d","storeReviewers(uint256)":"8af213e2","storeScore()":"8d8ef2f0","storeWrittenReviews(uint256)":"b1b53c38","updateInventory(uint256,uint256)":"522547a8","updateProduct(uint256,string,address,uint256,uint256)":"20023f30","updateProductName(uint256,string)":"26af03e2","updateProductPrice(uint256,uint256)":"9c3bddb2","updateProductSeller(uint256,address)":"e2090271"}},"storageLayout":{"storage":[{"astId":78,"contract":"Store.sol:Store","label":"managers","offset":0,"slot":"0","type":"t_mapping(t_address,t_bool)"},{"astId":80,"contract":"Store.sol:Store","label":"storeOwner","offset":0,"slot":"1","type":"t_address"},{"astId":82,"contract":"Store.sol:Store","label":"numProducts","offset":0,"slot":"2","type":"t_uint256"},{"astId":87,"contract":"Store.sol:Store","label":"products","offset":0,"slot":"3","type":"t_mapping(t_uint256,t_struct(Product)74_storage)"},{"astId":89,"contract":"Store.sol:Store","label":"storeName","offset":0,"slot":"4","type":"t_string_storage"},{"astId":91,"contract":"Store.sol:Store","label":"storeScore","offset":0,"slot":"5","type":"t_uint256"},{"astId":93,"contract":"Store.sol:Store","label":"numStoreReviews","offset":0,"slot":"6","type":"t_uint256"},{"astId":96,"contract":"Store.sol:Store","label":"storeWrittenReviews","offset":0,"slot":"7","type":"t_array(t_string_storage)dyn_storage"},{"astId":99,"contract":"Store.sol:Store","label":"storeReviewers","offset":0,"slot":"8","type":"t_array(t_address)dyn_storage"},{"astId":102,"contract":"Store.sol:Store","label":"storeRatings","offset":0,"slot":"9","type":"t_array(t_uint256)dyn_storage"},{"astId":106,"contract":"Store.sol:Store","label":"storeShopper","offset":0,"slot":"10","type":"t_mapping(t_address,t_bool)"},{"astId":110,"contract":"Store.sol:Store","label":"storeReviews","offset":0,"slot":"11","type":"t_mapping(t_address,t_bool)"},{"astId":112,"contract":"Store.sol:Store","label":"bestSeller","offset":0,"slot":"12","type":"t_string_storage"},{"astId":114,"contract":"Store.sol:Store","label":"bestSellerQuantity","offset":0,"slot":"13","type":"t_uint256"}],"types":{"t_address":{"encoding":"inplace","label":"address","numberOfBytes":"20"},"t_array(t_address)dyn_storage":{"base":"t_address","encoding":"dynamic_array","label":"address[]","numberOfBytes":"32"},"t_array(t_string_storage)dyn_storage":{"base":"t_string_storage","encoding":"dynamic_array","label":"string[]","numberOfBytes":"32"},"t_array(t_uint256)dyn_storage":{"base":"t_uint256","encoding":"dynamic_array","label":"uint256[]","numberOfBytes":"32"},"t_bool":{"encoding":"inplace","label":"bool","numberOfBytes":"1"},"t_mapping(t_address,t_bool)":{"encoding":"mapping","key":"t_address","label":"mapping(address => bool)","numberOfBytes":"32","value":"t_bool"},"t_mapping(t_uint256,t_struct(Product)74_storage)":{"encoding":"mapping","key":"t_uint256","label":"mapping(uint256 => struct Store.Product)","numberOfBytes":"32","value":"t_struct(Product)74_storage"},"t_string_storage":{"encoding":"bytes","label":"string","numberOfBytes":"32"},"t_struct(Product)74_storage":{"encoding":"inplace","label":"struct Store.Product","members":[{"astId":42,"contract":"Store.sol:Store","label":"description","offset":0,"slot":"0","type":"t_string_storage"},{"astId":44,"contract":"Store.sol:Store","label":"price","offset":0,"slot":"1","type":"t_uint256"},{"astId":46,"contract":"Store.sol:Store","label":"seller","offset":0,"slot":"2","type":"t_address"},{"astId":48,"contract":"Store.sol:Store","label":"available","offset":20,"slot":"2","type":"t_bool"},{"astId":50,"contract":"Store.sol:Store","label":"reviewScore","offset":0,"slot":"3","type":"t_uint256"},{"astId":52,"contract":"Store.sol:Store","label":"totalReviews","offset":0,"slot":"4","type":"t_uint256"},{"astId":55,"contract":"Store.sol:Store","label":"writtenReviews","offset":0,"slot":"5","type":"t_array(t_string_storage)dyn_storage"},{"astId":58,"contract":"Store.sol:Store","label":"reviewers","offset":0,"slot":"6","type":"t_array(t_address)dyn_storage"},{"astId":61,"contract":"Store.sol:Store","label":"ratings","offset":0,"slot":"7","type":"t_array(t_uint256)dyn_storage"},{"astId":63,"contract":"Store.sol:Store","label":"numSoldProduct","offset":0,"slot":"8","type":"t_uint256"},{"astId":65,"contract":"Store.sol:Store","label":"availableInventory","offset":0,"slot":"9","type":"t_uint256"},{"astId":69,"contract":"Store.sol:Store","label":"buyers","offset":0,"slot":"10","type":"t_mapping(t_address,t_bool)"},{"astId":73,"contract":"Store.sol:Store","label":"reviews","offset":0,"slot":"11","type":"t_mapping(t_address,t_bool)"}],"numberOfBytes":"384"},"t_uint256":{"encoding":"inplace","label":"uint256","numberOfBytes":"32"}}},"userdoc":{"kind":"user","methods":{},"version":1}}